:100000000C94E4000C940C010C940C010C940C0165
:100010000C940C010C940C010C940C010C940C012C
:100020000C940C010C940C010C940C010C940C011C
:100030000C940C010C940C010C940C010C940C010C
:100040000C94A6080C940C010C94F8020C942A034E
:100050000C940C010C940C010C940C010C940C01EC
:100060000C94B80C0C940C01005EBCE2613FDD8383
:10007000C29C7E20A3FD1F419DC3217FFCA2401E88
:100080005F01E3BD3E6082DC237D9FC1421CFEA078
:10009000E1BF5D0380DE3C62BEE0025CDF81633D68
:1000A0007C22C09E1D43A1FF4618FAA427799BC558
:1000B00084DA3866E5BB5907DB856739BAE4065848
:1000C0001947A5FB7826C49A653BD987045AB8E638
:1000D000A7F91B45C6987A24F8A6441A99C7257B28
:1000E0003A6486D85B05E7B98CD2306EEDB3510F18
:1000F0004E10F2AC2F7193CD114FADF3702ECC9208
:10010000D38D6F31B2EC0E50AFF1134DCE90722CF7
:100110006D33D18F0C52B0EE326C8ED0530DEFB1E7
:10012000F0AE4C1291CF2D73CA947628ABF51749D7
:100130000856B4EA6937D58B5709EBB536688AD4C7
:1001400095CB2977F4AA4816E9B7550B88D6346AB7
:100150002B7597C94A14F6A8742AC896154BA9F7A7
:10016000B6E80A54D7896B35000000080002010088
:100170000003040700000000000000000102040862
:100180001020408001020408102001020408102001
:10019000040404040404040402020202020203032D
:1001A00003030303000000002300260029000000D1
:1001B0000000250028002B0000000000240027007C
:1001C0002A00A8015A03080C11241FBECFEFD8E063
:1001D000DEBFCDBF11E0A0E0B1E0E6EEF9E202C083
:1001E00005900D92AA3AB107D9F723E0AAEAB1E047
:1001F00001C01D92A039B207E1F710E0C4EED0E0D3
:1002000004C02197FE010E940E12C13ED107C9F71A
:100210000E94B2040C94F1140C9400000F931F93ED
:10022000CF93DF936091CC017091CD014AE050E013
:100230008AE292E00E94BB0760E071E08AE292E00D
:100240000E940B0705ED11E0C0E0D0E08091CC01E9
:100250009091CD01C817D9070CF04BC04AE050E08F
:10026000BE018AE292E00E94BB076FE071E08AE281
:1002700092E00E94FE064AEA51E0BE018AEC91E05B
:100280000E94450FBC018AE292E00E94FE0667E0F0
:10029000C80107970E94B106085F1F4FF801389701
:1002A0009081891751F061E171E08AE292E0DF917B
:1002B000CF911F910F910C94FE0665E271E08AE2E6
:1002C00092E00E94FE0641E06C2F8AEC91E00E94D1
:1002D000D70EAB01BC0122E030E08AE292E00E943E
:1002E000A40865E671E08AE292E00E940B0721967D
:1002F000ADCF8AE292E0DF91CF911F910F910C94E4
:10030000070726E040E051EE60E070E08AE292E00C
:100310000E9493026BE271E08AE292E00E940B0776
:100320006CE271E080E090E00E9415098AEC91E0B7
:100330000E94420F0C940E018AEC91E00E94420F41
:100340000E940E0168EE73E080E090E00C941509C5
:100350008F92AF92CF92EF920F9387E0882E96E024
:10036000A92E25E0C22E34E0E32E00E021E042E099
:1003700067E282E192E00E94130462E084E092E08E
:100380000E94F50564E072E08AEC91E00F91EF9035
:10039000CF90AF908F900C94E50DFC01918D228D44
:1003A000892F90E0805C9F4F821B91098F73992762
:1003B0000895FC01918D828D981731F0828DE80FA0
:1003C000F11D858D90E008958FEF9FEF0895FC015A
:1003D000918D828D981761F0828DDF01A80FB11D7C
:1003E0005D968C91928D9F5F9F73928F90E00895A0
:1003F0008FEF9FEF089580E593E0892B49F080E02F
:1004000090E0892B29F00E94500381110C94000088
:100410000895FC01848DDF01A80FB11DA35ABF4FC1
:100420002C91848D90E001968F739927848FA689F3
:10043000B7892C93A089B1898C9180648C93938D1A
:10044000848D981306C00288F389E02D80818F7D0A
:1004500080830895CF93DF93EC01888D8823C9F0C2
:10046000EA89FB89808185FD05C0A889B9898C91BD
:1004700086FD0FC00FB607FCF5CF808185FFF2CF58
:10048000A889B9898C9185FFEDCFCE010E94090220
:10049000E7CFDF91CF910895EF92FF920F931F93D3
:1004A000CF93DF93EC0181E0888F9B8D8C8D981327
:1004B00005C0E889F989808185FD24C0F62E0B8D61
:1004C00010E00F5F1F4F0F731127E02E8C8DE81285
:1004D0000CC00FB607FCFACFE889F989808185FF47
:1004E000F5CFCE010E940902F1CF8B8DFE01E80FFE
:1004F000F11DE35AFF4FF0820B8FEA89FB8980815F
:10050000806207C0EE89FF896083E889F98980816C
:100510008064808381E090E0DF91CF911F910F9103
:10052000FF90EF900895CF92DF92EF92FF921F938A
:10053000CF93DF93EC016A017B01122FE889F989DF
:1005400082E080834115514E61057105B1F060E094
:1005500079E08DE390E0A70196010E94EC11DA01A9
:10056000C9010197A109B109B695A79597958795F6
:10057000AC01411580E15807A8F0E889F98910829B
:1005800060E874E88EE190E0A70196010E94EC110A
:10059000BA01A90141505109610971097695679520
:1005A00057954795EC85FD855083EE85FF85408303
:1005B000188EEC89FD891083EA89FB89808180612E
:1005C0008083EA89FB89808188608083EA89FB894E
:1005D000808180688083EA89FB8980818F7D808328
:1005E000DF91CF911F91FF90EF90DF90CF90089512
:1005F0001F920F920FB60F9211242F938F939F93F8
:10060000EF93FF93E0913A02F0913B028081E091F9
:100610004002F091410282FD12C09081809143021C
:100620008F5F8F7320914402821751F0E091430253
:10063000F0E0E65DFD4F958F8093430201C080811D
:10064000FF91EF919F918F912F910F900FBE0F907F
:100650001F9018951F920F920FB60F9211242F938F
:100660003F934F935F936F937F938F939F93AF933A
:10067000BF93EF93FF938AE292E00E940902FF91F9
:10068000EF91BF91AF919F918F917F916F915F910A
:100690004F913F912F910F900FBE0F901F90189583
:1006A0008AE292E00E94CD0121E0892B09F420E04A
:1006B000822F0895EAE2F2E01382128288EE93E03C
:1006C000A0E0B0E084839583A683B78387E491E0BC
:1006D0009183808385EC90E09587848784EC90E01B
:1006E0009787868780EC90E0918B808B81EC90E0FF
:1006F000938B828B82EC90E0958B848B86EC90E0E0
:10070000978B868B118E128E138E148E089521E096
:1007100001C0220F6A95EAF7DC011B962C931B9708
:1007200019964C931997ED91FC910084F185E02D79
:1007300060E00994FC018385882391F091859111F3
:1007400003C0611105C006C0913021F4611102C0DF
:10075000848701C014866485CF010D960C94670AC6
:1007600008950F931F93CF93DF938C01EC012D9687
:10077000FC016285CE010E944E0A019769F461E096
:10078000CE010E94360AF801148260E0CE010E9478
:10079000670A81E090E002C080E090E0DF91CF91B5
:1007A0001F910F9108958F92AF92CF92EF920F9376
:1007B000CF93DF93CDB7DEB7FC0162871386148633
:1007C000118681E0982F01C0990F4A95EAF7918B25
:1007D000982F01C0990F2A95EAF7928B982F01C0A4
:1007E000990F0A95EAF7938B982F01C0990FEA9415
:1007F000EAF7948B982F01C0990FCA94EAF7958B6A
:10080000982F01C0990FAA94EAF7968B01C0880F20
:100810008A94EAF7878BDF91CF910F91EF90CF9079
:10082000AF908F9008956F927F928F92AF92CF92F8
:10083000EF920F93CF93DF9300D01F92CDB7DEB727
:100840003C012B834A8369830E949B0A87E591E0E0
:10085000F30191838083C3010D960E942F0A2B819F
:100860004A816981C3010E94D3030F900F900F90BA
:10087000DF91CF910F91EF90CF90AF908F907F90BD
:100880006F900895FF920F931F93CF93DF93EC0126
:10089000F62E8C01035F1F4F9989692BC8010E94B6
:1008A000670A998990956F2D6923C801DF91CF91CF
:1008B0001F910F91FF900C94670A362FFC017496DC
:1008C00024E060E030FF02C05081652B3695215056
:1008D00031962111F7CF413011F4FC014389FC011D
:1008E0002485622B642B0C9442040F931F93CF93A7
:1008F000DF93062F0F70423019F440E0602F10C0D4
:10090000142F262FEC0130E0B90184E0759567952E
:100910008A95E1F7CE010E945D04412F602FCE0140
:10092000DF91CF911F910F910C945D040F931F9352
:10093000CF93DF9300D01F92CDB7DEB78C012B830E
:100940004A8369830E94B1032B814A816981C8016E
:100950000F900F900F90DF91CF911F910F910C94FA
:10096000C20A08950E945C090E94B1040E9481019C
:10097000CBEFD1E00E949C012097E1F30E94FB01A4
:10098000F9CFFF920F931F93CF93DF93FC01008168
:10099000C181D281F8948981F02EF0948F218983CE
:1009A00078941DE7115029F182E090E00E945109EE
:1009B00088818023B9F3F8948A818F218A83898181
:1009C000802B8983789480EE91E00E945109F894FD
:1009D0008981F822F98286E490E00E945109888199
:1009E000082311E009F010E078948AE991E00E9470
:1009F0005109812FDF91CF911F910F91FF900895A1
:100A00001F93CF93DF93FC011081C181D281812F8D
:100A1000809560FF12C0F8949A8189238A83898126
:100A2000812B89838AE090E00E9451098A81182BEA
:100A30001A83789487E390E011C0F8949A8189230F
:100A40008A838981812B898381E490E00E94510906
:100A50008A81182B1A83789485E090E0DF91CF91FA
:100A60001F910C9451090F931F93CF93DF93FC01B7
:100A70001081C181D281F8948981812B89838A81F7
:100A8000012F009580238A8383E090E00E94510922
:100A90008981082309838AE090E00E945109C88176
:100AA000789485E390E00E9451091C2381E009F4C9
:100AB00080E0DF91CF911F910F910895CF92DF9247
:100AC000EF92FF920F931F93CF93DF931F92CDB7B7
:100AD000DEB76C01E62E08E010E0FF24F39461E03D
:100AE0008F2D8E2109F460E0C60149830E94000524
:100AF000FF0C0150110949810115110581F74111C0
:100B000015C0F894D6011196ED91FC911297918140
:100B10008C918095892381831196ED91FC91129798
:100B200092818C9180958923828378940F90DF91B4
:100B3000CF911F910F91FF90EF90DF90CF9008958C
:100B4000EF92FF920F931F93CF93DF937C0108E006
:100B500010E0C0E0D1E0C7010E9433058111CD2B28
:100B6000DD0F01501109B9F78C2FDF91CF911F9143
:100B70000F91FF90EF900895CF92DF92EF92FF9246
:100B80000F931F93CF93DF931F92CDB7DEB78C01E6
:100B9000F62E40E065E579830E945E05CF2C7981D1
:100BA000D72E760188E0E80EF11CF60161916F0105
:100BB00040E0C8010E945E05CE14DF04B1F70F903B
:100BC000DF91CF911F910F91FF90EF90DF90CF9029
:100BD0000895FC01138615861486DC011B96339656
:100BE0001E92AE17BF07E1F708950F931F93CF939F
:100BF0008C01C62F60E08C2F0E94C0096C2F70E022
:100C0000FB01E458FE4FE491D801EC93FB01E0575F
:100C1000FE4FE491F0E0EE0FFF1FEC55FE4F859183
:100C20009491F80192838183C801CF911F910F9114
:100C30000C94E905AF92BF92CF92DF92EF92FF92B0
:100C40000F931F93CF93DF931F92CDB7DEB75C0155
:100C5000D62EE72EFC018585811107C0C501498389
:100C60000E94C1044981811106C0F50113861586D1
:100C7000148680E06AC0442319F040E060EF02C0AF
:100C800040E06CEEC5010E945E0501E0F12CC12C34
:100C900011E0C5010E943305682FC50169830E94D8
:100CA00033056981613019F48130B9F433C04F2DB7
:100CB00050E068131BC0F5018385181730F4E40F6A
:100CC000F51F8381802349F402C0181731F060E0DA
:100CD000193058F4F501148708C0F501EF0DF11D26
:100CE0008381802B838361E009C0C12EF501E40F6D
:100CF000F51F9381802F809589238383C5010E94EE
:100D000000051F5F000F11F4F39401E0F7E0FF15F9
:100D100008F0BFCF113408F4A8CFF501C386C11085
:100D200002C081E08587F5018381882309F49DCF86
:100D3000D5011396ED2DFE2D9501255F3F4F8D9129
:100D40008193A217B307D9F781E00F90DF91CF917C
:100D50001F910F91FF90EF90DF90CF90BF90AF90D9
:100D60000895DC01E0E0615038F08D91E827F0E073
:100D7000E859FF4FE491F7CF8E2F0895CF92DF927D
:100D8000EF92FF920F931F93CF93DF936C017A0141
:100D90008B01C0E0D0E0CE15DF0589F0D8016D9160
:100DA0008D01D601ED91FC910190F081E02DC601FD
:100DB0000995892B11F47E0102C02196ECCFC70161
:100DC000DF91CF911F910F91FF90EF90DF90CF9027
:100DD00008956115710579F0FB0101900020E9F794
:100DE0003197AF01461B570BDC01ED91FC9102805E
:100DF000F381E02D099480E090E008950C94E906D9
:100E0000DC01ED91FC910190F081E02D099463E605
:100E100071E00C94E9060F931F93CF93DF93EC01DD
:100E20000E94E9068C01CE010E940707800F911FE6
:100E3000DF91CF911F910F9108958F929F92AF9262
:100E4000BF92CF92DF92EF92FF920F931F93CF93B7
:100E5000DF93CDB7DEB7A1970FB6F894DEBF0FBE14
:100E6000CDBF7C01D42EC52EDB0119A2223008F49F
:100E70002AE08E010F5D1F4F822E912CA12CB12CE8
:100E80006D2D7C2DCD01A50194010E94EC11D22E77
:100E9000C32EDA01015011096A30710581059105EF
:100EA00010F4605D01C0695CF8016083232B242B82
:100EB000252B31F7B801C7010E94E906A1960FB6AC
:100EC000F894DEBF0FBECDBFDF91CF911F910F9180
:100ED000FF90EF90DF90CF90BF90AF909F908F905A
:100EE0000895CF92DF92EF92FF920F931F93CF93CB
:100EF000DF93EC016A017B012115310579F4E8816A
:100F0000F9810190F081E02D642FDF91CF911F9145
:100F10000F91FF90EF90DF90CF9009942A30310528
:100F2000E9F477FF1AC06DE20E9400078C014427A4
:100F30005527BA014C195D096E097F092AE0CE01D7
:100F40000E941D07800F911FDF91CF911F910F917C
:100F5000FF90EF90DF90CF9008952AE0B701A601AF
:100F6000CE01DF91CF911F910F91FF90EF90DF9015
:100F7000CF900C941D079A01AB01770F660B770B8E
:100F80000C9471074F925F926F927F928F929F9213
:100F9000AF92BF92CF92DF92EF92FF92CF93DF9307
:100FA000EC016A017B01B22E9A01AB01C701B601C7
:100FB0000E94E711882319F066E671E027C0260138
:100FC0003701E89477F82FEF3FEF4FE75FE7C30172
:100FD000B2010E94E71181110DC02FEF3FEF4FE7E3
:100FE0005FE7C301B2010E941D1018161CF46AE6E7
:100FF00071E00CC02FEF3FEF4FE75FE4C701B60190
:101000000E94751118169CF46EE671E0CE01DF9116
:10101000CF91FF90EF90DF90CF90BF90AF909F90D7
:101020008F907F906F905F904F900C94E9062FEF18
:101030003FEF4FE75FECC701B6010E941D1087FD2F
:10104000E3CF20E030E0A901C701B6010E941D10E6
:1010500087FF0AC06DE2CE010E9400074C01F7FA3B
:10106000F094F7F8F09402C0812C912CA12C60E050
:1010700070E080E09FE3AB1441F020E030E040E21C
:1010800051E40E942210A394F6CF9B01AC01C7014A
:10109000B6010E94B10F2B013C010E9494106B011C
:1010A0007C010E94C3109B01AC01C301B2010E94EC
:1010B000B00F2B013C012AE0B701A601CE010E942E
:1010C0001D077C01E80CF91CBB2031F06EE2CE015B
:1010D0000E940007E80EF91EDB2CDD2029F120E03C
:1010E00030E040E251E4C301B2010E947A112B01C9
:1010F0003C010E9494104B01A12CB12C2AE0B501B7
:10110000A401CE010E941D07E80EF91EC501B4011D
:101110000E94C3109B01AC01C301B2010E94B00F39
:101120002B013C01DA94D9CFC701DF91CF91FF9019
:10113000EF90DF90CF90BF90AF909F908F907F9077
:101140006F905F904F9008950C94C2071F920F927A
:101150000FB60F9211242F933F938F939F93AF93CA
:10116000BF938091C8029091C902A091CA02B09128
:10117000CB023091C70223E0230F2D3720F40196D4
:10118000A11DB11D05C026E8230F0296A11DB11DAA
:101190002093C7028093C8029093C902A093CA0209
:1011A000B093CB028091CC029091CD02A091CE025F
:1011B000B091CF020196A11DB11D8093CC029093F6
:1011C000CD02A093CE02B093CF02BF91AF919F9179
:1011D0008F913F912F910F900FBE0F901F901895F8
:1011E0003FB7F8948091CC029091CD02A091CE02AD
:1011F000B091CF0226B5A89B05C02F3F19F00196EC
:10120000A11DB11D3FBFBA2FA92F982F8827820F8C
:10121000911DA11DB11DBC01CD0142E0660F771FDC
:10122000881F991F4A95D1F708958F929F92AF9288
:10123000BF92CF92DF92EF92FF926B017C010E94EE
:10124000F0084B015C01C114D104E104F10401F187
:101250000E942E0A0E94F008DC01CB01881999092E
:10126000AA09BB09883E9340A105B10560F321E0BE
:10127000C21AD108E108F10888EE880E83E0981EB2
:10128000A11CB11CC114D104E104F10419F7DBCF96
:10129000FF90EF90DF90CF90BF90AF909F908F9096
:1012A00008958230910538F0880F991F880F991F93
:1012B00005970197F1F70895789484B5826084BD0D
:1012C00084B5816084BD85B5826085BD85B581604A
:1012D00085BDEEE6F0E0808181608083E1E8F0E0AA
:1012E0001082808182608083808181608083E0E8D9
:1012F000F0E0808181608083E1EBF0E080818460B8
:101300008083E0EBF0E0808181608083EAE7F0E0B9
:10131000808184608083808182608083808181601D
:1013200080838081806880831092C100089583301B
:1013300081F028F4813099F08230A1F0089587304F
:10134000A9F08830B9F08430D1F4809180008F7D8D
:1013500003C0809180008F7780938000089584B5CA
:101360008F7702C084B58F7D84BD08958091B000D1
:101370008F7703C08091B0008F7D8093B000089577
:10138000CF93DF9390E0FC01E458FE4F2491FC01E1
:10139000E057FE4F8491882361F190E0880F991FF8
:1013A000FC01E854FE4FC591D491FC01E255FE4F7B
:1013B000A591B491611109C09FB7F89488812095D7
:1013C00082238883EC912E230BC0623061F49FB797
:1013D000F8943881822F809583238883EC912E2B7B
:1013E0002C939FBF06C08FB7F894E8812E2B2883DB
:1013F0008FBFDF91CF9108951F93CF93DF93282F55
:1014000030E0F901E859FE4F8491F901E458FE4FAC
:10141000D491F901E057FE4FC491CC23C9F0162FA7
:1014200081110E949709EC2FF0E0EE0FFF1FE255AB
:10143000FE4FA591B4918FB7F894111105C09C91FE
:10144000ED2FE095E92302C0EC91ED2BEC938FBFDB
:10145000DF91CF911F9108950E9414120895FC010D
:1014600012828FEF8183108213820895FC018381A1
:10147000882331F0611103C08FEF818308951182B9
:10148000089580ED92E00E94E80B80ED92E00E94CA
:10149000050C91E0811190E0892F0895CF93DF939F
:1014A000EC016A8380ED92E00E94DE0B6A81CE013E
:1014B0000E94410A8B83882329F080ED92E00E94EC
:1014C0004B0B88838B8190E0DF91CF910895CF9370
:1014D000DF93FC0123812223B1F0EC01818180950F
:1014E00068236083628180ED92E00E94E80B68814E
:1014F00080ED92E00E949F0B80ED92E00E94050C2F
:10150000282F30E002C020E030E081E090E0232B83
:1015100011F080E090E0DF91CF9108950895089553
:10152000DC01ED91FC910284F385E02D41E0099509
:1015300081E090E00895FC011382128226E731E0F9
:10154000318320830895DC01ED91FC910084F185C5
:10155000E02D6FEF0994DC01ED91FC910284F3859D
:10156000E02D40E0099461E00E94AB0A80ED97E035
:101570000C945109FC016581262F246025836C6041
:101580000C94AB0ACF93DF93EC01423018F08C81BE
:1015900088608C834F836887222329F0413019F4B7
:1015A0008C8184608C8364E670E080E090E00E942F
:1015B00015096C8164FD31C0E881F9810284F385ED
:1015C000E02D42E063E0CE01099584E991E10E94BB
:1015D0005109E881F9810284F385E02D42E063E05E
:1015E000CE01099586E990E00E945109E881F981D0
:1015F0000284F385E02D42E063E0CE01099586E99F
:1016000090E00E945109E881F9810284F385E02D80
:1016100042E062E0CE01099516C06062CE010E94F0
:10162000AB0A84E991E10E9451096C816062CE01AC
:101630000E94AB0A86E990E00E9451096C816062C9
:10164000CE010E94AB0A86E990E00E9451096C81AC
:101650006062CE010E94AB0A8CE390E00E945109C7
:1016600084E08D83CE010E94BA0ACE010E94B30AA3
:1016700082E08E8366E0CE010E94AB0ACE01DF914C
:10168000CF910C94A30A8091000390E02091010374
:10169000821B91090895909101038091000398178E
:1016A00050F4E92FF0E0EE5FFC4F208130E09F5FC7
:1016B0009093010302C02FEF3FEFC9010895E0911D
:1016C000010380910003E81730F4F0E0EE5FFC4F77
:1016D000808190E008958FEF9FEF08950895CF9255
:1016E000DF92EF92FF920F931F93CF93DF937C01D2
:1016F000262F972F8A018091DC02882391F0C62F34
:10170000D72F6E01C40ED51ECC15DD0571F0699181
:10171000D701ED91FC910190F081E02DC701099571
:10172000F3CF642F822F0E94800CC801DF91CF91EC
:101730001F910F91FF90EF90DF90CF900895CF937E
:10174000DF931F92CDB7DEB769832091DC0222239D
:10175000D1F02091DD02203240F021E030E0FC01A8
:101760003383228380E090E015C08091DE02E82F71
:10177000F0E0E152FD4F998190838F5F8093DE020C
:101780008093DD0205C061E0CE0101960E94800CCD
:1017900081E090E00F90DF91CF910895FC011382DA
:1017A000128288EE93E0A0E0B0E084839583A68364
:1017B000B78386E891E091838083089510920103B6
:1017C000109200031092DE021092DD020C940C0CB9
:1017D00081E08093DC026093FF021092DE0210929F
:1017E000DD0208950F93062F21E04091DD026FED99
:1017F00072E08091FF020E942A0C1092DE02109289
:10180000DD021092DC020F91089561E00C94F20B5E
:1018100080ED92E00C94CE0B10928F0381E08093C8
:101820008D0310928C0361E082E10E94FC0961E06B
:1018300083E10E94FC09E9EBF0E080818E7F8083E8
:1018400080818D7F808388E48093B80085E48093D5
:10185000BC0008950F93413208F04AC090918F0365
:101860009111FCCF32E030938F0300938D033FEF53
:10187000309322031092670340936603FB0168E6EE
:1018800073E0DB013A2F361B341718F431913D9386
:10189000F9CF10928E0330918E03880F832B8093A3
:1018A0008E0380918C03813061F410928C038091BF
:1018B0008E038093BB008091BC0083FDF8CF85EC44
:1018C00001C085EE8093BC00222321F080918F031C
:1018D0008230D1F3809122038F3F79F080912203EF
:1018E000803241F080912203803331F094E005C0D2
:1018F00091E003C092E001C093E0892F0F91089519
:1019000040914403262F30E0240F311D2132310550
:10191000DCF420918F032430C9F4FC0180E090E0D6
:10192000861758F4309144032191DC01AA5BBC4F27
:10193000A30FB11D2C930196F3CF80914403680F40
:101940006093440380E0089581E0089582E0089563
:1019500085ED8093BC008091BC0084FDFCCF10928B
:101960008F03089585EC8093BC0010928F03089537
:101970001F920F920FB60F9211242F933F934F9304
:101980005F936F937F938F939F93AF93BF93EF93E7
:10199000FF938091B900887F803609F49EC078F566
:1019A000883209F45DC090F4803109F456C038F4EF
:1019B000882309F4F5C0883009F44FC0F5C0883198
:1019C00009F44EC0803209F45FC0EEC0803409F4DF
:1019D0006AC058F4803309F457C0883309F0E4C072
:1019E000809322030E94B20CDFC0803509F44FC0FF
:1019F000883509F45DC0883409F0D6C0D3C0883971
:101A000009F4C4C0A8F4883709F467C038F48836EC
:101A100009F463C0803709F460C0C6C0883809F48F
:101A2000B5C0803909F45FC0803809F0BDC05BC023
:101A3000803B09F483C038F4803A09F466C0883AE0
:101A400009F47CC0B1C0803C09F4A4C0883C09F40E
:101A5000A1C0883B09F487C0A7C080918E0310C045
:101A60009091670380916603981770F5E091670382
:101A700081E08E0F80936703F0E0E859FC4F80818E
:101A80008093BB0085EC83C0809322038BC0E091E0
:101A9000670381E08E0F809367038091BB00F0E0C5
:101AA000E859FC4F808390916703809166036BC077
:101AB000E091670381E08E0F809367038091BB0004
:101AC000F0E0E859FC4F808380918D0381116AC05A
:101AD00081E080938C0384EA5EC083E080938F036F
:101AE00010922303CFCF80912303803208F04EC0A1
:101AF000E091230381E08E0F809323038091BB004C
:101B0000F0E0EC5DFC4F8083BDCF0E94B20C809171
:101B10002303803230F4E0912303F0E0EC5DFC4FCE
:101B200010826091230370E0E0918803F0918903B3
:101B300084E293E009951092230336C084E08093F9
:101B40008F031092450310924403E0918A03F091B1
:101B50008B03099580914403811105C081E0809336
:101B6000440310924603E091450381E08E0F809379
:101B70004503F0E0EA5BFC4F80818093BB009091CD
:101B8000450380914403981708F47CCF85E880933F
:101B9000BC000AC085EC8093BC0010928F0304C087
:101BA000109222030E94A80CFF91EF91BF91AF9178
:101BB0009F918F917F916F915F914F913F912F9165
:101BC0000F900FBE0F901F901895FC0171836083DA
:101BD0000895EF92FF920F931F93CF93DF93EC0141
:101BE0007B018A01888199810E94C104B7018881A3
:101BF00099810E94BC0541E064E4888199810E943A
:101C00005E05B801110F880B990B0E941509DF9131
:101C1000CF911F910F91FF90EF900895EF92FF9257
:101C20000F931F93CF93DF937C01EB018A01FC019B
:101C3000808191810E94C104BE01F7018081918160
:101C40000E94BC0540E06EEBF701808191810E940B
:101C50005E05E801075F1F4FF701808191810E94B7
:101C6000A0058993C017D107B9F7DF91CF911F91D4
:101C70000F91FF90EF900895FB018081823229F04F
:101C8000883219F0803119F404C080E008958FEF94
:101C9000089581E00895BF92CF92DF92EF92FF9274
:101CA0000F931F93CF93DF93CDB7DEB72C970FB66B
:101CB000F894DEBF0FBECDBF8C017B01B42E4AE08D
:101CC00050E00E94E90DAE014F5F5F4FB701C801C0
:101CD0000E940E0E2A8130E0322F2227898169016D
:101CE000C82AB701C8010E943C0E8130A1F4CC0C77
:101CF000DD1CCC0CDD1CCC0CDD1C88858031D1F4C6
:101D00002F818CE090E0821B9109B601607F6C010D
:101D1000C60ED71E0FC08D81807619F488EFC822B9
:101D200009C0803219F48CEFC82204C0803411F449
:101D3000E894C0F8B601DD0C880B990B0E94C51021
:101D400020E030E040E85DE30E947A11B11017C056
:101D500026E636E646EE5FE3C62ED72EE82EF92EAF
:101D6000C701B6010E947A1120E030E040E052E461
:101D70000E94B10F562F472F382F292F04C0562FFE
:101D8000472F382F292F652F742F832F922F2C96B2
:101D90000FB6F894DEBF0FBECDBFDF91CF911F917C
:101DA0000F91FF90EF90DF90CF90BF90089570E07B
:101DB000FC0122813381261737076CF0660F771FED
:101DC000660F771F660F771F6C5F7F4F680F791F55
:101DD0000E944B0E089560E070E08FE793EC089549
:101DE0000F931F93CF93DF93CDB7DEB728970FB62E
:101DF000F894DEBF0FBECDBF8C01FC0113821282AE
:101E000014821486148A148E14A214A680819181DF
:101E10000E94E9050DC08D918193E217F307D9F770
:101E2000F801828193810196938382830797FCF462
:101E300041E0BE016F5F7F4FF801808191810E9478
:101E40001A068823A1F0DE011196F8012281338160
:101E5000220F331F220F331F220F331FF901349635
:101E6000E00FF11F245F3F4F200F311FD4CF289682
:101E70000FB6F894DEBF0FBECDBFDF91CF911F919B
:101E80000F9108950E94F00E08950F931F93CF9322
:101E9000DF93042F152F6730710550F087E0E2E9DA
:101EA000F1E0A42FB52F01900D928A95E1F751C072
:101EB000EB01CC0FDD1FCC0FDD1FCC0FDD1FC80FDA
:101EC000D91F2C8121110AC087E0E2E9F1E0A42F9B
:101ED000B52F01900D928A95E1F73BC0EB01CC0F35
:101EE000DD1FCC0FDD1FCC0FDD1FC80FD91F3B85B9
:101EF0001F923F933A851F923F9339851F923F93DC
:101F00006F5F7F4F660F771F660F771F660F771F14
:101F1000FC01E60FF71F80811F928F938F811F9224
:101F20008F938E811F928F938D811F928F931F921B
:101F30002F9389E991E09F938F935F934F930E9432
:101F400019128DB79EB744960FB6F8949EBF0FBE78
:101F50008DBF802F912FDF91CF911F910F91089509
:101F60005058BB27AA270E94C80F0C943B110E940F
:101F70002D1138F00E94341120F039F49F3F19F4EC
:101F800026F40C942A110EF4E095E7FB0C9424112E
:101F9000E92F0E944C1158F3BA17620773078407A0
:101FA000950720F079F4A6F50C946E110EF4E095E7
:101FB0000B2EBA2FA02D0B01B90190010C01CA0103
:101FC000A0011124FF27591B99F0593F50F4503EAE
:101FD00068F11A16F040A22F232F342F4427585FA0
:101FE000F3CF469537952795A795F0405395C9F7B8
:101FF0007EF41F16BA0B620B730B840BBAF0915070
:10200000A1F0FF0FBB1F661F771F881FC2F70EC00E
:10201000BA0F621F731F841F48F4879577956795E1
:10202000B795F7959E3F08F0B0CF9395880F08F0CD
:102030009927EE0F9795879508950E94001108F44F
:1020400081E008950E9436100C943B110E943411D7
:1020500058F00E942D1140F029F45F3F29F00C94B4
:10206000241151110C946F110C942A110E944C11DF
:1020700068F39923B1F3552391F3951B550BBB27B7
:10208000AA2762177307840738F09F5F5F4F220FFC
:10209000331F441FAA1FA9F335D00E2E3AF0E0E8F3
:1020A00032D091505040E695001CCAF72BD0FE2F3D
:1020B00029D0660F771F881FBB1F261737074807D1
:1020C000AB07B0E809F0BB0B802DBF01FF27935889
:1020D0005F4F3AF09E3F510578F00C9424110C9418
:1020E0006F115F3FE4F3983ED4F38695779567953B
:1020F000B795F7959F5FC9F7880F911D96958795BE
:1021000097F90895E1E0660F771F881FBB1F6217DC
:1021100073078407BA0720F0621B730B840BBA0B9A
:10212000EE1F88F7E09508950E94541188F09F579C
:1021300098F0B92F9927B751B0F0E1F0660F771FEB
:10214000881F991F1AF0BA95C9F714C0B13091F0E1
:102150000E946E11B1E008950C946E11672F782FD4
:102160008827B85F39F0B93FCCF3869577956795A6
:10217000B395D9F73EF490958095709561957F4F12
:102180008F4F9F4F0895E89409C097FB3EF49095B8
:102190008095709561957F4F8F4F9F4F9923A9F040
:1021A000F92F96E9BB279395F695879577956795CF
:1021B000B795F111F8CFFAF4BB0F11F460FF1BC013
:1021C0006F5F7F4F8F4F9F4F16C0882311F096E9A6
:1021D00011C0772321F09EE8872F762F05C0662354
:1021E00071F096E8862F70E060E02AF09A95660F0D
:1021F000771F881FDAF7880F9695879597F90895C6
:10220000990F0008550FAA0BE0E8FEEF1616170607
:10221000E807F907C0F012161306E407F50798F06F
:10222000621B730B840B950B39F40A2661F0232B88
:10223000242B252B21F408950A2609F4A140A69504
:102240008FEF811D811D089597F99F6780E870E0E9
:1022500060E008959FEF80EC089500240A9416161C
:10226000170618060906089500240A941216130684
:10227000140605060895092E0394000C11F4882312
:1022800052F0BB0F40F4BF2B11F460FF04C06F5F2E
:102290007F4F8F4F9F4F089557FD9058440F551F04
:1022A00059F05F3F71F04795880F97FB991F61F0D8
:1022B0009F3F79F087950895121613061406551F4F
:1022C000F2CF4695F1DF08C0161617061806991FBB
:1022D000F1CF86957105610508940895E894BB27B0
:1022E00066277727CB0197F908950E94001108F41B
:1022F0008FEF08950E948D110C943B110E942D11B7
:1023000038F00E94341120F0952311F00C94241120
:102310000C942A1111240C946F110E944C1170F32B
:10232000959FC1F3950F50E0551F629FF001729F7A
:10233000BB27F00DB11D639FAA27F00DB11DAA1F89
:10234000649F6627B00DA11D661F829F2227B00DD6
:10235000A11D621F739FB00DA11D621F839FA00D61
:10236000611D221F749F3327A00D611D231F849FB1
:10237000600D211D822F762F6A2F11249F57504008
:102380009AF0F1F088234AF0EE0FFF1FBB1F661F83
:10239000771F881F91505040A9F79E3F510580F04C
:1023A0000C9424110C946F115F3FE4F3983ED4F326
:1023B000869577956795B795F795E7959F5FC1F7F0
:1023C000FE2B880F911D9695879597F908950E9489
:1023D0000011880B990B0895A1E21A2EAA1BBB1BB2
:1023E000FD010DC0AA1FBB1FEE1FFF1FA217B307E1
:1023F000E407F50720F0A21BB30BE40BF50B661FF7
:10240000771F881F991F1A9469F7609570958095BA
:1024100090959B01AC01BD01CF010895EE0FFF1F08
:102420000590F491E02D099481E090E0F8940C94EB
:10243000F114AEE0B0E0EFE1F2E10C94C8140D89C4
:102440001E8986E08C831A8309838FEF9FE79E8322
:102450008D83AE01475E5F4F6F89788DCE01019607
:102460000E943C122F813885F801E20FF31F108281
:102470002E96E4E00C94E414ACE0B0E0E2E4F2E187
:102480000C94BA147C016B018A01FC01178216823C
:10249000838181FFBDC1CE0101964C01F70193817B
:1024A000F60193FD859193FF81916F01882309F4D3
:1024B000ABC1853239F493FD859193FF81916F0112
:1024C000853229F4B70190E00E942414E7CF512C03
:1024D000312C20E02032A0F48B3269F030F48032CD
:1024E00059F0833269F420612CC08D3239F0803389
:1024F00039F4216026C02260246023C0286021C0F6
:1025000027FD27C030ED380F3A3078F426FF06C09B
:10251000FAE05F9E300D1124532E13C08AE0389EDE
:10252000300D1124332E20620CC08E3221F426FD92
:102530006BC1206406C08C3611F4206802C0883656
:1025400041F4F60193FD859193FF81916F01811113
:10255000C1CF982F9F7D9554933028F40C5F1F4F67
:10256000FFE3F9830DC0833631F0833771F0833593
:1025700009F05BC022C0F801808189830E5F1F4F84
:1025800044244394512C540115C03801F2E06F0EDD
:10259000711CF801A080B18026FF03C0652D70E09A
:1025A00002C06FEF7FEFC5012C870E9419142C0128
:1025B00083012C852F77222E17C03801F2E06F0E91
:1025C000711CF801A080B18026FF03C0652D70E06A
:1025D00002C06FEF7FEFC5012C870E940E142C0103
:1025E0002C852068222E830123FC1BC0832D90E0C4
:1025F00048165906B0F4B70180E290E00E94241416
:102600003A94F4CFF50127FC859127FE81915F0173
:10261000B70190E00E94241431103A94F1E04F1A6F
:1026200051084114510471F7E5C0843611F0893620
:1026300039F5F80127FF07C060817181828193819C
:102640000C5F1F4F08C060817181072E000C880B42
:10265000990B0E5F1F4F2F76722E97FF09C0909532
:102660008095709561957F4F8F4F9F4F2068722E98
:102670002AE030E0A4010E945C14A82EA81844C0EF
:10268000853729F42F7EB22E2AE030E025C0F22FC4
:10269000F97FBF2E8F36C1F018F4883579F0B4C0B9
:1026A000803719F0883721F0AFC02F2F2061B22E6C
:1026B000B4FE0DC08B2D8460B82E09C024FF0AC063
:1026C0009F2F9660B92E06C028E030E005C020E1BB
:1026D00030E002C020E132E0F801B7FE07C06081BF
:1026E0007181828193810C5F1F4F06C0608171816F
:1026F00080E090E00E5F1F4FA4010E945C14A82EA2
:10270000A818FB2DFF777F2E76FE0BC0372D3E7F5E
:10271000A51450F474FE0AC072FC08C0372D3E7E2A
:1027200005C0BA2C372D03C0BA2C01C0B52C34FF1C
:102730000DC0FE01EA0DF11D8081803311F4397E58
:1027400009C032FF06C0B394B39404C0832F8678C7
:1027500009F0B39433FD13C030FF06C05A2CB314F4
:1027600018F4530C5B18B32CB31468F4B70180E26F
:1027700090E03C870E942414B3943C85F5CFB314B9
:1027800010F43B1801C0312C34FF12C0B70180E3B4
:1027900090E03C870E9424143C8532FF17C031FD35
:1027A00003C088E790E002C088E590E0B7010CC064
:1027B000832F867859F031FF02C08BE201C080E29E
:1027C00037FD8DE2B70190E00E942414A51438F47F
:1027D000B70180E390E00E9424145A94F7CFAA94A2
:1027E000F401EA0DF11D8081B70190E00E942414EC
:1027F000A110F5CF332009F451CEB70180E290E06B
:102800000E9424143A94F6CFF7018681978102C082
:102810008FEF9FEF2C96E2E10C94D614FC0105900B
:10282000615070400110D8F7809590958E0F9F1FD2
:102830000895FC016150704001900110D8F7809517
:1028400090958E0F9F1F08950F931F93CF93DF9343
:10285000FB01238121FD03C08FEF9FEF28C022FFE2
:1028600016C046815781248135814217530744F4AD
:10287000A081B1819D012F5F3F4F318320838C93D5
:10288000268137812F5F3F4F3783268310C0EB01AE
:10289000092F182F0084F185E02D0995892BE1F689
:1028A0008E819F8101969F838E83812F902FDF9150
:1028B000CF911F910F910895FA01AA27283051F165
:1028C000203181F1E8946F936E7F6E5F7F4F8F4F61
:1028D0009F4FAF4FB1E03ED0B4E03CD0670F781FC0
:1028E000891F9A1FA11D680F791F8A1F911DA11DA5
:1028F0006A0F711D811D911DA11D20D009F46894DE
:102900003F912AE0269F11243019305D3193DEF685
:10291000CF010895462F4770405D4193B3E00FD03B
:10292000C9F7F6CF462F4F70405D4A3318F0495D26
:1029300031FD4052419302D0A9F7EACFB4E0A69509
:102940009795879577956795BA95C9F7009761052B
:10295000710508959B01AC010A2E06945795479581
:1029600037952795BA95C9F7620F731F841F951F76
:10297000A01D08952F923F924F925F926F927F9287
:102980008F929F92AF92BF92CF92DF92EF92FF927F
:102990000F931F93CF93DF93CDB7DEB7CA1BDB0B2B
:1029A0000FB6F894DEBF0FBECDBF09942A883988D0
:1029B00048885F846E847D848C849B84AA84B984D7
:1029C000C884DF80EE80FD800C811B81AA81B981E3
:1029D000CE0FD11D0FB6F894DEBF0FBECDBFED01F7
:0629E0000895F894FFCFFA
:1029E600204465766963657320666F756E64003A88
:1029F60000435243206973206E6F742076616C69C0
:102A060064210A0D0020202D3E200054656D70655E
:102A16007261747572204D65737370726F6772613F
:102A26006D6D00000000004C02BE06CD01E701D925
:102A3600012A0200000000900ABE06960487039A47
:102A46000375040D0A006E616E00696E66006F768E
:102A5600660000000000900ABE06C20A8E0A8F0AAF
:102A66002C0A000000009F0B6F0B430B4B0B5F0BF8
:102A76006E0B286E756C6C2900255825582558252F
:0A2A860058255825582558255800FA
:00000001FF
