:100000000C94EA000C9412010C9412010C9412014D
:100010000C9412010C9412010C9412010C94120114
:100020000C9412010C9412010C9412010C94120104
:100030000C9412010C9412010C9412010C941201F4
:100040000C94210B0C9412010C94AB050C94E30559
:100050000C9412010C9412010C9412010C941201D4
:100060000C9412010C941201005EBCE2613FDD832E
:10007000C29C7E20A3FD1F419DC3217FFCA2401E88
:100080005F01E3BD3E6082DC237D9FC1421CFEA078
:10009000E1BF5D0380DE3C62BEE0025CDF81633D68
:1000A0007C22C09E1D43A1FF4618FAA427799BC558
:1000B00084DA3866E5BB5907DB856739BAE4065848
:1000C0001947A5FB7826C49A653BD987045AB8E638
:1000D000A7F91B45C6987A24F8A6441A99C7257B28
:1000E0003A6486D85B05E7B98CD2306EEDB3510F18
:1000F0004E10F2AC2F7193CD114FADF3702ECC9208
:10010000D38D6F31B2EC0E50AFF1134DCE90722CF7
:100110006D33D18F0C52B0EE326C8ED0530DEFB1E7
:10012000F0AE4C1291CF2D73CA947628ABF51749D7
:100130000856B4EA6937D58B5709EBB536688AD4C7
:1001400095CB2977F4AA4816E9B7550B88D6346AB7
:100150002B7597C94A14F6A8742AC896154BA9F7A7
:10016000B6E80A54D7896B35000000080002010088
:100170000003040700000000000000000102040862
:100180001020408001020408102001020408102001
:10019000040404040404040402020202020203032D
:1001A00003030303000000002300260029000000D1
:1001B0000000250028002B0000000000240027007C
:1001C0002A0086011306A506870E96103012B61473
:1001D000AA1C091D11241FBECFEFD8E0DEBFCDBF82
:1001E00012E0A0E0B1E0ECECFDE402C005900D925D
:1001F000A038B107D9F724E0A0E8B2E001C01D9211
:10020000AC30B207E1F710E0CAEED0E004C02197AD
:10021000FE010E94DA23C13ED107C9F70E94B10650
:100220000C94E4260C9400000F931F93CF93DF935C
:100230006091CA027091CB024AE050E086E193E0FF
:100240000E94EC096EE071E086E193E00E942D09C6
:100250000CEC12E0C0E0D0E08091CA029091CB0299
:10026000C817D9070CF04AC04AE050E0BE0186E149
:1002700093E00E94EC096DE171E086E193E00E9459
:10028000F80848EA52E0BE0188EC92E00E9478212A
:10029000BC0186E193E00E94F80867E0C8010E9473
:1002A000B708085F1F4FF80131979081891751F007
:1002B0006FE171E086E193E0DF91CF911F910F91A3
:1002C0000C94F80863E371E086E193E00E94F8087B
:1002D00041E06C2F88EC92E00E94F920AB01BC0158
:1002E00022E030E086E193E00E941E0B6EE072E0B7
:1002F00086E193E00E942D092196AECF86E193E03E
:10030000DF91CF911F910F910C9421090F9300E081
:1003100020E040E060E080E193E00E948C0662E033
:1003200082E093E00E94F20762E073E088EC92E0E2
:100330000E9407200FE52AE248EA60EC82EA92E098
:100340000E948C0660E570E08CE992E00F910C94BD
:10035000FD10CF93DF9300D000D000D0CDB7DEB733
:1003600026E040E051EE60E070E086E193E00E941C
:10037000460569E371E086E193E00E942D096CE295
:1003800071E080E090E00E949C0B88EC92E00E947B
:1003900075210E9414018AE092E09A8389838091FA
:1003A000A4029091A502A091A602B091A7028B830E
:1003B0009C83AD83BE83AE014F5F5F4F60E071E011
:1003C00082EC93E00E94F50D8CE992E00E94B71058
:1003D00061E571E086E193E00E94F80862EC73E069
:1003E000CE0101960E94390EBE016F5F7F4F86E1FC
:1003F00093E00E943F0980EA96E890939B028093E5
:100400009A0226960FB6F894DEBF0FBECDBFDF91DD
:10041000CF910895AF92BF92CF92DF92EF92FF9269
:100420000F931F93CF93DF93CDB7DEB72D970FB602
:10043000F894DEBF0FBECDBF80919A0290919B02CF
:10044000019690939B0280939A028131974260F4C7
:1004500080919A0290919B0264EF71E00E94A42324
:10046000892B09F046C01FC088EC92E00E947521DC
:100470000E94140110929B0210929A0232E8E32E1D
:1004800032E0F32E10E041E0612F88EC92E00E9410
:10049000F920F70161937193819391937F011F5F1D
:1004A000163089F7D5CF009180021091810241E08A
:1004B000602F88EC92E00E94F920000F111F000FBE
:1004C000111FF801EE57FD4F608371838283938380
:1004D00080918002909181020196863091052CF4E2
:1004E000909381028093800204C010928102109246
:1004F00080026CE972E0CE0101960E94C211CE0129
:1005000001960E94BB0E882309F413C16FE571E0C8
:1005100086E193E00E942D0911E0CE0101960E9430
:100520006C10882309F4F5C0CE0101960E94540F87
:10053000892B99F3CE0101960E945E0F082F682F38
:1005400086E193E00E94F8040A3009F0DDC011232F
:1005500019F36AE671E0CE0101960E942D096AE75F
:1005600071E0CE0101960E942D0962E971E0CE0191
:1005700001960E942D0964EA71E0CE0101960E9465
:100580002D09CE0101960E9421096FEA71E0CE018A
:1005900001960E942D096FEB71E0CE0101960E9439
:1005A0002D0992E8C92E92E0D92E00E010E066EC09
:1005B00071E0CE0101960E94F80848EA52E0B801C5
:1005C00088EC92E00E947821BC01CE0101960E9445
:1005D000F8086DE171E0CE0101960E94F808F6017D
:1005E000408151816281738122E030E0CE01019629
:1005F0000E941E0B68EC71E0CE0101960E942D094D
:1006000048EA52E0B80188EC92E00E9478216FEC51
:1006100071E00E94E023892B79F00F5F1F4FF4E017
:10062000CF0ED11C0630110511F66AED71E0CE0136
:1006300001960E942D096DC082E8A82E82E0B82E96
:10064000E12CF12CE016F10609F452C048EA52E020
:10065000B70188EC92E00E9478216FEC71E00E9473
:10066000E023892B09F044C066ED71E0CE010196CC
:100670000E94F80848EA52E0B80188EC92E00E9433
:100680007821BC01CE0101960E94F80868ED71E066
:10069000CE0101960E94F80848EA52E0B70188ECC2
:1006A00092E00E947821BC01CE0101960E94F808D8
:1006B0006DE171E0CE0101960E94F808F5012081FC
:1006C000318142815381F601608171818281938100
:1006D0000E94B003AB01BC0122E030E0CE010196E4
:1006E0000E941E0B68EC71E0CE0101960E942D095C
:1006F000FFEFEF1AFF0A24E0A20EB11C86E0E81615
:10070000F10409F09FCF89CF0D3009F406CF10E036
:1007100004CF61E070E080E090E00E949C0BCE018D
:1007200001960E942D1062EE71E086E193E00E9436
:100730002D0961E070E080E090E00E949C0B2D9616
:100740000FB6F894DEBF0FBECDBFDF91CF911F91E2
:100750000F91FF90EF90DF90CF90BF90AF900895F2
:100760005058BB27AA270E94C8030C9434040E9447
:10077000260438F00E942D0420F039F49F3F19F42C
:1007800026F40C9423040EF4E095E7FB0C941D046E
:10079000E92F0E94450458F3BA17620773078407CC
:1007A000950720F079F4A6F50C9467040EF4E09513
:1007B0000B2EBA2FA02D0B01B90190010C01CA011B
:1007C000A0011124FF27591B99F0593F50F4503EC6
:1007D00068F11A16F040A22F232F342F4427585FB8
:1007E000F3CF469537952795A795F0405395C9F7D0
:1007F0007EF41F16BA0B620B730B840BBAF0915088
:10080000A1F0FF0FBB1F661F771F881FC2F70EC026
:10081000BA0F621F731F841F48F4879577956795F9
:10082000B795F7959E3F08F0B0CF9395880F08F0E5
:100830009927EE0F97958795089597F99F6780E818
:1008400070E060E008959FEF80EC089500240A9422
:100850001616170618060906089500240A9412169B
:100860001306140605060895092E0394000C11F4CE
:10087000882352F0BB0F40F4BF2B11F460FF04C07B
:100880006F5F7F4F8F4F9F4F089557FD9058440FD4
:10089000551F59F05F3F71F04795880F97FB991FDF
:1008A00061F09F3F79F0879508951216130614069C
:1008B000551FF2CF4695F1DF08C016161706180629
:1008C000991FF1CF86957105610508940895E89404
:1008D000BB2766277727CB0197F90895FC01918DF7
:1008E000228D892F90E0805C9F4F821B91098F732E
:1008F00099270895FC01918D828D981731F0828D92
:10090000E80FF11D858D90E008958FEF9FEF08951A
:10091000FC01918D828D981761F0828DDF01A80F07
:10092000B11D5D968C91928D9F5F9F73928F90E029
:1009300008958FEF9FEF089589E096E0892B49F0A5
:1009400080E090E0892B29F00E94090681110E9425
:1009500000000895FC01848DDF01A80FB11DA35A8A
:10096000BF4F8C91248D30E02F5F3F4F2F73307835
:10097000332334F421503109206C3F6F2F5F3F4FF8
:10098000248FA689B7898C93A089B1898C918064C2
:100990008C93938D848D981306C00288F389E02D83
:1009A00080818F7D80830895CF93DF93EC01888DC4
:1009B0008823D9F0EA89FB89808185FD05C0A88953
:1009C000B9898C9186FD11C00FB607FCF5CF8081E7
:1009D00085FFF2CF04C0CE010E94AA04EBCFA88904
:1009E000B9898C9185FFE8CFF6CFDF91CF9108953B
:1009F0000F931F93CF93DF93EC0181E0888F9B8D42
:100A00008C8D981323C0E889F989808185FD2FC0DA
:100A10001DC09C8D19130CC00FB607FCFACFE889D6
:100A2000F989808185FFF5CFCE010E94AA04F1CF1C
:100A30008B8DFE01E80FF11DE35AFF4F00831B8FE2
:100A4000EA89FB8980818062808319C02B8D30E028
:100A50002F5F3F4F2F733078332334F42150310907
:100A6000206C3F6F2F5F3F4F062F122FD2CFEE89A2
:100A7000FF896083E889F98980818064808381E0CF
:100A800090E0DF91CF911F910F910895CF92DF9267
:100A9000EF92FF921F93CF93DF93EC016A017B01EA
:100AA000122FE889F98982E080834115514E610552
:100AB0007105B1F060E079E08DE390E0A701960167
:100AC0000E94B823DA01C9010197A109B109B695BD
:100AD000A795979587959C01211580E13807A8F087
:100AE000E889F989108260E874E88EE190E0A70156
:100AF00096010E94B823DA01C9010197A109B10941
:100B0000B695A795979587959C01EC85FD853083D3
:100B1000EE85FF852083188EEC89FD891083EA8994
:100B2000FB89808180618083EA89FB89808188607C
:100B30008083EA89FB89808180688083EA89FB89D8
:100B400080818F7D8083DF91CF911F91FF90EF9007
:100B5000DF90CF9008951F920F920FB60F9211243D
:100B60002F938F939F93AF93BF93EF93FF93E09156
:100B70002603F0912703808182FD14C0E6E1F3E0B3
:100B8000A689B7892C91818D8F5F8F73928D89177C
:100B900071F0DF01E18DF0E0EA5EFC4F258F5996A0
:100BA0008C9305C0E0912C03F0912D038081FF917F
:100BB000EF91BF91AF919F918F912F910F900FBEA9
:100BC0000F901F9018951F920F920FB60F9211243D
:100BD0002F933F934F935F936F937F938F939F9345
:100BE000AF93BF93EF93FF9386E193E00E94AA0433
:100BF000FF91EF91BF91AF919F918F917F916F91F5
:100C00005F914F913F912F910F900FBE0F901F90CA
:100C1000189586E193E00E946E0421E0892B09F487
:100C200020E0822F0895E6E1F3E01382128288EE3D
:100C300093E0A0E0B0E084839583A683B7838AEF36
:100C400091E09183808385EC90E09587848784ECA4
:100C500090E09787868780EC90E0918B808B81EC89
:100C600090E0938B828B82EC90E0958B848B86EC6A
:100C700090E0978B868B118E128E138E148E0895B2
:100C80008F929F92AF92BF92CF92DF92EF92FF929C
:100C90000F931F93CF93DF936C017B014C0182E094
:100CA000880E911C5601E5E0AE0EB11C00E010E08C
:100CB000F40161914F014AE050E0C7010E94030A2C
:100CC000EC016EE2C7010E940E098C0F9D1F080FF8
:100CD000191F8A149B0461F74AE050E0F601658110
:100CE000C7010E94030A800F911FDF91CF911F91CE
:100CF0000F91FF90EF90DF90CF90BF90AF909F90BB
:100D00008F9008952AE032E0FC0131832083128223
:100D100013821482158208950F93FC018AE092E0F9
:100D20009183808362834383248305830F91089595
:100D3000FB0120813181FC0133832283FB0122816D
:100D40003381FC01358324830895E3EBF3E08AE0EB
:100D500092E0918380831282138214821582089517
:100D600008950E94E30B0E94B0060E94A901CCE9FD
:100D7000D4E00E940A022097E1F30E949C04F9CF7C
:100D8000FF920F931F93CF93DF93FC01D0810181DA
:100D90001281F894F8018181FD2EF0948F218183D6
:100DA0007894CCE702C0C15041F182E090E00E940B
:100DB000D80BF80180818D23B1F3F89482818F21C3
:100DC000828381818D2B8183789480EE91E00E94D3
:100DD000D80BF894F8018181F822F18286E490E042
:100DE0000E94D80BF8018081D823C1E009F0C0E04F
:100DF00078948AE991E00E94D80B8C2FDF91CF91F3
:100E00001F910F91FF9008951F93CF93DF93FC01E3
:100E10001081C181D28160FF16C0F8948A81912F20
:100E2000909589238A838981812B89838AE090E048
:100E30000E94D80B8A81182B1A83789487E390E05C
:100E40000E94D80B15C0F8948A81912F9095892320
:100E50008A838981812B898381E490E00E94D80B69
:100E60008A81182B1A83789485E090E00E94D80B31
:100E7000DF91CF911F9108950F931F93CF93DF932D
:100E8000FC010081C181D281F8948981802B898302
:100E90008A81102F109581238A8383E090E00E943D
:100EA000D80B8981182319838AE090E00E94D80B1F
:100EB000C881789485E390E00E94D80BC02381E03C
:100EC00009F480E0DF91CF911F910F910895BF92B7
:100ED000CF92DF92EF92FF920F931F93CF93DF9306
:100EE0007C01D62EB42E08E010E0C1E0D1E0C12C88
:100EF0006D2F8D2D8C2309F46C2DC7010E940407E2
:100F0000CC0F01501109A1F7B11015C0F894D70109
:100F10001196ED91FC91129791818C918095892386
:100F200081831196ED91FC91129792818C9180951D
:100F3000892382837894DF91CF911F910F91FF9045
:100F4000EF90DF90CF90BF900895EF92FF920F93B4
:100F50001F93CF93DF937C01C8E0D0E000E011E065
:100F6000C7010E943C078111012B110F2197C1F786
:100F7000802FDF91CF911F910F91FF90EF900895F7
:100F8000EF92FF920F931F93CF93DF937C018B011E
:100F900040E065E50E946707E801085F1F4F69911F
:100FA00040E0C7010E946707C017D107C1F7DF9172
:100FB000CF911F910F91FF90EF900895DC011B9648
:100FC0001C921B971D961C921D971C961C921C9799
:100FD0001A961C92FC013A9603961292E817F907AA
:100FE000E1F708951F93CF93DF93EC01162F60E094
:100FF000812F0E94470C612F70E0FB01E458FE4FE7
:10100000E491E883FB01E057FE4FE491F0E0EE0F3E
:10101000FF1FEC55FE4F859194919A838983CE01F1
:101020000E94DE07DF91CF911F9108959F92AF92AA
:10103000BF92CF92DF92EF92FF920F931F93CF93C5
:10104000DF93EC01C62ED72E142F8D85811169C038
:10105000CE010E94C006811104C01B861D861C861D
:101060007AC0112331F040E060EFCE010E946707A3
:1010700005C040E06CEECE010E94670701E0F12C54
:10108000A12CEE24E394BB24B394912CCE010E94B6
:101090003C07182FCE010E943C07113009F04DC0CB
:1010A0008130C9F435C08B85E81648F4FE01EF0D98
:1010B000F11D838180231B2D29F4192D03C01B2DC5
:1010C000E812192D111105C088E08E15C8F1EC86C3
:1010D00037C0113041F4FE01EF0DF11D8381802BEB
:1010E00083831B2D08C0FE01EF0DF11D9381802F1E
:1010F000809589238383612FCE010E940407E394A6
:10110000000F11F4F39401E087E08F1508F0BECFD3
:1011100080E48E1530F4AB86A11014C081E08D8779
:1011200011C01B861D861C8680E015C081918D93A1
:10113000CE17DF07D9F781E00EC01813D4CFB3CF95
:10114000AE2CD1CF8B81882361F3FE013396AC2D79
:10115000BD2D2B96EBCFDF91CF911F910F91FF907B
:10116000EF90DF90CF90BF90AF909F9008952FEFBA
:10117000260F662361F0A82FB92F80E0ED91E827B4
:10118000F0E0E859FF4F84912150C0F7089580E0C6
:101190000895CF92DF92EF92FF920F931F93CF9318
:1011A000DF9341155105C1F06A018C01E62EF72E3F
:1011B000C0E0D0E0D7016D917D01D801ED91FC91A7
:1011C0000190F081E02DC8010995892B39F0219615
:1011D000CC16DD0679F702C0C0E0D0E0CE01DF9189
:1011E000CF911F910F91FF90EF90DF90CF900895D6
:1011F0006115710581F0FB0101900020E9F731973D
:10120000AF01461B570BDC01ED91FC910280F3818D
:10121000E02D0995089580E090E00895DC01ED91BE
:10122000FC910190F081E02D09950895DB01ED918D
:10123000FC9111970190F081E02DBC01CD01099541
:101240000895DC01ED91FC910280F381E02D42E0F4
:1012500050E06CE072E0099508950F931F93CF93CF
:10126000DF93EC010E94F8088C01CE010E94210955
:10127000800F911FDF91CF911F910F9108950F93D0
:101280001F93CF93DF93EC010E9416098C01CE01CE
:101290000E942109800F911FDF91CF911F910F9123
:1012A00008958F929F92AF92BF92EF92FF920F9309
:1012B0001F93CF93DF93CDB7DEB7A1970FB6F89406
:1012C000DEBF0FBECDBF7C01CB01BA0119A2223017
:1012D00008F42AE08E010F5D1F4F822E912CA12C65
:1012E000B12CA50194010E94B823E62F622F732F21
:1012F000842F952F01501109EA3010F4E05D01C0F0
:10130000E95CD801EC93611571058105910549F7F8
:101310000115110591F0F80101900020E9F73197CE
:10132000AF01401B510BD701ED91FC910280F3817D
:10133000E02DB801C701099502C080E090E0A196B8
:101340000FB6F894DEBF0FBECDBFDF91CF911F91D6
:101350000F91FF90EF90BF90AF909F908F90089566
:10136000CF92DF92EF92FF920F931F93CF93DF9371
:10137000EC016A017B012115310541F4E881F98115
:101380000190F081E02D642F09951DC02A303105B0
:10139000C1F4772394F46DE20E940E098C01442776
:1013A0005527BA014C195D096E097F092AE0CE0163
:1013B0000E945109800F911F06C02AE00E94510926
:1013C00002C00E945109DF91CF911F910F91FF90B0
:1013D000EF90DF90CF9008959A01AB01770F660BE5
:1013E000770B0E94B00908952115310549F4DC01FD
:1013F000ED91FC910190F081E02D642F0995089505
:101400000E94510908959A01462F50E060E070E073
:101410000E94F40908959A01AB0160E070E00E9417
:10142000F40908957F928F929F92AF92BF92CF92CC
:10143000DF92EF92FF920F931F93CF93DF9300D031
:1014400000D0CDB7DEB78C014A015B01722E9A0144
:10145000AB01C501B4010E946423882331F06FE021
:1014600072E0C8010E94F808D7C075016401E894D1
:10147000F7F82FEF3FEF4FE75FE7C701B6010E9494
:101480006423811110C02FEF3FEF4FE75FE7C701E3
:10149000B6010E94EB21181634F463E172E0C80132
:1014A0000E94F808B9C02FEF3FEF4FE75FE4C50196
:1014B000B4010E94F222181634F467E172E0C80108
:1014C0000E94F808A9C02FEF3FEF4FE75FECC5017E
:1014D000B4010E94EB21882334F467E172E0C80173
:1014E0000E94F80899C020E030E0A901C501B401CC
:1014F0000E94EB21882354F46DE2C8010E940E097A
:101500007C01B7FAB094B7F8B09402C0E12CF12C8A
:10151000772009F46EC0198260E070E080E09FE3FC
:1015200020E030E040E251E40E94F02129812F5F69
:1015300029837212F5CF2CC020E030E040E251E464
:10154000C501B4010E94F7224B015C010E94622296
:101550006B017C014AE050E0C8010E940B0A29811E
:101560003A81280F391F3A832983B60180E090E041
:101570000E9491229B01AC01C501B4010E94B003FD
:101580004B015C017A947110D7CF89819A8144C054
:101590009B01AC01C501B4010E94B1034B015C0188
:1015A0000E94622269837A838B839C830E949122AA
:1015B0009B01AC01C501B4010E94B0034B015C0169
:1015C0002AE030E049815A816B817C81C8010E9408
:1015D000F4099A8389836EE2C8010E940E09298169
:1015E0003A81820F931F9C012E0D3F1D3A83298360
:1015F000A3CF20E030E040E05FE3C501B4010E94EA
:10160000B1030E946222AB01BC012AE030E0C801B4
:101610000E94F4098E0D9F1D0F900F900F900F9058
:10162000DF91CF911F910F91FF90EF90DF90CF90BE
:10163000BF90AF909F908F907F9008950E94120A64
:1016400008951F920F920FB60F9211242F933F937C
:101650008F939F93AF93BF938091BA039091BB03F5
:10166000A091BC03B091BD033091B90323E0230FD7
:101670002D3720F40196A11DB11D05C026E8230FCA
:101680000296A11DB11D2093B9038093BA039093D4
:10169000BB03A093BC03B093BD038091BE039091A4
:1016A000BF03A091C003B091C1030196A11DB11D5C
:1016B0008093BE039093BF03A093C003B093C10374
:1016C000BF91AF919F918F913F912F910F900FBE3E
:1016D0000F901F9018952FB7F8946091BA037091EE
:1016E000BB038091BC039091BD032FBF08953FB70A
:1016F000F8948091BE039091BF03A091C003B09174
:10170000C10326B5A89B05C02F3F19F00196A11D66
:10171000B11D3FBFBA2FA92F982F8827820F911D87
:10172000A11DB11DBC01CD0142E0660F771F881FCE
:10173000991F4A95D1F708958F929F92AF92BF92C9
:10174000CF92DF92EF92FF926B017C010E94770BA8
:101750004B015C01C114D104E104F10401F10E94C8
:10176000B20C0E94770BDC01CB0188199909AA09F8
:10177000BB09883E9340A105B10560F321E0C21A80
:10178000D108E108F10888EE880E83E0981EA11CBC
:10179000B11CC114D104E104F10419F7DBCFFF90AF
:1017A000EF90DF90CF90BF90AF909F908F90089573
:1017B0008230910538F0880F991F880F991F05977F
:1017C0000197F1F70895789484B5826084BD84B55B
:1017D000816084BD85B5826085BD85B5816085BD2C
:1017E000EEE6F0E0808181608083E1E8F0E0108245
:1017F000808182608083808181608083E0E8F0E086
:10180000808181608083E1EBF0E08081846080836F
:10181000E0EBF0E0808181608083EAE7F0E08081A6
:101820008460808380818260808380818160808306
:101830008081806880831092C1000895833081F098
:1018400028F4813099F08230A1F008958730A9F012
:101850008830B9F08430D1F4809180008F7D03C04E
:10186000809180008F7780938000089584B58F7772
:1018700002C084B58F7D84BD08958091B0008F77BC
:1018800003C08091B0008F7D8093B0000895CF9306
:10189000DF9390E0FC01E458FE4F2491FC01E057F7
:1018A000FE4F8491882361F190E0880F991FFC011D
:1018B000E854FE4FC591D491FC01E255FE4FA5912D
:1018C000B491611109C09FB7F89488812095822353
:1018D0008883EC912E230BC0623061F49FB7F8949B
:1018E0008881322F309583238883EC912E2B2C9383
:1018F0009FBF06C08FB7F894E8812E2B28838FBF37
:10190000DF91CF9108951F93CF93DF93282F30E07D
:10191000F901E859FE4F8491F901E458FE4FD49142
:10192000F901E057FE4FC491CC23C1F0162F81116D
:101930000E941E0CEC2FF0E0EE0FFF1FE255FE4F51
:10194000A591B4919FB7F894111104C08C91D095D2
:10195000D82302C0EC91DE2BDC939FBFDF91CF91A7
:101960001F91089508958F929F92AF92BF92CF9248
:10197000DF92EF92FF920F931F93CF93DF936C014F
:101980004B01EA0159018CEE93E00E94271A8091E5
:101990000A04882399F09FB7F89480910A04813053
:1019A00059F48DB3809308042DB380910904809578
:1019B00082238DBB9FBF02C09093080480E58CBD3D
:1019C0001DBC46E050E0B40189E090E00E94911A0D
:1019D000BE016E5F7F4F44E050E08FE090E00E94D8
:1019E000911AB8016E5F7F4F44E050E081E090E0D3
:1019F0000E94911AB7016E5F7F4F44E050E085E08E
:101A000090E00E94911A80910A04882371F09FB798
:101A1000F89480910A04813029F4809108048DBBE8
:101A20009FBF03C0809108048FBFF501828193811D
:101A3000A481B581F60182839383A483B583DF916A
:101A4000CF911F910F91FF90EF90DF90CF90BF90BB
:101A5000AF909F908F9008956F927F928F929F92F8
:101A6000AF92BF92CF92DF92EF92FF920F931F93AC
:101A7000CF93DF93CDB7DEB76E970FB6F894DEBF86
:101A80000FBECDBF6C015B017A014901380100E056
:101A90002FEF4FEF6FEFCE0149960E948C068AE040
:101AA00092E09C8B8B8B4B8D5C8D6D8D7E8D4D8BE9
:101AB0005E8B6F8B788F9E878D87F3014281538178
:101AC000648175814F87588B698B7A8B98878F8358
:101AD000F401428153816481758149875A876B87FC
:101AE0007C879A838983F70182819381A481B58160
:101AF0008B839C83AD83BE83CE0143967C018E0194
:101B0000035F1F4F9E01295F3F4FAE014F5F5F4F45
:101B1000B501C6010E94B30C6E960FB6F894DEBFF5
:101B20000FBECDBFDF91CF911F910F91FF90EF902E
:101B3000DF90CF90BF90AF909F908F907F906F90ED
:101B40000895CF92DF92EF92FF920F931F93CF935E
:101B5000DF93CDB7DEB768970FB6F894DEBF0FBE40
:101B6000CDBFF901DA0112960D911D912D913C9195
:101B700015970D8B1E8B2F8B388F4AE052E05E87B6
:101B80004D87A1E0A88FCD88DE88EF88F88CCF86BE
:101B9000D88AE98AFA8A58874F83C280D380E48042
:101BA000F580C986DA86EB86FC865A8349830B83E7
:101BB0001C832D833E838E01035F1F4F9E01295F8F
:101BC0003F4FAE014F5F5F4F0E942C0D68960FB6DE
:101BD000F894DEBF0FBECDBFDF91CF911F910F9163
:101BE000FF90EF90DF90CF900895CF92DF92EF9229
:101BF000FF92CF93DF93CDB7DEB762970FB6F8941D
:101C0000DEBF0FBECDBFFB01DA0112964D915D9193
:101C10006D917C9115974F87588B698B7A8B2AE051
:101C200032E038872F83A1E0AA8BCF84D888E98857
:101C3000FA88C986DA86EB86FC863A8329834B8349
:101C40005C836D837E839E01295F3F4FAE014F5FB2
:101C50005F4FBF010E94A10D62960FB6F894DEBFE0
:101C60000FBECDBFDF91CF91FF90EF90DF90CF906F
:101C70000895CF93DF93EC010E94820680910A04BD
:101C8000882399F09FB7F89480910A04813059F421
:101C90008DB3809308042DB380910904809582232D
:101CA0008DBB9FBF02C09093080480E58CBD1DBC16
:101CB00044E050E0BE016E5F7F4F8FE090E00E94F5
:101CC000D01B80910A04882371F09FB7F89480910B
:101CD0000A04813029F4809108048DBB9FBF03C0A2
:101CE000809108048FBFCE01DF91CF9108952AE043
:101CF00032E0FC0131832083FB0142815381648106
:101D00007581FC01428353836483758308950F9327
:101D100000E020E040E060E082ED93E00E948C066D
:101D200082EC93E00E9482060F91089581E086275D
:101D30000895862F0895DC01ED91FC91048CF58DBA
:101D4000E02D099591E089270895CF93DF931F92A5
:101D5000CDB7DEB76983DC01ED91FC910280F381A0
:101D6000E02D41E050E0BE016F5F7F4F09950F907D
:101D7000DF91CF91089521E0FC018485843009F43E
:101D800020E0822F0895FC019485FB01848598133F
:101D900005C081E0943019F480E0089580E0089552
:101DA000CF92DF92EF92FF920F931F93CF93DF9327
:101DB000CDB7DEB7E5970FB6F894DEBF0FBECDBF47
:101DC0007C018B016A01CE010D960E948206CE0134
:101DD00045960E943B14CE01C0960E94820662EC9A
:101DE00073E0CE0107960E94770EBE01695F7F4FB8
:101DF000CE010D960E94B51CAE01405D5F4FB8014B
:101E0000CE010D960E946B1F9C0181309105C9F493
:101E1000D701ED91FC910484F585E02D8AE092E0F4
:101E20009A8389838AA99BA9ACA9BDA98B839C832A
:101E3000AD83BE83A601BE016F5F7F4FC7010995C9
:101E400001C0932FE5960FB6F894DEBF0FBECDBF4D
:101E5000DF91CF911F910F91FF90EF90DF90CF9086
:101E600008950F931F93CF93DF93FC0184858430F3
:101E700039F481E090E09383828380E090E00FC0AA
:101E8000C52FD42F8F010E94BA16009731F421E09C
:101E900030E0F8013383228302C08D2F9C2FDF9125
:101EA000CF911F910F910895FC018485843019F022
:101EB0000E943718089580E090E00895CF93DF9353
:101EC0001F92CDB7DEB741E050E0BE016F5F7F4F9C
:101ED000FC0184850E94C317181619061CF4898119
:101EE00090E002C08FEF9FEF0F90DF91CF910895A8
:101EF000FC0184850E94C31708950F931F93CF930D
:101F0000DF931F92CDB7DEB78C01DC01ED91FC9120
:101F10000480F581E02D0995892B51F0BE016F5F9A
:101F20007F4FF80184850E946918898190E002C082
:101F30008FEF9FEF0F90DF91CF911F910F91089539
:101F4000FC0184850E94A3180895FC01138212826B
:101F500088EE93E0A0E0B0E084839583A683B78306
:101F60008FE192E09183808364870895FC018485EA
:101F7000843019F00E94C114089580E00895CF9232
:101F8000DF92EF92FF921F93CF93DF93FC012485A2
:101F9000243009F052C07A016B01EC0110E0812F6E
:101FA0000E94C114882319F08B7F883111F41C879B
:101FB00003C01F5F143099F78C85843009F440C04A
:101FC00020910601309107012F5F3F4F29F0309398
:101FD00007012093060106C020E030EC3093070192
:101FE00020930601409106015091070120E061E035
:101FF0000E943415B6016E5F7F4FA7018C850E9449
:102000000B16811105C084E08C8780E090E01DC034
:10201000CE010E94B60F8731B1F061E070E080E040
:1020200090E00E949C0BCE010E94B60F8111F0CF70
:1020300084E08C8780E090E008C080E090E005C0FC
:1020400080E090E002C081E090E0DF91CF911F91AD
:10205000FF90EF90DF90CF900895CF92DF92EF92B4
:10206000FF92CF93DF93EC018C85843071F10E9455
:1020700087160E946B0B6B017C01CE010E94B60F8C
:102080008823A1F061E070E080E090E00E949C0B6A
:102090000E946B0BDC01CB018C199D09AE09BF09B5
:1020A000883E9340A105B10540F30BC0EC85F0E0FC
:1020B000EE0FFF1FE653FC4F1182108284E08C87E5
:1020C00004C08C850E94F514F1CFDF91CF91FF9071
:1020D000EF90DF90CF900895CF93DF93FC0124859C
:1020E000243001F1EC010E94B60F843191F0882375
:1020F00091F0883191F08C3191F4E881F98104807C
:10210000F581E02DCE01099521E0892B49F420E0ED
:1021100007C020E005C020E003C020E001C021E0AE
:10212000822F01C080E0DF91CF9108950F9300E0EE
:1021300020E040E060E088ED93E00E948C060F9183
:102140000895CF93DF931F92CDB7DEB76983DC018B
:10215000ED91FC910280F381E02D41E050E0BE0161
:102160006F5F7F4F09950F90DF91CF910895CF92C8
:10217000DF92FF920F931F93CF93DF93CDB7DEB71C
:102180002D970FB6F894DEBF0FBECDBF6C0100E0F7
:1021900010E0602FCE0101960E94A50FCE0101969E
:1021A0000E94B60F811116C0F6014481558120E0CE
:1021B00061E0802F0E943415802F0E94B315F60134
:1021C00084819581000F111FF801E653FC4F918324
:1021D000808305C00F5F1F4F04301105D1F62D9687
:1021E0000FB6F894DEBF0FBECDBFDF91CF911F9128
:1021F0000F91FF90DF90CF900895FC01138212821F
:1022000083E492E0918380837583648308959F9231
:10221000AF92BF92CF92DF92EF92FF920F931F93F4
:10222000CF93DF93CDB7DEB72D970FB6F894DEBF0F
:102230000FBECDBF6C010F2EFAECEF2EF3E0FF2E98
:10224000F02D10E0A12CB12C01E0912C612FCE01DA
:1022500001960E94A50FD7012D913D917D01F601B8
:102260008481958128173907C9F4CE0101960E940F
:10227000B60F843189F0CE0101960E94B60F8C31E1
:1022800069F4CE0101960E94540F892B39F4CE01D6
:1022900001960E942D1002C0A02EB92C1F5F143091
:1022A000A9F6AB2841F4D601ED91FC910480F581AB
:1022B000E02DC60109952D960FB6F894DEBF0FBE2E
:1022C000CDBFDF91CF911F910F91FF90EF90DF90E5
:1022D000CF90BF90AF909F9008957F928F929F92E2
:1022E000AF92BF92CF92DF92EF92FF920F931F9324
:1022F000CF93DF93CDB7DEB72D970FB6F894DEBF3F
:102300000FBECDBF7C014B015A010E9407110AECA0
:1023100013E0712CC12CD12C672DCE0101960E94A7
:10232000A50FF801219131918F01F70184819581E9
:102330002817390771F4CE0101960E94B60F873134
:1023400041F4A501B401CE0101960E94310FC80EDF
:10235000D91E7394F4E07F12DFCFC6012D960FB61D
:10236000F894DEBF0FBECDBFDF91CF911F910F91CB
:10237000FF90EF90DF90CF90BF90AF909F908F90A5
:102380007F900895AF92BF92CF92DF92EF92FF922B
:102390001F93CF93DF93CDB7DEB72D970FB6F89489
:1023A000DEBF0FBECDBF5C016B01CB010E940711E8
:1023B0000F2EFAECEF2EF3E0FF2EF02D10E0612F40
:1023C000CE0101960E94A50FF701219131917F0165
:1023D000F601848195812817390751F5CE010196C0
:1023E0000E94B60F873111F08C3111F5CE010196A4
:1023F0000E94540F892BE1F08B819C81F50193831E
:1024000082838D819E81AF81B88584839583A683E5
:10241000B78389859A85AB85BC8580879187A2879C
:10242000B3878FE192E0918380838D85848707C095
:102430001F5F143021F664E0C5010E94A50FC5019D
:102440002D960FB6F894DEBF0FBECDBFDF91CF91B2
:102450001F91FF90EF90DF90CF90BF90AF900895C5
:102460000F9300E020E040E060E08EED93E00E94FA
:102470008C060F910895DC01ED91FC91028CF38D97
:10248000E02D099508952AE032E0FC013183208394
:10249000FB014089518962897389FC01428353831E
:1024A000648375830895FC01848995890895FC01EE
:1024B000818D928D0895CF93DF931F92CDB7DEB7B4
:1024C0006983DC01ED91FC910280F381E02D41E014
:1024D00050E0BE016F5F7F4F09950F90DF91CF9164
:1024E00008950895EF92FF920F931F93CF93FC01ED
:1024F000208D2430F9F47B018C01C0E08C2F0E94E8
:10250000C114882311F0883119F4F801C08F03C079
:10251000CF5FC43099F7F801808D843069F0F5867B
:10252000E486128E118E20E0A70162E00E9434152D
:1025300081E003C080E001C080E0CF911F910F9146
:10254000FF90EF900895CF93DF93FC01808D84304E
:1025500069F0EF010E94F514E88DF0E0EE0FFF1F27
:10256000E653FC4F1182108284E0888FDF91CF9177
:102570000895FC01178A168A6E5F7F4F808D0E9436
:10258000FE180895FC01808D0E9468190895CF936C
:10259000DF93EC019A018E899F89AB01BC01888D84
:1025A0000E94A4182E893F89280F391F3F8B2E8B3C
:1025B000DF91CF9108950F931F93CF93DF931F92D5
:1025C000CDB7DEB7FC01218D328D232BA9F08C0114
:1025D00041E050E0BE016F5F7F4F808D0E94C317C6
:1025E0001816190664F4F801818D928D0197928F67
:1025F000818F898190E005C08FEF9FEF02C08FEF40
:102600009FEF0F90DF91CF911F910F910895CF937E
:10261000DF93FC01218D328D21153105D1F0EC01C4
:102620004217530730F0A901808D0E94C3179C0107
:1026300004C0808D0E94C3179C011216130664F417
:10264000898D9A8D821B930B9A8F898F822F932F5E
:1026500005C08FEF9FEF02C08FEF9FEFDF91CF910B
:1026600008950F931F93CF93DF93CDB7DEB72897CD
:102670000FB6F894DEBF0FBECDBF8C01DC015996BA
:102680008D919C915A97892B69F0D801ED91FC911D
:102690000680F781E02DC8010995F801818D928DA2
:1026A000892B99F7D80158968C910E9437181816E3
:1026B000190674F548E050E0BE016F5F7F4FF801E6
:1026C000808D0E94C3179C0118161906F4F4BE01F0
:1026D0006F5F7F4FC8010E960E9498068D8190E033
:1026E000982F88272E81820F911DD80155969C9393
:1026F0008E9354972F8130E0322F22278885280F20
:10270000311D5A963C932E935997822F932F02C0D6
:1027100080E090E028960FB6F894DEBF0FBECDBFE4
:10272000DF91CF911F910F910895CF93DF931F9267
:10273000CDB7DEB7FC01218D328D232B49F0BE01D0
:102740006F5F7F4F808D0E946918898190E002C081
:102750008FEF9FEF0F90DF91CF910895AF92BF92CF
:10276000CF92DF92EF92FF920F931F93CF93DF935D
:1027700000D000D000D0CDB7DEB7FC01208D2430D2
:1027800009F065C0B52EA42E7B016C0100E010E0BD
:10279000902F88278D5F9B4F0E94BB1A882311F0D2
:1027A000883119F4F601008F05C00F5F1F4F043008
:1027B000110571F7F601808D843009F44AC096E066
:1027C000E8E0F1E0DE01119601900D929A95E1F7B3
:1027D000F70193819F779C8394819D8395819E834C
:1027E000B7016E5F7F4F90E0982F882744E050E05C
:1027F000845F9B4F0E94911AF601008D10E00C5FE0
:102800001F4F102F00276B2DC80140960E940A1AF7
:102810006A2DC80141960E940A1AF601808D90E047
:10282000982F882746E050E0BE016F5F7F4F8A5F98
:102830009B4F0E94911AF601128E118E20E84A2DAC
:102840005B2D62E0808D0E94341581E003C080E042
:1028500001C080E026960FB6F894DEBF0FBECDBF54
:10286000DF91CF911F910F91FF90EF90DF90CF906C
:10287000BF90AF900895CF93DF93EC011B821A8233
:1028800088EE93E0A0E0B0E08C839D83AE83BF83AD
:102890008DE492E099838883CE010E960E94820691
:1028A00084E0888FDF91CF910895CF92DF92EF92ED
:1028B000FF920F931F93CF93DF93CDB7DEB7E597CA
:1028C0000FB6F894DEBF0FBECDBF7C018B016A014D
:1028D000CE010D960E948206CE0145960E943B14C1
:1028E000CE01C0960E94820662EC73E0CE0107968C
:1028F0000E94770EBE01695F7F4FCE010D960E9448
:10290000B51CAE01405D5F4FB801CE010D960E942F
:102910006B1F9C0181309105C9F4D701ED91FC91A9
:102920000288F389E02D8AE092E09A8389838AA95C
:102930009BA9ACA9BDA98B839C83AD83BE83A60153
:10294000BE016F5F7F4FC701099501C0932FE596C8
:102950000FB6F894DEBF0FBECDBFDF91CF911F91B0
:102960000F91FF90EF90DF90CF9008950F9300E0CC
:1029700020E040E060E084EE93E00E948C060F913E
:10298000089590910A04992399F02FB7F8949091A3
:102990000A04913059F49DB3909308043DB390918B
:1029A0000904909593239DBB2FBF02C02093080478
:1029B00090E59CBD1DBC90E0982F88278D5F9B4FB4
:1029C0000E94BB1A90910A04992371F02FB7F894D2
:1029D00090910A04913029F4909108049DBB2FBF77
:1029E0000895909108049FBF0895CF93C82F8091B8
:1029F0000A04882399F09FB7F89480910A048130E3
:102A000059F48DB3809308042DB380910904809507
:102A100082238DBB9FBF02C09093080480E58CBDCC
:102A20001DBC40E16C2F8CEE93E00E94961C8C2F15
:102A300090E0982F88276FEF8E5F9B4F0E940A1AB5
:102A400080910A04882371F09FB7F89480910A045A
:102A5000813029F4809108048DBB9FBF03C0809111
:102A600008048FBFCF910895DF92EF92FF920F93EA
:102A70001F93CF93DF939FEF960F953008F068C0B8
:102A8000D22E7A01C62FD82F0E94F51480910A0405
:102A9000882399F08FB7F89490910A04913059F4F3
:102AA0009DB3909308042DB39091090490959223BF
:102AB0009DBB8FBF02C08093080480E58CBD1DBC08
:102AC0000D2F10E00C5F1F4F102F00276C2F6D296A
:102AD000C8010E940A1AE114F10459F06F2DC801CF
:102AE00004960E940A1A6E2DC80105960E940A1AC1
:102AF00015C0E090EA03F090EB038FEFE81AF80AB4
:102B0000F092EB03E092EA036F2DC80104960E9455
:102B10000A1A6E2DC80105960E940A1A41E06D2F0F
:102B20008CEE93E00E94961C80910A04882391F019
:102B30009FB7F89480910A04813029F42091080409
:102B40002DBB9FBF08C0809108048FBF81E003C0E8
:102B500080E001C081E0DF91CF911F910F91FF9044
:102B6000EF90DF900895CF93C82F80910A048823B7
:102B700099F09FB7F89480910A04813059F48DB38D
:102B8000809308042DB380910904809582238DBB26
:102B90009FBF02C09093080480E58CBD1DBC8C2FA4
:102BA00090E0982F88278D5F9B4F0E94BB1A83313E
:102BB000A9F080910A04882361F19FB7F89480916D
:102BC0000A04813031F4809108048DBB9FBF80E0FE
:102BD00020C0809108048FBF80E01BC042E06C2FB2
:102BE0008CEE93E00E94961C80910A04882381F069
:102BF0009FB7F89480910A04813029F42091080449
:102C00002DBB9FBF06C0809108048FBF81E001C02B
:102C100081E0CF910895FF920F931F93CF93DF939D
:102C2000FB0190819F3F51F491819F3F99F49281E4
:102C30009F3F81F493819F3F69F45DC091110AC069
:102C40009181911107C09281911104C093819923C0
:102C500009F456C04115510509F44FC090910A047A
:102C6000992399F02FB7F89490910A04913059F470
:102C70009DB3909308043DB39091090490959323DC
:102C80009DBB2FBF02C020930804EA01BF01F82EAC
:102C900080E58CBD1DBC0F2D10E00C5F1F4F102F69
:102CA000002744E050E0C8010C960E94911A6D2F55
:102CB000C80140960E940A1A6C2FC80141960E94D2
:102CC0000A1A44E06F2D8CEE93E00E94961C8091CE
:102CD0000A048823A1F08FB7F89490910A049130E8
:102CE00029F4209108042DBB8FBF0AC080910804ED
:102CF0008FBF91E005C090E003C090E001C091E07B
:102D0000892FDF91CF911F910F91FF90089590919E
:102D10000A04992399F02FB7F89490910A049130FE
:102D200059F49DB3909308043DB390910904909594
:102D300093239DBB2FBF02C02093080490E59CBD48
:102D40001DBC48E0682F8CEE93E00E94961C809199
:102D50000A04882371F09FB7F89480910A048130A7
:102D600029F4809108048DBB9FBF089580910804C9
:102D70008FBF08958F929F92AF92BF92CF92DF92B2
:102D8000EF92FF920F931F93CF93DF93982E5B01E7
:102D90006A014130584020F0C12C6894DD24D3F8FA
:102DA000C92DD0E02496DC2FCC278E010D5F1F4F5C
:102DB0000F2EF0E58F2EF02D80910A04882399F0D4
:102DC0009FB7F89480910A04813059F48DB38093B1
:102DD00008042DB380910904809582238DBB9FBF89
:102DE00002C0909308048CBC1DBC692D8CEE93E04E
:102DF0000E94931B7C01C8010E94BB1A90910A0497
:102E0000992371F02FB7F89490910A04913029F426
:102E1000909108049DBB2FBF03C0909108049FBFF1
:102E2000873111F08C3131F40E94B20CEC14FD04A6
:102E300018F202C0C12CD12C80910A04882399F089
:102E40008FB7F89490910A04913059F49DB3909300
:102E500008042DB390910904909592239DBB8FBFD8
:102E600002C08093080480E58CBD1DBC9601A501BD
:102E7000692D8CEE93E00E944B1B40E2692D8CEE95
:102E800093E00E94961C22960F2EF0E5BF2EF02DA7
:102E9000CE010E94BB1A84FD4BC0C8010E94BB1A20
:102EA000811118C080910A04882371F09FB7F894AB
:102EB00080910A04813029F4809108048DBB9FBF62
:102EC00003C0809108048FBF892D0E94F51480E013
:102ED00090E04CC080910A04882371F09FB7F89469
:102EE00080910A04813029F4809108048DBB9FBF32
:102EF00003C0809108048FBF0E94B20C80910A0425
:102F0000882399F09FB7F89480910A04813059F48E
:102F10008DB3809308042DB380910904809582239A
:102F20008DBB9FBF02C090930804BCBC1DBCB0CF3A
:102F300060E18C2F9D2F0E940A1A80910A04882339
:102F400099F09FB7F89480910A04813039F4809108
:102F500008048DBB9FBF8C2D9D2D08C08091080457
:102F60008FBF8C2D9D2D02C08C2D9D2DDF91CF917B
:102F70001F910F91FF90EF90DF90CF90BF90AF9097
:102F80009F908F900895CF92DF92EF92FF920F93D0
:102F90001F93CF93DF93182F6B017A0180910A045E
:102FA000882399F09FB7F89480910A04813059F4EE
:102FB0008DB3809308042DB38091090480958223FA
:102FC0008DBB9FBF02C09093080480E58CBD1DBCE3
:102FD000612F8CEE93E00E94561BEC010097B1F438
:102FE000812F90E0982F88278D5F9B4F0E94BB1AFE
:102FF000843109F18823F9F0C1E0D0E08C3111F47B
:10300000C0E0D0E0D195C195D10904C0E816F90619
:103010000CF4E7011C161D0674F400E09E01A601E5
:10302000612F8CEE93E00E94441C40E4612F8CEEF3
:1030300093E00E94961C80910A04882371F09FB748
:10304000F89480910A04813029F4809108048DBBA2
:103050009FBF03C0809108048FBFCE01DF91CF9145
:103060001F910F91FF90EF90DF90CF900895909176
:103070000A04992399F02FB7F89490910A0491309B
:1030800059F49DB3909308043DB390910904909531
:1030900093239DBB2FBF02C02093080490E59CBDE5
:1030A0001DBC682F8CEE93E00E94561B20910A04F1
:1030B000222371F03FB7F89420910A04213029F4BB
:1030C000209108042DBB3FBF0895209108042FBF15
:1030D00008950F93AB0190910A04992399F02FB7AB
:1030E000F89490910A04913059F49DB39093080498
:1030F0003DB390910904909593239DBB2FBF02C0CF
:103100002093080490E59CBD1DBC01E021E030E067
:10311000682F8CEE93E00E94441C80910A0488235F
:1031200071F09FB7F89480910A04813029F480915E
:1031300008048DBB9FBF03C0809108048FBF81E04E
:1031400090E00F9108950895AF92BF92CF92DF92D1
:10315000FF920F931F93CF93DF93F82E6B015A01C9
:10316000E90180910A04882399F09FB7F89480912F
:103170000A04813059F48DB3809308042DB38091F3
:103180000904809582238DBB9FBF02C090930804E1
:1031900080E58CBD1DBC6F2D8CEE93E00E94931BCF
:1031A0008C179D0730F46F2D8CEE93E00E94931BDB
:1031B000EC018E019501A6016F2D8CEE93E00E942B
:1031C000D71A80910A04882371F09FB7F8948091F0
:1031D0000A04813029F4809108048DBB9FBF03C08D
:1031E000809108048FBFCE01DF91CF911F910F9185
:1031F000FF90DF90CF90BF90AF9008950F931F93F3
:10320000CF93DF93FB01908191110AC091819111BD
:1032100007C09281911104C09381992309F44BC096
:103220004115510509F44AC090910A04992399F077
:103230009FB7F89420910A04213059F42DB32093BC
:1032400008043DB320910904209523232DBB9FBF83
:1032500002C0909308048A0190E59CBD1DBCC82F54
:10326000D0E02496DC2FCC2744E050E0CE010C9631
:103270000E94911A612FCE0140960E940A1A602F77
:10328000CE0141960E940A1A80910A048823C9F04F
:103290009FB7F89480910A04813039F48091080432
:1032A0008DBB9FBF81E090E00EC0809108048FBF6E
:1032B00081E090E008C080E090E005C080E090E010
:1032C00002C081E090E0DF91CF911F910F910895AE
:1032D0001F93CF93DF93C82F80910A04882399F01E
:1032E0008FB7F89490910A04913059F49DB390935C
:1032F00008042DB390910904909592239DBB8FBF34
:1033000002C08093080480E58CBD1DBC40E26C2F98
:103310008CEE93E00E94961CD0E0DC2FCC27CE5F91
:10332000DB4F10E5CE010E94BB1A84FD4FC0CE01D9
:103330000E94BB1A83FF1CC068E1CE010E940A1ADA
:1033400080910A04882309F45CC09FB7F8948091A7
:103350000A04813039F4809108048DBB9FBF80E05E
:1033600090E054C0809108048FBF80E090E04EC090
:1033700080910A04882371F09FB7F89480910A0421
:10338000813029F4809108048DBB9FBF03C08091D8
:1033900008048FBF0E94B20C80910A04882399F020
:1033A0009FB7F89480910A04813059F48DB38093CB
:1033B00008042DB380910904809582238DBB9FBFA3
:1033C00002C0909308041CBD1DBCACCF60E1CE01CF
:1033D0000E940A1A80910A048823B1F09FB7F894DA
:1033E00080910A04813039F4809108048DBB9FBF1D
:1033F00081E090E00BC0809108048FBF81E090E0F5
:1034000005C080E090E002C081E090E0DF91CF91C4
:103410001F9108952A9820EF2EBD00000DB407FEDD
:10342000FDCF2EB59EBD00000DB407FEFDCF9EB5AD
:103430008EBD00000DB407FEFDCF8EB56EBD000041
:103440000DB407FEFDCF8EB52A9A81E00895CF9383
:10345000DF93EC016CE271E080E090E00E949C0B55
:103460000E946923229A80910A04882399F09FB7C9
:10347000F89480910A04813059F48DB38093080444
:103480002DB380910904809582238DBB9FBF02C01C
:103490009093080480E58CBD1DBC60E880E090E05E
:1034A0000E940A1A65E58BE190E00E940A1A65E520
:1034B0008AE190E00E940A1A80910A04882371F040
:1034C0009FB7F89480910A04813029F48091080410
:1034D0008DBB9FBF03C0809108048FBF80E090E444
:1034E0009983888380E090E69987888780E098E4D4
:1034F0009B838A8380E098E69B878A8780E090E5BB
:103500009D838C8380E090E79D878C8780E098E5A1
:103510009F838E8380E098E79F878E87DF91CF918E
:1035200008954115510529F1E62FF72FBC01640FCD
:10353000751F30EF2A983EBD00000DB407FEFDCF89
:103540002EB59EBD00000DB407FEFDCF2EB58EBD7D
:1035500000000DB407FEFDCF2EB5019621912EBDC2
:1035600000000DB407FEFDCF2EB52A9A86179707E7
:1035700009F7CA0108952A982FE02EBD00000DB466
:1035800007FEFDCF2EB59EBD00000DB407FEFDCF9A
:103590009EB58EBD00000DB407FEFDCF8EB51EBCDE
:1035A00000000DB407FEFDCF8EB52A9A08954F9204
:1035B0005F926F927F928F929F92AF92BF92CF92C3
:1035C000DF92EF92FF920F931F93CF93DF935C01F3
:1035D0002A013901862E912C740164E0E60EF11C5B
:1035E000FE2CEE24670184E2C80ED11CC6010E94A5
:1035F000BB1AC82FD0E0E5E2EE0EF11CC7010E9415
:10360000BB1ADC2FCC27C82BC40DD51D9E013770EB
:10361000880C991CA80CB91CF50180819181820F3E
:10362000931FA901400F511F41305840A8F060E09E
:1036300078E04B01821A930AA401B3010E94911A07
:10364000A80148195909B301680D791DF501808158
:1036500091810E94911A04C0A801B3010E94911A9D
:103660000C0F1D1F612FC6010E940A1A602FC7018F
:103670000E940A1ADF91CF911F910F91FF90EF9056
:10368000DF90CF90BF90AF909F908F907F906F9082
:103690005F904F9008950F931F9389019A0140E026
:1036A00050E00E94D71A1F910F910895CF92DF9298
:1036B000EF92FF920F931F93CF93DF93E62EF12C9F
:1036C00084E0E80EF11CFE2CEE24670186E2C80EB1
:1036D000D11C87E2E80EF11C00E010E0C6010E9458
:1036E000BB1AC82FD0E0C7010E94BB1ADC2FCC2721
:1036F000C82B209759F0C6010E94BB1A082F10E072
:10370000C7010E94BB1A102F0027082B0C171D079A
:1037100029F7CE01DF91CF911F910F91FF90EF908C
:10372000DF90CF900895CF92DF92EF92FF920F93A8
:103730001F93CF93DF93E62EF12C84E0E80EF11C6B
:10374000FE2CEE24670180E2C80ED11C81E2E80E57
:10375000F11C00E010E0C6010E94BB1AC82FD0E0A7
:10376000C7010E94BB1ADC2FCC27C82B209759F029
:10377000C6010E94BB1A082F10E0C7010E94BB1AA5
:10378000102F0027082B0C171D0729F7CE01DF91FA
:10379000CF911F910F91FF90EF90DF90CF90089500
:1037A0004115510529F1E62FF72FBC01640F751F54
:1037B0003FE02A983EBD00000DB407FEFDCF2EB5B8
:1037C0009EBD00000DB407FEFDCF2EB58EBD0000DE
:1037D0000DB407FEFDCF2EB501961EBC00000DB442
:1037E00007FEFDCF2EB521932A9A8617970709F772
:1037F000CA010895AF92BF92CF92DF92EF92FF92EB
:103800000F931F93CF93DF9300D0CDB7DEB75A83CA
:103810004983690129813A813770E62EF12CEE0C3B
:10382000FF1CE80EF91EF70180859185820F931F1A
:10383000A901400F511F41305840A8F060E078E0E6
:103840005B01A21AB30AA501B6010E94D01BA80110
:103850004A195B09B6016A0D7B1DF70180859185C8
:103860000E94D01B04C0A801B6010E94D01B0F907B
:103870000F90DF91CF911F910F91FF90EF90DF900C
:10388000CF90BF90AF9008954F925F926F927F92CA
:103890008F929F92AF92BF92CF92DF92EF92FF9260
:1038A0000F931F93CF93DF934C01762E2A0159017A
:1038B000602EE62EF12C84E0E80EF11CFE2CEE24A6
:1038C000670188E2C80ED11CC6010E94BB1AC82F2E
:1038D000D0E089E2E80EF11CC7010E94BB1ADC2F80
:1038E000CC27C82B85019201AE01672DC4010E942F
:1038F000FA1B61100AC0CA0DDB1D6D2FC6010E94A4
:103900000A1A6C2FC7010E940A1ADF91CF911F91EA
:103910000F91FF90EF90DF90CF90BF90AF909F906E
:103920008F907F906F905F904F900895CF93DF932B
:10393000C62FD0E0DC2FCC27CF5FDB4F642FCE012A
:103940000E940A1ACE010E94BB1A8111FBCFDF919F
:10395000CF9108950F9300E020E040E060E08CEF0D
:1039600093E00E948C060F910895FB0142815381E0
:1039700064817581FC01428353836483758317825C
:10398000168208951F93CF93DF93EA01E62FF72F56
:1039900030E080E090E010E040E02191222321F12E
:1039A00050ED520F5A3098F4BC01660F771F880F04
:1039B000991F880F991F880F991F860F971FC0970F
:1039C000820F911D8F3F910541F338F313C02E32C2
:1039D000A1F43330A9F0DE01A30FB11D12968C9330
:1039E0003F5F812F942FD9CF333069F48D8381E0ED
:1039F00090E00BC080E090E008C080E090E005C05F
:103A000080E090E002C080E090E0DF91CF911F91D4
:103A100008950F9300E020E040E060E082E094E051
:103A20000E948C060F910895AF92BF92CF92DF92C1
:103A3000EF92FF920F931F93CF93DF9300D000D0AC
:103A40001F92CDB7DEB76C018B010E946B0BF601A4
:103A5000778366837627672776277C836B83F8E0F6
:103A6000CF0ED11C42E050E0BE016D5F7F4FC6011A
:103A70000E94C71281E090E09A83898342E050E07F
:103A8000BE016F5F7F4FC6010E94C71280E091E0C8
:103A90009A83898342E050E0BE016F5F7F4FC60189
:103AA0000E94C7121A82198242E050E0BE016F5F85
:103AB0007F4FC6010E94C71242E050E0BE016F5F17
:103AC0007F4FC6010E94C71242E050E0BE016F5F07
:103AD0007F4FC6010E94C712F80180818823E1F15F
:103AE000780101C07801F8018081882309F18E32C4
:103AF00059F1319602C09E3241F15F0191919111CD
:103B0000FACF17C00D8341E050E0BE016B5F7F4FDD
:103B1000C6010E94C712A801B701C6010E94C712C0
:103B200085010F5F1F4FF50180818111DBCF14C02C
:103B3000580185010E191F09101611061CF30CC03F
:103B400085010F5F1F4FCECF580185010E191F0948
:103B500010161106ACF7D6CF1D8241E050E0BE0131
:103B60006B5F7F4FC6010E94C71200E011E01A830D
:103B7000098342E050E0BE016F5F7F4FC6010E94A3
:103B8000C7121A83098342E050E0BE016F5F7F4F86
:103B9000C6010E94C71281E090E00F900F900F9035
:103BA0000F900F90DF91CF911F910F91FF90EF90A9
:103BB000DF90CF90BF90AF9008952F923F924F9299
:103BC0005F926F927F928F929F92AF92BF92CF92AD
:103BD000DF92EF92FF920F931F93CF93DF93CDB7B6
:103BE000DEB763970FB6F894DEBF0FBECDBF6C0192
:103BF0007B011A010E946B0B4B015C018601085F7F
:103C00001F4F2701612C712CE02EF12EC8010E945C
:103C1000311318161906ACF00E946B0BDC01CB01B6
:103C200088199909AA09BB09481659066A067B062C
:103C300008F42CC162E370E080E090E00E949C0BED
:103C4000E3CFF6014281538164817581808D918D2E
:103C5000A28DB38D481759076A077B0709F019C170
:103C6000848D958DC59709F017C1802F912F0E94E3
:103C700057120C970CF413C14CE050E0BE016F5F7B
:103C80007F4F802F912F0E9407136C818B810E94A0
:103C90009F239E878D87F601068117816A8189811E
:103CA0000E949F230817190721F48D859E8599236B
:103CB0003CF08E2D9F2D0E9471120CEF1FEFF1C072
:103CC0008F709270892B39F08E2D9F2D0E9471126A
:103CD0000BEF1FEFE6C068858F810E949F235C0178
:103CE000892B39F48E2D9F2D0E9471120AEF1FEF40
:103CF000D8C000E010E06E818D810E949F230817DC
:103D0000190768F541E050E0BE01615F7F4F8E2DDD
:103D10009F2D0E9407138F85882371F081508F8714
:103D20008E2D9F2D0E94DB128F859FEF980F9F870E
:103D30008111F6CF9111E6CF8E2D9F2D0E94DB12BF
:103D40008E2D9F2D0E94DB128E2D9F2D0E94DB1247
:103D50008E2D9F2D0E94DB120F5F1F4FCCCFC12CE9
:103D6000D12C41E050E0BE016D5E7F4F8E2D9F2D26
:103D70000E9407138B89982F907C79F48823A9F0EF
:103D800081508B8B8E2D9F2D0E94DB128B899FEF94
:103D9000980F9B8B8111F6CF06C08E2D9F2D0E9410
:103DA000DB121B8A02C09111DCCF42E050E0BE0161
:103DB0006F5E7F4F8E2D9F2D0E94071342E050E0D3
:103DC000BE01615F7F4F8E2D9F2D0E9407138E2DA8
:103DD0009F2D0E94DB128E2D9F2D0E94DB128E2DB7
:103DE0009F2D0E94DB128E2D9F2D0E94DB1242E040
:103DF00050E0BE01635F7F4F8E2D9F2D0E94071301
:103E000089899A898115914039F08D859E85892B04
:103E100079F100E010E01EC00F85188910270127F6
:103E200010270130110589F78D859E8581159440F5
:103E300039F08E2D9F2D0E94711207EF1FEF31C0B8
:103E4000B1016E5F7F4F44E050E08E2D9F2D0E94A8
:103E5000071327C08E2D9F2D0E94DB120F5F1F4F6F
:103E60008D859E859827892798270817190790F32D
:103E70008FEFC81AD80AAC14BD0409F072CF8E2D8A
:103E80009F2D0E94711206EF1FEF0BC00FEF1FEF67
:103E900008C00EEF1FEF05C00EEF1FEF02C00DEFC1
:103EA0001FEFC80163960FB6F894DEBF0FBECDBFFB
:103EB000DF91CF911F910F91FF90EF90DF90CF9006
:103EC000BF90AF909F908F907F906F905F904F903A
:103ED0003F902F9008958F929F92AF92BF92CF9272
:103EE000DF92EF92FF920F931F93CF93DF9300D057
:103EF00000D000D0CDB7DEB77C016B015A010E9423
:103F0000C21C8C01892B09F055C0F70142815381F5
:103F1000648175818091040490910504A091060448
:103F2000B0910704481759076A077B0709F445C091
:103F30000E946B0B4701F8E08F0E911C6F70772782
:103F40007C5FC4010E947212813009F04CC08AE08B
:103F500092E09A838983F70182819381A481B5815C
:103F60008B839C83AD83BE8345E350E0BE016F5FCE
:103F70007F4FC4010E94B9128C01892BB9F0B601A0
:103F8000C7010E94141D892B79F0C4010E94C2123E
:103F90008C01892BA9F40AC0A50168E873E1C70167
:103FA0000E94DD1D8C0102C000E010E0C4010E94EF
:103FB000A31219C001E010E016C00EEF1FEF13C0EE
:103FC000A50168E873E1C7010E94DD1D8C0101961F
:103FD00069F7A50168E873E1C7010E94DD1D8C0146
:103FE0000196D1F2E3CFC80126960FB6F894DEBF52
:103FF0000FBECDBFDF91CF911F910F91FF90EF903A
:10400000DF90CF90BF90AF909F908F900895FC016C
:10401000718360830895EF92FF920F931F93CF9364
:10402000DF93EC017B018A01888199810E94C0069F
:10403000B701888199810E94C00741E064E48881CA
:1040400099810E946707B801110F880B990B0E9494
:104050009C0BDF91CF911F910F91FF90EF900895EE
:10406000EF92FF920F931F93CF93DF937C01EB01AD
:104070008A01FC01808191810E94C006BE01F70186
:10408000808191810E94C00740E06EEBF701808142
:1040900091810E946707E801075F1F4FF701808148
:1040A00091810E94A5078993C017D107B9F7DF91C5
:1040B000CF911F910F91FF90EF900895FB018081A8
:1040C000823229F0883219F0803119F404C080E07E
:1040D00008958FEF089581E00895BF92CF92DF9207
:1040E000EF92FF920F931F93CF93DF93CDB7DEB77D
:1040F0002C970FB6F894DEBF0FBECDBF8C017B01AD
:10410000B42E4AE050E00E940B20AE014F5F5F4F9B
:10411000B701C8010E9430206A8170E0762F6627BF
:1041200089816B01C82AB701C8010E945E208130D5
:10413000A1F4CC0CDD1CCC0CDD1CCC0CDD1C88856A
:104140008031D1F42F818CE090E0821B9109B6017F
:10415000607F6C01C60ED71E0FC08D81807619F46A
:1041600088EFC82209C0803219F48CEFC82204C03D
:10417000803411F4E894C0F8B601DD0C880B990B7B
:104180000E94932220E030E040E85DE30E94F722A5
:10419000B11017C026E636E646EE5FE3C62ED72EF0
:1041A000E82EF92EC701B6010E94F72220E030E088
:1041B00040E052E40E94B103562F472F382F292F99
:1041C00004C0562F472F382F292F652F742F832F88
:1041D000922F2C960FB6F894DEBF0FBECDBFDF91A5
:1041E000CF911F910F91FF90EF90DF90CF90BF90F4
:1041F000089570E0FC0122813381261737076CF0A7
:10420000660F771F660F771F660F771F6C5F7F4FF4
:10421000680F791F0E946D20089560E070E08FE7BD
:1042200093EC0895EF92FF920F931F93CF93DF9338
:10423000CDB7DEB728970FB6F894DEBF0FBECDBF5F
:104240007C01DC0113961C921E92129714961C920C
:1042500014971C961C921C9754961C9254975C962B
:104260001C925C9794961C9294979C961C929C9797
:104270008D919C910E94DE078E01075F1F4F41E0E8
:10428000BE016F5F7F4FF701808191810E94160808
:104290008823F1F0FE013196D70112968D919C9101
:1042A0001397DC01AA0FBB1FAA0FBB1FAA0FBB1FCE
:1042B0001496AE0DBF1D81918D930E171F07D9F770
:1042C000F701828193810196938382830797BCF2E1
:1042D00028960FB6F894DEBF0FBECDBFDF91CF9109
:1042E0001F910F91FF90EF9008950E941221089561
:1042F000CF93DF93D42FC52F6730710550F087E03F
:10430000EFECF1E0A42FB52F01900D928A95E1F723
:104310005DC0DB01AA0FBB1FAA0FBB1FAA0FBB1FEB
:10432000A80FB91F14962C9121110AC087E0EFEC59
:10433000F1E0A42FB52F01900D928A95E1F746C0C8
:10434000DB01AA0FBB1FAA0FBB1FAA0FBB1FA80F21
:10435000B91F1B963C911B971F923F931A963C9155
:104360001A971F923F9319963C9119971F923F936A
:104370006F5F7F4F660F771F660F771F660F771F80
:10438000FC01E60FF71F80811F928F9317968C9187
:1043900017971F928F9316968C9116971F928F9353
:1043A00015968C911F928F931F922F938FE692E018
:1043B0009F938F935F934F930E94FA238DB79EB77D
:1043C00044960FB6F8949EBF0FBE8DBF8D2F9C2FC5
:1043D000DF91CF9108950E94CE2208F481E00895E4
:1043E0000E9404220C9434040E942D0458F00E9470
:1043F000260440F029F45F3F29F00C941D0451116C
:104400000C9468040C9423040E94450468F39923D7
:10441000B1F3552391F3951B550BBB27AA276217C0
:104420007307840738F09F5F5F4F220F331F441FCD
:10443000AA1FA9F335D00E2E3AF0E0E832D0915001
:104440005040E695001CCAF72BD0FE2F29D0660FEE
:10445000771F881FBB1F261737074807AB07B0E831
:1044600009F0BB0B802DBF01FF2793585F4F3AF037
:104470009E3F510578F00C941D040C9468045F3F36
:10448000E4F3983ED4F3869577956795B795F795BD
:104490009F5FC9F7880F911D9695879597F90895A5
:1044A000E1E0660F771F881FBB1F62177307840741
:1044B000BA0720F0621B730B840BBA0BEE1F88F750
:1044C000E09508950E944D0488F09F5798F0B92F09
:1044D0009927B751B0F0E1F0660F771F881F991F39
:1044E0001AF0BA95C9F714C0B13091F00E94670470
:1044F000B1E008950C946704672F782F8827B85F80
:1045000039F0B93FCCF3869577956795B395D9F790
:104510003EF490958095709561957F4F8F4F9F4F9A
:104520000895E89409C097FB3EF4909580957095A6
:1045300061957F4F8F4F9F4F9923A9F0F92F96E9EF
:10454000BB279395F695879577956795B795F11164
:10455000F8CFFAF4BB0F11F460FF1BC06F5F7F4F01
:104560008F4F9F4F16C0882311F096E911C0772313
:1045700021F09EE8872F762F05C0662371F096E81C
:10458000862F70E060E02AF09A95660F771F881FEB
:10459000DAF7880F9695879597F90895990F00088F
:1045A000550FAA0BE0E8FEEF16161706E807F90705
:1045B000C0F012161306E407F50798F0621B730BA0
:1045C000840B950B39F40A2661F0232B242B252B21
:1045D00021F408950A2609F4A140A6958FEF811DC4
:1045E000811D08950E94CE2208F48FEF08950E9445
:1045F0000A230C9434040E94260438F00E942D04EF
:1046000020F0952311F00C941D040C942304112424
:104610000C9468040E94450470F3959FC1F3950FB4
:1046200050E0551F629FF001729FBB27F00DB11D36
:10463000639FAA27F00DB11DAA1F649F6627B00DC6
:10464000A11D661F829F2227B00DA11D621F739FAF
:10465000B00DA11D621F839FA00D611D221F749FBD
:104660003327A00D611D231F849F600D211D822F04
:10467000762F6A2F11249F5750409AF0F1F088232B
:104680004AF0EE0FFF1FBB1F661F771F881F915058
:104690005040A9F79E3F510580F00C941D040C94E6
:1046A00068045F3FE4F3983ED4F386957795679569
:1046B000B795F795E7959F5FC1F7FE2B880F911D82
:1046C0009695879597F908950E94CE22880B990BAD
:1046D0000895CF93CFB7F89480910B04811127C030
:1046E000EAE9F1E08491E6E8F1E09491E82FF0E066
:1046F000EE0FFF1FE854FE4FA591B491EC91E92312
:1047000021F461E08AE00E94830C61E08AE00E946B
:10471000470C8CB580618CBD8CB580648CBD61E02C
:104720008DE00E94470C61E08BE00E94470C809175
:104730000B048F5F80930B04CFBFCF91089570E07F
:104740009B01382BC9010895AA1BBB1B51E107C06F
:10475000AA1FBB1FA617B70710F0A61BB70B881F11
:10476000991F5A95A9F780959095BC01CD010895A0
:10477000A1E21A2EAA1BBB1BFD010DC0AA1FBB1F65
:10478000EE1FFF1FA217B307E407F50720F0A21BD7
:10479000B30BE40BF50B661F771F881F991F1A9444
:1047A00069F760957095809590959B01AC01BD016E
:1047B000CF010895EE0FFF1F0590F491E02D0994AD
:1047C000FB0151915523A9F0BF01DC014D91451723
:1047D0004111E1F759F4CD010190002049F04D91CC
:1047E00040154111C9F3FB014111EFCF81E090E089
:1047F00001970895AEE0B0E0E0E0F4E20C94BB264F
:104800000D891E8986E08C831A8309838FEF9FE7C9
:104810009E838D83AE01475E5F4F6F89788DCE0199
:1048200001960E941C24EF81F885E00FF11F108291
:104830002E96E4E00C94D726ABE0B0E0E2E2F4E29E
:104840000C94AD266C017B018A01FC011782168253
:10485000838181FFCCC1CE0101963C01F601938199
:10486000F70193FD859193FF81917F01882309F4DE
:10487000BAC1853239F493FD859193FF81917F010F
:10488000853229F4B60190E00E941326E7CF912CDF
:10489000212C312CFFE1F315D8F08B3279F038F46C
:1048A000803279F08332A1F4232D20611DC08D3236
:1048B00061F0803369F4232D216016C0832D82605E
:1048C000382EE32DE4603E2E2AC0F32DF8601DC083
:1048D00037FC2DC020ED280F2A3040F08E32B9F47D
:1048E00036FC81C1232D2064322E19C036FE06C04D
:1048F0008AE0989E200D1124922E11C0EAE02E9E8F
:10490000200D1124222EF32DF0623F2E08C08C368C
:1049100021F4832D8068382E02C0883641F4F701D7
:1049200093FD859193FF81917F018111B3CF982FE2
:104930009F7D9554933028F40C5F1F4F9FE399831C
:104940000DC0833631F0833771F0833509F059C0DB
:1049500021C0F801808189830E5F1F4F88248394D2
:10496000912C530113C02801F2E04F0E511CF801A5
:10497000A080B18036FE03C0692D70E002C06FEFE9
:104980007FEFC5010E9408264C018201F32DFF77BD
:104990003F2E16C0280122E0420E511CF801A080D3
:1049A000B18036FE03C0692D70E002C06FEF7FEF6B
:1049B000C5010E94FD254C01F32DF0683F2E8201B8
:1049C00033FC1BC0822D90E088169906B0F4B60126
:1049D00080E290E00E9413262A94F4CFF50137FC80
:1049E000859137FE81915F01B60190E00E94132608
:1049F00021102A9421E0821A91088114910471F700
:104A0000E8C0843611F0893641F5F80137FE07C059
:104A100060817181828193810C5F1F4F08C060812A
:104A20007181072E000C880B990B0E5F1F4FF32D21
:104A3000FF763F2E97FF09C0909580957095619500
:104A40007F4F8F4F9F4FF0683F2E2AE030E0A30149
:104A50000E944F26882E861845C0853731F4232DB5
:104A60002F7EB22E2AE030E025C0932D997FB92EFB
:104A70008F36C1F018F4883579F0B5C0803719F059
:104A8000883721F0B0C0E92FE061BE2EB4FE0DC022
:104A9000FB2DF460BF2E09C034FE0AC0292F26600A
:104AA000B22E06C028E030E005C020E130E002C0B0
:104AB00020E132E0F801B7FE07C060817181828198
:104AC00093810C5F1F4F06C06081718180E090E090
:104AD0000E5F1F4FA3010E944F26882E8618FB2DC4
:104AE000FF773F2E36FE0DC0232D2E7FA22E891478
:104AF00058F434FE0BC032FC09C0832D8E7EA82EE4
:104B000005C0B82CA32C03C0B82C01C0B92CA4FE3E
:104B10000FC0FE01E80DF11D8081803321F49A2D34
:104B2000997EA92E09C0A2FE06C0B394B39404C016
:104B30008A2D867809F0B394A3FC11C0A0FE06C0AC
:104B4000B21488F4280C922C9B180EC0B21460F496
:104B5000B60180E290E00E941326B394F7CFB2141E
:104B600018F42B1802C0982C212CA4FE10C0B601FA
:104B700080E390E00E941326A2FE17C0A1FC03C0B0
:104B800088E790E002C088E590E0B6010CC08A2D6D
:104B9000867859F0A1FE02C08BE201C080E2A7FC3A
:104BA0008DE2B60190E00E941326891438F4B60114
:104BB00080E390E00E9413269A94F7CF8A94F30141
:104BC000E80DF11D8081B60190E00E94132681104E
:104BD000F5CF222009F442CEB60180E290E00E9497
:104BE00013262A94F6CFF6018681978102C08FEFB3
:104BF0009FEF2B96E2E10C94C926FC0105906150D1
:104C000070400110D8F7809590958E0F9F1F0895E2
:104C1000FC016150704001900110D8F7809590958B
:104C20008E0F9F1F08950F931F93CF93DF93FB0168
:104C3000238121FD03C08FEF9FEF2CC022FF16C000
:104C400046815781248135814217530744F4A0815E
:104C5000B1819D012F5F3F4F318320838C9326814B
:104C600037812F5F3F4F3783268314C08B01EC01C0
:104C7000FB010084F185E02D0995892BE1F6D8012F
:104C800016968D919C911797019617969C938E93EB
:104C90001697CE01DF91CF911F910F910895FA01E0
:104CA000AA27283051F1203181F1E8946F936E7F6B
:104CB0006E5F7F4F8F4F9F4FAF4FB1E03ED0B4E05C
:104CC0003CD0670F781F891F9A1FA11D680F791F9D
:104CD0008A1F911DA11D6A0F711D811D911DA11DAE
:104CE00020D009F468943F912AE0269F11243019BE
:104CF000305D3193DEF6CF010895462F4770405D59
:104D00004193B3E00FD0C9F7F6CF462F4F70405D07
:104D10004A3318F0495D31FD4052419302D0A9F762
:104D2000EACFB4E0A6959795879577956795BA955C
:104D3000C9F700976105710508959B01AC010A2E22
:104D400006945795479537952795BA95C9F7620FF9
:104D5000731F841F951FA01D08952F923F924F929D
:104D60005F926F927F928F929F92AF92BF92CF92FB
:104D7000DF92EF92FF920F931F93CF93DF93CDB704
:104D8000DEB7CA1BDB0B0FB6F894DEBF0FBECDBF7C
:104D900009942A88398848885F846E847D848C844D
:104DA0009B84AA84B984C884DF80EE80FD800C8156
:104DB0001B81AA81B981CE0FD11D0FB6F894DEBF39
:0C4DC0000FBECDBFED010895F894FFCFA9
:104DCC00AABBCCDD000100C001005E000000204445
:104DDC0065766963657320666F756E64003A00438F
:104DEC005243206973206E6F742076616C69642164
:104DFC000A0D0020202D3E200054656D70657261F7
:104E0C00747572204D65737370726F6772616D6D1E
:104E1C000073657276657220697320617420006E70
:104E2C00657720636C69656E7400485454502F315B
:104E3C002E3120323030204F4B00436F6E74656E34
:104E4C00742D547970653A20746578742F68746D7C
:104E5C006C00436F6E6E656374696F6E3A20636CA1
:104E6C006F736500526566726573683A2031003C59
:104E7C0021444F43545950452048544D4C3E003C1E
:104E8C0068746D6C3E0053003C4252202F3E00284B
:104E9C006E756C6C290044002D003C2F68746D6C91
:104EAC003E00636C69656E7420646973636F6E6E2B
:104EBC0065637465640000000000F804C9086E04A2
:104ECC0088047A04D4040000000040060D0A006E29
:104EDC00616E00696E66006F76660000000000A5CA
:104EEC000E310F540F5E0F7D0FA00FBF0FD00E7839
:104EFC000F2D106C10BB0E960E990EC30E9B0E0050
:104F0C00000000A1106D11B710000000005B12C76B
:104F1C00125712DB12951371127212AE13A312B93F
:104F2C00125514C212311307133B1243125312259C
:104F3C0058255825582558255825582558255800A2
:00000001FF
