S0180000414C2D4553432D43616C6962726174652E73726563C3
S11300000C9490000C94B8000C94B8000C949D01CE
S11300100C94B8000C9430010C94B8000C94B80003
S11300200C94B8000C94B8000C94B8000C94B8006C
S11300300C94B8000C94B8000C94B8000C94B8005C
S11300400C943F170C94B8000C94D9120C9411130F
S11300500C94B8000C94B8000C94B8000C94B8003C
S11300600C94FF190C94B800036EDB363D9A9999F1
S1130070993DABAAAA2A3E000000803F072C7AA52E
S1130080BA6CC590DA3B9365FC8BBC53F810FD3C0D
S11300905692834DBD879D3AB63DCBC9BF5BBE73B7
S11300A0DA0FC93F05A84CCDB2D44EB93836A902EF
S11300B00C50B9918688083CA6AAAA2ABE00000062
S11300C0803F000000080002010000030407000054
S11300D0000000000000010204081020408001021A
S11300E00408102001020408102004040404040479
S11300F004040202020202020303030303030000D6
S1130100000023002600290000000000250028002C
S11301102B0000000000240027002A0041133A1796
S113012011241FBECFEFD8E0DEBFCDBF13E0A0E0A7
S1130130B1E0E2E2F8E302C005900D92A630B10707
S1130140D9F725E0A6E0B3E001C01D92AD3AB207AD
S1130150E1F710E0C0E9D0E004C02197FE010E945D
S1130160011CCE38D107C9F70E946F130C940F1CE1
S11301700C9400001F93CF93DF93E82FF0E0E45E2C
S1130180FB4F1789E12FE770F0E0EE0FFF1FDF014F
S1130190AE50BC4F0D90BC91A02DE45EFB4F378553
S11301A08685AF0141505109EA01488150E0542F3E
S11301B04427BF0162507109EB019881492B978153
S11301C02681A417B507DCF4E82FF0E0F32BAE1773
S11301D0BF070CF4DF01CA018A1B9B0BDC0124EF6F
S11301E031E00E94DB1B9A012E1B3F0B032E000CF7
S11301F0440B550B0E94A51B17FF1CC020C04A17B7
S11302005B070CF530E0F901F92BEA17FB070CF456
S1130210DF01A41BB50B24EF31E00E94DB1B9F011F
S1130220241B350B032E000C440B550B0E94A51BFD
S113023017FF05C08CED95E0821B930B06C0C90126
S113024084529A4F02C08CED95E0DF91CF911F91BB
S11302500895DC01ED91FC910190F081E02D099469
S11302601F920F920FB60F9211242F933F934F9327
S11302705F936F937F938F939F93AF93BF93EF930A
S1130280FF930E94891760934A0370934B038093F2
S11302904C0390934D03209141044A9B0EC02111BD
S11302A01BC021E0209341046093560370935703CD
S11302B080935803909359030FC0213069F410922E
S11302C041042091560330915703AB01421B530B59
S11302D05093FF034093FE03209140044B9B0EC0B8
S11302E021111AC021E020934004609352037093BB
S11302F0530380935403909355030EC0213061F44B
S1130300109240042091520330915303621B730BEB
S11303107093010460930004FF91EF91BF91AF913A
S11303209F918F917F916F915F914F913F912F9109
S11303300F900FBE0F901F9018951F920F920FB63B
S11303400F9211242F933F934F935F936F937F9357
S11303508F939F93AF93BF93EF93FF930E9489175B
S113036060934E0370934F03809350039093510313
S113037020914604189B0EC021111BC021E020933C
S1130380460460936A0370936B0380936C039093A9
S11303906D030FC0213069F41092460420916A0362
S11303A030916B03AB01421B530B5093F503409305
S11303B0F40320914504199B0EC021111BC021E0B8
S11303C020934504609366037093670380936803E6
S11303D0909369030FC0213069F410924504209171
S11303E0660330916703AB01421B530B5093F70331
S11303F04093F603209144041A9B0EC021111BC0A4
S113040021E0209344046093620370936303809318
S11304106403909365030FC0213069F4109244047F
S11304202091620330916303AB01421B530B509341
S1130430F9034093F803209143041B9B0EC0211140
S11304401BC021E02093430460935E0370935F0319
S113045080936003909361030FC0213069F410927C
S1130460430420915E0330915F03AB01421B530BA5
S11304705093FB034093FA03209142041C9B0EC04B
S113048021111AC021E02093420460935A0370930F
S11304905B0380935C0390935D030EC0213061F491
S11304A01092420420915A0330915B03621B730B38
S11304B07093FD036093FC03FF91EF91BF91AF91A3
S11304C09F918F917F916F915F914F913F912F9168
S11304D00F900FBE0F901F90189561E071E087E4B4
S11304E094E00E94AD134AE050E060911B0487E45D
S11304F094E00E94D11468E071E087E494E00E94E3
S1130500AD138091160490911704883C95401CF417
S113051060E171E00CC08091160490911704813F52
S113052095401CF064E171E002C068E171E087E489
S113053094E00E94AD1360911604709117044AE090
S113054050E087E494E00E9496146CE171E087E443
S113055094E00E94AD138091140490911504883C9A
S113056095401CF465E271E00CC0809114049091F4
S11305701504813F95401CF069E271E002C068E116
S113058071E087E494E00E94AD13609114047091CB
S113059015044AE050E087E494E00E9496146DE26A
S11305A071E087E494E00E94AD138091120490916D
S11305B01304883C95401CF469E271E00CC08091FE
S11305C0120490911304813F95401CF065E271E0A0
S11305D002C068E171E087E494E00E94AD13609189
S11305E01204709113044AE050E087E494E00E94FE
S11305F0961469E371E087E494E00E94AD1380915E
S1130600100490911104883C95401CF460E171E061
S11306100CC08091100490911104813F95401CF00E
S113062064E171E002C068E171E087E494E00E9453
S1130630AD1360911004709111044AE050E087E416
S113064094E00E94961460E471E087E494E00E94D0
S1130650AD1360910E0470910F044AE050E087E4FA
S113066094E00E94961467E471E087E494E00E94A9
S1130670AD1360910C0470910D044AE050E087E4DE
S113068094E00E9496146EE471E087E494E00E9482
S1130690AD1360910A0470910B044AE050E087E4C2
S11306A094E00E94961465E571E087E494E00E946A
S11306B0AD1360914803709149034AE050E087E428
S11306C094E00C949E140F931F930E9489176093D7
S11306D06E0370936F0380937003909371038BB1D7
S11306E0806F8BB980916E0390916F03A09170031A
S11306F0B09171034091080450910904052E000C37
S1130700660B770B480F591F6A1F7B1F40938203A8
S1130710509383036093840370938503409106048C
S113072050910704052E000C660B770B480F591FD8
S11307306A1F7B1F40937E0350937F036093800363
S1130740709381034091040450910504052E000C1C
S1130750660B770B480F591F6A1F7B1F40937A0360
S113076050937B0360937C0370937D034091020458
S113077050910304052E000C660B770B840F951F14
S1130780A61FB71F8093760390937703A0937803F3
S1130790B09379038BB1803108F45CC00E9489174F
S11307A0609372037093730380937403909375033F
S11307B00091820310918303209184033091850377
S11307C0601771078207930708F05C9840917E03D5
S11307D050917F0360918003709181038091720333
S11307E090917303A0917403B091750384179507D6
S11307F0A607B70708F05D9840917A0350917B03F0
S113080060917C0370917D038091720390917303D6
S1130810A0917403B091750384179507A607B707D1
S113082008F05E98409176035091770360917803C5
S1130830709179038091720390917303A091740372
S1130840B091750384179507A607B70708F4A2CFDC
S11308505F98A0CF1F910F91089580913B04813040
S113086009F0ACC06091EE037091EF0384EE94E064
S11308700E94B3166BE670E084EE94E00E942901B6
S113088060E070E084EE94E00E94290184EE94E03C
S11308900E9436176091EE037091EF0384EE94E0AA
S11308A00E94B3166BE170E084EE94E00E9429018B
S11308B068E070E084EE94E00E94290184EE94E004
S11308C00E9436176091EE037091EF0384EE94E07A
S11308D00E94B3166CE170E084EE94E00E9429015A
S11308E060E170E084EE94E00E94290184EE94E0DB
S11308F00E9436176091EE037091EF0384EE94E04A
S11309000E94B3166BE170E084EE94E00E9429012A
S113091084EE94E00E9436176091EE037091EF0329
S113092041E050E084EE94E00E94321784EE94E0BB
S11309300E94011618161906CCF784EE94E00E9462
S11309400916089759F061E08DE00E94B2186AE038
S113095070E080E090E00E94AE17F9CF6091EE0362
S11309607091EF0384EE94E00E94B3166AE170E0A4
S113097084EE94E00E94290163E070E084EE94E048
S11309800E94290184EE94E00E9436176091EE03E0
S11309907091EF0384EE94E00E94B3166DE170E071
S11309A084EE94E00E94290163E070E084EE94E018
S11309B00E94290184EE94E00C94361708950F9355
S11309C01F93CF9326E040E051EE60E070E087E4AF
S11309D094E00E94741284EE94E00E949E1661E0FA
S11309E08DE00E9476188CE08093B8008AB1806F05
S11309F08AB9259A24988091680081608093680060
S1130A008091680084608093680080916B008160AD
S1130A1080936B0080916B00826080936B00809167
S1130A206B00846080936B0080916B00886080937E
S1130A306B0080916B00806180936B0080916D00EE
S1130A40846080936D0080916D00886080936D0058
S1130A5010921A04C0911A04C43268F40C2F10E0E6
S1130A60C8010E94071CF801E45EFB4F8083CF5F3E
S1130A70C0931A04EFCF80913C0490E09093EF036D
S1130A808093EE030E942D0480913D048A3441F446
S1130A9080913E048D3421F480913F04823489F0A6
S1130AA064E670E080E090E00E94AE178DE00E9462
S1130AB0E11861E0892B09F060E08DE00E94B21832
S1130AC0E3CF0E94891760936E0370936F03809342
S1130AD070039093710380E00E9430188F5B9F4FE6
S1130AE0BC01990F880B990B0E94A60F28E538EAE0
S1130AF04DE95FE30E948D100E946E0F70934903CD
S1130B006093480387E494E00E949C11892B39F098
S1130B1087E494E00E94B61180931A04F3CF1092F4
S1130B201A04CF911F910F910895BF92CF92DF9233
S1130B30EF92FF920F931F93CF93DF9380913B0427
S1130B40813009F0A0C06091EE037091EF0384EE50
S1130B5094E00E94B3166BE370E084EE94E00E948C
S1130B60290184EE94E00E9436176091EE0370919F
S1130B70EF034EE050E084EE94E00E94321784EEDE
S1130B8094E00E9401160E97D4F384EE94E00E9440
S1130B900916C82F84EE94E00E94091620E030E084
S1130BA03C2F822B932B909343038093420384EE38
S1130BB094E00E940916C82F84EE94E00E9409165E
S1130BC020E030E03C2F822B932B909345038093BD
S1130BD0440384EE94E00E940916C82F84EE94E046
S1130BE00E94091620E030E03C2F822B932B909337
S1130BF047038093460384EE94E00E940916C82FAD
S1130C0084EE94E00E94091620E030E03C2F822B11
S1130C10932B9093EB038093EA0384EE94E00E9479
S1130C200916C82F84EE94E00E94091620E030E0F3
S1130C303C2F822B932B90933B0380933A0384EEB7
S1130C4094E00E940916C82F84EE94E00E940916CD
S1130C5020E030E03C2F822B932B90933D03809334
S1130C603C0384EE94E00E940916C82F84EE94E0BD
S1130C700E94091620E030E03C2F822B932B9093A6
S1130C803F0380933E038091160390911703803DA8
S1130C90974009F04EC060913A0370913B03072ED0
S1130CA0000C880B990B0E94A60F20910A03309127
S1130CB00B0340910C0350910D030E94740E0E948B
S1130CC06E0F70933B0360933A0360913C03709101
S1130CD03D03072E000C880B990B0E94A60F209150
S1130CE00E0330910F0340911003509111030E94A1
S1130CF0740E0E946E0F70933D0360933C036091E9
S1130D003E0370913F03072E000C880B990B0E9441
S1130D10A60F2091120330911303409114035091B4
S1130D2015030E94740E0E946E0F70933F0360932C
S1130D303E03C09038040C2D037010E0000F111F07
S1130D40F801E85CFC4F60817181072E000C880B70
S1130D50990B0E94A60FC7FC09C0609330037093DF
S1130D60310380933203909333030BC0DC01CB0136
S1130D70B0588093300390933103A0933203B0931F
S1130D803303B09039048B2D8370E82EF12CEE0CD4
S1130D90FF1CF701E85CFC4F60817181072E000C99
S1130DA0880B990B0E94A60FB7FC09C0609334030B
S1130DB07093350380933603909337030BC0DC01A3
S1130DC0CB01B0588093340390933503A09336033A
S1130DD0B0933703D0903A04CD2DC370D0E0CC0F3C
S1130DE0DD1FFE01E85CFC4F60817181072E000C61
S1130DF0880B990B0E94A60FD7FC09C060932C03A3
S1130E0070932D0380932E0390932F030BC0DC016A
S1130E10CB01B05880932C0390932D03A0932E0301
S1130E20B0932F03F701E05CFC4F80819181092E80
S1130E30000CAA0BBB0BB7FE07C0B095A09590950C
S1130E4081959F4FAF4FBF4F8093E6039093E70385
S1130E50A093E803B093E903F801E05CFC4F8081C0
S1130E609181092E000CAA0BBB0BC7FE07C0B095DD
S1130E70A095909581959F4FAF4FBF4F8093E2030C
S1130E809093E303A093E403B093E503C05CDC4FC9
S1130E9088819981092E000CAA0BBB0BD7FE07C0D1
S1130EA0B095A095909581959F4FAF4FBF4F80937C
S1130EB0DE039093DF03A093E003B093E103DF919B
S1130EC0CF911F910F91FF90EF90DF90CF90BF9043
S1130ED008954F925F926F927F928F929F92AF92FA
S1130EE0BF92CF92DF92EF92FF92CF93DF93CDB771
S1130EF0DEB72C970FB6F894DEBF0FBECDBFC090FF
S1130F006E03D0906F03E0907003F090710320EAB9
S1130F10C20E2FE0D21EE11CF11C0E9489176C1531
S1130F207D058E059F0558F30E94891760936E0313
S1130F3070936F03809370039093710380E00E9419
S1130F4030188F5B9F4FBC01990F880B990B0E943F
S1130F50A60F28E538EA4DE95FE30E948D100E9450
S1130F606E0F709349036093480387E494E00E94F2
S1130F709C11181619060CF0AAC087E494E00E948C
S1130F80B61180931A0487E494E00E949C11181609
S1130F9019062CF487E494E00E94B611F4CF609112
S1130FA01A0487E494E00E94E91381E08093190411
S1130FB01092F1031092F00310921703109216038B
S1130FC010921B048093180480911A04823731F420
S1130FD06CE571E087E494E00E94D71380911A04D1
S1130FE0813631F466E771E087E494E00E94D71318
S1130FF080911A04813631F463E971E087E494E066
S11310000E94D71380911A04813331F467ED71E0A3
S113101087E494E00E94D71380911A04823331F458
S113102067EF71E087E494E00E94D71380911A047B
S1131030833331F465E172E087E494E00E94D713CE
S113104080911A04843331F463E372E087E494E01A
S11310500E94D71380911A04853331F461E572E05C
S113106087E494E00E94D7131092ED031092EC03EE
S11310708091EC039091ED038137924024F563E075
S113108070E080E090E00E94AE1788EE93E09093C9
S113109009048093080490930704809306049093B2
S11310A005048093040490930304809302040E9433
S11310B063038091EC039091ED0301969093ED030B
S11310C08093EC03D5CF1092ED031092EC0383E0F0
S11310D00E94BA0090931304809312048091120426
S11310E0909113048130944014F410921904809167
S11310F01A0481112DC080911904811129C083E043
S11311000E94BA00909313048093120480911204F5
S1131110909113049093090480930804809112041D
S11311209091130490930704809306048091120411
S11311309091130490930504809304048091120405
S11311409091130490930304809302040E94630318
S113115080911A04823709F09CC0E090F003F0906B
S1131160F103BFEFEB1AFB0AF092F103E092F003F4
S113117081E00E94BA00909317048093160482E0E1
S11311800E94BA00909315048093140483E00E9493
S1131190BA00909313048093120484E00E94BA006E
S11311A0909311048093100488EB9BE02091FC033E
S11311B03091FD03AC01421B530B50930F04409339
S11311C00E042091FE033091FF03DC01A21BB30B3C
S11311D0B0930D04A0930C042091000430910104F9
S11311E0821B930B90930B0480930A04BDE7EB16C8
S11311F0F10431F40E946D021092F1031092F00395
S113120080911204909113048A31944044F48091A3
S11312101004909111048A3194400CF445C58091D6
S11312201B04813079F480911204909113048A3163
S1131230944044F480911004909111048B3A9540A9
S11312400CF036C580911B04823079F4809112042D
S1131250909113048A31944044F480911004909145
S113126011048F3997400CF027C588EE93E09093D2
S113127009048093080490930704809306049093D0
S113128005048093040490930304809302040E9451
S1131290630380911A048153853008F0E7C180917B
S11312A0F0039091F10301969093F1038093F0037E
S11312B0209119042223B9F08A3F9105A1F46AE62A
S11312C072E087E494E00E94AD136091120470917F
S11312D013044AE050E087E494E00E949E141092C4
S11312E0F1031092F003809119048111BFC183E0CE
S11312F00E94BA00909313048093120480911A04FC
S1131300982F9B7F9133A9F42091120430911304F8
S113131030930904209308048233A1F42091120429
S11313203091130430930704209306048333C9F4E3
S113133013C028EE33E03093090420930804823369
S113134019F4ECCF853351F328EE33E030930704DE
S113135020930604833339F420911204309113044A
S113136004C08533C9F328EE33E030930504209399
S113137004048453823028F480911204909113045D
S113138002C088EE93E090930304809302040E94C9
S1131390630380913B04813009F068C16091EE03DE
S11313A07091EF0384EE94E00E94B3166BE370E057
S11313B084EE94E00E94290184EE94E00E943617A2
S11313C06091EE037091EF0346E050E084EE94E008
S11313D00E94321784EE94E00E9401160697D4F31B
S11313E084EE94E00E940916898384EE94E00E94BE
S11313F0091620E030E03981822B932B092E000C52
S1131400AA0BBB0B8093E6039093E703A093E80336
S1131410B093E90384EE94E00E940916898384EE74
S113142094E00E94091620E030E03981822B932B4E
S1131430092E000CAA0BBB0B8093E2039093E303E9
S1131440A093E403B093E50384EE94E00E940916AC
S1131450898384EE94E00E940916E0E0F0E0F981CB
S1131460E82BF92BCF010F2E000CAA0BBB0B80939A
S1131470DE039093DF03A093E003B093E103609154
S1131480E6037091E7038091E8039091E90380906B
S1131490E2039090E303A090E403B090E5039B0182
S11314A0AC010E945F1B6B017C01A5019401C50185
S11314B0B4010E945F1BC60ED71EE81EF91E9F01D1
S11314C0DF010E94C41B6C0D7D1D8E1D9F1D0E949B
S11314D0A60F0E9408110E946E0F60938E037093F2
S11314E08F03809390039093910320E1422F50E067
S11314F0FA01EE0FFF1FEE0FFF1FE657FC4FC080EF
S1131500D180E280F380440F551F440F551FFA0128
S1131510E257FC4FC082D182E282F3826C0D7D1DC2
S11315208E1D9F1D215011F710921B0421E130E004
S113153040E050E00E94A51B20938A0330938B0364
S113154040938C0350938D038091EC039091ED03B1
S1131550843191057CF501969093ED038093EC031F
S113156080918E0390918F03A0919003B091910389
S1131570821B930BA40BB50BB7FF07C0B095A095C6
S1131580909581959F4FAF4FBF4F409186035091E7
S113159087036091880370918903840F951FA61FA8
S11315A0B71F8093860390938703A0938803B09317
S11315B089030CC01092ED031092EC031092860381
S11315C010928703109288031092890368E972E0ED
S11315D087E494E00E94AD134091E6035091E70341
S11315E06091E8037091E9032AE030E087E494E035
S11315F00E945A146BE972E087E494E00E94AD13F0
S11316004091E2035091E3036091E4037091E50398
S11316102AE030E087E494E00E945A146FE972E013
S113162087E494E00E94AD134091DE035091DF0300
S11316306091E0037091E1032AE030E087E494E0F4
S11316400E945A1463EA72E087E494E00E94AD13A6
S113165040918E0350918F03609190037091910398
S11316602AE030E087E494E00E94B01480911A04E8
S1131670813609F024C38091160390911703803DAD
S1131680974009F401C167EA72E087E494E00E949C
S1131690AD131092170310921603809116039091C4
S11316A01703803D57E095070CF08CC06DE770E0A0
S11316B00E946F1B892B81F48DE00E94E11861E088
S11316C0892B09F060E08DE00E94B21861E971E0B5
S11316D087E494E00E94AD130E94950560913A035B
S11316E070913B03072E000C880B990B0E94A60FE8
S11316F09B01AC0160910A0370910B0380910C0370
S113170090910D030E94750E60930A0370930B036E
S113171080930C0390930D0360913C0370913D03FF
S1131720072E000C880B990B0E94A60F9B01AC019D
S113173060910E0370910F03809110039091110337
S11317400E94750E60930E0370930F038093100331
S11317509093110360913E0370913F03072E000C98
S1131760880B990B0E94A60F9B01AC016091120398
S11317707091130380911403909115030E94750EC8
S113178060931203709313038093140390931503CF
S11317908BB1806F8BB988EE93E00E94EA178BB10E
S11317A08F708BB963E070E080E090E00E94AE1728
S11317B080911603909117030196909317038093D9
S11317C016036BCF61E971E087E494E00E94D713BC
S11317D020E030E04AEF54E460910A0370910B0377
S11317E080910C0390910D030E94FC0E60930A03F8
S11317F070930B0380930C0390930D0320E030E06F
S11318004AEF54E460910E0370910F03809110032A
S1131810909111030E94FC0E60930E0370930F03CA
S1131820809310039093110320E030E04AEF54E4D6
S11318306091120370911303809114039091150326
S11318400E94FC0E6093120370931303809314039D
S1131850909315036CEB72E087E494E02C960FB63A
S1131860F894DEBF0FBECDBFDF91CF91FF90EF9014
S1131870DF90CF90BF90AF909F908F907F906F90AC
S11318805F904F900C94D7138BB1806F8BB988EE17
S113189093E00E94EA178BB18F708BB90E94950573
S11318A020ED32E240E858E360913403709135034F
S11318B080913603909137030E948D10209120036C
S11318C03091210340912203509123030E94750E0D
S11318D02B013C0120ED32E240E858E360913003F3
S11318E07091310380913203909133030E948D10E3
S11318F020911C0330911D0340911E0350911F033E
S11319000E94750E6B017C0180902C0390902D0336
S1131910A0902E03B0902F0320ED32E240E858E36C
S1131920C501B4010E948D109B01AC0160911803A4
S11319307091190380911A0390911B030E94750EF4
S1131940609318037093190380931A0390931B03F5
S11319502BE733E14FE855E3C501B4010E948D1034
S11319600E94FA104B015C019B01AC01C701B60156
S11319700E948D109B01AC01C301B2010E94740E40
S11319806D837E838F8398879B01AC01C501B4016D
S11319900E948D10A70196010E94750E69877A87AF
S11319A08B879C874090E6035090E7036090E803A0
S11319B07090E9038090E2039090E303A090E40325
S11319C0B090E5038091DE039091DF03A091E003E2
S11319D0B091E10389839A83AB83BC83A301920111
S11319E0C301B2010E945F1B6B017C01A50194013C
S11319F0C501B4010E945F1BC60ED71EE81EF91E66
S1131A0029813A814B815C81CA01B9010E945F1B23
S1131A106C0D7D1D8E1D9F1D0E94A60F0E94081136
S1131A200E946E0F60938E0370938F0380939003D4
S1131A30909391030E94A60F6B017C01C501B40130
S1131A400E94A60FA70196010E94FC0E0E94E10EBF
S1131A502BE13FE245E652E40E948D104B015C010C
S1131A6060932403709325038093260390932703A4
S1131A70C301B2010E94A60FA70196010E94FC0EA9
S1131A800E94E10E2BE13FE245E652EC0E948D10EC
S1131A9020E030E0A9010E94750E6B017C01609387
S1131AA028037093290380932A0390932B03809136
S1131AB018048823D9F08092200390922103A092E5
S1131AC02203B0922303C0921C03D0921D03E09220
S1131AD01E03F0921F031092180310921903109220
S1131AE01A0310921B031092180444C029EC35EE1B
S1131AF04FE75FE36D817E818F8198850E948D1011
S1131B002B013C0127E137EB41ED59E3C501B40159
S1131B100E948D109B01AC01C301B2010E94750E9D
S1131B2060932003709321038093220390932303F3
S1131B3029EC35EE4FE75FE369857A858B859C85D3
S1131B400E948D104B015C0127E137EB41ED59E315
S1131B50C701B6010E948D109B01AC01C501B401FF
S1131B600E94750E60931C0370931D0380931E03E3
S1131B7090931F038091F0039091F103892B31F42A
S1131B806FEB72E087E494E00E94AD138091F00360
S1131B909091F103019771F4409120035091210336
S1131BA0609122037091230321E030E087E494E004
S1131BB00E94EC158091F0039091F103029731F4A7
S1131BC067EC72E087E494E00E94AD138091F00327
S1131BD09091F103039771F440911C0350911D03FC
S1131BE060911E0370911F0321E030E087E494E0CC
S1131BF00E94EC158091F0039091F103049731F465
S1131C006FEC72E087E494E00E94AD138091F003DE
S1131C109091F1030597B1F420E030E043E852E4F9
S1131C2060912C0370912D0380912E0390912F03CA
S1131C300E94FC0EAB01BC0121E030E087E494E09B
S1131C400E94EC158091F0039091F103069731F412
S1131C5065EC72E087E494E00E94AD138091F00398
S1131C609091F103079771F440911803509119036F
S1131C7060911A0370911B0321E030E087E494E043
S1131C800E94EF158091F0039091F10301968B303F
S1131C9091052CF49093F1038093F00310C01092FB
S1131CA0F1031092F0030BC081E080931B04B7CAC8
S1131CB082E080931B04C6CA10921B04D6CA2C96D9
S1131CC00FB6F894DEBF0FBECDBFDF91CF91FF906A
S1131CD0EF90DF90CF90BF90AF909F908F907F90C8
S1131CE06F905F904F9008955058BB27AA270E9489
S1131CF08C0E0C9453100E94451038F00E944C1026
S1131D0020F039F49F3F19F426F40C9407100EF4D4
S1131D10E095E7FB0C940110E92F0E94641058F33E
S1131D20BA17620773078407950720F079F4A6F5BC
S1131D300C9486100EF4E0950B2EBA2FA02D0B01F7
S1131D40B90190010C01CA01A0011124FF27591BFC
S1131D5099F0593F50F4503E68F11A16F040A22F02
S1131D60232F342F4427585FF3CF46953795279573
S1131D70A795F0405395C9F77EF41F16BA0B620B72
S1131D80730B840BBAF09150A1F0FF0FBB1F661FB9
S1131D90771F881FC2F70EC0BA0F621F731F841FFC
S1131DA048F4879577956795B795F7959E3F08F022
S1131DB0B0CF9395880F08F09927EE0F97958795E4
S1131DC008959F939F77EEE389379E0728F4E8E60A
S1131DD0F0E00E9431100CC00E94E10F9058A2EA7A
S1131DE02AED3FE049EC5FE30E948C0E0E94531001
S1131DF00F9007FC905808950E94100F0C945310F4
S1131E000E944C1058F00E94451040F029F45F3FA6
S1131E1029F00C94011051110C9487100C940710A4
S1131E200E94641068F39923B1F3552391F3951B31
S1131E30550BBB27AA2762177307840738F09F5FE7
S1131E405F4F220F331F441FAA1FA9F335D00E2E54
S1131E503AF0E0E832D091505040E695001CCAF7C1
S1131E602BD0FE2F29D0660F771F881FBB1F261784
S1131E7037074807AB07B0E809F0BB0B802DBF015B
S1131E80FF2793585F4F3AF09E3F510578F00C942A
S1131E9001100C9487105F3FE4F3983ED4F38695C9
S1131EA077956795B795F7959F5FC9F7880F911D4B
S1131EB09695879597F90895E1E0660F771F881F37
S1131EC0BB1F621773078407BA0720F0621B730BEA
S1131ED0840BBA0BEE1F88F7E09508950E94750FE6
S1131EE06894B1110C94871008950E946C1088F0C6
S1131EF09F5798F0B92F9927B751B0F0E1F0660FCA
S1131F00771F881F991F1AF0BA95C9F714C0B1300A
S1131F1091F00E948610B1E008950C948610672F0A
S1131F20782F8827B85F39F0B93FCCF38695779539
S1131F306795B395D9F73EF4909580957095619522
S1131F407F4F8F4F9F4F0895E89409C097FB3EF44D
S1131F5090958095709561957F4F8F4F9F4F9923F2
S1131F60A9F0F92F96E9BB279395F6958795779570
S1131F706795B795F111F8CFFAF4BB0F11F460FF30
S1131F801BC06F5F7F4F8F4F9F4F16C0882311F088
S1131F9096E911C0772321F09EE8872F762F05C09C
S1131FA0662371F096E8862F70E060E02AF09A9537
S1131FB0660F771F881FDAF7880F9695879597F92C
S1131FC00895DF93CF931F930F938B01EC01ECE7FC
S1131FD0F0E00E940A100E9453109801AE018B0198
S1131FE0EC0160E070E080E89FE30E94740E0E94C0
S1131FF008119801AE010F911F91CF91DF910C94BC
S1132000A01097F99F6780E870E060E008959FEF63
S113201080EC0895DF93CF931F930F93FF92EF9279
S1132020DF927B018C01689406C0DA2EEF010E94D6
S1132030A010FE01E894A591259135914591559103
S1132040A6F3EF010E948C0EFE019701A801DA9419
S113205069F7DF90EF90FF900F911F91CF91DF917F
S113206008959F938F937F936F93FF93EF939B01B7
S1132070AC010E948D10EF91FF910E940A102F91E4
S11320803F914F915F910C948D1000240A94161681
S1132090170618060906089500240A941216130652
S11320A0140605060895092E0394000C11F48823E0
S11320B052F0BB0F40F4BF2B11F460FF04C06F5FFC
S11320C07F4F8F4F9F4F089557FD9058440F551FD2
S11320D059F05F3F71F04795880F97FB991F61F0A6
S11320E09F3F79F087950895121613061406551F1D
S11320F0F2CF4695F1DF08C0161617061806991F89
S1132100F1CF86957105610508940895E894BB277D
S113211066277727CB0197F908950E94A0100C94A5
S113212053100E94451038F00E944C1020F0952363
S113213011F00C9401100C94071011240C948710C6
S11321400E94641070F3959FC1F3950F50E0551FE2
S1132150629FF001729FBB27F00DB11D639FAA27F8
S1132160F00DB11DAA1F649F6627B00DA11D661F47
S1132170829F2227B00DA11D621F739FB00DA11D68
S1132180621F839FA00D611D221F749F3327A00D22
S1132190611D231F849F600D211D822F762F6A2FBE
S11321A011249F5750409AF0F1F088234AF0EE0F23
S11321B0FF1FBB1F661F771F881F91505040A9F750
S11321C09E3F510580F00C9401100C9487105F3FE2
S11321D0E4F3983ED4F3869577956795B795F7958C
S11321E0E7959F5FC1F7FE2B880F911D9695879504
S11321F097F908959F930E945F110F9007FCEE5F7B
S11322000C94881119F416F40C9407100C944811CA
S11322100E946C10B8F39923C9F3B6F39F57550B7A
S113222087FF0E9456110024A0E640EA90018058DE
S11322305695979528F4805C660F771F881F20F0C9
S113224026173707480730F4621B730B840B2029C9
S113225031294A2BA69517940794202531254A271E
S113226058F7660F771F881F20F02617370748078F
S113227030F4620B730B840B200D311D411DA095AE
S113228081F7B901842F9158880F96958795089501
S11322909F3F31F0915020F4879577956795B795D6
S11322A0880F911D9695879597F908959150504000
S11322B0660F771F881FD2F708950C9407100E94A9
S11322C06C10D8F3E894E0E0BB279F57F0F02AEDB8
S11322D03FE049EC06C0EE0FBB0F661F771F881F57
S11322E028F0B23A62077307840728F0B25A620BE7
S11322F0730B840BE3959A9572F7803830F49A95B2
S1132300BB0F661F771F881FD2F790480C944A11A1
S1132310EF93E0FF07C0A2EA2AED3FE049EC5FEB50
S11323200E948C0E0E9453100F90039401FC90584D
S1132330E4EAF0E00C943110FC01918D228D892F98
S113234090E0805C9F4F821B91098F7399270895B9
S1132350FC01918D828D981731F0828DE80FF11D6B
S1132360858D90E008958FEF9FEF0895FC01918D86
S1132370828D981761F0828DDF01A80FB11D5D96E3
S11323808C91928D9F5F9F73928F90E008958FEF51
S11323909FEF089587E393E1892B49F080E090E073
S11323A0892B29F00E94371381110E94000008959F
S11323B0FC01848DDF01A80FB11DA35ABF4F8C917E
S11323C0248D30E02F5F3F4F2F733078332334F464
S11323D021503109206C3F6F2F5F3F4F248FA68916
S11323E0B7898C93A089B1898C9180648C93938DE7
S11323F0848D981306C00288F389E02D80818F7D37
S113240080830895CF93DF93EC01888D8823D9F0DE
S1132410EA89FB89808185FD05C0A889B9898C91E9
S113242086FD11C00FB607FCF5CF808185FFF2CF82
S113243004C0CE010E94D811EBCFA889B9898C9130
S113244085FFE8CFF6CFDF91CF9108950F931F93C7
S1132450CF93DF93EC0181E0888F9B8D8C8D981353
S113246023C0E889F989808185FD2FC01DC09C8D1A
S113247019130CC00FB607FCFACFE889F9898081DB
S113248085FFF5CFCE010E94D811F1CF8B8DFE01CF
S1132490E80FF11DE35AFF4F00831B8FEA89FB8984
S11324A080818062808319C02B8D30E02F5F3F4F85
S11324B02F733078332334F421503109206C3F6F6B
S11324C02F5F3F4F062F122FD2CFEE89FF896083F3
S11324D0E889F98980818064808381E090E0DF91DC
S11324E0CF911F910F910895CF92DF92EF92FF92B7
S11324F01F93CF93DF93EC016A017B01122FE889CC
S1132500F98982E080834115514E61057105B1F06E
S113251060E079E08DE390E0A70196010E94831BBF
S1132520DA01C9010197A109B109B695A795979553
S113253087959C01211580E13807A8F0E889F9897D
S1132540108260E874E88EE190E0A70196010E9491
S1132550831BDA01C9010197A109B109B695A795B1
S1132560979587959C01EC85FD853083EE85FF85E5
S11325702083188EEC89FD891083EA89FB89808188
S113258080618083EA89FB89808188608083EA890D
S1132590FB89808180688083EA89FB8980818F7DC3
S11325A08083DF91CF911F91FF90EF90DF90CF90C8
S11325B008951F920F920FB60F9211242F938F93A9
S11325C09F93AF93BF93EF93FF93E0915704F091E0
S11325D05804808182FD14C0E7E4F4E0A689B78939
S11325E02C91818D8F5F8F73928D891771F0DF012C
S11325F0E18DF0E0E95BFB4F258F59968C9305C084
S1132600E0915D04F0915E048081FF91EF91BF91B0
S1132610AF919F918F912F910F900FBE0F901F90AC
S113262018951F920F920FB60F9211242F933F9378
S11326304F935F936F937F938F939F93AF93BF93C6
S1132640EF93FF9387E494E00E94D811FF91EF91F8
S1132650BF91AF919F918F917F916F915F914F91B6
S11326603F912F910F900FBE0F901F90189587E404
S113267094E00E949C1121E0892B09F420E0822F30
S11326800895E7E4F4E01382128288EE93E0A0E078
S1132690B0E084839583A683B7838AED92E0918327
S11326A0808385EC90E09587848784EC90E097871D
S11326B0868780EC90E0918B808B81EC90E0938B0B
S11326C0828B82EC90E0958B848B86EC90E0978BE8
S11326D0868B118E128E138E148E089508950E9487
S11326E0F5170E946E130E94DF04CAECD1E10E9428
S11326F069072097E1F30E94CA11F9CFCF92DF92C4
S1132700EF92FF920F931F93CF93DF9341155105DF
S1132710C1F06A018C01E62EF72EC0E0D0E0D701AB
S11327206D917D01D801ED91FC910190F081E02D36
S1132730C8010995892B39F02196CC16DD0679F765
S113274002C0C0E0D0E0CE01DF91CF911F910F9184
S1132750FF90EF90DF90CF9008956115710581F09F
S1132760FB0101900020E9F73197AF01461B570B9D
S1132770DC01ED91FC910280F381E02D099508952F
S113278080E090E00895DC01ED91FC910190F081EE
S1132790E02D09950895DC01ED91FC910280F3810F
S11327A0E02D42E050E066EE72E0099508950F9343
S11327B01F93CF93DF93EC010E94AD138C01CE01E4
S11327C00E94CB13800F911FDF91CF911F910F9126
S11327D008950F931F93CF93DF93EC010E94C313CB
S11327E08C01CE010E94CB13800F911FDF91CF91FA
S11327F01F910F9108958F929F92AF92BF92EF9283
S1132800FF920F931F93CF93DF93CDB7DEB7A197BA
S11328100FB6F894DEBF0FBECDBF7C01CB01BA0169
S113282019A2223008F42AE08E010F5D1F4F822E78
S1132830912CA12CB12CA50194010E94831BE62F9D
S1132840622F732F842F952F01501109EA3010F451
S1132850E05D01C0E95CD801EC9361157105810567
S1132860910549F70115110591F0F8010190002037
S1132870E9F73197AF01401B510BD701ED91FC9162
S11328800280F381E02DB801C701099502C080E000
S113289090E0A1960FB6F894DEBF0FBECDBFDF91D6
S11328A0CF911F910F91FF90EF90BF90AF909F90A9
S11328B08F900895CF92DF92EF92FF920F931F9320
S11328C0CF93DF93EC016A017B012115310541F4BB
S11328D0E881F9810190F081E02D642F09951DC0F4
S11328E02A303105C1F4772394F46DE20E94C313B6
S11328F08C0144275527BA014C195D096E097F09DB
S11329002AE0CE010E94FB13800F911F06C02AE02B
S11329100E94FB1302C00E94FB13DF91CF911F9111
S11329200F91FF90EF90DF90CF9008959A01AB0143
S1132930770F660B770B0E945A1408950F931F9319
S1132940CF93DF93EC010E9496148C01CE010E9478
S1132950CB13800F911FDF91CF911F910F91089599
S11329600F931F93CF93DF93EC010E945A148C01B1
S1132970CE010E94CB13800F911FDF91CF911F9145
S11329800F9108952115310549F4DC01ED91FC9175
S11329900190F081E02D642F099508950E94FB13A6
S11329A008959A01462F50E060E070E00E94C2143E
S11329B008959A01AB0160E070E00E94C21408958A
S11329C07F928F929F92AF92BF92CF92DF92EF92BB
S11329D0FF920F931F93CF93DF9300D000D0CDB716
S11329E0DEB78C014A015B01722E9A01AB01C5016D
S11329F0B4010E945A1B882331F069EE72E0C801C9
S1132A000E94AD13D7C075016401E894F7F82FEF65
S1132A103FEF4FE75FE7C701B6010E945A1B8111E0
S1132A2010C02FEF3FEF4FE75FE7C701B6010E94E9
S1132A302C1B181634F46DEE72E0C8010E94AD131D
S1132A40B9C02FEF3FEF4FE75FE4C501B4010E9427
S1132A50551B181634F461EF72E0C8010E94AD13DF
S1132A60A9C02FEF3FEF4FE75FECC501B4010E940F
S1132A702C1B882334F461EF72E0C8010E94AD136B
S1132A8099C020E030E0A901C501B4010E942C1BCB
S1132A90882354F46DE2C8010E94C3137C01B7FA81
S1132AA0B094B7F8B09402C0E12CF12C772009F46B
S1132AB06EC0198260E070E080E09FE320E030E0C7
S1132AC040E251E40E94FC0E29812F5F2983721297
S1132AD0F5CF2CC020E030E040E251E4C501B40160
S1132AE00E948D104B015C010E94750F6B017C01EB
S1132AF04AE050E0C8010E94D91429813A81280F84
S1132B00391F3A832983B60180E090E00E94A40F24
S1132B109B01AC01C501B4010E94740E4B015C0120
S1132B207A947110D7CF89819A8144C09B01AC01FA
S1132B30C501B4010E94750E4B015C010E94750F22
S1132B4069837A838B839C830E94A40F9B01AC01CD
S1132B50C501B4010E94740E4B015C012AE030E00F
S1132B6049815A816B817C81C8010E94C2149A8375
S1132B7089836EE2C8010E94C31329813A81820FBE
S1132B80931F9C012E0D3F1D3A832983A3CF20E080
S1132B9030E040E05FE3C501B4010E94750E0E947D
S1132BA0750FAB01BC012AE030E0C8010E94C214D9
S1132BB08E0D9F1D0F900F900F900F90DF91CF916E
S1132BC01F910F91FF90EF90DF90CF90BF90AF9047
S1132BD09F908F907F9008950E94E01408950F9322
S1132BE01F93CF93DF93EC010E94E0148C01CE017C
S1132BF00E94CB13800F911FDF91CF911F910F91F2
S1132C0008958091140590E020911505821B910987
S1132C1008959091150580911405981750F4E92FA3
S1132C20F0E0EA5EFA4F208130E09F5F9093150553
S1132C3002C02FEF3FEFC9010895E091150580917F
S1132C401405E81730F4F0E0EA5EFA4F808190E072
S1132C5008958FEF9FEF08950895CF92DF92EF923A
S1132C60FF920F931F93CF93DF938C01CB016A01E3
S1132C702091F0042223A1F041155105A1F0EB01AC
S1132C807B01E40EF51E6991D801ED91FC91019050
S1132C90F081E02DC8010995CE15DF05A1F703C029
S1132CA0642F0E94C719C601DF91CF911F910F9124
S1132CB0FF90EF90DF90CF900895CF93DF931F9212
S1132CC0CDB7DEB7FC0169839091F0049923D9F064
S1132CD09091F104903238F081E090E09383828304
S1132CE080E090E017C08091F204E82FF0E0ED500E
S1132CF0FB4F998190838F5F8093F2048093F1045A
S1132D0081E090E007C061E0CE0101960E94C719FE
S1132D1081E090E00F90DF91CF910895FC01138240
S1132D20128288EE93E0A0E0B0E084839583A683CA
S1132D30B78389EF92E091838083089510921505FB
S1132D40109214051092F2041092F1040E940B19CF
S1132D50089581E08093F004609313051092F204C7
S1132D601092F10408950E94A91608950F93062F56
S1132D7021E04091F10463EF74E0809113050E9417
S1132D8071191092F2041092F1041092F0040F9150
S1132D9008954F925F926F927F92AF92BF92CF92BB
S1132DA0EF92FF920F931F93CF93DF935C01F62E64
S1132DB0D42F28013901EE2049F10E94A9168E2D45
S1132DC0843008F083E0CFEFC80F8823D9F08C2F2C
S1132DD0880F880F880FA301920104C05695479568
S1132DE0379527958A95D2F7CA01B901D501ED9196
S1132DF0FC910190F081E02DC50109958C2FC15003
S1132E008111E5CF60E0C5010E94B6164D2FD13285
S1132E1008F040E22C2D66E175E08F2D0E942919FF
S1132E201092150580931405DF91CF911F910F9196
S1132E30FF90EF90CF90BF90AF907F906F905F9096
S1132E404F900895CF92EF920F931F93C22EE12CCF
S1132E5000E010E098010E94C9161F910F91EF90B5
S1132E60CF90089521E00E942217089561E00E9406
S1132E70B616089584EE94E00E948E1608951F926B
S1132E800F920FB60F9211242F933F938F939F931A
S1132E90AF93BF938091370590913805A091390580
S1132EA0B0913A053091360523E0230F2D3720F4F5
S1132EB00196A11DB11D05C026E8230F0296A11D90
S1132EC0B11D209336058093370590933805A09360
S1132ED03905B0933A0580913B0590913C05A0914A
S1132EE03D05B0913E050196A11DB11D80933B05A2
S1132EF090933C05A0933D05B0933E05BF91AF91DF
S1132F009F918F913F912F910F900FBE0F901F9023
S1132F1018953FB7F89480913B0590913C05A0919A
S1132F203D05B0913E0526B5A89B05C02F3F19F07D
S1132F300196A11DB11D3FBFBA2FA92F982F882735
S1132F40820F911DA11DB11DBC01CD0142E0660F90
S1132F50771F881F991F4A95D1F708958F929F92E2
S1132F60AF92BF92CF92DF92EF92FF926B017C01FE
S1132F700E9489174B015C01C114D104E104F104DE
S1132F8001F10E940A190E948917DC01CB018819FA
S1132F909909AA09BB09883E9340A105B10560F3CC
S1132FA021E0C21AD108E108F10888EE880E83E016
S1132FB0981EA11CB11CC114D104E104F10419F739
S1132FC0DBCFFF90EF90DF90CF90BF90AF909F90BA
S1132FD08F9008958230910538F0880F991F880FDB
S1132FE0991F05970197F1F70895789484B5826045
S1132FF084BD84B5816084BD85B5826085BD85B599
S1133000816085BDEEE6F0E0808181608083E1E847
S1133010F0E010828081826080838081816080837F
S1133020E0E8F0E0808181608083E1EBF0E0808182
S113303084608083E0EBF0E0808181608083EAE754
S1133040F0E08081846080838081826080838081DD
S1133050816080838081806880831092C10008959C
S11330608E3008F08E502091000190E4299F900149
S113307011248770822B80937C0080917A00806475
S113308080937A0080917A0086FDFCCF809178004D
S11330902091790090E0922B0895833081F028F4F8
S11330A0813099F08230A1F008958730A9F08830FA
S11330B0B9F08430D1F4809180008F7D03C0809179
S11330C080008F7780938000089584B58F7702C045
S11330D084B58F7D84BD08958091B0008F7703C03F
S11330E08091B0008F7D8093B0000895CF93DF93DB
S11330F090E0FC01EA52FF4F2491FC01E651FF4F9E
S11331008491882361F190E0880F991FFC01EE5EA1
S1133110FE4FC591D491FC01E85FFE4FA591B49197
S1133120611109C09FB7F894888120958223888310
S1133130EC912E230BC0623061F49FB7F894888120
S1133140322F309583238883EC912E2B2C939FBFB1
S113315006C08FB7F894E8812E2B28838FBFDF91A8
S1133160CF9108951F93CF93DF93282F30E0F90177
S1133170EE53FF4F8491F901EA52FF4FD491F901C4
S1133180E651FF4FC491CC23C1F0162F81110E9448
S11331904D18EC2FF0E0EE0FFF1FE85FFE4FA591F6
S11331A0B4919FB7F894111104C08C91D095D82391
S11331B002C0EC91DE2BDC939FBFDF91CF911F9176
S11331C00895CF93DF93282F30E0F901EE53FF4F9A
S11331D08491F901EA52FF4FD491F901E651FF4F6E
S11331E0C491CC2391F081110E944D18EC2FF0E092
S11331F0EE0FFF1FE250FF4FA591B491EC91ED2328
S113320081E090E021F480E002C080E090E0DF9172
S1133210CF91089508951092AC0581E08093AA059A
S11332201092A90561E082E10E94B21861E083E195
S11332300E94B218E9EBF0E080818E7F8083808168
S11332408D7F808388E48093B80085E48093BC00FC
S11332500895413208F043C09091AC059111FCCF20
S113326091E09093AC052093AA052FEF20933F059E
S113327010928405240F209383059093AB059091BD
S1133280AB05880F892B8093AB058091A90581300C
S113329061F41092A9058091AB058093BB008091E5
S11332A0BC0083FDF8CF85EC01C085EE8093BC00A3
S11332B08091AC058130E1F380918405841710F48A
S11332C040918405A5E8B5E0962FFB018E2F891B5C
S11332D0841718F48D918193F9CF842F089580E099
S11332E008950F93413208F04AC09091AC059111B2
S11332F0FCCF32E03093AC050093AA053FEF309346
S11333003F051092840540938305562FA5E8B5E048
S1133310FB013E2F351B341718F431913D93F9CF3F
S11333201092AB053091AB05880F832B8093AB05CE
S11333308091A905813061F41092A9058091AB05B3
S11333408093BB008091BC0083FDF8CF85EC01C065
S113335085EE8093BC00222321F08091AC0582305D
S1133360D1F380913F058F3F79F080913F05803202
S113337041F080913F05803331F094E005C091E045
S113338003C092E001C093E0892F0F91089540910A
S11333906105262F30E0240F311D21323105DCF484
S11333A02091AC052430C9F4FC0180E090E086173C
S11333B058F4309161052191DC01AD59BA4FA30F46
S11333C0B11D2C930196F3CF80916105680F609332
S11333D0610580E0089581E0089582E0089585ED17
S11333E08093BC008091BC0084FDFCCF1092AC059E
S11333F0089585EC8093BC001092AC0508951F924B
S11334000F920FB60F9211242F933F934F935F9314
S11334106F937F938F939F93AF93BF93EF93FF9398
S11334208091B900887F803609F49EC078F588328F
S113343009F45DC090F4803109F456C038F488234F
S113344009F4F5C0883009F44FC0F5C0883109F497
S11334504EC0803209F45FC0EEC0803409F46AC003
S113346058F4803309F457C0883309F0E4C08093DA
S11334703F050E94F919DFC0803509F44FC0883533
S113348009F45DC0883409F0D6C0D3C0883909F482
S1133490C4C0A8F4883709F467C038F4883609F43E
S11334A063C0803709F460C0C6C0883809F4B5C069
S11334B0803909F45FC0803809F0BDC05BC0803B2F
S11334C009F483C038F4803A09F466C0883A09F4F0
S11334D07CC0B1C0803C09F4A4C0883C09F4A1C0FC
S11334E0883B09F487C0A7C08091AB0510C09091B8
S11334F0840580918305981770F5E091840581E037
S11335008E0F80938405F0E0EB57FA4F808180930F
S1133510BB0085EC83C080933F058BC0E09184059C
S113352081E08E0F809384058091BB00F0E0EB571F
S1133530FA4F808390918405809183056BC0E0915C
S1133540840581E08E0F809384058091BB00F0E0B8
S1133550EB57FA4F80838091AA0581116AC081E0FC
S11335608093A90584EA5EC083E08093AC05109241
S11335704005CFCF80914005803208F04EC0E091E5
S1133580400581E08E0F809340058091BB00F0E000
S1133590EF5BFA4F8083BDCF0E94F91980914005FB
S11335A0803230F4E0914005F0E0EF5BFA4F108296
S11335B06091400570E0E091A505F091A60581E4D5
S11335C095E009951092400536C084E08093AC05DF
S11335D01092620510926105E091A705F091A8058B
S11335E0099580916105811105C081E08093610591
S11335F010926305E091620581E08E0F809362056D
S1133600F0E0ED59FA4F80818093BB009091620500
S113361080916105981708F47CCF85E88093BC00FD
S11336200AC085EC8093BC001092AC0504C01092D3
S11336303F050E94EF19FF91EF91BF91AF919F91C8
S11336408F917F916F915F914F913F912F910F9047
S11336500FBE0F901F9018950E94311B08F481E053
S11336600895990F0008550FAA0BE0E8FEEF16160F
S11336701706E807F907C0F012161306E407F50762
S113368098F0621B730B840B950B39F40A2661F0D6
S1133690232B242B252B21F408950A2609F4A14079
S11336A0A6958FEF811D811D08950E94311B08F49A
S11336B08FEF08950E94311B880B990B0895DB014D
S11336C08F939F930E94E21BBF91AF91A29F800DA5
S11336D0911DA39F900DB29F900D1124089597FB07
S11336E0072E16F4009407D077FD09D00E94ED1B35
S11336F007FC05D03EF4909581959F4F08957095F1
S113370061957F4F0895A1E21A2EAA1BBB1BFD01F0
S11337100DC0AA1FBB1FEE1FFF1FA217B307E407AC
S1133720F50720F0A21BB30BE40BF50B661F771F04
S1133730881F991F1A9469F76095709580959095E4
S11337409B01AC01BD01CF010895052E97FB1EF42A
S113375000940E94BC1B57FD07D00E94831B07FCEA
S113376003D04EF40C94BC1B509540953095219594
S11337703F4F4F4F5F4F0895909580957095619599
S11337807F4F8F4F9F4F08950E94CC1B332312F419
S11337908A1B9B0B0C94DD1BA29FB001B39FC0013D
S11337A0A39F700D811D1124911DB29F700D811D69
S11337B01124911D08950E94CC1BB7FF0895821B0C
S11337C0930B08950E94CC1BA59F900DB49F900D60
S11337D0A49F800D911D11240895AA1BBB1B51E1C8
S11337E007C0AA1FBB1FA617B70710F0A61BB70B6D
S11337F0881F991F5A95A9F780959095BC01CD0112
S11338000895EE0FFF1F0590F491E02D0994F999A6
S1133810FECF92BD81BDF89A992780B50895F8949A
S1053820FFCFD4
S11338220153746172743A002020526F6C6C3A0036
S11338323C3C3C003E3E3E002D2B2D002020506996
S11338427463683A005E5E5E0076767600202054E9
S113385268726F74746C653A0020205961773A007B
S113386220204348353A0020204348363A0020209D
S11338724348373A0020566F6C743A0052656164CB
S1133882696E67207265636569766572207369671C
S11338926E616C732E005072696E742074686520B8
S11338A271756164636F7074657220616E676C65B3
S11338B2732E004779726F2063616C69627261745E
S11338C2696F6E2073746172747320696E20322082
S11338D27365636F6E64732028646F6E2774206D42
S11338E26F7665207468652071756164636F7074A6
S11338F26572292121210054657374206D6F746FE0
S1133902722031202872696768742066726F6E743F
S1133912204343572E290054657374206D6F746FCE
S1133922722032202872696768742072656172207D
S113393243572E290054657374206D6F746F72207F
S11339423320286C65667420726561722043435784
S11339522E290054657374206D6F746F72203420A5
S1133962286C6566742066726F6E742043572E2924
S1133972005465737420616C6C206D6F746F727384
S113398220746F6765746865720053657420746887
S1133992726F74746C6520746F203130303020285B
S11339A26C6F77292E2049742773206E6F772073EA
S11339B2657420746F3A2000303A007C313A007CFE
S11339C2323A007C333A0043616C69627261746911
S11339D26E6720746865206779726F004F4B0050E0
S11339E2697463683A200020526F6C6C3A2000209C
S11339F25961773A20000000000026127E139C11C0
S1133A02B611A81102120D0A006E616E00696E668B
S1133A12006F766600000000005D162D160116097F
S1093A22161D162C16000F
S903041BDD
