S01000004779726F546573742E73726563D3
S11300000C94B3000C94DB000C94DB000C94DB0028
S11300100C94DB000C94DB000C94DB000C94DB00F0
S11300200C94DB000C94DB000C94DB000C94DB00E0
S11300300C94DB000C94DB000C94DB000C94DB00D0
S11300400C94F2140C94DB000C941E110C945611B5
S11300500C94DB000C94DB000C94DB000C94DB00B0
S11300600C9496170C94DB0007634236B79BD8A711
S11300701A39685618AEBAAB558C1D3CB7CC5763C9
S1130080BD6DEDFD753EF6177231BF000000803F77
S113009005A84CCDB2D44EB93836A9020C50B9914A
S11300A08688083CA6AAAA2ABE000000803F080051
S11300B00000BE922449123EABAAAA2ABECDCCCCE3
S11300C04C3E00000080BEABAAAAAA3E000000007D
S11300D0BF000000803F0000000000084178D3BB4F
S11300E04387D1133D190E3CC3BD4282AD2B3E68FC
S11300F0EC8276BED98FE1A93E4C80EFFFBE01C4ED
S1130100FF7F3F0000000000000000080002010023
S113011000030407000000000000000001020408BE
S1130120102040800102040810200102040810205D
S11301300404040404040404020202020202030389
S1130140030303030000000023002600290000002D
S11301500000250028002B000000000024002700D8
S11301602A008611ED1411241FBECFEFD8E0DEBFA4
S1130170CDBF12E0A0E0B1E0EEECF2E302C00590E6
S11301800D92A839B107D9F724E0A8E9B2E001C07B
S11301901D92AF38B207E1F710E0C3EBD0E004C022
S11301A02197FE010E945F19C13BD107C9F70E9444
S11301B0B4110C9465190C9400004F925F926F92E5
S11301C07F928F929F92AF92BF92CF92DF92EF92E3
S11301D0FF920F931F930E943C150091C602109149
S11301E0C7022091C8023091C902DC01CB01801BF7
S11301F0910BA20BB30B833D9F40A105B10520F0E9
S113020061E08DE00E9448160E943C150091C602F0
S11302101091C7022091C8023091C902DC01CB01C0
S1130220801B910BA20BB30B803A9F40A105B10533
S113023058F30E943C156093C6027093C7028093E2
S1130240C8029093C9020E944E0420ED32E240E8B5
S113025058E36091F7027091F8028091F90290914D
S1130260FA020E94910D2091A2023091A3024091C2
S1130270A4025091A5020E94EF0B6B017C0120EDBA
S113028032E240E858E36091F3027091F402809105
S1130290F5029091F6020E94910D20919E023091F8
S11302A09F024091A0025091A1020E94EF0B4B01CA
S11302B05C014090EF025090F0026090F102709067
S11302C0F20220ED32E240E858E3C301B2010E9499
S11302D0910D9B01AC0160919A0270919B028091F7
S11302E09C0290919D020E94EF0B60939A0270937E
S11302F09B0280939C0290939D022BE733E14FE88D
S113030055E3C301B2010E94910D0E944E0E2B01D0
S11303103C019B01AC01C501B4010E94910D9B01FC
S1130320AC01C701B6010E94EE0B6B017C01609326
S1130330A2027093A3028093A4029093A5029B014E
S1130340AC01C301B2010E94910D9B01AC01C50136
S1130350B4010E94EF0B60939E0270939F028093FE
S1130360A0029093A10280919802909199029C011D
S11303702F5F3F4F30939902209398028E37910557
S11303800CF47CC09091CA0281E089278093CA0250
S113039022E030E0B701A60189E293E00E94AD13A8
S11303A061E071E089E293E00E94F21140919E02C3
S11303B050919F026091A0027091A10222E030E06E
S11303C089E293E00E94AD1361E071E089E293E079
S11303D00E94F21140919A0250919B0260919C02FA
S11303E070919D0222E030E089E293E00E94AD1317
S11303F061E071E089E293E00E94F2114091F7021A
S11304005091F8026091F9027091FA0222E030E012
S113041089E293E00E94AD1361E071E089E293E028
S11304200E94F2114091F3025091F4026091F5029E
S11304307091F60222E030E089E293E00E94AD136D
S113044061E071E089E293E00E94F2114091EF02D1
S11304505091F0026091F1027091F20222E030E0DA
S113046089E293E00E94AD1361E071E089E293E0D8
S11304700E941C1210929902109298021F910F91DF
S1130480FF90EF90DF90CF90BF90AF909F908F90B0
S11304907F906F905F904F900895CF93DF938CE09F
S11304A08093B80068E670E086EC93E00E946214E2
S11304B0C6ECD3E0E881F9810190F081E02D6BE690
S11304C0CE010995E881F9810190F081E02D60E089
S11304D0CE010995CE010E94E91468E670E0CE01D0
S11304E00E946214E881F9810190F081E02D6BE6AD
S11304F0CE010995E881F9810190F081E02D61E058
S1130500CE010995CE010E94E91468E670E0CE019F
S11305100E946214E881F9810190F081E02D6BE181
S1130520CE010995E881F9810190F081E02D68E020
S1130530CE010995CE010E94E91468E670E0CE016F
S11305400E946214E881F9810190F081E02D6CE150
S1130550CE010995E881F9810190F081E02D60E1F7
S1130560CE010995CE010E94E91468E670E0CE013F
S11305700E946214E881F9810190F081E02D6BE121
S1130580CE010995CE010E94E91441E050E068E6ED
S113059070E0CE010E94E51486EC93E00E94B01353
S11305A018161906CCF786EC93E00E94B813089746
S11305B0C9F061E08DE00E94481664E670E080E0D6
S11305C090E00E94611561E08DE00E94481664E6A7
S11305D070E080E090E00E94611560E08DE00E9490
S11305E04816EBCF68E670E086EC93E00E94621454
S11305F0C6ECD3E0E881F9810190F081E02D6AE155
S1130600CE010995E881F9810190F081E02D63E044
S1130610CE010995CE010E94E91442E067E388E621
S11306200E94C7060E940A06DF91CF9108958F9217
S1130630AF92CF92EF920F93CF93DF9386EC93E038
S11306400E944D1426E040E052EC61E070E089E243
S113065093E00E94B51063E071E089E293E00E94A8
S11306601C1265E788E60E945007C82F62E271E019
S113067089E293E00E94F2116BE271E089E293E077
S11306800E94F21140E150E06C2F89E293E00E9455
S11306909C128EEA92E00E94A80761E371E089E26D
S11306A093E00E94F211CEEAD2E0488159816A8136
S11306B07B8121E030E089E293E00E94AD136FE595
S11306C071E089E293E00E941C1262E771E089E222
S11306D093E00E94F2114C815D816E817F8121E063
S11306E030E089E293E00E94AD136FE571E089E2A6
S11306F093E00E941C1260EA71E089E293E00E9498
S1130700F211488559856A857B8521E030E089E2CC
S113071093E00E94AD136FE571E089E293E00E94DB
S11307201C126EEC71E089E293E00E94F2114C8598
S11307305D856E857F8521E030E089E293E00E944B
S1130740AD136FE571E089E293E00E941C1268EF3B
S113075071E089E293E00E94F211488959896A891B
S11307607B8921E030E089E293E00E94AD136FE5DC
S113077071E089E293E00E941C1262E272E089E275
S113078093E00E94F2114C895D896E897F8921E092
S113079030E089E293E00E94AD136FE571E089E2F5
S11307A093E00E941C120E944D0260E08CE00E94C3
S11307B05007C82F6CE472E089E293E00E94F211C2
S11307C06BE271E089E293E00E94F21140E150E0B3
S11307D06C2F89E293E00E949C1261E08BEC92E022
S11307E00E944E0B0E94400764E572E089E293E0A8
S11307F00E941C1281E08F93812CA12CCC24C394E1
S11308000F2EF7E0EF2EF02D01E023E04CE060E046
S113081088E60E94E10661E08DE00E940C161092C9
S1130820AA021092AB021092AC021092AD02109286
S1130830A6021092A7021092A8021092A902109286
S1130840A2021092A3021092A4021092A502109286
S11308509E0210929F021092A0021092A102109286
S11308609A0210929B0210929C0210929D0260E0E8
S11308708DE00E9448160E943C156093C602709356
S1130880C7028093C8029093C9020F90DF91CF9161
S11308900F91EF90CF90AF908F9008950F931F9387
S11308A0CF93DF9368E670E086EC93E00E946214D5
S11308B0E091C603F091C7030190F081E02D6BE352
S11308C086EC93E0099586EC93E00E94E91445E1F7
S11308D050E068E670E086EC93E00E94E51486EC54
S11308E093E00E94B0134597D4F386EC93E00E9402
S11308F0B813182F86EC93E00E94B813C7E0D3E036
S113090020E030E0312F822B932B9B838A8386EC6B
S113091093E00E94B813182F86EC93E00E94B8135A
S113092020E030E0312F822B932B9D838C8386EC47
S113093093E00E94B813182F86EC93E00E94B8133A
S113094020E030E0312F822B932B9F838E8386EC23
S113095093E00E94B813C82F86EC93E00E94B8136A
S113096060E070E07C2F862B972BBC01990F880BDD
S1130970990B0E94050D6093FB027093FC02809317
S1130980FD029093FE0286EC93E00E94B813182FA8
S113099086EC93E00E94B813CFE0D3E020E030E08F
S11309A0312F822B932B9B838A8386EC93E00E94C6
S11309B0B813182F86EC93E00E94B81320E030E0BF
S11309C0312F822B932B9D838C8386EC93E00E94A2
S11309D0B813182F86EC93E00E94B81320E030E09F
S11309E0312F822B932B9F838E8386EC93E00E947E
S11309F0B8138C0186EC93E00E94B813CFEFD2E0D9
S1130A0020E030E0382F022B132B1B830A8386EC63
S1130A1093E00E94B8138C0186EC93E00E94B81313
S1130A2020E030E0382F022B132B1D830C8386EC3F
S1130A3093E00E94B8138C0186EC93E00E94B813F3
S1130A4020E030E0382F022B132B1F830E8386EC1B
S1130A5093E00E94B8138091270390912803803D6E
S1130A609740E9F5CFE0D3E06A817B81072E000C43
S1130A70880B990B0E94050D07E113E0F80124810E
S1130A803581468157810E94EE0B0E94CD0C7B83F9
S1130A906A836C817D81072E000C880B990B0E9460
S1130AA0050DF80120853185428553850E94EE0BA2
S1130AB00E94CD0C7D836C836E817F81072E000C98
S1130AC0880B990B0E94050DF80124853585468510
S1130AD057850E94EE0B0E94CD0C7F836E83CFE07E
S1130AE0D3E06A817B81072E000C880B990B0E944E
S1130AF0050D6093F3027093F4028093F5029093D2
S1130B00F6026C817D81072E000C880B990B0E94E4
S1130B10050D6093F7027093F8028093F9029093A5
S1130B20FA026E817F81072E000C880B990B0E94BC
S1130B30050D6093EF027093F0028093F10290939D
S1130B40F202C7E0D3E06A817B81072E000C880B98
S1130B50990B0E94050D6093EB027093EC02809355
S1130B60ED029093EE026C817D81072E000C880BC0
S1130B70990B0E94050D6093E7027093E80280933D
S1130B80E9029093EA026E817F81072E000C880BA4
S1130B90990B0E94050D6093E3027093E402809325
S1130BA0E5029093E602CFEFD2E06A817B81072EC3
S1130BB0000C880B990B0E94050D6093DF02709363
S1130BC0E0028093E1029093E2026C817D81072E22
S1130BD0000C880B990B0E94050D6093DB02709347
S1130BE0DC028093DD029093DE026E817F81072E0A
S1130BF0000C880B990B0E94050D6093D70270932B
S1130C00D8028093D9029093DA02DF91CF911F9199
S1130C100F910895CF92DF92EF92FF920F931F935B
S1130C20CF93DF93109228031092270380E090E083
S1130C300F2EFFE0EF2EF12CF02DDD24D394C12CE8
S1130C40C7E1D3E00FE013E0B7010E94F618892B47
S1130C5051F48DE00E9478166D2D892B09F06C2DCE
S1130C608DE00E9448160E944E04F801628173814F
S1130C70072E000C880B990B0E94050D9B01AC01FB
S1130C806C817D818E819F810E94EF0B6C837D83BB
S1130C908E839F83F80164817581072E000C880B75
S1130CA0990B0E94050D9B01AC01688579858A85A5
S1130CB09B850E94EF0B688779878A879B87F80159
S1130CC066817781072E000C880B990B0E94050D15
S1130CD09B01AC016C857D858E859F850E94EF0B01
S1130CE06C877D878E879F878BB1806F8BB988EEE9
S1130CF093E00E949D158BB18F708BB963E070E017
S1130D0080E090E00E946115809127039091280370
S1130D1001969093280380932703803DF7E09F0773
S1130D200CF492CFC7E1D3E020E030E04AEF54E482
S1130D306C817D818E819F810E945B0C6C837D839D
S1130D408E839F8320E030E04AEF54E46885798500
S1130D508A859B850E945B0C688779878A879B8735
S1130D6020E030E04AEF54E46C857D858E859F85D4
S1130D700E945B0C6C877D878E879F87DF91CF9164
S1130D801F910F91FF90EF90DF90CF900895CF9334
S1130D90DF93D62FC42F682F86EC93E00E9458145B
S1130DA06D2F86EC93E00E940C146C2F86EC93E07C
S1130DB00E940C1486EC93E00E94E914DF91CF9119
S1130DC008957F928F929F92AF92BF92CF92DF92BB
S1130DD0EF92FF920F931F93CF93DF93CDB7DEB7BC
S1130DE0643008F03FC0902EB22ED42EF82E162F69
S1130DF0110F160F0F2EF5E27F2EF02D710E07E264
S1130E00010F40E0602F0E94C706911002C040E02D
S1130E1001C040E84D29672D8F2D0E94C70666E268
S1130E20610F4B2D8F2D0E94C70620E1829E400149
S1130E3011248E2D8F70882990E4A99E50011124CD
S1130E40A82A91E0C92620E2C29EC00111248A2961
S1130E50488990E8499FA0011124482B602F8F2DC9
S1130E600E94C706DF91CF911F910F91FF90EF90E1
S1130E70DF90CF90BF90AF909F908F907F90089518
S1130E8040E067E388E60E94C7064DE564E288E631
S1130E900E94C70640E26AE688E60E94C7060895F3
S1130EA0CF93DF93C82FD62F682F86EC93E00E9450
S1130EB058146D2F86EC93E00E940C1486EC93E09A
S1130EC00E94E91441E06C2F86EC93E00E94E11447
S1130ED086EC93E00E94B813DF91CF910895EF92CE
S1130EE0FF920F931F93CF93DF93C82F162FD42F06
S1130EF07901682F86EC93E00E945814612F86ECE8
S1130F0093E00E940C1486EC93E00E94E9144D2FA8
S1130F106C2F86EC93E00E94E114C0E00CC0D1E099
S1130F20DC0F87010C0F111D86EC93E00E94B813AF
S1130F30F8018083CD2F86EC93E00E94B013892BB7
S1130F4071F7DF91CF911F910F91FF90EF9008956A
S1130F502F923F924F925F926F927F928F929F92C5
S1130F60AF92BF92CF92DF92EF92FF920F931F93B3
S1130F70CF93DF93CDB7DEB7CE54D1090FB6F89433
S1130F80DEBF0FBECDBF882E992EFE01E75BFF4F5B
S1130F9086E0DF011D928A95E9F78CE03C97DF013A
S1130FA0982F1D929A95E9F73C97DF01982F1D928F
S1130FB09A95E9F73C97DF01982F1D929A95E9F7E6
S1130FC03C97DF011D928A95E9F740E069E188E6E4
S1130FD00E94C70642E06AE188E60E94C70640E034
S1130FE06BE188E60E94C70642E06DE188E60E9454
S1130FF0C70640E06CE188E60E94C70608EC10E0F2
S11310009E01275B3F4F46E06BE388E60E946F0733
S11310102A968FAD2A9790E0982F88272B962FAD8C
S11310202B97822B092E000CAA0BBB0B49A95AA99A
S11310306BA97CA9840F951FA61FB71F89AB9AAB18
S1131040ABABBCAB2C968FAD2C9790E0982F882738
S11310502D962FAD2D97822B092E000CAA0BBB0BBE
S11310604DA95EA96FA978AD840F951FA61FB71F60
S11310708DAB9EABAFABB8AF2E968FAD2E9790E0F5
S1131080982F88272F962FAD2F97822B092E000C8F
S1131090AA0BBB0B49AD5AAD6BAD7CAD840F951F4C
S11310A0A61FB71F89AF9AAFABAFBCAF9E01275B3A
S11310B03F4F46E063E488E60E946F072A968FADAF
S11310C02A9790E0982F88272B962FAD2B97822B69
S11310D0092E000CAA0BBB0B21964CAD5DAD6EAD79
S11310E07FAD2197840F951FA61FB71F21968CAF44
S11310F09DAFAEAFBFAF21972C968FAD2C9790E0EC
S1131100982F88272D962FAD2D97822B092E000C12
S1131110AA0BBB0B25964CAD5DAD6EAD7FAD25978F
S1131120840F951FA61FB71F25968CAF9DAFAEAF3A
S1131130BFAF25972E968FAD2E9790E0982F8827D6
S11311402F962FAD2F97822B092E000CAA0BBB0BC9
S113115029964CAD5DAD6EAD7FAD2997840F951F7B
S1131160A61FB71F29968CAF9DAFAEAFBFAF29970F
S11311700150110909F044CF3E01B1E36B0E711C1B
S11311806E01EDE3CE0ED11C5601760183010F2EC4
S1131190F8EC2F2E312C412C512CF02DD8016D91CF
S11311A07D918D919C91A20191010E942C19F801CD
S11311B021933193419351938F01D7016D917D9187
S11311C08D919C91A20191010E942C19F701219308
S11311D03193419351937F010A151B05F9F640EEB3
S11311E06CE188E60E94C70640EE6BE188E60E9447
S11311F0C70669E170E080E090E00E94611508ECA8
S113120010E09E01275B3F4F46E06BE388E60E94B7
S11312106F072A968FAD2A9790E0982F88272B96F0
S11312202FAD2B97822B092E000CAA0BBB0B4DA1C3
S11312305EA16FA178A5840F951FA61FB71F8DA36C
S11312409EA3AFA3B8A72C968FAD2C9790E0982FB0
S113125088272D962FAD2D97822B092E000CAA0BD3
S1131260BB0B49A55AA56BA57CA5840F951FA61F8A
S1131270B71F89A79AA7ABA7BCA72E968FAD2E97A9
S113128090E0982F88272F962FAD2F97822B092E29
S1131290000CAA0BBB0B4DA55EA56FA578A9840F06
S11312A0951FA61FB71F8DA79EA7AFA7B8AB9E011A
S11312B0275B3F4F46E063E488E60E946F072A9667
S11312C08FAD2A9790E0982F88272B962FAD2B97D8
S11312D0822B092E000CAA0BBB0B498D5A8D6B8DEA
S11312E07C8D840F951FA61FB71F898F9A8FAB8F94
S11312F0BC8F2C968FAD2C9790E0982F88272D9635
S11313002FAD2D97822B092E000CAA0BBB0B4D8DF4
S11313105E8D6F8D78A1840F951FA61FB71F8D8FCB
S11313209E8FAF8FB8A32E968FAD2E9790E0982FF7
S113133088272F962FAD2F97822B092E000CAA0BEE
S1131340BB0B49A15AA16BA17CA1840F951FA61FB9
S1131350B71F89A39AA3ABA3BCA30150110909F039
S113136050CF5E01F5E2AF0EB11C1E0189E1280EDB
S1131370311C2E0191E3490E511C71018501D801E4
S11313806D917D918D919C9128EC30E040E050E08E
S11313900E942C19F80121933193419351938F01A9
S11313A0D7016D917D918D919C9128EC30E040E0C6
S11313B050E00E942C19F7012193319341935193EA
S11313C07F0104151505D9F640E06CE188E60E941A
S11313D0C70640E06BE188E60E94C70669E170E059
S11313E080E090E00E9461156DE088E60E9450075D
S11313F0482E6EE088E60E945007582E6FE088E67B
S11314000E945007E82E60E088E60E945007F82EFC
S113141061E088E60E945007082F62E088E60E9497
S11314205007182F642D70E080E090E00E94030DB7
S113143020E030E040E85FE30E94EE0B9B01AC014A
S11314406EEA77E481E89FE30E94FE0D20E030EC31
S113145043E255E40E94910D69837A838B839C83D4
S1131460652D70E080E090E00E94030D20E030E004
S113147040E85FE30E94EE0B9B01AC016EEA77E467
S113148081E89FE30E94FE0D20E030EC43E255E446
S11314900E94910D6D837E838F8398876E2D70E0FB
S11314A080E090E00E94030D20E030E040E85FE33C
S11314B00E94EE0B9B01AC016EEA77E481E89FE3A6
S11314C00E94FE0D20E030EC43E255E40E94910DB1
S11314D069877A878B879C876F2D70E080E090E026
S11314E00E94030D20E030E040E85FE30E94EE0B31
S11314F09B01AC016EEA77E481E89FE30E94FE0D54
S113150020E030EC43E255E40E94910D6D877E8724
S11315108F87988B602F70E080E090E00E94030D2D
S113152020E030E040E85FE30E94EE0B9B01AC0159
S11315306EEA77E481E89FE30E94FE0D20E030EC40
S113154043E255E40E94910D698B7A8B8B8B9C8BC3
S1131550612F70E080E090E00E94030D20E030E015
S113156040E85FE30E94EE0B9B01AC016EEA77E476
S113157081E89FE30E94FE0D20E030EC43E255E455
S11315800E94910D6D8B7E8B8F8B988FCE0101966F
S11315907C01082D192D812C912CF50181919191BB
S11315A0A191B1915F01F301219131914191519147
S11315B03F01BC01CD01621B730B840B950B0E9490
S11315C0050D20E030E048EC52E40E94910DD70173
S11315D02D913D914D915C910E945B0C20E030E097
S11315E048EC52E40E94EE0BF8016083718382831D
S11315F09383F10181919191A191B1911F01F60120
S113160021913191419151916F01BC01CD01621B36
S1131610730B840B950B0E94050D20E030E048EC21
S113162052E40E94910DD7011C962D913D914D914C
S11316305C911F970E945B0C20E030E048EC52E480
S11316400E94EE0BF8016487758786879787FFEF02
S11316508F1A9F0A84E0E80EF11C0C5F1F4F93E081
S11316608916910409F099CFC25BDF4F0FB6F89445
S1131670DEBF0FBECDBFDF91CF911F910F91FF90C1
S1131680EF90DF90CF90BF90AF909F908F907F901E
S11316906F905F904F903F902F900895FF920F931B
S11316A01F93CF93DF9300D01F92CDB7DEB78C0189
S11316B0F62E40E06AE08CE00E94C7066AE070E023
S11316C080E090E00E9461154FE06AE08CE00E94A7
S11316D0C7066AE070E080E090E00E9461159E0118
S11316E02F5F3F4F43E060E18CE00E946F07698108
S11316F070E060587109072E000C880B990B0E944A
S1131700050D20E030E040E85BE30E94910D20E00D
S113171030E040E85FE30E94EF0BF80160837183DF
S1131720828393836A8170E060587109072E000CEC
S1131730880B990B0E94050D20E030E040E85BE344
S11317400E94910D20E030E040E85FE30E94EF0B3F
S1131750F80164837583868397832B8130E0B90114
S113176060587109072E000C880B990B0E94050D17
S113177020E030E040E85BE30E94910D20E030E09F
S113178040E85FE30E94EF0BF8016087718782876E
S1131790938740E06AE08CE00E94C7066AE070E04C
S11317A080E090E00E946115F0E1FF9EA001112409
S11317B0F09000014F296AE08CE00E94C7066AE0BD
S11317C070E080E090E00E9461150F900F900F9000
S11317D0DF91CF911F910F91FF9008955058BB272F
S11317E0AA270E94060C0C94570D0E94490D38F04C
S11317F00E94500D20F039F49F3F19F426F40C9404
S1131800460D0EF4E095E7FB0C94400DE92F0E9481
S1131810680D58F3BA17620773078407950720F019
S113182079F4A6F50C948A0D0EF4E0950B2EBA2FDC
S1131830A02D0B01B90190010C01CA01A0011124D2
S1131840FF27591B99F0593F50F4503E68F11A167E
S1131850F040A22F232F342F4427585FF3CF46950F
S113186037952795A795F0405395C9F77EF41F1631
S1131870BA0B620B730B840BBAF09150A1F0FF0FFB
S1131880BB1F661F771F881FC2F70EC0BA0F621FE7
S1131890731F841F48F4879577956795B795F795D7
S11318A09E3F08F0B0CF9395880F08F09927EE0F6C
S11318B09795879508950E946F0C0C94570D0E947C
S11318C0500D58F00E94490D40F029F45F3F29F073
S11318D00C94400D51110C948B0D0C94460D0E94E8
S11318E0680D68F39923B1F3552391F3951B550BB8
S11318F0BB27AA2762177307840738F09F5F5F4FDF
S1131900220F331F441FAA1FA9F335D00E2E3AF01D
S1131910E0E832D091505040E695001CCAF72BD035
S1131920FE2F29D0660F771F881FBB1F2617370786
S11319304807AB07B0E809F0BB0B802DBF01FF27B8
S113194093585F4F3AF09E3F510578F00C94400D48
S11319500C948B0D5F3FE4F3983ED4F38695779512
S11319606795B795F7959F5FC9F7880F911D969571
S1131970879597F90895E1E0660F771F881FBB1FCD
S1131980621773078407BA0720F0621B730B840B7A
S1131990BA0BEE1F88F7E09508950E94D40C689462
S11319A0B1110C948B0D08950E94700D88F09F570F
S11319B098F0B92F9927B751B0F0E1F0660F771F6F
S11319C0881F991F1AF0BA95C9F714C0B13091F065
S11319D00E948A0DB1E008950C948A0D672F782F28
S11319E08827B85F39F0B93FCCF38695779567952A
S11319F0B395D9F73EF490958095709561957F4F96
S1131A008F4F9F4F0895E89409C097FB3EF490953B
S1131A108095709561957F4F8F4F9F4F9923A9F0C3
S1131A20F92F96E9BB279395F69587957795679552
S1131A30B795F111F8CFFAF4BB0F11F460FF1BC096
S1131A406F5F7F4F8F4F9F4F16C0882311F096E929
S1131A5011C0772321F09EE8872F762F05C06623D7
S1131A6071F096E8862F70E060E02AF09A95660F90
S1131A70771F881FDAF7880F9695879597F9089549
S1131A8097F99F6780E870E060E008959FEF80EC2D
S1131A90089500240A9416161706180609060895D0
S1131AA000240A9412161306140605060895092E36
S1131AB00394000C11F4882352F0BB0F40F4BF2BA5
S1131AC011F460FF04C06F5F7F4F8F4F9F4F0895E5
S1131AD057FD9058440F551F59F05F3F71F04795DB
S1131AE0880F97FB991F61F09F3F79F087950895C0
S1131AF0121613061406551FF2CF4695F1DF08C0DF
S1131B00161617061806991FF1CF869571056105FB
S1131B1008940895E894BB2766277727CB0197F9A3
S1131B2008950E94A40D0C94570D0E94490D38F09D
S1131B300E94500D20F0952311F00C94400D0C944C
S1131B40460D11240C948B0D0E94680D70F3959F23
S1131B50C1F3950F50E0551F629FF001729FBB27A0
S1131B60F00DB11D639FAA27F00DB11DAA1F649F3C
S1131B706627B00DA11D661F829F2227B00DA11DEF
S1131B80621F739FB00DA11D621F839FA00D611D75
S1131B90221F749F3327A00D611D231F849F600D96
S1131BA0211D822F762F6A2F11249F5750409AF0BF
S1131BB0F1F088234AF0EE0FFF1FBB1F661F771F4B
S1131BC0881F91505040A9F79E3F510580F00C9416
S1131BD0400D0C948B0D5F3FE4F3983ED4F386954F
S1131BE077956795B795F795E7959F5FC1F7FE2BB6
S1131BF0880F911D9695879597F90895FA01EE0F30
S1131C00FF1F309621053105A1F16115710561F4BD
S1131C108038BFE39B0749F168949038810561F0EF
S1131C208038BFEF9B0741F099234AF5FF3FE10558
S1131C303105210519F1E8940894E795D901AA23FF
S1131C4029F4AB2FBE2FF85FD0F310C0FF5F70F400
S1131C50A695E0F7F73950F019F0FF3A38F49F777A
S1131C609F930DD00F9007FC9058089546F00C9464
S1131C70460D60E070E080E89FE308954FE79F77AA
S1131C805F934F933F932F930E94400F2F913F9167
S1131C904F915F910E94910D0C945E0E9F930E9450
S1131CA0B90E0F9007FCEE5F0C94E20E29F416F0C7
S1131CB00C94400D0C948A0D0C94460D0E94700DEA
S1131CC0A8F39638A0F707F80F92E8942BE33AEAC2
S1131CD048EB5FE70E94A70D0F920F920F924DB74A
S1131CE05EB70F920E94880FE8E6F0E00E94900E23
S1131CF04F915F91EF91FF91E595EE1FFF1F49F022
S1131D00FE57E0684427EE0F441FFA95E1F741952A
S1131D10550B0E94020F0F9007FE0C94F60E0895C7
S1131D20DF93CF931F930F93FF92EF92DF927B0188
S1131D308C01689406C0DA2EEF010E94A40DFE0106
S1131D40E894A5912591359145915591A6F3EF011C
S1131D500E94060CFE019701A801DA9469F7DF904E
S1131D60EF90FF900F911F91CF91DF9108950C9404
S1131D70460D0E94700DD8F3E894E0E0BB279F570E
S1131D80F0F02AED3FE049EC06C0EE0FBB0F661FF2
S1131D90771F881F28F0B23A62077307840728F078
S1131DA0B25A620B730B840BE3959A9572F78038E1
S1131DB030F49A95BB0F661F771F881FD2F790489F
S1131DC00C94BE0FEF93E0FF07C0A2EA2AED3FE0B8
S1131DD049EC5FEB0E94060C0E94570D0F90039490
S1131DE001FC9058E0E9F0E00C94CA0F9B01AC01AF
S1131DF060E070E080E89FE30C945B0C0C94400D71
S1131E000C94BC0F0E94700DD8F39923C9F3940F5E
S1131E10511DA3F39150504094F059F0882332F0AF
S1131E20660F771F881F91505040C1F79E3F5105A0
S1131E302CF7880F911D9695879597F908955F3F24
S1131E40ACF0983E9CF0BB27869577956795B7953F
S1131E5008F4B1609395C1F7BB0F58F711F460FF14
S1131E60E8CF6F5F7F4F8F4F9F4FE3CF0C948B0D65
S1131E7016F00C94BC0F0C94460D68940C94400D11
S1131E800E94700DA8F39923C1F3AEF3DF93CF93AF
S1131E901F930F93FF92C92FDD2788232AF02197E0
S1131EA0660F771F881FDAF720E030E040E85FEB29
S1131EB09FE3883920F0803E38F021968F770E9486
S1131EC0EF0BEEEAF0E004C00E94EF0BEBEDF0E064
S1131ED00E94900E8B01BE01EC01FB2E6F5771091D
S1131EE07595771F880B990B0E94050D28E132E741
S1131EF041E35FE30E94A40DAF2D9801AE01FF9072
S1131F000F911F91CF91DF910E94060C0C94570DF5
S1131F10FA01DC01AA0FBB1F9B01AC01BF5728F4D7
S1131F20222733274427507820C0B75190F4AB2F91
S1131F300024469537952795011CA395D2F30020DC
S1131F4071F0220F331F441FB395DAF30ED00C94B3
S1131F50EE0B61307105A0E88A07B94630F49B01A5
S1131F60AC016627772788279078309621F0208364
S1131F7031834283538308959F3F31F0915020F47D
S1131F80879577956795B795880F911D9695879551
S1131F9097F908959F938F937F936F93FF93EF9394
S1131FA09B01AC010E94910DEF91FF910E94900E54
S1131FB02F913F914F915F910C94910DFC01918D64
S1131FC0228D892F90E0805C9F4F821B91098F7333
S1131FD099270895FC01918D828D981731F0828D97
S1131FE0E80FF11D858D90E008958FEF9FEF089520
S1131FF0FC01918D828D981761F0828DDF01A80F0D
S1132000B11D5D968C91928D9F5F9F73928F90E02E
S113201008958FEF9FEF08958CE791E1892B49F0A4
S113202080E090E0892B29F00E947C1181110E94AC
S113203000000895FC01848DDF01A80FB11DA35A8F
S1132040BF4F8C91248D30E02F5F3F4F2F7330783A
S1132050332334F421503109206C3F6F2F5F3F4FFD
S1132060248FA689B7898C93A089B1898C918064C7
S11320708C93938D848D981306C00288F389E02D88
S113208080818F7D80830895CF93DF93EC01888DC9
S113209081110FC018C00FB607FC0DC0908195FFC9
S11320A00AC0A889B9898C9185FF05C0CE010E9418
S11320B01A10EA89FB89908195FDEDCFA889B98929
S11320C08C9186FFE8CFDF91CF9108950F931F93F2
S11320D0CF93DF93FC0181E0808F938D848D9813DF
S11320E022C0A089B1898C9185FD2FC01CC00FB678
S11320F007FC08C0E889F989808185FF03C0CE0107
S11321000E941A109C8D091791F38B8DFE01E80F24
S1132110F11DE35AFF4F10830B8FEA89FB898081FD
S1132120806280831BC0238D30E02F5F3F4F2F736D
S11321303078332334F421503109206C3F6F2F5F02
S11321403F4F162FEF01022FDDCFA689B7896C937D
S11321500088F189E02D80818064808381E090E0B3
S1132160DF91CF911F910F910895BF92CF92DF928B
S1132170EF92FF920F931F93CF93DF93EC016A01C9
S11321807B01B22EE889F98982E080834115514EA2
S113219061057105B1F060E079E08DE390E0A7019D
S11321A096010E940A1989019A0101501109210915
S11321B031093695279517950795011580E118077C
S11321C0A8F0E889F989108260E874E88EE190E06B
S11321D0A70196010E940A19DA01C9010197A10910
S11321E0B109B695A795979587958C01EC85FD85E2
S11321F01083EE85FF850083188EEC89FD89B082FB
S1132200EA89FB89808180618083EA89FB898081F6
S113221088608083EA89FB89808180688083EA8979
S1132220FB8980818F7D8083DF91CF911F910F91F6
S1132230FF90EF90DF90CF90BF9008951F920F9280
S11322400FB60F9211242F938F939F93AF93BF9345
S1132250EF93FF93E0913903F0913A03808182FD7B
S113226014C0E9E2F3E0A689B7892C91818D8F5FD0
S11322708F73928D891771F0DF01E18DF0E0E75DD6
S1132280FC4F258F59968C9305C0E0913F03F09144
S113229040038081FF91EF91BF91AF919F918F9106
S11322A02F910F900FBE0F901F9018951F920F92B1
S11322B00FB60F9211242F933F934F935F936F9315
S11322C07F938F939F93AF93BF93EF93FF9389E291
S11322D093E00E941A10FF91EF91BF91AF919F91EB
S11322E08F917F916F915F914F913F912F910F90BB
S11322F00FBE0F901F90189589E293E00E94DE0FA5
S113230021E0892B09F420E0822F0895E9E2F3E02B
S11323101382128288EE93E0A0E0B0E08483958378
S1132320A683B7838DE692E09183808385EC90E069
S11323309587848784EC90E09787868780EC90E08B
S1132340918B808B81EC90E0938B828B82EC90E07C
S1132350958B848B86EC90E0978B868B118E128EF6
S1132360138E148E089508950E94A8150E94B31127
S11323700E941703CCE0D0E10E94DD002097E1F336
S11323800E940C10F9CFCF92DF92EF92FF920F933D
S11323901F93CF93DF9341155105C1F06A018C015E
S11323A0E62EF72EC0E0D0E0D7016D917D01D80173
S11323B0ED91FC910190F081E02DC8010995892BE4
S11323C039F02196CC16DD0679F702C0C0E0D0E0E2
S11323D0CE01DF91CF911F910F91FF90EF90DF908D
S11323E0CF9008956115710581F0FB0101900020E3
S11323F0E9F73197AF01461B570BDC01ED91FC91D6
S11324000280F381E02D0995089580E090E008951D
S1132410DC01ED91FC910190F081E02D0995089586
S1132420DC01ED91FC910280F381E02D42E050E06B
S113243069E772E0099508950F931F93CF93DF9393
S1132440EC010E94F2118C01CE010E941012800F47
S1132450911FDF91CF911F910F9108958F929F92B9
S1132460AF92BF92EF92FF920F931F93CF93DF939C
S1132470CDB7DEB7A1970FB6F894DEBF0FBECDBFC0
S11324807C01CB01BA0119A2223008F42AE08E01A2
S11324900F5D1F4F822E912CA12CB12CA50194010C
S11324A00E940A19E62F622F732F842F952F015053
S11324B01109EA3010F4E05D01C0E95CD801EC9345
S11324C0611571058105910549F70115110591F013
S11324D0F80101900020E9F73197AF01401B510B3F
S11324E0D701ED91FC910280F381E02DB801C70181
S11324F0099502C080E090E0A1960FB6F894DEBF83
S11325000FBECDBFDF91CF911F910F91FF90EF9040
S1132510BF90AF909F908F9008952115310549F495
S1132520DC01ED91FC910190F081E02D642F09957F
S113253008950E942E1208959A01462F50E060E0FB
S113254070E00E948D1208954F925F927F928F9255
S11325509F92AF92BF92CF92DF92EF92FF920F932E
S11325601F93CF93DF9300D000D0CDB7DEB78C019B
S11325704A015B01722E9A01AB01C501B4010E94AC
S1132580F118882331F06CE772E0C8010E94F2115F
S1132590D0C075016401E894F7F82FEF3FEF4FE7DF
S11325A05FE7C701B6010E94F118811110C02FEF37
S11325B03FEF4FE75FE7C701B6010E94C318181643
S11325C034F460E872E0C8010E94F211B2C02FEF47
S11325D03FEF4FE75FE4C501B4010E94EC18181601
S11325E034F464E872E0C8010E94F211A2C02FEF33
S11325F03FEF4FE75FECC501B4010E94C318882385
S113260034F464E872E0C8010E94F21192C020E040
S113261030E0A901C501B4010E94C318882354F411
S11326206DE2C8010E9408127C01B7FAB094B7F8B1
S1132630B09402C0E12CF12C772009F465C0D12CB0
S113264060E070E080E09FE320E030E040E251E4AD
S11326500E945B0CD394D710F7CF2AC020E030E05F
S113266040E251E4C501B4010E94910D4B015C01AB
S11326700E94D40C6B01E12CF12C2AE030E0B7016C
S1132680A601C8010E948D12480E591EC701B60149
S11326900E94030D9B01AC01C501B4010E94EE0B25
S11326A04B015C017A947110D9CF842D952D41C0D2
S11326B09B01AC01C501B4010E94EF0B4B015C010D
S11326C00E94D40C69837A838B839C830E94030DBC
S11326D09B01AC01C501B4010E94EE0B4B015C01EE
S11326E02AE030E049815A816B817C81C8010E94D3
S11326F08D126C016EE2C8010E9408128C0D9D1DA2
S11327002C014E0C5F1CAACF20E030E040E05FE3D8
S1132710C501B4010E94EF0B0E94D40CAB01BC01B3
S11327202AE030E0C8010E948D122C014E0C5F1C7F
S1132730BCCF0F900F900F900F90DF91CF911F910E
S11327400F91FF90EF90DF90CF90BF90AF909F904C
S11327508F907F905F904F9008950E94A4120895E7
S11327608091F60390E02091F703821B910908956C
S11327709091F7038091F603981750F4E92FF0E055
S1132780E850FC4F208130E09F5F9093F70302C034
S11327902FEF3FEFC9010895E091F7038091F6030D
S11327A0E81730F4F0E0E850FC4F808190E00895A1
S11327B08FEF9FEF08950895CF92DF92EF92FF92EB
S11327C00F931F93CF93DF938C01CB016A01209168
S11327D0D2032223A1F041155105A1F0EB017B01A5
S11327E0E40EF51E6991D801ED91FC910190F08100
S11327F0E02DC8010995CE15DF05A1F703C0642FAC
S11328000E945E17C601DF91CF911F910F91FF9037
S1132810EF90DF90CF900895CF93DF931F92CDB7C1
S1132820DEB7FC0169839091D2039923D9F090918A
S1132830D303903238F081E090E09383828380E088
S113284090E017C08091D403E82FF0E0EB52FC4FE6
S1132850998190838F5F8093D4038093D30381E025
S113286090E007C061E0CE0101960E945E1781E00E
S113287090E00F90DF91CF910895FC0113821282B2
S113288088EE93E0A0E0B0E084839583A683B783C9
S11328908CE892E09183808308951092F70310925C
S11328A0F6031092D4031092D3030E94A216089543
S11328B081E08093D2036093F5031092D4031092C5
S11328C0D30308950E94581408950F93062F21E00E
S11328D04091D30365ED73E08091F5030E940817DE
S11328E01092D4031092D3031092D2030F9108953F
S11328F04F925F926F927F92AF92BF92CF92EF927C
S1132900FF920F931F93CF93DF935C01F62ED42F86
S113291028013901EE2049F10E9458148E2D84308B
S113292008F083E0CFEFC80F8823D9F0D501ED91EB
S1132930FC918C2F880F880F880FA301920104C08B
S113294056954795379527958A95D2F7CA01B901C7
S11329500190F081E02DC50109959C2FC150911182
S1132960E5CF60E0C5010E9465144D2FD13208F017
S113297040E22C2D68EF73E08F2D0E94C016109258
S1132980F7038093F603DF91CF911F910F91FF908E
S1132990EF90CF90BF90AF907F906F905F904F90EB
S11329A00895CF92EF920F931F93C22EE12C00E073
S11329B010E098010E9478141F910F91EF90CF902E
S11329C0089521E00E94D114089521E00E94D114B9
S11329D0089561E00E946514089586EC93E00E94D6
S11329E03D1408951F920F920FB60F9211242F9346
S11329F03F938F939F93AF93BF93809119049091CA
S1132A001A04A0911B04B0911C043091180423E013
S1132A10230F2D3720F40196A11DB11D05C026E812
S1132A20230F0296A11DB11D20931804809319044D
S1132A3090931A04A0931B04B0931C0480911D046A
S1132A4090911E04A0911F04B09120040196A11D31
S1132A50B11D80931D0490931E04A0931F04B09392
S1132A602004BF91AF919F918F913F912F910F902F
S1132A700FBE0F901F9018953FB7F89480911D04D6
S1132A8090911E04A0911F04B091200426B5A89B28
S1132A9005C02F3F19F00196A11DB11D3FBFBA2FEC
S1132AA0A92F982F8827820F911DA11DB11DBC014C
S1132AB0CD0142E0660F771F881F991F4A95D1F711
S1132AC008958F929F92AF92BF92CF92DF92EF922E
S1132AD0FF926B017C010E943C154B015C01C11407
S1132AE0D104E104F10401F10E94A1160E943C15F5
S1132AF0DC01CB0188199909AA09BB09883E9340D6
S1132B00A105B10560F321E0C21AD108E108F1087A
S1132B1088EE880E83E0981EA11CB11CC114D10458
S1132B20E104F10419F7DBCFFF90EF90DF90CF9031
S1132B30BF90AF909F908F9008958230910538F0A8
S1132B40880F991F880F991F05970197F1F708952A
S1132B50789484B5826084BD84B5816084BD85B574
S1132B60826085BD85B5816085BDEEE6F0E080813B
S1132B7081608083E1E8F0E010828081826080835C
S1132B80808181608083E0E8F0E0808181608083DF
S1132B90E1EBF0E0808184608083E0EBF0E0808111
S1132BA081608083EAE7F0E08081846080838081B3
S1132BB0826080838081816080838081806880835B
S1132BC01092C1000895833081F028F4813099F087
S1132BD08230A1F008958730A9F08830B9F08430AC
S1132BE0D1F4809180008F7D03C0809180008F7725
S1132BF080938000089584B58F7702C084B58F7D5B
S1132C0084BD08958091B0008F7703C08091B00097
S1132C108F7D8093B0000895CF93DF9390E0FC0103
S1132C20E45EFE4F2491FC01E05DFE4F8491882315
S1132C3061F190E0880F991FFC01E85AFE4FC5919D
S1132C40D491FC01E25BFE4FA591B491611109C0DE
S1132C509FB7F8948881209582238883EC912E2352
S1132C600BC0623061F49FB7F8943881822F80954D
S1132C7083238883EC912E2B2C939FBF06C08FB7A0
S1132C80F894E8812E2B28838FBFDF91CF9108958C
S1132C901F93CF93DF93282F30E0F901E85FFE4FB5
S1132CA08491F901E45EFE4FD491F901E05DFE4F99
S1132CB0C491CC23C9F0162F81110E94E315EC2F87
S1132CC0F0E0EE0FFF1FE25BFE4FA591B4918FB7CA
S1132CD0F894111105C09C91ED2FE095E92302C0F1
S1132CE0EC91ED2BEC938FBFDF91CF911F91089561
S1132CF0CF93DF93282F30E0F901E85FFE4F8491F2
S1132D00F901E45EFE4FD491F901E05DFE4FC491F8
S1132D10CC2391F081110E94E315EC2FF0E0EE0F2B
S1132D20FF1FEC5BFE4FA591B491EC91ED2381E084
S1132D3090E021F480E002C080E090E0DF91CF9148
S1132D400895089510928E0481E080938C0410926B
S1132D508B0461E082E10E94481661E083E10E94F5
S1132D604816E9EBF0E080818E7F808380818D7F3F
S1132D70808388E48093B80085E48093BC00089540
S1132D80413208F043C090918E049111FCCF91E040
S1132D9090938E0420938C042FEF2093210410929F
S1132DA06604240F2093650490938D0490918D0400
S1132DB0880F892B80938D0480918B04813061F47A
S1132DC010928B0480918D048093BB008091BC0091
S1132DD083FDF8CF85EC01C085EE8093BC00809123
S1132DE08E048130E1F380916604841710F44091DD
S1132DF0660427E634E0FB01D9018A2F821B84177D
S1132E0018F48D918193F9CF842F089580E008956B
S1132E100F93413208F04AC090918E049111FCCF77
S1132E2032E030938E0400938C043FEF30932104FE
S1132E301092660440936504FB0167E674E0DB01CD
S1132E403A2F361B341718F431913D93F9CF109271
S1132E508D0430918D04880F832B80938D04809191
S1132E608B04813061F410928B0480918D048093E3
S1132E70BB008091BC0083FDF8CF85EC01C085EEDA
S1132E808093BC00222321F080918E048230D1F300
S1132E90809121048F3F79F080912104803241F0A8
S1132EA080912104803331F094E005C091E003C0A7
S1132EB092E001C093E0892F0F910895409143045B
S1132EC0262F30E0240F311D21323105DCF420910E
S1132ED08E042430C9F4FC0180E090E0861758F495
S1132EE0309143042191DC01AB5BBB4FA30FB11DB7
S1132EF02C930196F3CF80914304680F60934304AD
S1132F0080E0089581E0089582E0089585ED80933E
S1132F10BC008091BC0084FDFCCF10928E04089507
S1132F2085EC8093BC0010928E0408951F920F923A
S1132F300FB60F9211242F933F934F935F936F9388
S1132F407F938F939F93AF93BF93EF93FF9380915E
S1132F50B900887F803609F49EC078F5883209F478
S1132F605DC090F4803109F456C038F4882309F424
S1132F70F5C0883009F44FC0F5C0883109F44EC05B
S1132F80803209F45FC0EEC0803409F46AC058F49A
S1132F90803309F457C0883309F0E4C080932104D6
S1132FA00E949017DFC0803509F44FC0883509F4BA
S1132FB05DC0883409F0D6C0D3C0883909F4C4C0D0
S1132FC0A8F4883709F467C038F4883609F463C074
S1132FD0803709F460C0C6C0883809F4B5C08039A8
S1132FE009F45FC0803809F0BDC05BC0803B09F4C0
S1132FF083C038F4803A09F466C0883A09F47CC086
S1133000B1C0803C09F4A4C0883C09F4A1C0883B49
S113301009F487C0A7C080918D0410C09091660404
S113302080916504981770F5E091660481E08E0F35
S113303080936604F0E0E959FB4F80818093BB00E4
S113304085EC83C0809321048BC0E091660481E009
S11330508E0F809366048091BB00F0E0E959FB4F2A
S1133060808390916604809165046BC0E09166044E
S113307081E08E0F809366048091BB00F0E0E959F3
S1133080FB4F808380918C0481116AC081E080931E
S11330908B0484EA5EC083E080938E041092220441
S11330A0CFCF80912204803208F04EC0E0912204F8
S11330B081E08E0F809322048091BB00F0E0ED5DEF
S11330C0FB4F8083BDCF0E949017809122048032F1
S11330D030F4E0912204F0E0ED5DFB4F108260914A
S11330E0220470E0E0918704F091880483E294E084
S11330F009951092220436C084E080938E041092C5
S1133100440410924304E0918904F0918A040995DF
S113311080914304811105C081E08093430410929F
S11331204504E091440481E08E0F80934404F0E070
S1133130EB5BFB4F80818093BB00909144048091B2
S11331404304981708F47CCF85E88093BC000AC038
S113315085EC8093BC0010928E0404C0109221046C
S11331600E948617FF91EF91BF91AF919F918F912C
S11331707F916F915F914F913F912F910F900FBE6F
S11331800F901F9018950E94C81808F481E00895C4
S1133190990F0008550FAA0BE0E8FEEF1616170664
S11331A0E807F907C0F012161306E407F50798F0CC
S11331B0621B730B840B950B39F40A2661F0232BE5
S11331C0242B252B21F408950A2609F4A140A69561
S11331D08FEF811D811D08950E94C81808F48FEF98
S11331E008950E94C818880B990B089597FB072E21
S11331F016F4009407D077FD09D00E944B1907FC00
S113320005D03EF4909581959F4F089570956195F2
S11332107F4F0895A1E21A2EAA1BBB1BFD010DC00E
S1133220AA1FBB1FEE1FFF1FA217B307E407F50772
S113323020F0A21BB30BE40BF50B661F771F881F4E
S1133240991F1A9469F760957095809590959B01E4
S1133250AC01BD01CF010895052E97FB1EF4009427
S11332600E94431957FD07D00E940A1907FC03D096
S11332704EF40C94431950954095309521953F4F49
S11332804F4F5F4F089590958095709561957F4F4E
S11332908F4F9F4F0895AA1BBB1B51E107C0AA1F64
S11332A0BB1FA617B70710F0A61BB70B881F991FE3
S11332B05A95A9F780959095BC01CD010895EE0F1C
S11132C0FF1F0590F491E02D0994F894FFCFC0
S11332CE0609004D505539323530202B204D504CC7
S11332DE33313135413220646576696365732E2E40
S11332EE2E004D50553932353020004920414D20A5
S11332FE00782D617869732073656C66207465732C
S113330E743A20616363656C65726174696F6E20D3
S113331E7472696D2077697468696E203A2000258D
S113332E206F6620666163746F72792076616C75A6
S113333E6500792D617869732073656C66207465F8
S113334E73743A20616363656C65726174696F6E40
S113335E207472696D2077697468696E203A200052
S113336E7A2D617869732073656C66207465737445
S113337E3A20616363656C65726174696F6E207463
S113338E72696D2077697468696E203A2000782D11
S113339E617869732073656C6620746573743A2062
S11333AE6779726174696F6E207472696D207769C2
S11333BE7468696E203A2000792D617869732073E0
S11333CE656C6620746573743A20677972617469EA
S11333DE6F6E207472696D2077697468696E203A15
S11333EE20007A2D617869732073656C662074658C
S11333FE73743A206779726174696F6E207472699E
S113340E6D2077697468696E203A2000414B383913
S113341E363320004D50553932353020696E69747B
S113342E69616C697A65642000000000006610C34F
S113343E11DE0FF80FEA0F44100D0A006E616E00D4
S113344E696E66006F766600000000000C14DC13D3
S10B345EB013B813CC13DB1307
S9030000FC
