:100000000C945E000C9486000C9486000C94860080
:100010000C9486000C9486000C9486000C94860048
:100020000C9486000C9486000C9486000C94860038
:100030000C9486000C9486000C9486000C94860028
:100040000C94EE020C9486000C9478010C94B00190
:100050000C9486000C9486000C9486000C94860008
:100060000C94A1040C94860000000008000201001A
:100070000003040700000000000000000102040863
:100080001020408001020408102001020408102002
:10009000040404040404040402020202020203032E
:1000A0000303030300000000250028002B000000CC
:1000B0000000240027002A00E001E90211241FBEED
:1000C000CFEFD8E0DEBFCDBF11E0A0E0B1E0ECEAB9
:1000D000FBE002C005900D92A032B107D9F722E0F3
:1000E000A0E2B1E001C01D92A538B207E1F710E02F
:1000F000CEE5D0E004C02197FE010E94CE05CC35AC
:10010000D107C9F70E940E020C94D4050C9400008C
:1001100061E08DE00C94FD0361E08DE00E94390404
:1001200068EE73E080E090E00E945D0360E08DE0A7
:100130000E94390468EE73E080E090E00C945D0367
:10014000FC01918D228D892F90E0805C9F4F821B56
:1001500091098F7399270895FC01918D828D9817CD
:1001600031F0828DE80FF11D858D90E008958FEFBD
:100170009FEF0895FC01918D828D981761F0828D1B
:10018000DF01A80FB11D5D968C91928D9F5F9F73CB
:10019000928F90E008958FEF9FEF089586ED91E0A4
:1001A000892B49F080E090E0892B29F00E94D6014C
:1001B00081110E9400000895FC01848DDF01A80FC9
:1001C000B11DA35ABF4F8C91248D30E02F5F3F4F5C
:1001D0002F733078332334F421503109206C3F6F72
:1001E0002F5F3F4F248FA689B7898C93A089B1894F
:1001F0008C9180648C93938D848D981306C00288B3
:10020000F389E02D80818F7D80830895CF93DF93E4
:10021000EC01888D8823D9F0EA89FB89808185FDEE
:1002200005C0A889B9898C9186FD11C00FB607FC5D
:10023000F5CF808185FFF2CF04C0CE010E94DC00A3
:10024000EBCFA889B9898C9185FFE8CFF6CFDF91F4
:10025000CF9108950F931F93CF93DF93EC0181E02B
:10026000888F9B8D8C8D981323C0E889F9898081B4
:1002700085FD2FC01DC09C8D19130CC00FB607FC47
:10028000FACFE889F989808185FFF5CFCE010E94F8
:10029000DC00F1CF8B8DFE01E80FF11DE35AFF4F1B
:1002A00000831B8FEA89FB8980818062808319C06B
:1002B0002B8D30E02F5F3F4F2F733078332334F492
:1002C00021503109206C3F6F2F5F3F4F062F122FB7
:1002D000D2CFEE89FF896083E889F98980818064C3
:1002E000808381E090E0DF91CF911F910F9108957D
:1002F0001F920F920FB60F9211242F938F939F93FB
:10030000AF93BF93EF93FF93E0913001F0913101F0
:10031000808182FD14C0E0E2F1E0A689B7892C91CA
:10032000818D8F5F8F73928D891771F0DF01E18D61
:10033000F0E0E05EFE4F258F59968C9305C0E0916A
:100340003601F09137018081FF91EF91BF91AF911C
:100350009F918F912F910F900FBE0F901F90189526
:100360001F920F920FB60F9211242F933F934F932A
:100370005F936F937F938F939F93AF93BF93EF930D
:10038000FF9380E291E00E94DC00FF91EF91BF912A
:10039000AF919F918F917F916F915F914F913F911D
:1003A0002F910F900FBE0F901F90189580E291E053
:1003B0000E94A00021E0892B09F420E0822F0895FB
:1003C000E0E2F1E01382128288EE93E0A0E0B0E078
:1003D00084839583A683B78384E091E091838083AF
:1003E00085EC90E09587848784EC90E097878687FA
:1003F00080EC90E0918B808B81EC90E0938B828BF2
:1004000082EC90E0958B848B86EC90E0978B868BCA
:10041000118E128E138E148E089508950E949903E2
:100420000E940D020E948800CEECD0E00E948C0059
:100430002097E1F30E94CE00F9CFCF92DF92EF92A6
:10044000FF920F931F93CF93DF9341155105C1F096
:100450006A018C01E62EF72EC0E0D0E0D7016D9145
:100460007D01D801ED91FC910190F081E02DC80152
:100470000995892B39F02196CC16DD0679F702C053
:10048000C0E0D0E0CE01DF91CF911F910F91FF909E
:10049000EF90DF90CF9008958091EC0190E0209153
:1004A000ED01821B910908959091ED018091EC017D
:1004B000981750F4E92FF0E0E251FE4F208130E030
:1004C0009F5F9093ED0102C02FEF3FEFC9010895A8
:1004D000E091ED018091EC01E81730F4F0E0E25199
:1004E000FE4F808190E008958FEF9FEF089508956B
:1004F000CF92DF92EF92FF920F931F93CF93DF93F0
:100500008C01CB016A012091C9012223A1F0411580
:100510005105A1F0EB017B01E40EF51E6991D801B4
:10052000ED91FC910190F081E02DC8010995CE1567
:10053000DF05A1F703C0642F0E946904C601DF91A3
:10054000CF911F910F91FF90EF90DF90CF90089582
:10055000CF93DF931F92CDB7DEB7FC0169839091F3
:10056000C9019923D9F09091CA01903238F081E005
:1005700090E09383828380E090E017C08091CB016C
:10058000E82FF0E0E453FE4F998190838F5F8093D2
:10059000CB018093CA0181E090E007C061E0CE0109
:1005A00001960E94690481E090E00F90DF91CF9165
:1005B0000895FC011382128288EE93E0A0E0B0E07F
:1005C00084839583A683B78384E191E091838083BC
:1005D00008958DEB91E00E94D90208951F920F9229
:1005E0000FB60F9211242F933F938F939F93AF9346
:1005F000BF9380910F0290911002A0911102B091CF
:10060000120230910E0223E0230F2D3720F40196C1
:10061000A11DB11D05C026E8230F0296A11DB11D25
:1006200020930E0280930F0290931002A093110268
:10063000B09312028091130290911402A0911502BE
:10064000B09116020196A11DB11D809313029093E3
:100650001402A0931502B0931602BF91AF919F911F
:100660008F913F912F910F900FBE0F901F90189573
:100670003FB7F8948091130290911402A091150253
:10068000B091160226B5A89B05C02F3F19F0019620
:10069000A11DB11D3FBFBA2FA92F982F8827820F08
:1006A000911DA11DB11DBC01CD0142E0660F771F58
:1006B000881F991F4A95D1F708958F929F92AF9204
:1006C000BF92CF92DF92EF92FF926B017C010E946A
:1006D00038034B015C01C114D104E104F10401F1C0
:1006E0000E9468040E943803DC01CB018819990933
:1006F000AA09BB09883E9340A105B10560F321E03A
:10070000C21AD108E108F10888EE880E83E0981E2D
:10071000A11CB11CC114D104E104F10419F7DBCF11
:10072000FF90EF90DF90CF90BF90AF909F908F9011
:100730000895789484B5826084BD84B5816084BD59
:1007400085B5826085BD85B5816085BDEEE6F0E04A
:10075000808181608083E1E8F0E0108280818260A6
:100760008083808181608083E0E8F0E08081816027
:100770008083E1EBF0E0808184608083E0EBF0E057
:10078000808181608083EAE7F0E0808184608083FB
:1007900080818260808380818160808380818068A5
:1007A00080831092C1000895833081F028F4813055
:1007B00099F08230A1F008958730A9F08830B9F01F
:1007C0008430D1F4809180008F7D03C080918000BF
:1007D0008F7780938000089584B58F7702C084B5A9
:1007E0008F7D84BD08958091B0008F7703C0809184
:1007F000B0008F7D8093B0000895CF93DF9390E099
:10080000FC01E458FF4F2491FC01E057FF4F849115
:10081000882361F190E0880F991FFC01E255FF4F9A
:10082000C591D491FC01EC55FF4FA591B491611194
:1008300009C09FB7F8948881209582238883EC9122
:100840002E230BC0623061F49FB7F8948881322F59
:10085000309583238883EC912E2B2C939FBF06C069
:100860008FB7F894E8812E2B28838FBFDF91CF912B
:1008700008951F93CF93DF93282F30E0F901E859B3
:10088000FF4F8491F901E458FF4FD491F901E057EB
:10089000FF4FC491CC23C1F0162F81110E94D403C5
:1008A000EC2FF0E0EE0FFF1FEC55FF4FA591B49138
:1008B0009FB7F894111104C08C91D095D82302C031
:1008C000EC91DE2BDC939FBFDF91CF911F910895B8
:1008D000089540913902262F30E0240F311D213236
:1008E0003105DCF4209184022430C9F4FC0180E05D
:1008F00090E0861758F4309139022191DC01A55C13
:10090000BD4FA30FB11D2C930196F3CF80913902F7
:10091000680F6093390280E0089581E0089582E0D5
:10092000089585ED8093BC008091BC0084FDFCCFD0
:1009300010928402089585EC8093BC00109284028A
:1009400008951F920F920FB60F9211242F933F9389
:100950004F935F936F937F938F939F93AF93BF93C7
:10096000EF93FF938091B900887F803609F49EC091
:1009700078F5883209F45DC090F4803109F456C0EE
:1009800038F4882309F4F5C0883009F44FC0F5C065
:10099000883109F44EC0803209F45FC0EEC0803463
:1009A00009F46AC058F4803309F457C0883309F059
:1009B000E4C0809317020E949B04DFC0803509F4D5
:1009C0004FC0883509F45DC0883409F0D6C0D3C063
:1009D000883909F4C4C0A8F4883709F467C038F42A
:1009E000883609F463C0803709F460C0C6C088380F
:1009F00009F4B5C0803909F45FC0803809F0BDC082
:100A00005BC0803B09F483C038F4803A09F466C0C7
:100A1000883A09F47CC0B1C0803C09F4A4C0883C89
:100A200009F4A1C0883B09F487C0A7C08091830264
:100A300010C090915C0280915B02981770F5E09174
:100A40005C0281E08E0F80935C02F0E0E35AFD4F80
:100A500080818093BB0085EC83C0809317028BC09C
:100A6000E0915C0281E08E0F80935C028091BB007C
:100A7000F0E0E35AFD4F808390915C0280915B022D
:100A80006BC0E0915C0281E08E0F80935C028091EC
:100A9000BB00F0E0E35AFD4F808380918202811118
:100AA0006AC081E08093810284EA5EC083E0809323
:100AB000840210921802CFCF80911802803208F081
:100AC0004EC0E091180281E08E0F80931802809151
:100AD000BB00F0E0E75EFD4F8083BDCF0E949B042A
:100AE00080911802803230F4E0911802F0E0E75E65
:100AF000FD4F10826091180270E0E0917D02F0914C
:100B00007E0289E192E009951092180236C084E0D5
:100B10008093840210923A0210923902E0917F028F
:100B2000F0918002099580913902811105C081E020
:100B30008093390210923B02E0913A0281E08E0FDD
:100B400080933A02F0E0E55CFD4F80818093BB002A
:100B500090913A0280913902981708F47CCF85E889
:100B60008093BC000AC085EC8093BC001092840284
:100B700004C0109217020E949104FF91EF91BF915F
:100B8000AF919F918F917F916F915F914F913F9125
:100B90002F910F900FBE0F901F901895EE0FFF1F13
:0C0BA0000590F491E02D0994F894FFCF2B
:100BAC00000000002A011D02A000BA00AC000601E2
:100BBC0000000000A80278024C025402680277027E
:00000001FF
