:100000000C9492000C94BA000C94BA000C94BA00B0
:100010000C94BA000C94BA000C94BA000C94BA0078
:100020000C94BA000C94BA000C94BA000C94BA0068
:100030000C94BA000C9476040C94BA000C94BA0098
:100040000C9487160C94BA000C94D2110C940A12DA
:100050000C94BA000C94BA000C94BA000C94BA0038
:100060000C943F1A0C94BA0008000000BE92244978
:10007000123EABAAAA2ABECDCCCC4C3E00000080DA
:10008000BEABAAAAAA3E00000000BF000000803F4D
:100090000000000000084178D3BB4387D1133D190D
:1000A0000E3CC3BD4282AD2B3E68EC8276BED98F3A
:1000B000E1A93E4C80EFFFBE01C4FF7F3F0000007E
:1000C0000000000000080002010000030407000017
:1000D000000000000000010204081020408001021E
:1000E000040810200102040810200404040404047D
:1000F00004040202020202020303030303030000DA
:100100000000230026002900000000002500280030
:100110002B0000000000240027002A007E0C3A1269
:100120008216B60C11241FBECFEFD8E0DEBFCDBFC4
:1001300012E0A0E0B1E0EEE3FCE302C005900D9216
:10014000A632B107D9F724E0A6E2B2E001C01D92C1
:10015000AA3CB207E1F710E0C1E9D0E004C0219762
:10016000FE010E948E1BCE38D107C9F70E94881469
:100170000C94121E0C940000FF920F931F93CF93C8
:10018000DF93EC01F62E61E088810E94001818E0F0
:1001900000E86F2D602388810E943C1881E090E088
:1001A0000E94321761E089810E943C1883E090E050
:1001B0000E94321760E089810E943C1881E090E043
:1001C0000E9432170695115021F760E088810E9445
:1001D000001861E088810E943C1861E089810E94DA
:1001E0003C1883E090E00E94321788810E946B18CF
:1001F0008C0181E090E00E94321760E089810E94CA
:100200003C1881E0012B09F480E0DF91CF911F9130
:100210000F91FF900895FF920F931F93CF93DF9359
:10022000EC01F62E08E010E061E089810E943C18A4
:1002300081E090E00E94321788810E946B18110FB4
:10024000182B60E089810E943C1881E090E00E94B8
:100250003217015049F761E088810E94001861E07F
:100260006F2588810E943C1881E090E00E9432173F
:1002700061E089810E943C1883E090E00E9432177F
:1002800060E089810E943C1881E090E00E94321772
:1002900060E088810E94001861E088810E943C181B
:1002A000812FDF91CF911F910F91FF900895CF93F0
:1002B000DF93EC0161E088810E943C1861E0888155
:1002C0000E94001881E090E00E94321761E089816D
:1002D0000E943C1881E090E00E94321760E0888123
:1002E0000E943C1881E090E00E94321760E0898112
:1002F0000E943C1883E090E00E94321761E08981FF
:100300000E943C1881E090E00E94321761E08881F1
:100310000E943C1881E090E00E94321760E08981E1
:100320000E943C1881E090E0DF91CF910C9432174D
:100330001F93CF93DF93EC0161E088810E943C180A
:1003400061E088810E94001883E090E00E943217EB
:1003500019E061E089810E943C1883E090E00E94EE
:10036000321760E089810E943C1883E090E00E948F
:100370003217115071F7CE01DF91CF911F910C947C
:100380005701CF93DF93EC01842F688349831B824D
:100390001A821C8261E00E940018CE010E9498011E
:1003A0006EE1CE01DF91CF910C94BC00FC01248161
:1003B00080E090E020FF07C00E94EC0E2AE037EDBD
:1003C00043E25DE306C00E94EC0E2AE037ED43E213
:1003D0005CE30E94F30F26E636E640E252E40E9418
:1003E000D20D08954F925F926F927F928F929F925B
:1003F000AF92BF92CF92DF92EF92FF9249015A01E2
:10040000FC01248180E090E020FF2BC00E94EC0ED4
:100410006B017C012DEB32E546E15FE30E94F30FB7
:1004200025EC3EEF42E050E40E94D20D2B013C014E
:100430002BE335E246ED59EBC701B6010E94F30FFD
:10044000A70196010E94F30F9B01AC01C301B20109
:100450000E94D30D2B013C012CEA35EC47EA5AE30C
:100460002AC00E94EC0E6B017C012DEB32E546E1C7
:100470005DE30E94F30F25EC3EEF42E050E40E9462
:10048000D20D2B013C0126EF34E246ED55EBC701BE
:10049000B6010E94F30FA70196010E94F30F9B0182
:1004A000AC01C301B2010E94D30D2B013C012CEA27
:1004B00035EC47EA58E3C701B6010E94F30F2AE082
:1004C00037ED43E25CE30E94D30D6B017C0120E039
:1004D00030E048EC51E4C501B4010E94D20D9B010B
:1004E000AC01C701B6010E94F30FA30192010E9463
:1004F000D30D6B017C0120E030E048EC52E40E9417
:100500009E0F181694F02DEC3CEC4CEC5DE3C7010B
:10051000B6010E943F0E87FF0EC09DECC92E9CECD9
:10052000D92EED2C9DE3F92E06C0C12CD12C88ECE0
:10053000E82E82E4F82EC701B601FF90EF90DF901D
:10054000CF90BF90AF909F908F907F906F905F9073
:100550004F9008954F925F926F927F928F929F92E9
:10056000AF92BF92CF92DF92EF92FF920F931F93C1
:10057000CB01BA016801790120E030E048EC52E497
:100580000E94440E0E94AB0F4B015C0123EC35EF3F
:100590004CE851E4C701B6010E94F30F2B013C0166
:1005A00028EB3EE143E753E4C701B6010E94D30DB7
:1005B0009B01AC01C301B2010E94440EA50194014C
:1005C0000E94D30D6B017C0128EB3EE143E753E42D
:1005D0000E94F30F4B015C01A701960163EC75EFDC
:1005E0008CE891E40E94D20D9B01AC01C501B401DD
:1005F0000E94440E1F910F91FF90EF90DF90CF90DB
:10060000BF90AF909F908F907F906F905F904F9032
:100610000895FA0180816827608398E021E3808152
:1006200087FF03C0880F822701C0880F8083915005
:10063000B1F7089598E080E0880F262F2170822B73
:1006400066959150C9F70895CF92DF92FF920F936C
:100650001F93CF93DF93EC018B0161E00E940B01AC
:10066000F82E6E0185E0C80ED11CA6016F2DCE01BB
:100670000E9409038F2D90E0F8019183808361E04F
:10068000CE010E940B01F82EA601682FCE010E9418
:10069000090380E090E0F80190818F2991838083A5
:1006A00060E0CE010E940B01682FCE010E941A0368
:1006B0009D81891739F08FEF9FEFF8019183808337
:1006C00082E001C080E0DF91CF911F910F91FF90F8
:1006D000DF90CF900895EF92FF920F931F93CF93E7
:1006E000DF93EC01162F7A01022F6C8167700E9454
:1006F0001A038D83CE010E945701112311F015E0DA
:1007000001C013E0612FCE010E94BC00811127C0FF
:10071000AE014B5F5F4F612FCE010E9409030023A2
:10072000C9F010EF88810E946B18892B49F0115095
:10073000A9F063E070E080E090E00E94F616F2CF4E
:10074000B701CE01DF91CF911F910F91FF90EF90F4
:100750000C942403FB82EA8280E001C083E0DF91F5
:10076000CF911F910F91FF90EF900895AF92BF929C
:10077000CF92DF92EF92FF920F931F93CF93DF936D
:1007800000D0CDB7DEB77C018B015A01690121E0B1
:10079000AE014F5F5F4F60E00E946B03811133C079
:1007A00069817A81C7010E94D601F8016083718353
:1007B0008283938321E0AE014F5F5F4F61E0C70109
:1007C0000E946B0381111FC0F80120813181428199
:1007D000538169817A81C7010E94F201AB01BC019A
:1007E000F5014083518362837383F8010081118195
:1007F00022813381C7010E94AA02F60160837183BE
:100800008283938380E00F900F90DF91CF911F91AF
:100810000F91FF90EF90DF90CF90BF90AF90089531
:100820000C94C51D0C94CD1DF894FC01EF5CFC4F9D
:10083000908161111082789481E0911101C080E073
:100840000895BF92CF92DF92EF92FF920F931F9382
:10085000CF93DF93C2E2D3E08CE2E82E83E0F82E60
:1008600091E3C92E93E0D92E07E213E0BB24B394A1
:1008700088810E946B18F7019081981701F164E15B
:1008800070E080E090E00E94F61688810E946B186C
:10089000F7019081891799F091110BC0813049F4CB
:1008A000F8019081992311F0108207C0F80180832C
:1008B00004C0811102C0F601B082F7018083219645
:1008C000FFEFEF1AFF0A8FEFC81AD80A0F5F1F4F0A
:1008D000E3E0C732DE0761F6DF91CF911F910F9100
:1008E000FF90EF90DF90CF90BF9008951F920F92EE
:1008F0000FB60F9211242F933F934F935F936F93F3
:100900007F938F939F93AF93BF93EF93FF93F8944D
:100910000E94210478948091200390912103909368
:10092000850080938400FF91EF91BF91AF919F91DB
:100930008F917F916F915F914F913F912F910F9088
:100940000FBE0F901F901895CF9364E580E090E064
:100950000E94120465E481E090E00E9412046DE4BC
:1009600082E090E00E94120460E583E090E00E9443
:10097000120460E384E090E00E9412046091060398
:10098000C091070385E090E00E9412046C2F86E07E
:1009900090E00E9412046091040387E090E00E94BE
:1009A00012046091100188E090E0CF910C94120441
:1009B00061E084E090E00E941404882339F188E427
:1009C00093E00E948E1288E493E00E94961240E029
:1009D00060E088E493E00E949E1262E171E088E4A6
:1009E00093E00E94D5140E94A4046CED75E080E0B1
:1009F00090E00E94F61688E493E00E948E1288E44C
:100A000093E00E94961281E0809307010895CF93AE
:100A100080E090E00E9410048435F1F581E090E0E0
:100A20000E9410048534C1F582E090E00E94100419
:100A30008D3491F583E090E00E941004803561F5DB
:100A400084E090E00E941004803331F585E090E06E
:100A50000E941004C82F86E090E00E94100490E0ED
:100A6000982F88278C0F911D90930703809306037E
:100A700087E090E00E94100490E09093050380933B
:100A8000040388E090E00E94100490E0909311012C
:100A90008093100181E001C080E0CF91089526E3AA
:100AA00033E04AE353E06EE373E082E493E00E94B4
:100AB000B60360913E0370913F0380914003909193
:100AC00041030895AF92BF92CF92DF92EF92FF92CF
:100AD0000F931F93CF93DF9354E1E52EF12CC0E0E9
:100AE000D0E0E1E0EE1AF10839F4C12CD12C3AE75C
:100AF000E32E34ECF32E50C00E944F058E01000F00
:100B0000111F000F111F0A5D1D4FF80160837183D3
:100B10008283938361E070E080E090E00E94F616AB
:100B200020E030E04AE754ECF80160817181828175
:100B300093810E943F0E81112DC0C530D1058CF2EA
:100B4000C6E2D2E0C990D990E990F99046E2A42E8D
:100B500042E0B42E10E0F501219131914191519183
:100B60005F01C701B6010E94D20D9F7720E030E0FF
:100B700040E05FE30E943F0E87FD1F5FFAE3AF1680
:100B8000F2E0BF0641F7143038F482E0CA33D807E8
:100B9000C9F6ABCF2196D1CFC701B601DF91CF9176
:100BA0001F910F91FF90EF90DF90CF90BF90AF908B
:100BB00008950E94620560930C0170930D0180936B
:100BC0000E0190930F016093FF02709300038093D6
:100BD0000103909302036093FB027093FC028093E5
:100BE000FD029093FE02609363027093640280930F
:100BF000650290936602EBE6F2E061937193819354
:100C0000919322E0EB3FF207C1F708952F923F92B4
:100C10004F925F926F927F928F929F92AF92BF920C
:100C2000CF92DF92EF92FF920F931F93CF93DF93B8
:100C3000CDB7DEB72B970FB6F894DEBF0FBECDBF92
:100C40004C012A013B013F832E835801E88620E0B6
:100C500030E0A901C301B2010E943F0E87FF05C029
:100C600060E070E080E09FEB04C060E070E080E056
:100C70009FE31A82198229813A814E815F8124176C
:100C8000350764F420E030E040E251E40E94440E75
:100C9000E981FA813196FA83E983EDCFA3019201CC
:100CA0000E94D30D6B017C0120E030E0A901C3015B
:100CB000B2010E943F0E87FF04C0F7FAF094F7F8E4
:100CC000F094212C312CFDECF9832CEC2B833CECA3
:100CD0003C834DE34D8320E030E040E251E4698104
:100CE0007B818C819D810E94F30F8B018B8799877B
:100CF000A70196010E943F0E181654F05FEF251AC7
:100D0000350A09831B838B858C8399859D83E3CF6B
:100D10002114310429F0F1013196FA87E98704C0E2
:100D200022E030E03A87298720E030E0A901C301C2
:100D3000B2010E943F0E87FF06C049855A854F5F6A
:100D40005F4F5A8749878E819F810196E985FA8591
:100D5000E80FF91FFA87E98785010F5F1F4FE0173A
:100D6000F10784F40E1B1F0BF885FF2369F0F401D3
:100D7000C401800F911F20E221938E179F07E1F796
:100D8000580104C000E010E0A12CB12C20E030E0BC
:100D9000A901C301B2010E943F0E87FF09C0F401FF
:100DA000EA0DFB1D8DE2808395012F5F3F4F5901B6
:100DB0002114310459F4A5014F5F5F4F5A874987C9
:100DC000F401EA0DFB1D80E3808348C01A86198672
:100DD00029813B814C815D81C701B6010E94440E8F
:100DE0000E94B60E2B013C0169857A856A0D7B1D38
:100DF000680D791D4AE0C2010E94901DB201550C98
:100E0000880B990B0E94EE0E29813B814C815D81FC
:100E10000E94F30F9B01AC01C701B6010E94D20DE5
:100E20006B017C0120E030E040E251E469817B818C
:100E30008C819D810E94440E69837B838C839D837A
:100E400089859A8501969A8789872816390609F037
:100E5000BFCFF101EA0DFB1DFA87E9872E813F81A3
:100E6000121613060CF049C029843A843FEF231A66
:100E7000330A8EE2E985FA85E80DF91D80834E81FB
:100E80005F814F5F5F4F5A834983A12CB12C5FEF85
:100E9000A51AB50A89819A818A159B0539F4EE81D4
:100EA000FF81E20DF31DFA87E98727C020E030E0DB
:100EB00040E251E4C701B6010E94F30F2B013C014F
:100EC0000E94B60E6B017C0169857A856A0D7B1DD7
:100ED000680D791D4AE0C6010E94901DB601DD0C27
:100EE000880B990B0E94EE0E9B01AC01C301B2016D
:100EF0000E94D20D6B017C01CACF01151105A1F032
:100F0000F885F11111C029853A85F901E80DF91D1F
:100F100040E289859A8501969A8789874193821B49
:100F2000930B80179107ACF3E985FA85E80DF91D5D
:100F30001082C4012B960FB6F894DEBF0FBECDBF52
:100F4000DF91CF911F910F91FF90EF90DF90CF90A5
:100F5000BF90AF909F908F907F906F905F904F90D9
:100F60003F902F900895CF92DF92EF92FF920F93D0
:100F70001F93CF93DF9360915F0270916002809125
:100F80006102909162022AE030E040E050E00E946D
:100F90006C1B672B682B692B09F048C00E94620507
:100FA0006B017C0120E030E04AE754EC0E943F0EE8
:100FB000882341F0C0920C01D0920D01E0920E0105
:100FC000F0920F01C0900C01D0900D01E0900E0145
:100FD000F0900F01A70196016091FB027091FC0255
:100FE0008091FD029091FE020E943F0E87FF08C093
:100FF000C092FB02D092FC02E092FD02F092FE024F
:101000002091FF02309100034091010350910203AF
:10101000C701B6010E943F0E87FF08C0C092FF02C1
:10102000D0920003E0920103F0920203C0905F02AD
:10103000D0906002E0906102F0906202C701B601B8
:1010400028EE33E040E050E00E946C1B672B682BD9
:10105000692B09F051C08091670290916802A091BC
:101060006902B0916A02FC01EE0FFF1FEE0FFF1F35
:10107000E559FD4F40910C0150910D0160910E0119
:1010800070910F0140835183628373830196A11D88
:10109000B11D84329105A105B1054CF4809367021E
:1010A00090936802A0936902B0936A0208C01092FC
:1010B0006702109268021092690210926A02CBE6EF
:1010C000D2E060E070E0CB012991399149915991CA
:1010D0000E94D30D22E0CB3FD207B1F720E030E0F1
:1010E00040E152E40E94440E6093630270936402F4
:1010F000809365029093660280910303823009F425
:1011000049C130F4882369F0813009F4A8C0C8C20D
:10111000843009F4ECC108F49FC1853009F456C24B
:10112000BFC2C701B6012AE030E040E050E00E94B3
:101130006C1B672B682B692B09F085C040E060E0D1
:1011400088E493E00E949E1261E271E088E493E0FB
:101150000E94D51440910C0150910D0160910E0137
:1011600070910F01E12C05E010E021E030E08EE30A
:1011700092E00E940606BC0188E493E00E94D51428
:1011800040E068E088E493E00E949E1264E271E02F
:1011900088E493E00E94D514409163025091640268
:1011A000609165027091660221E030E08EE392E08A
:1011B0000E940606BC0188E493E00E94D51441E039
:1011C00060E088E493E00E949E1267E271E088E4A8
:1011D00093E00E94D5144091FF025091000360916A
:1011E00001037091020321E030E08EE392E00E945F
:1011F0000606BC0188E493E00E94D51441E068E053
:1012000088E493E00E949E126AE271E088E493E031
:101210000E94D5144091FB025091FC026091FD02A6
:101220007091FE0221E030E08EE392E00E9406061B
:10123000BC0188E493E00E94D5146DE271E088E47B
:1012400093E00E94D51461E084E090E00E941404D1
:10125000882309F425C281E08093030321C2C701DA
:10126000B6012AE030E040E050E00E946C1B672BA2
:10127000682B692B09F085C040E060E088E493E0CA
:101280000E949E1261E271E088E493E00E94D5140E
:1012900040910C0150910D0160910E0170910F0170
:1012A000E12C05E010E021E030E08EE392E00E94C6
:1012B0000606BC0188E493E00E94D51440E068E093
:1012C00088E493E00E949E1264E271E088E493E077
:1012D0000E94D514409163025091640260916502AE
:1012E0007091660221E030E08EE392E00E940606F3
:1012F000BC0188E493E00E94D51441E060E088E4FA
:1013000093E00E949E1266E371E088E493E00E94FD
:10131000D51440913A0350913B0360913C03709186
:101320003D0321E030E08EE392E00E940606BC011E
:1013300088E493E00E94D51441E068E088E493E0FB
:101340000E949E1269E371E088E493E00E94D51444
:1013500040913603509137036091380370913903FF
:1013600021E030E08EE392E00E940606BC0188E4B2
:1013700093E00E94D5146DE271E088E493E00E944E
:10138000D51461E084E090E00E941404882309F4FD
:1013900087C184C1809107018823F9F040E060E0B3
:1013A00088E493E00E949E126CE371E088E493E08D
:1013B0000E94D514809104039091050326E0289F94
:1013C000B001299F700D1124685F7C4F88E493E081
:1013D0000E94C61481E08093070161E082E090E002
:1013E0000E941404882361F0809104039091050306
:1013F0000196909305038093040381E08093070195
:1014000061E081E090E00E941404882361F0809103
:1014100004039091050301979093050380930403BF
:1014200081E0809307018091040390910503049764
:1014300024F010920503109204038091040390910C
:10144000050397FF06C083E090E090930503809327
:1014500004030E94D80424C1809107018823F9F075
:1014600040E060E088E493E00E949E1263E471E053
:1014700088E493E00E94D5146091060370910703FD
:101480004AE050E088E493E00E94AC1561E371E02B
:1014900088E493E00E94D51481E08093070161E025
:1014A00082E090E00E941404882361F0809106039A
:1014B000909107030196909307038093060381E0C0
:1014C0008093070161E081E090E00E94140488238A
:1014D00009F4BFCF80910603909107030197909381
:1014E00007038093060381E080930701B2CF8091C8
:1014F0000701882359F140E060E088E493E00E940E
:101500009E126EE471E088E493E00E94D51441E0FD
:1015100060E088E493E00E949E1260911001709157
:1015200011014AE050E088E493E00E94AC1564E6C3
:1015300071E088E493E00E94D51461E371E088E4EF
:1015400093E00E94D51481E08093070161E082E07E
:1015500090E00E941404882361F080911001909122
:1015600011010196909311018093100181E0809305
:10157000070161E081E090E00E941404882361F09B
:101580008091100190911101019790931101809326
:10159000100181E080930701809110019091110169
:1015A000892B31F481E090E0909311018093100138
:1015B00080911001909111010A970CF44ACF89E0B3
:1015C00090E0909311018093100143CF8091070127
:1015D000882379F040E060E088E493E00E949E1266
:1015E0006DE671E088E493E00E94D51481E0809379
:1015F000070161E084E090E00E941404882309F46C
:101600004FC088E493E00E948E1288E493E00E9429
:10161000961240E060E088E493E00E949E126CE73E
:1016200071E088E493E00E94D51480910C019091C0
:101630000D01A0910E01B0910F018093FF029093D4
:101640000003A0930103B09302038093FB029093E5
:10165000FC02A093FD02B093FE028093630290937C
:101660006402A0936502B0936602EBE6F2E02BEF12
:1016700032E081939193A193B1932E173F07C9F75D
:1016800060ED77E080E090E00E94F61688E493E059
:101690000E948E1288E493E00E9496121092030337
:1016A00080912A03813019F468EC70E002C064E094
:1016B00070E083E00E94781761E080E090E00E9493
:1016C00014048823A9F0809103038F5F863018F4F7
:1016D0008093030302C01092030388E493E00E9406
:1016E0008E1288E493E00E94961281E080930701B5
:1016F00080910601811121C040911001509111018A
:1017000028E532E0429FC001439F900D529F900D0B
:101710001124092E000CAA0BBB0B40913A025091E8
:101720003B0260913C0270913D0284179507A60729
:10173000B70718F481E0809306010091040310912B
:101740000503C0915E020330110509F042C06091AB
:10175000060370910703072E000C880B990B0E945B
:10176000EE0E209108013091090140910A0150913B
:101770000B01CC23E1F00E94D20D20910C0130919D
:101780000D0140910E0150910F010E949E0F1816FD
:101790000CF067C010925E021092060110923A029D
:1017A00010923B0210923C0210923D025DC00E94DA
:1017B000D30D20910C0130910D0140910E015091FB
:1017C0000F010E943F0E87FF4FC081E080935E02B1
:1017D00048C00230110509F040C0609106037091C5
:1017E0000703072E000C880B990B0E94EE0E209128
:1017F00008013091090140910A0150910B01CC235D
:10180000D9F00E94D30D20910C0130910D0140912F
:101810000E0150910F010E943F0E87FF22C01092CF
:101820005E021092060110923A0210923B02109250
:101830003C0210923D0211C00E94D20D20910C0179
:1018400030910D0140910E0150910F010E949E0FA9
:10185000181654F481E080935E0280915E02882322
:1018600019F0C091060101C0C0E00115110529F071
:101870000130110519F4C1E001C0C0E06C2F8FE008
:101880000E943C1885E0C89FB001112486E00E94A8
:10189000781764E670E080E090E00E94F616809190
:1018A0005F0290916002A0916102B0916202019684
:1018B000A11DB11D80935F0290936002A09361020D
:1018C000B093620280913A0290913B02A0913C0257
:1018D000B0913D020196A11DB11D80933A029093F3
:1018E0003B02A0933C02B0933D02DF91CF911F9148
:1018F0000F91FF90EF90DF90CF9008958F92AF926D
:10190000CF92EF920F9387E0882E96E0A92E25E0E4
:10191000C22E34E0E32E00E021E042E06FE388E4F1
:1019200093E00E9498134AE06BE082E493E00E9407
:10193000C10167E871E088E093E00E9407196FE851
:1019400071E08EE093E00E94071967E971E084E19D
:1019500093E00E9407196FE971E08AE193E00F912B
:10196000EF90CF90AF908F900C9407198AE193E09D
:101970000E94941884E193E00E9494188EE093E012
:101980000E94941888E093E00C949418BF92CF9230
:10199000DF92EF92FF920F931F93CF93DF9326E096
:1019A00040E855E260E070E080E693E00E946D114F
:1019B00067EA71E080E693E00E94FF148DEF93E008
:1019C0000E9451166CE271E080E090E00E94F616F1
:1019D00020E042E060E188E493E00E9470146CE251
:1019E00071E080E090E00E94F61640E553EC60E084
:1019F00070E08DEF93E00E945C1660E082E10E944F
:101A0000001860E083E10E94001861E08DE00E9410
:101A1000001861E08FE00E94001861E086E00E94FB
:101A2000001861E08FE00E943C1861E08FE00E94A6
:101A30003C1861E083E00E94001868EC70E083E0ED
:101A40000E94781762E370E086E00E94781720E039
:101A500042E060E188E493E00E94701440E063E0BB
:101A600088E493E00E946D1361E088E493E00E94B3
:101A7000811388E493E00E94961240E060E088E4DD
:101A800093E00E949E1262EB71E088E493E00E9472
:101A9000D51441E060E088E493E00E949E120E9429
:101AA000070581110BC00E94A4046AEB71E088E471
:101AB00093E00E94D5146AEB71E008C06DEC71E010
:101AC00088E493E00E94D5146DEC71E080E693E029
:101AD0000E94FF1468EE73E080E090E00E94F6162A
:101AE0000E94D90588E08093250387E08093220334
:101AF00089E08093240385E08093230384E080932E
:101B00002603C2E2D3E081E3C82E83E0D82E9CE214
:101B1000E92E93E0F92E07E213E0BB24B39462E0D0
:101B200089910E940018F60111926F01F701B1929C
:101B30007F01F80111928F01F3E0C732DF0779F7D7
:101B400081E080932A0388E493E00E948E12F89447
:101B5000109280001092810086E997EE9093210305
:101B6000809320039093850080938400809181006E
:101B700084608093810080916F00816080936F000A
:101B8000789468EE73E080E090E00E94F616DF91B2
:101B9000CF911F910F91FF90EF90DF90CF90BF906A
:101BA0000C94D9055058BB27AA270E94EA0D0C9423
:101BB000640F0E94560F38F00E945D0F20F039F438
:101BC0009F3F19F426F40C94530F0EF4E095E7FBB5
:101BD0000C944D0FE92F0E94750F58F3BA17620746
:101BE00073078407950720F079F4A6F50C94970FF6
:101BF0000EF4E0950B2EBA2FA02D0B01B901900128
:101C00000C01CA01A0011124FF27591B99F0593F6B
:101C100050F4503E68F11A16F040A22F232F342FB3
:101C20004427585FF3CF469537952795A795F04001
:101C30005395C9F77EF41F16BA0B620B730B840B16
:101C4000BAF09150A1F0FF0FBB1F661F771F881FCE
:101C5000C2F70EC0BA0F621F731F841F48F4879526
:101C600077956795B795F7959E3F08F0B0CF939518
:101C7000880F08F09927EE0F9795879508950E9491
:101C8000290F08F481E008950E94580E0C94640F07
:101C90000E945D0F58F00E94560F40F029F45F3FFC
:101CA00029F00C944D0F51110C94980F0C94530F74
:101CB0000E94750F68F39923B1F3552391F3951B97
:101CC000550BBB27AA2762177307840738F09F5F5D
:101CD0005F4F220F331F441FAA1FA9F335D00E2ECA
:101CE0003AF0E0E832D091505040E695001CCAF737
:101CF0002BD0FE2F29D0660F771F881FBB1F2617FA
:101D000037074807AB07B0E809F0BB0B802DBF01D0
:101D1000FF2793585F4F3AF09E3F510578F00C949F
:101D20004D0F0C94980F5F3FE4F3983ED4F38695E3
:101D300077956795B795F7959F5FC9F7880F911DC0
:101D40009695879597F90895E1E0660F771F881FAC
:101D5000BB1F621773078407BA0720F0621B730B5F
:101D6000840BBA0BEE1F88F7E09508950E94BD0E14
:101D70006894B1110C94980F08950E947D0F88F01B
:101D80009F5798F0B92F9927B751B0F0E1F0660F3F
:101D9000771F881F991F1AF0BA95C9F714C0B13080
:101DA00091F00E94970FB1E008950C94970F672F60
:101DB000782F8827B85F39F0B93FCCF386957795AF
:101DC0006795B395D9F73EF4909580957095619598
:101DD0007F4F8F4F9F4F0895E89409C097FB3EF4C3
:101DE00090958095709561957F4F8F4F9F4F992368
:101DF000A9F0F92F96E9BB279395F69587957795E6
:101E00006795B795F111F8CFFAF4BB0F11F460FFA5
:101E10001BC06F5F7F4F8F4F9F4F16C0882311F0FD
:101E200096E911C0772321F09EE8872F762F05C011
:101E3000662371F096E8862F70E060E02AF09A95AC
:101E4000660F771F881FDAF7880F9695879597F9A1
:101E50000895990F0008550FAA0BE0E8FEEF16163B
:101E60001706E807F907C0F012161306E407F5078E
:101E700098F0621B730B840B950B39F40A2661F002
:101E8000232B242B252B21F408950A2609F4A140A5
:101E9000A6958FEF811D811D089597F99F6780E8B2
:101EA00070E060E008959FEF80EC089500240A94AC
:101EB0001616170618060906089500240A94121625
:101EC0001306140605060895092E0394000C11F458
:101ED000882352F0BB0F40F4BF2B11F460FF04C005
:101EE0006F5F7F4F8F4F9F4F089557FD9058440F5E
:101EF000551F59F05F3F71F04795880F97FB991F69
:101F000061F09F3F79F08795089512161306140625
:101F1000551FF2CF4695F1DF08C0161617061806B2
:101F2000991FF1CF86957105610508940895E8948D
:101F3000BB2766277727CB0197F908950E94290FC1
:101F400008F48FEF089516F00C9460100C94530F62
:101F500068940C944D0F0E947D0FA8F39923C1F350
:101F6000AEF3DF93CF931F930F93FF92C92FDD271B
:101F700088232AF02197660F771F881FDAF720E061
:101F800030E040E85FEB9FE3883920F0803E38F096
:101F900021968F770E94D30DE8E6F0E004C00E94FE
:101FA000D30DE5E9F0E00E946E108B01BE01EC015B
:101FB000FB2E6F5771097595771F880B990B0E943F
:101FC000EE0E28E132E741E35FE30E940610AF2DF9
:101FD0009801AE01FF900F911F91CF91DF910E9468
:101FE000EA0D0C94640F0E9406100C94640F0E947A
:101FF000560F38F00E945D0F20F0952311F00C94DD
:102000004D0F0C94530F11240C94980F0E94750FD0
:1020100070F3959FC1F3950F50E0551F629FF0013B
:10202000729FBB27F00DB11D639FAA27F00DB11D54
:10203000AA1F649F6627B00DA11D661F829F2227DD
:10204000B00DA11D621F739FB00DA11D621F839F64
:10205000A00D611D221F749F3327A00D611D231F3A
:10206000849F600D211D822F762F6A2F11249F5788
:1020700050409AF0F1F088234AF0EE0FFF1FBB1F8B
:10208000661F771F881F91505040A9F79E3F51054A
:1020900080F00C944D0F0C94980F5F3FE4F3983E42
:1020A000D4F3869577956795B795F795E7959F5FF4
:1020B000C1F7FE2B880F911D9695879597F9089586
:1020C0009F3F31F0915020F4879577956795B795AC
:1020D000880F911D9695879597F90895DF93CF9373
:1020E0001F930F93FF92EF92DF927B018C01689414
:1020F00006C0DA2EEF010E940610FE01E894A591B9
:102100002591359145915591A6F3EF010E94EA0D75
:10211000FE019701A801DA9469F7DF90EF90FF9034
:102120000F911F91CF91DF910895FC01918D228D28
:10213000892F90E0805C9F4F821B91098F739927B4
:102140000895FC01918D828D981731F0828DE80FF2
:10215000F11D858D90E008958FEF9FEF0895FC01AC
:10216000918D828D981761F0828DDF01A80FB11DCE
:102170005D968C91928D9F5F9F73928F90E00895F2
:102180008FEF9FEF089580E392E1892B49F080E083
:1021900090E0892B29F00E94301281110E940000EA
:1021A0000895FC01848DDF01A80FB11DA35ABF4F14
:1021B0008C91248D30E02F5F3F4F2F733078332385
:1021C00034F421503109206C3F6F2F5F3F4F248F33
:1021D000A689B7898C93A089B1898C9180648C93EE
:1021E000938D848D981306C00288F389E02D808139
:1021F0008F7D80830895CF93DF93EC01888D8823B2
:10220000D9F0EA89FB89808185FD05C0A889B98953
:102210008C9186FD11C00FB607FCF5CF808185FF3C
:10222000F2CF04C0CE010E94D110EBCFA889B989AA
:102230008C9185FFE8CFF6CFDF91CF9108950F9372
:102240001F93CF93DF93EC0181E0888F9B8D8C8D62
:10225000981323C0E889F989808185FD2FC01DC0AE
:102260009C8D19130CC00FB607FCFACFE889F989C9
:10227000808185FFF5CFCE010E94D110F1CF8B8DEB
:10228000FE01E80FF11DE35AFF4F00831B8FEA891F
:10229000FB8980818062808319C02B8D30E02F5FA5
:1022A0003F4F2F733078332334F421503109206CA1
:1022B0003F6F2F5F3F4F062F122FD2CFEE89FF893E
:1022C0006083E889F98980818064808381E090E07F
:1022D000DF91CF911F910F910895CF92DF92EF92EE
:1022E000FF921F93CF93DF93EC016A017B01122FC2
:1022F000E889F98982E080834115514E61057105B5
:10230000B1F060E079E08DE390E0A70196010E94D2
:102310006C1BDA01C9010197A109B109B695A7950E
:10232000979587959C01211580E13807A8F0E889E9
:10233000F989108260E874E88EE190E0A7019601C7
:102340000E946C1BDA01C9010197A109B109B69578
:10235000A795979587959C01EC85FD853083EE8543
:10236000FF852083188EEC89FD891083EA89FB891B
:10237000808180618083EA89FB8980818860808395
:10238000EA89FB89808180688083EA89FB89808172
:102390008F7D8083DF91CF911F91FF90EF90DF9031
:1023A000CF9008951F920F920FB60F9211242F9382
:1023B0008F939F93AF93BF93EF93FF93E09170033D
:1023C000F0917103808182FD14C0E0E6F3E0A689FC
:1023D000B7892C91818D8F5F8F73928D891771F0E2
:1023E000DF01E18DF0E0E05AFC4F258F59968C9388
:1023F00005C0E0917603F09177038081FF91EF9122
:10240000BF91AF919F918F912F910F900FBE0F9021
:102410001F9018951F920F920FB60F9211242F93B1
:102420003F934F935F936F937F938F939F93AF935C
:10243000BF93EF93FF9380E693E00E94D110FF914A
:10244000EF91BF91AF919F918F917F916F915F912C
:102450004F913F912F910F900FBE0F901F901895A5
:1024600080E693E00E94951021E0892B09F420E09A
:10247000822F0895E0E6F3E01382128288EE93E063
:10248000A0E0B0E084839583A683B7838BED91E0D1
:102490009183808385EC90E09587848784EC90E03D
:1024A0009787868780EC90E0918B808B81EC90E021
:1024B000938B828B82EC90E0958B848B86EC90E002
:1024C000978B868B118E128E138E148E089508951D
:1024D0000895DC01ED91FC910284F385E02D41E04B
:1024E000099581E090E00895FC01138212822BEEA1
:1024F00031E0318320830895DC01ED91FC9100846B
:10250000F185E02D6FEF09950895DC01ED91FC91C7
:102510000284F385E02D40E00995089561E00E9472
:10252000851280ED97E00E943217089562E00E94C4
:10253000851280ED97E00E9432170895CF93DF93C4
:10254000CDB7DEB728970FB6F894DEBF0FBECDBF6C
:10255000FC01198280E48A8394E19B8394E59C8347
:102560001D828E8380E18F8380E58887878148176D
:1025700010F04FEF480F9085903169F4843059F492
:10258000DE01A40FB11D15968C91680F6068CF0114
:102590000E9485120AC0DE01A40FB11D11969C9104
:1025A000690F6068CF010E94851228960FB6F894D3
:1025B000DEBF0FBECDBFDF91CF910895FC016581D5
:1025C000262F246025836C600E9485120895CF9386
:1025D000DF93EC01423018F08C8188608C834F834C
:1025E0006887222329F0413019F48C8184608C8320
:1025F00064E670E080E090E00E94F6166C8164FD75
:1026000035C0E881F9810284F385E02D42E063E082
:10261000CE01099584E991E10E943217E881F981A0
:102620000284F385E02D42E063E0CE01099586E95E
:1026300090E00E943217E881F9810284F385E02D51
:1026400042E063E0CE01099586E990E00E943217EE
:10265000E881F9810284F385E02D42E062E0CE0159
:10266000099586E990E00E9432171AC06062CE0197
:102670000E94851284E991E10E9432176C816062A8
:10268000CE010E94851286E990E00E9432176C818B
:102690006062CE010E94851286E990E00E943217A6
:1026A0006C816062CE010E9485128CE390E00E94F2
:1026B000321784E08D83CE010E94DE12CE010E948B
:1026C0008E1282E08E8366E0CE010E948512CE01DA
:1026D0000E947C12DF91CF91089521E001C0220F6A
:1026E0006A95EAF7DC011B962C931B9719964C937D
:1026F0001997ED91FC910084F185E02D60E009953A
:102700000895FC018385882391F09185911103C080
:10271000611105C006C0913021F4611102C08487A7
:1027200001C014866485CF010D960E945819089542
:102730006F927F928F92AF92CF92DF92EF92FF9241
:102740000F931F93CF93DF93CDB7DEB73C01D62E07
:10275000F42E122F0E9474128BEF91E0F3019183FB
:102760008083C3010D960E941F19F301D286138640
:102770001486118681E0982F01C0990FFA94EAF728
:10278000918B982F01C0990F1A95EAF7928B982F89
:1027900001C0990F0A95EAF7938B982F01C0990F02
:1027A000EA94EAF7948B982F01C0990FCA94EAF73C
:1027B000958B982F01C0990FAA94EAF7968B01C0C8
:1027C000880F8A94EAF7878BDF91CF911F910F9141
:1027D000FF90EF90DF90CF90AF908F907F906F90B1
:1027E00008950F931F93CF93DF93EC018C01035F48
:1027F0001F4F6A85C8010E943F19019761F461E08B
:10280000C8010E9426191C8260E0C8010E94581964
:1028100081E090E002C080E090E0DF91CF911F91D5
:102820000F910895EF92FF920F931F93CF938C0116
:10283000C62F7C018DE0E80EF11CF80161896C2B3C
:10284000C7010E945819F801618960956C23C7017E
:102850000E945819CF911F910F91FF90EF9008950A
:10286000DC01FC01049620E060FF02C03489232BC8
:1028700066953196E817F907B9F7413019F4539680
:102880004C9153971C969C911C97622F692B642B3B
:10289000CD010E94121408950F931F93CF93DF93DD
:1028A0008C01C62FD42F423029F46F7040E00E9473
:1028B000301411C070E0759567957595679575959D
:1028C0006795759567950E9430146C2F6F704D2F2A
:1028D000C8010E943014DF91CF911F910F9108958C
:1028E000FF920F931F93CF93DF93EC01162F042FCA
:1028F000F22E0E94F1132F2D402F612FCE010E9446
:10290000E712DF91CF911F910F91FF9008950895E5
:102910000E943D170E9487140E94C60CC3ECD0E1B0
:102920000E94B3072097E1F30E94C310F9CFCF9222
:10293000DF92EF92FF920F931F93CF93DF93411596
:102940005105C1F06A018C01E62EF72EC0E0D0E0FF
:10295000D7016D917D01D801ED91FC910190F0813D
:10296000E02DC8010995892B39F02196CC16DD069A
:1029700079F702C0C0E0D0E0CE01DF91CF911F9186
:102980000F91FF90EF90DF90CF900895DB011496A8
:102990004D915C9115976D917C91DC01ED91FC91CD
:1029A0000280F381E02D099508956115710581F08C
:1029B000FB0101900020E9F73197AF01461B570B4F
:1029C000DC01ED91FC910280F381E02D09950895E1
:1029D00080E090E00895DC01ED91FC910190F081A0
:1029E000E02D09950895DC01ED91FC910280F381C1
:1029F000E02D42E050E067E072E0099508950F9302
:102A00001F93CF93DF93EC010E94D5148C01CE016C
:102A10000E94F314800F911FDF91CF911F910F91AE
:102A200008958F929F92AF92BF92EF92FF920F9371
:102A30001F93CF93DF93CDB7DEB7A1970FB6F8946E
:102A4000DEBF0FBECDBF7C01CB01BA0119A222307F
:102A500008F42AE08E010F5D1F4F822E912CA12CCD
:102A6000B12CA50194010E946C1BE62F622F732FDD
:102A7000842F952F01501109EA3010F4E05D01C058
:102A8000E95CD801EC93611571058105910549F761
:102A90000115110591F0F80101900020E9F7319737
:102AA000AF01401B510BD701ED91FC910280F381E6
:102AB000E02DB801C701099502C080E090E0A19621
:102AC0000FB6F894DEBF0FBECDBFDF91CF911F913F
:102AD0000F91FF90EF90BF90AF909F908F900895CF
:102AE000CF92DF92EF92FF920F931F93CF93DF93DA
:102AF000EC016A017B012115310541F4E881F9817E
:102B00000190F081E02D642F09951DC02A30310518
:102B1000C1F4772394F46DE20E94EB148C014427F6
:102B20005527BA014C195D096E097F092AE0CE01CB
:102B30000E941115800F911F06C02AE00E941115F6
:102B400002C00E941115DF91CF911F910F91FF904C
:102B5000EF90DF90CF9008959A01AB01770F660B4D
:102B6000770B0E947015089580912D0490E02091BC
:102B70002E04821B9109089590912E0480912D04BA
:102B8000981750F4E92FF0E0E15DFB4F208130E031
:102B90009F5F90932E0402C02FEF3FEFC90108956D
:102BA000E0912E0480912D04E81730F4F0E0E15D0F
:102BB000FB4F808190E008958FEF9FEF0895089577
:102BC000CF92DF92EF92FF920F931F93CF93DF93F9
:102BD0008C01CB016A01209109042223A1F0411547
:102BE0005105A1F0EB017B01E40EF51E6991D801BE
:102BF000ED91FC910190F081E02DC8010995CE1571
:102C0000DF05A1F703C0642F0E94071AC601DF91F8
:102C1000CF911F910F91FF90EF90DF90CF9008958B
:102C2000CF93DF931F92CDB7DEB7FC0169839091FC
:102C300009049923D9F090910A04903238F081E088
:102C400090E09383828380E090E017C080910B0432
:102C5000E82FF0E0E45FFB4F998190838F5F8093D2
:102C60000B0480930A0481E090E007C061E0CE018C
:102C700001960E94071A81E090E00F90DF91CF91BA
:102C80000895FC011382128288EE93E0A0E0B0E088
:102C900084839583A683B7838AE192E091838083BE
:102CA000089510922E0410922D0410920B0410928D
:102CB0000A040E947F190895CB01BA010E949D1950
:102CC000089581E08093090460932C0410920B0412
:102CD00010920A0408950F93062F21E040910A04F0
:102CE0006CE074E080912C040E94B11910920B04E6
:102CF00010920A04109209040F91089561E00E9455
:102D00006B1608958DEF93E00E94411608951F926F
:102D10000F920FB60F9211242F933F938F939F938F
:102D2000AF93BF938091500490915104A0915204AD
:102D3000B091530430914F0423E0230F2D3720F43A
:102D40000196A11DB11D05C026E8230F0296A11D05
:102D5000B11D20934F048093500490935104A0938D
:102D60005204B09353048091540490915504A0915F
:102D70005604B09157040196A11DB11D80935404CF
:102D800090935504A0935604B0935704BF91AF910C
:102D90009F918F913F912F910F900FBE0F901F9099
:102DA00018953FB7F8948091540490915504A091E0
:102DB0005604B091570426B5A89B05C02F3F19F0C3
:102DC0000196A11DB11D3FBFBA2FA92F982F8827AB
:102DD000820F911DA11DB11DBC01CD0142E0660F06
:102DE000771F881F991F4A95D1F708958F929F9258
:102DF000AF92BF92CF92DF92EF92FF926B017C0174
:102E00000E94D1164B015C01C114D104E104F1040C
:102E100001F10E941E190E94D116DC01CB01881914
:102E20009909AA09BB09883E9340A105B10560F341
:102E300021E0C21AD108E108F10888EE880E83E08B
:102E4000981EA11CB11CC114D104E104F10419F7AE
:102E5000DBCFFF90EF90DF90CF90BF90AF909F902F
:102E60008F9008958230910538F0880F991F880F50
:102E7000991F05970197F1F70895789484B58260BA
:102E800084BD84B5816084BD85B5826085BD85B50E
:102E9000816085BDEEE6F0E0808181608083E1E8BD
:102EA000F0E01082808182608083808181608083F5
:102EB000E0E8F0E0808181608083E1EBF0E08081F8
:102EC00084608083E0EBF0E0808181608083EAE7CA
:102ED000F0E0808184608083808182608083808153
:102EE000816080838081806880831092C100089512
:102EF0001F93CF93DF93182FEB0161E00E9400181E
:102F0000209711F460E004C0CF3FD10539F461E0AF
:102F1000812FDF91CF911F910C943C18E12FF0E0AD
:102F2000EE53FF4FE491E330F9F048F4E130B9F0AB
:102F3000E230A1F584B5806284BDC8BD34C0E730FD
:102F4000E9F0E83019F1E43049F5809180008062C1
:102F500080938000D0938B00C0938A0024C084B5F6
:102F6000806884BDC7BD1FC0809180008068809349
:102F70008000D0938900C093880015C08091B00074
:102F800080688093B000C093B3000DC08091B00002
:102F900080628093B000C093B40005C0C038D105F2
:102FA0000CF0B5CFAFCFDF91CF911F910895833053
:102FB00081F028F4813099F08230A1F008958730B3
:102FC000A9F08830B9F08430D1F4809180008F7DF1
:102FD00003C0809180008F7780938000089584B52E
:102FE0008F7702C084B58F7D84BD08958091B00035
:102FF0008F7703C08091B0008F7D8093B0000895DB
:10300000CF93DF9390E0FC01EA52FF4F2491FC0143
:10301000E651FF4F8491882361F190E0880F991F5A
:10302000FC01EE5EFE4FC591D491FC01E85FFE4FBE
:10303000A591B491611109C09FB7F894888120953A
:1030400082238883EC912E230BC0623061F49FB7FA
:10305000F8948881322F309583238883EC912E2B2E
:103060002C939FBF06C08FB7F894E8812E2B28833E
:103070008FBFDF91CF9108951F93CF93DF93282FB8
:1030800030E0F901EE53FF4F8491F901EA52FF4F0E
:10309000D491F901E651FF4FC491CC23C1F0162F12
:1030A00081110E94D717EC2FF0E0EE0FFF1FE85FB1
:1030B000FE4FA591B4919FB7F894111104C08C9163
:1030C000D095D82302C0EC91DE2BDC939FBFDF911B
:1030D000CF911F910895CF93DF93282F30E0F9010E
:1030E000EE53FF4F8491F901EA52FF4FD491F90159
:1030F000E651FF4FC491CC2391F081110E94D71764
:10310000EC2FF0E0EE0FFF1FE250FF4FA591B491BE
:10311000EC91ED2381E090E021F480E002C080E0BA
:1031200090E0DF91CF910895FC01808191810E9410
:103130002C1C0895CF93DF93EC018881998100972F
:1031400011F00E942C1C198218821D821C821B8285
:103150001A82DF91CF9108950F931F93CF93DF933E
:10316000EC018B016F5F7F4F888199810E94B51CB4
:10317000009731F0998388831B830A8381E001C023
:1031800080E0DF91CF911F910F910895CF93DF934E
:10319000FC0120813181232B29F0228133812617E4
:1031A000370770F4EC010E94AC18882361F08C8121
:1031B0009D81892B39F4E881F981108281E003C077
:1031C00081E001C081E0DF91CF910895EF92FF92FD
:1031D0000F931F93CF93DF93EC017B018A01BA0118
:1031E0000E94C618811104C0CE010E949A1807C01F
:1031F0001D830C83B701888199810E94891DCE01AE
:10320000DF91CF911F910F91FF90EF900895FC01F6
:103210001182108213821282158214826115710547
:1032200051F0FB0101900020E9F73197AF01461BF7
:10323000570B0E94E61808950E947B1D0895FC011B
:1032400012828FEF8183108213820895FC01238103
:10325000222339F0611103C02FEF21830895FC016F
:10326000118208958DEF93E00E9461168DEF93E037
:103270000E947E1691E0811190E0892F0895CF93EE
:10328000DF93EC016A838DEF93E00E9451166A810F
:10329000CE010E9432198B83882329F08DEF93E0B1
:1032A0000E94BC1588838B8190E0DF91CF910895B7
:1032B000CF93DF93FC0123812223B1F0EC018181C4
:1032C00080956823608362818DEF93E00E94611690
:1032D00068818DEF93E00E9410168DEF93E00E94BD
:1032E0007E16282F30E002C020E030E081E090E040
:1032F000232B11F080E090E0DF91CF9108951092A0
:10330000C50481E08093C3041092C20461E082E1AD
:103310000E943C1861E083E10E943C18E9EBF0E078
:1033200080818E7F808380818D7F808388E48093FD
:10333000B80085E48093BC0008959B01AC0160E077
:1033400074E284EF90E00E946C1BDA01C90140979F
:10335000A109B109B695A795979587958093B8006F
:1033600008950F93413208F04AC09091C50491111D
:10337000FCCF32E03093C5040093C3043FEF309399
:10338000580410929D0440939C04562FAEE9B4E07B
:10339000FB013E2F351B341718F431913D93F9CFC3
:1033A0001092C4043091C404880F832B8093C4040A
:1033B0008091C204813061F41092C2048091C404EF
:1033C0008093BB008091BC0083FDF8CF85EC01C0E9
:1033D00085EE8093BC00222321F08091C5048230C9
:1033E000D1F3809158048F3F79F080915804803256
:1033F00041F080915804803331F094E005C091E0B1
:1034000003C092E001C093E0892F0F91089540918D
:103410007A04262F30E0240F311D21323105DCF4EF
:103420002091C5042430C9F4FC0180E090E08617A7
:1034300058F430917A042191DC01A458BB4FA30FBA
:10344000B11D2C930196F3CF80917A04680F60939D
:103450007A0480E0089581E0089582E0089585ED82
:103460008093BC008091BC0084FDFCCF1092C50409
:10347000089585EC8093BC001092C50408951F92B6
:103480000F920FB60F9211242F933F934F935F9398
:103490006F937F938F939F93AF93BF93EF93FF931C
:1034A0008091B900887F803609F49EC078F5883213
:1034B00009F45DC090F4803109F456C038F48823D3
:1034C00009F4F5C0883009F44FC0F5C0883109F41B
:1034D0004EC0803209F45FC0EEC0803409F46AC087
:1034E00058F4803309F457C0883309F0E4C080935E
:1034F00058040E94391ADFC0803509F44FC088355E
:1035000009F45DC0883409F0D6C0D3C0883909F405
:10351000C4C0A8F4883709F467C038F4883609F4C1
:1035200063C0803709F460C0C6C0883809F4B5C0EC
:10353000803909F45FC0803809F0BDC05BC0803BB2
:1035400009F483C038F4803A09F466C0883A09F473
:103550007CC0B1C0803C09F4A4C0883C09F4A1C07F
:10356000883B09F487C0A7C08091C40410C0909123
:103570009D0480919C04981770F5E0919D0481E072
:103580008E0F80939D04F0E0E256FB4F8081809384
:10359000BB0085EC83C0809358048BC0E0919D04F0
:1035A00081E08E0F80939D048091BB00F0E0E25695
:1035B000FB4F808390919D0480919C046BC0E091AF
:1035C0009D0481E08E0F80939D048091BB00F0E00C
:1035D000E256FB4F80838091C30481116AC081E071
:1035E0008093C20484EA5EC083E08093C504109295
:1035F0005904CFCF80915904803208F04EC0E09139
:10360000590481E08E0F809359048091BB00F0E053
:10361000E65AFB4F8083BDCF0E94391A809159042E
:10362000803230F4E0915904F0E0E65AFB4F10820A
:103630006091590470E0E091BE04F091BF048AE506
:1036400094E009951092590436C084E08093C50433
:1036500010927B0410927A04E091C004F091C104AE
:10366000099580917A04811105C081E080937A04E4
:1036700010927C04E0917B0481E08E0F80937B04A8
:10368000F0E0E458FB4F80818093BB0090917B0475
:1036900080917A04981708F47CCF85E88093BC0069
:1036A0000AC085EC8093BC001092C50404C010923F
:1036B00058040E942F1AFF91EF91BF91AF919F91F3
:1036C0008F917F916F915F914F913F912F910F90CB
:1036D0000FBE0F901F901895A1E21A2EAA1BBB1BBC
:1036E000FD010DC0AA1FBB1FEE1FFF1FA217B307CE
:1036F000E407F50720F0A21BB30BE40BF50B661FE4
:10370000771F881F991F1A9469F7609570958095A7
:1037100090959B01AC01BD01CF010895EE0FFF1FF5
:103720000590F491E02D09940F931F93CF93DF93AD
:103730008230910510F482E090E0E091C804F091AD
:10374000C90420E030E0A0E0B0E0309719F14081FA
:1037500051810281138148175907C8F084179507D2
:1037600069F4109731F012960C93129713961C93EC
:1037700027C00093C8041093C90422C02115310545
:1037800019F04217530718F49A01BD01EF01DF0148
:10379000F801DBCF21153105F9F0281B390B243056
:1037A000310580F48A819B816115710521F0FB014F
:1037B0009383828304C09093C9048093C804FE015C
:1037C000329644C0FE01E20FF31F81939193225081
:1037D0003109398328833AC02091C6043091C70447
:1037E000232B41F420910201309103013093C7044F
:1037F0002093C6042091000130910101211531056B
:1038000041F42DB73EB74091040150910501241BAE
:10381000350BE091C604F091C704E217F307A0F45A
:103820002E1B3F0B2817390778F0AC014E5F5F4F16
:103830002417350748F04E0F5F1F5093C70440937D
:10384000C6048193919302C0E0E0F0E0CF01DF91E4
:10385000CF911F910F910895CF93DF93009709F4B3
:1038600081C0FC01329713821282A091C804B091EA
:10387000C904109781F420813181820F931F209118
:10388000C6043091C7042817390751F5F093C704CF
:10389000E093C60467C0ED0120E030E0CE17DF07FB
:1038A00040F44A815B819E0141155105F1F0EA0126
:1038B000F5CFD383C28340815181840F951FC817F0
:1038C000D90759F488819981840F951F02969183B5
:1038D00080838A819B81938382832115310529F41A
:1038E000F093C904E093C8043DC0E901FB83EA8377
:1038F00049915991C40FD51FEC17FD0761F48081E0
:103900009181840F951F0296E901998388838281B2
:1039100093819B838A83E0E0F0E012968D919C91E5
:103920001397009719F0FD01DC01F7CF8D919C9161
:1039300011979D012E5F3F4F820F931F2091C60468
:103940003091C7042817390769F4309729F4109289
:10395000C9041092C80402C013821282B093C70433
:10396000A093C604DF91CF910895A0E0B0E0EBEB07
:10397000FCE10C94DF1DEC01009721F4CB010E94C7
:10398000941BB4C0FC01E60FF71F9C0122503109C3
:10399000E217F30708F4A8C0D9010D911C91119703
:1039A00006171707B0F00530110508F49BC0C801D1
:1039B00004978617970708F495C002501109061B53
:1039C000170B019311936D937C93CF010E942C1CD4
:1039D00089C05B01A01AB10A4C01800E911EA09112
:1039E000C804B091C904612C712CE12CF12C109702
:1039F00009F446C08D919C911197A815B905B1F5B0
:103A00006C0142E0C40ED11CCA14DB0478F14C01F5
:103A10008A189B08640142E0C40ED11C1296BC9027
:103A200012971396AC91B5E0CB16D10440F0B28258
:103A3000A38391828082D9016D937C9309C00E5F2C
:103A40001F4F800F911FF90191838083EB2DFA2F77
:103A5000E114F10431F0D7011396FC93EE93129721
:103A600041C0F093C904E093C8043CC068167906CD
:103A700008F43C017D0112960D90BC91A02DB7CFAA
:103A80008091C6049091C70488169906E1F46616E1
:103A90007706C8F48091000190910101009741F4EC
:103AA0008DB79EB74091040150910501841B950B81
:103AB000E817F907C8F4F093C704E093C604F901C6
:103AC000718360830FC0CB010E94941B7C0100971F
:103AD00059F0A801BE010E94801DCE010E942C1C3D
:103AE000C70104C0CE0102C080E090E0CDB7DEB7D0
:103AF000EEE00C94FB1D81E090E0F8940C94121E13
:103B0000FB01DC0102C001900D9241505040D8F7FA
:103B10000895FB01DC0101900D920020E1F708956A
:103B2000BB274A3031F4992322F4BDE29095819568
:103B30009F4F0C949C1DBB27FB015527AA27880F7C
:103B4000991FAA1FA41710F0A41B83955051B9F711
:103B5000A05DAA3308F0A95DA193009779F7B11190
:103B6000B1931192CB010C94B51DDC01FC01672FC0
:103B700071917723E1F7329704C07C916D93708344
:103B80006291AE17BF07C8F30895F999FECF92BDB1
:103B900081BDF89A992780B50895262FF999FECF0F
:103BA0001FBA92BD81BD20BD0FB6F894FA9AF99A5A
:103BB0000FBE019608952F923F924F925F926F929F
:103BC0007F928F929F92AF92BF92CF92DF92EF92AD
:103BD000FF920F931F93CF93DF93CDB7DEB7CA1B2E
:103BE000DB0B0FB6F894DEBF0FBECDBF09942A8859
:103BF000398848885F846E847D848C849B84AA8401
:103C0000B984C884DF80EE80FD800C811B81AA818D
:103C1000B981CE0FD11D0FB6F894DEBF0FBECDBF58
:103C2000ED01089510E0C1E9D0E004C0FE010E945A
:0E3C30008E1B2196C239D107C9F7F894FFCF39
:103C3E000000CA04200001010000C03F00007AC449
:103C4E00030047657370656963686572742E2E2E66
:103C5E0000413A00443A006D3A004D3A00202020CF
:103C6E00202020202000253A00643A004D6F646524
:103C7E003A2000536F6C6C54656D703A20004F6E95
:103C8E002F4F6666205665727A6F65676572756E20
:103C9E00673A2000204D696E7574656E005265732B
:103CAE006574204D696E2F4D6178200052657365E5
:103CBE007465642E2E2E0041757320202020004145
:103CCE006E2020202020004865697A656E20004B0A
:103CDE007565686C656E0054656D7065726174759E
:103CEE007200496E69742E2E2E0043616E6E6F74D3
:103CFE00207265616420454550524F4D0045455038
:103D0E00524F4D204F4B00000000001F119714958D
:103D1E0010AF10A110FB100000000069129714E7FD
:103D2E0012671268121C19000000006912971470B5
:103D3E00146D1381134C140D0A006E616E00696EC2
:103D4E0066006F766600000000001016E015B415D0
:063D5E00BC15D015DF15B5
:00000001FF
