S01800004779726F5465737439323530446F66392E73726563A9
S11300000C94DA000C9402010C9402010C94020189
S11300100C9402010C9402010C9402010C94020150
S11300200C9402010C9402010C9402010C94020140
S11300300C9402010C9402010C9402010C94020130
S11300400C94BB290C9402010C946A250C94A225EF
S11300500C9402010C9402010C9402010C94020110
S11300600C94602C0C940201036EDB363D9A999932
S1130070993DABAAAA2A3E000000803F084AD73B1C
S11300803BCE016E84BCBFFDC12F3D6C74319ABD63
S113009056833DDA3D00C77F11BED9E4BB4C3E9187
S11300A06BAAAABE000000803F072C7AA5BA6CC5D3
S11300B090DA3B9365FC8BBC53F810FD3C5692835D
S11300C04DBD879D3AB63DCBC9BF5BBE73DA0FC940
S11300D03F07634236B79BD8A71A39685618AEBA99
S11300E0AB558C1D3CB7CC5763BD6DEDFD753EF62D
S11300F0177231BF000000803F08000000BE922448
S113010049123EABAAAA2ABECDCCCC4C3E0000007C
S113011080BEABAAAAAA3E00000000BF0000008077
S11301203F0000000000084178D3BB4387D1133D52
S1130130190E3CC3BD4282AD2B3E68EC8276BED91B
S11301408FE1A93E4C80EFFFBE01C4FF7F3F00005A
S11301500000000000000008000201000003040782
S1130160000000000000000001020408102040808C
S113017001020408102001020408102004040404ED
S1130180040404040202020202020303030303033D
S113019000000000230026002900000000002500C4
S11301A028002B0000000000240027002A003A0C3D
S11301B0D225B62911241FBECFEFD8E0DEBFCDBFB4
S11301C015E0A0E0B1E0ECE3FCE502C005900D927F
S11301D0A431B107D9F727E0A4E1B5E001C01D922D
S11301E0AC34B207E1F710E0CAEDD0E004C02197C7
S11301F0FE010E94162EC73DD107C9F70E940026B2
S11302000C941C2E0C94000080911E01882319F07C
S1130210813071F008958FEF9BEEAFEBB0E48093E3
S1130220D8059093D905A093DA05B093DB0508951A
S11302308FEF9BEEAFEBBFE38093D8059093D90586
S1130240A093DA05B093DB0508958091E50581302C
S113025099F028F08230E9F0833041F1089580E08C
S113026090E0AAEFBBE38093DC059093DD05A093B7
S1130270DE05B093DF05089580E090E0AAE7BCE3D3
S11302808093DC059093DD05A093DE05B093DF0534
S1130290089580E090E0AAEFBCE38093DC0590939E
S11302A0DD05A093DE05B093DF05089580E090E0BE
S11302B0AAE7BDE38093DC059093DD05A093DE05FA
S11302C0B093DF0508958091E405813099F028F01A
S11302D08230E9F0833041F1089580E090E0A0E8B5
S11302E0B8E38093E0059093E105A093E205B09311
S11302F0E305089580E090E0A0E0B9E38093E00591
S11303009093E105A093E205B093E305089580E09E
S113031090E0A0E8B9E38093E0059093E105A09311
S1130320E205B093E305089580E090E0A0E0BAE32D
S11303308093E0059093E105A093E205B093E30573
S113034008954F925F926F927F928F929F92AF9295
S1130350BF92CF92DF92EF92FF920F931F93CF93AE
S1130360DF93CDB7DEB7CC56D1090FB6F894DEBF14
S11303700FBECDBF6D8F7E8F8F8F98A3298B3A8B45
S11303804B8B5C8BED86FE860F87188B2996ACAE63
S1130390BDAECEAEDFAE2997E0E0F1E08081918181
S11303A0A281B38189A79AA7ABA7BCA74480558033
S11303B06680778080859185A285B385898F9A8FA1
S11303C0AB8FBC8F84859585A685B7858D8B9E8BD9
S11303D0AF8BB88F2D8D3E8D4F8D58A1CA01B901B9
S11303E00E9416224B015C0129893A894B895C8958
S11303F0CA01B9010E94162269A37AA38BA39CA304
S11304009B01AC01C501B4010E94911F6DA37EA3A1
S11304108FA398A7A8019701C801B7010E941622CB
S11304206B017C0129A13AA14BA15CA1C501B401D6
S11304300E94911F4B015C01A7019601C501B40103
S11304400E94911F0E94D9226DA37EA38FA398A717
S113045020E030E0A9010E948A20882311F40C9442
S1130460220CC957DF4F288139814A815B81C758E3
S1130470D040CA01B9010E9416224B015C01C55744
S1130480DF4F288139814A815B81CB58D040CA0132
S1130490B9010E94162269A37AA38BA39CA39B0192
S11304A0AC01C501B4010E94911F6DA77EA78FA75F
S11304B098ABC157DF4F288139814A815B81CF587E
S11304C0D040CA01B9010E9416226B017C0129A106
S11304D03AA14BA15CA1C501B4010E94911F4B013B
S11304E05C01A7019601C501B4010E94911F0E94FD
S11304F0D9226B017C0120E030E0A9010E948A200E
S1130500882311F40C94220C29A53AA54BA55CA5CB
S1130510CA01B9010E94911F6DA77EA78FA798AB4E
S1130520A3019201C301B2010E94911F2D966CAFE9
S11305307DAF8EAF9FAF2D97298D3A8D4B8D5C8DFE
S1130540CA01B9010E94911F61966CAF7DAF8EAF55
S11305509FAF61972D893E894F89588DCA01B90192
S11305600E94911FA5966CAF7DAF8EAF9FAFA597EC
S113057029A53AA54BA55CA5CA01B9010E9416227A
S11305806DAB7EAB8FAB98AFA301920169A57AA541
S11305908BA59CA50E9416226D966CAF7DAF8EAF85
S11305A09FAF6D97298D3A8D4B8D5C8D69A57AA58A
S11305B08BA59CA50E941622A9966CAF7DAF8EAF29
S11305C09FAFA997A3019201C301B2010E94162211
S11305D069AB7AAB8BAB9CAB2D893E894F89588D27
S11305E0C301B2010E94162269AF7AAF8BAF9CAFF0
S11305F0298D3A8D4B8D5C8DCA01B9010E9416225A
S113060069A37AA38BA39CA32D893E894F89588D16
S1130610CA01B9010E94162221966CAF7DAF8EAF3C
S11306209FAF21972DA13EA14FA158A560E070E096
S113063080E89FE30E948F20A1966CAF7DAF8EAFC0
S11306409FAFA197A701960160E070E080E89FE367
S11306500E948F206B017C019B01AC01C957DF4FC5
S1130660688179818A819B81C758D0400E94162273
S11306706DA37EA38FA398A7A7019601C557DF4F4B
S1130680688179818A819B81CB58D0400E9416224F
S11306906D837E838F839887A7019601C157DF4FAF
S11306A0688179818A819B81CF58D0400E9416222B
S11306B069877A878B879C872DA13EA14FA158A576
S11306C06DA57EA58FA598A90E94162225966CAFCC
S11306D07DAF8EAF9FAF25972D813E814F81588589
S11306E06DA57EA58FA598A90E94162265966CAF6C
S11306F07DAF8EAF9FAF659729853A854B855C8525
S11307006DA57EA58FA598A90E9416226B017C0178
S11307102DA13EA14FA158A52D966CAD7DAD8EADFA
S11307209FAD2D970E94162269966CAF7DAF8EAF58
S11307309FAF69972DA93EA94FA958AD6DA17EA180
S11307408FA198A50E9416224B015C012D893E8938
S11307504F89588D65966CAD7DAD8EAD9FAD659717
S11307600E9416229B01AC01C501B4010E94901F96
S11307704B015C01298D3A8D4B8D5C8DC701B6010F
S11307800E9416229B01AC01C501B4010E94911F75
S11307904B015C0129A93AA94BA95CA96DA17EA1D1
S11307A08FA198A50E9416229B01AC01C501B4013A
S11307B00E94911F4B015C012D813E814F81588520
S11307C02D966CAD7DAD8EAD9FAD2D970E941622FA
S11307D0298D3A8D4B8D5C8D0E9416229B01AC01B4
S11307E0C501B4010E94911F4B015C0129853A8522
S11307F04B855C852D966CAD7DAD8EAD9FAD2D97F3
S11308000E9416222D893E894F89588D0E941622F6
S11308109B01AC01C501B4010E94911F4B015C0115
S113082029A13AA14BA15CA16DA17EA18FA198A59C
S11308300E9416229B01AC01C501B4010E94901FC5
S11308404B015C0121962CAD3DAD4EAD5FAD2197C2
S11308506DA17EA18FA198A50E9416229B01AC01D7
S1130860C501B4010E94901F4B015C012D893E8992
S11308704F89588D25966CAD7DAD8EAD9FAD259776
S11308800E94162269837A838B839C832DA93EA9B7
S11308904FA958AD6D817E818F8198850E94162263
S11308A09B01AC0169817A818B819C810E94911F9B
S11308B069837A838B839C83A3019201C701B60168
S11308C00E9416229B01AC0169817A818B819C81F3
S11308D00E94901F6B017C01298D3A8D4B8D5C8D9C
S11308E069966CAD7DAD8EAD9FAD69970E94162261
S11308F09B01AC01C701B6010E94911F6B017C01F1
S113090029A93AA94BA95CA96D817E818F8198851B
S11309100E9416229B01AC01C701B6010E94901FE0
S11309206B017C0129A13AA14BA15CA16D817E815F
S11309308F8198850E9416229B01AC01C701B601E4
S11309400E94911F6B017C0129853A854B855C854A
S113095061966CAD7DAD8EAD9FAD61970E94162200
S11309602D893E894F89588D0E9416229B01AC0126
S1130970C701B6010E94911F6B017C0121962CAD29
S11309803DAD4EAD5FAD21976D817E818F819885A0
S11309900E9416229B01AC01C701B6010E94901F60
S11309A06B017C01A5019401C501B4010E941622CA
S11309B069837A838B839C83A5019401C501B40167
S11309C00E9416224B015C01A7019601C701B601E2
S11309D00E9416229B01AC01C501B4010E94911F23
S11309E00E94D92269837A838B839C8325966CAD7C
S11309F07DAD8EAD9FAD25979058298D3A8D4B8D49
S1130A005C8D0E9416226B017C01A3019201659604
S1130A106CAD7DAD8EAD9FAD65970E9416229B0196
S1130A20AC01C701B6010E94911F6B017C012DA985
S1130A303EA94FA958AD69857A858B859C850E940E
S1130A4016229B01AC01C701B6010E94911F6B01E4
S1130A507C012D893E894F89588D69966CAD7DAD99
S1130A608EAD9FAD69970E9416229B01AC01C70110
S1130A70B6010E94911F6B017C0129A93AA94BA9D7
S1130A805CA969857A858B859C850E9416229B01C9
S1130A90AC01C701B6010E94901F6B017C012D813E
S1130AA03E814F81588561966CAD7DAD8EAD9FAD15
S1130AB061970E9416222D893E894F89588D0E9484
S1130AC016229B01AC01C701B6010E94911F6B0164
S1130AD07C0129A13AA14BA15CA169857A858B850A
S1130AE09C850E9416229B01AC01C701B6010E949D
S1130AF0901F6B017C0121962CAD3DAD4EAD5FADD9
S1130B00219769857A858B859C850E9416229B0195
S1130B10AC01C701B6010E94911F6B017C019B01CE
S1130B20AC010E94911F65966CAF7DAF8EAF9FAFF5
S1130B30659729AD3AAD4BAD5CADCA01B9010E94D0
S1130B40911F4B015C012DA53EA54FA558A9698DA8
S1130B507A8D8B8D9C8D0E9416229B01AC01C50160
S1130B60B4010E94901F4B015C01A1962CAD3DADD8
S1130B704EAD5FADA1976D8D7E8D8F8D98A10E9436
S1130B8016229B01AC01C501B4010E94901F6DABFC
S1130B907EAB8FAB98AF6D962CAD3DAD4EAD5FADDA
S1130BA06D97CA01B9010E94911F4B015C016196C6
S1130BB02CAD3DAD4EAD5FAD61976D897E898F895A
S1130BC0988D0E9416229B01AC01C501B4010E94BC
S1130BD0911F4B015C01A1962CAD3DAD4EAD5FADB7
S1130BE0A19769897A898B899C890E9416229B0125
S1130BF0AC01C501B4010E94901F25966CAF7DAF76
S1130C008EAF9FAF2597298D3A8D4B8D5C8DC70193
S1130C10B6010E94162269966CAF7DAF8EAF9FAF6E
S1130C20699729A13AA14BA15CA160E070E080E042
S1130C309FE30E94901F21962CAD3DAD4EAD5FAD5C
S1130C4021970E94901F29813A814B815C810E94E7
S1130C5016224B015C01A9962CAD3DAD4EAD5FADA6
S1130C60A99769AD7AAD8BAD9CAD0E94901FA70189
S1130C7096010E9416229B01AC01C501B4010E9499
S1130C80911F2DA13EA14FA158A50E94901F6DA3B5
S1130C907EA38FA398A789819A81AB81BC81B05828
S1130CA021968CAF9DAFAEAFBFAF2197A301920148
S1130CB0C701B6010E941622AD966CAF7DAF8EAF10
S1130CC09FAFAD97298D3A8D4B8D5C8DC301B201D9
S1130CD00E9416224B015C012D893E894F89588D53
S1130CE069A57AA58BA59CA50E9416229B01AC013F
S1130CF0C501B4010E94901F29813A814B815C8116
S1130D000E9416224B015C012D893E894F89588D22
S1130D10698D7A8D8B8D9C8D0E9416229B01AC016E
S1130D206D966CAD7DAD8EAD9FAD6D970E94911F9C
S1130D30A70196010E9416229B01AC01C501B401D2
S1130D400E94911F2D813E814F8158850E94901FE2
S1130D506D837E838F839887298D3A8D4B8D5C8D2F
S1130D6069817A818B819C810E941622698B7A8B9E
S1130D708B8B9C8B29AD3AAD4BAD5CADA9966CAD1C
S1130D807DAD8EAD9FADA9970E94911F29813A81B7
S1130D904B815C810E9416224B015C0129A93AA96E
S1130DA04BA95CA960E070E080E09FE30E94901F83
S1130DB029A13AA14BA15CA10E94901FA701960111
S1130DC00E9416229B01AC01C501B4010E94911F2F
S1130DD029853A854B855C850E94901F69877A87AF
S1130DE08B879C8761966CAD7DAD8EAD9FAD619711
S1130DF090582DA93EA94FA958AD0E9416224B0127
S1130E005C012D962CAD3DAD4EAD5FAD2D97259675
S1130E106CAD7DAD8EAD9FAD25970E9416229B01D2
S1130E20AC01C501B4010E94911F4B015C012DA1CD
S1130E303EA14FA158A569966CAD7DAD8EAD9FAD19
S1130E4069970E9416229B01AC01C501B4010E945E
S1130E50901F4B015C012D893E894F89588D219645
S1130E606CAD7DAD8EAD9FAD21970E941622AD96DF
S1130E702CAD3DAD4EAD5FADAD970E94911F2D8160
S1130E803E814F8158850E9416229B01AC01C50109
S1130E90B4010E94911F4B015C0129853A854B8561
S1130EA05C8569897A898B899C890E9416229B01B9
S1130EB0AC01C501B4010E94911F6D8F7E8F8F8F8D
S1130EC098A329A93AA94BA95CA9CA01B9010E940E
S1130ED0911F9B01AC0160E070E080E89FE30E94F9
S1130EE0901F4B015C0129A13AA14BA15CA1CA014D
S1130EF0B9010E94911F9B01AC01C501B4010E947C
S1130F00901F4B015C01A1962CAD3DAD4EAD5FAD84
S1130F10A1976D857E858F8598890E9416229B01F5
S1130F20AC01C501B4010E94901F6D877E878F8735
S1130F30988B2D893E894F89588DC701B6010E942F
S1130F40162269A37AA38BA39CA329A53AA54BA532
S1130F505CA5C701B6010E94162269AB7AAB8BABC4
S1130F609CAB2DA93EA94FA958ADA5966CAD7DADFE
S1130F708EAD9FADA5970E9416226B017C0125962C
S1130F802CAD3DAD4EAD5FAD25976DA57EA58FA56E
S1130F9098A90E9416229B01AC01C701B6010E94C8
S1130FA0911F6B017C0120E030E040E850E4C30174
S1130FB0B2010E9416222D853E854F8558890E94D4
S1130FC016229B01AC01C701B6010E94901F6B0160
S1130FD07C0129A13AA14BA15CA16DA17EA18FA1A5
S1130FE098A50E9416229B01AC01C701B6010E947C
S1130FF0911F6B017C0129A93AA94BA95CA96989B4
S11310007A898B899C890E94911F9B01AC016D8117
S11310107E818F8198850E9416229B01AC01C701B5
S1131020B6010E94911F6B017C012D893E894F8975
S1131030588D69817A818B819C810E9416224B0193
S11310405C01A301920165966CAD7DAD8EAD9FAD43
S113105065970E9416229B01AC01C501B4010E9450
S1131060901F9B01AC0169857A858B859C850E94C4
S113107016229B01AC01C701B6010E94911F698B26
S11310807A8B8B8B9C8B29813A814B815C81CA0141
S1131090B9010E94911F4B015C01B7FAB094B7F8F3
S11310A0B094A301920169817A818B819C810E9411
S11310B0162269AF7AAF8BAF9CAF2DA53EA54FA585
S11310C058A950586DA97EA98FA998AD0E941622DF
S11310D06B017C0125962CAD3DAD4EAD5FAD2597E2
S11310E0A5966CAD7DAD8EAD9FADA5970E941622E1
S11310F09B01AC01C701B6010E94911F6B017C01E9
S113110020E030E040E850E4698D7A8D8B8D9C8D31
S11311100E9416229B01AC016D857E858F8598897E
S11311200E9416229B01AC01C701B6010E94901FC8
S11311306B017C01298D3A8D4B8D5C8DC501B40109
S11311400E94162229A93AA94BA95CA90E94901FC2
S11311509B01AC016DA17EA18FA198A50E941622CE
S11311609B01AC01C701B6010E94911F6B017C0178
S113117029AD3AAD4BAD5CAD69A17AA18BA19CA11F
S11311800E94911F9B01AC016D817E818F819885A6
S11311900E9416229B01AC01C701B6010E94911F57
S11311A06B017C0129A53AA54BA55CA569817A81CF
S11311B08B819C810E9416226D877E878F87988BF6
S11311C0298D3A8D4B8D5C8D65966CAD7DAD8EAD64
S11311D09FAD65970E9416229B01AC016D857E85AB
S11311E08F8598890E94901F9B01AC0169857A853F
S11311F08B859C850E9416229B01AC01C701B60118
S11312000E94911F6D877E878F87988B2DA93EA999
S11312104FA958AD2D966CAD7DAD8EAD9FAD2D977C
S11312200E9416226B017C0125962CAD3DAD4EAD7E
S11312305FAD259761966CAD7DAD8EAD9FAD619729
S11312400E9416229B01AC01C701B6010E94911FA6
S11312506B017C01A50194016D897E898F89988D2C
S11312600E9416229B01AC01AD966CAD7DAD8EAD96
S11312709FADAD970E94911F9B01AC016DA17EA112
S11312808FA198A50E9416229B01AC01C701B6014B
S11312900E94911F6B017C0121962CAD3DAD4EAD9A
S11312A05FAD219769A57AA58BA59CA50E941622FE
S11312B09B01AC0169966CAD7DAD8EAD9FAD699718
S11312C00E94911F9B01AC016D817E818F81988565
S11312D00E9416229B01AC01C701B6010E94911F16
S11312E06B017C0129AD3AAD4BAD5CAD69857A8566
S11312F08B859C850E9416229B01AC01C701B60117
S11313000E94911F69837A838B839C832D8D3E8DEC
S11313104F8D58A1CA01B9010E9416224B015C01EC
S113132029893A894B895C89CA01B9010E9416222C
S11313306D837E838F8398879B01AC01C501B401C3
S11313400E94911F6B017C012D853E854F85588934
S1131350CA01B9010E94162269877A878B879C8704
S11313609B01AC01C701B6010E94911F69A37AA336
S11313708BA39CA329813A814B815C81CA01B90169
S11313800E9416226B017C012D813E814F8158857C
S1131390C501B4010E94911F4B015C0129853A8566
S11313A04B855C85C501B4010E94911F4B015C0112
S11313B0A7019601C501B4010E94911F0E94D92280
S11313C09B01AC0160E070E080E89FE30E948F2005
S11313D069877A878B879C878091640590916505DE
S11313E0A0916605B09167058D839E83AF83B8870E
S11313F08090440590904505A0904605B09047051F
S1131400C301B201905829962CAD3DAD4EAD5FADF0
S113141029970E9416226B017C01C158DF4F288155
S113142039814A815B81CF57D040698D7A8D8B8D0C
S11314309C8D0E9416229B01AC01C701B6010E943B
S1131440901F6B017C01CD57DF4F288139814A8180
S11314505B81C358D0406D897E898F89988D0E94A5
S113146016229B01AC01C701B6010E94901F20E027
S113147030E040E05FE30E9416226B017C01298585
S11314803A854B855C856D8D7E8D8F8D98A10E94EC
S113149016229B01AC016D817E818F8198850E940B
S11314A016229B01AC01C701B6010E94901FA50141
S11314B094010E94162229A53AA54BA55CA50E9479
S11314C0911F6D8F7E8F8F8F98A329962CAD3DAD84
S11314D04EAD5FAD299769A57AA58BA59CA50E9401
S11314E016226B017C01CD57DF4F288139814A8157
S11314F05B81C358D040698D7A8D8B8D9C8D0E9401
S113150016229B01AC01C701B6010E94911F6B0119
S11315107C01C158DF4F288139814A815B81CF57D3
S1131520D0406D897E898F89988D0E9416229B01F7
S1131530AC01C701B6010E94901F20E030E040E0FA
S11315405FE30E9416226B017C0129853A854B8555
S11315505C8569897A898B899C890E9416222D81F0
S11315603E814F8158850E9416229B01AC01C70120
S1131570B6010E94901FA50194010E941622A301A6
S113158092010E94911F698B7A8B8B8B9C8BC15823
S1131590DF4F288139814A815B81CF57D04069A5CB
S11315A07AA58BA59CA50E9416226B017C01CD57C0
S11315B0DF4F288139814A815B81C358D040C30100
S11315C0B2010E9416229B01AC01C701B6010E9420
S11315D0901F6B017C0129962CAD3DAD4EAD5FADE6
S11315E029976D897E898F89988D0E9416229B0187
S11315F0AC01C701B6010E94911F20E030E040E039
S11316005FE30E9416226B017C0129853A854B8594
S11316105C856D857E858F8598890E9416222D8133
S11316203E814F8158850E9416229B01AC01C7015F
S1131630B6010E94901FA50194010E941622298DD3
S11316403A8D4B8D5C8D0E94911F6D877E878F87AD
S1131650988BCD57DF4F288139814A815B81C358EC
S1131660D04069A57AA58BA59CA50E9416226B0182
S11316707C01C158DF4F288139814A815B81CF5772
S1131680D040C301B2010E9416229B01AC01C701E4
S1131690B6010E94911F6B017C0129962CAD3DADD2
S11316A04EAD5FAD2997698D7A8D8B8D9C8D0E948F
S11316B016229B01AC01C701B6010E94901F20E0D5
S11316C030E040E05FE30E9416226B017C01298533
S11316D03A854B855C8569817A818B819C810E94E6
S11316E016222D813E814F8158850E9416229B012E
S11316F0AC01C701B6010E94901FA50194010E948C
S113170016222D893E894F89588D0E94911F6B01A5
S11317107C012D8D3E8D4F8D58A1CA01B9010E94C7
S113172016224B015C0129893A894B895C89CA01DB
S1131730B9010E9416226D8B7E8B8F8B988F9B0133
S1131740AC01C501B4010E94911F2B013C012D8500
S11317503E854F855889CA01B9010E941622698FB6
S11317607A8F8B8F9C8F9B01AC01C301B2010E94C5
S1131770911F69A77AA78BA79CA7A7019601C70108
S1131780B6010E9416222B013C012D893E894F8906
S1131790588DC501B4010E94911F4B015C01298D34
S11317A03A8D4B8D5C8DC501B4010E94911F4B0194
S11317B05C01A3019201C501B4010E94911F0E9422
S11317C0D9229B01AC0160E070E080E89FE30E94B5
S11317D08F204B015C0100E011E09B01AC016D8D99
S11317E07E8D8F8D98A10E941622D8016D937D93D2
S11317F08D939C931397A501940169897A898B89A8
S11318009C890E941622F8016483758386839783DA
S1131810A50194016D857E858F8598890E94162285
S1131820D80118966D937D938D939C931B97A50176
S11318309401C701B6010E941622F80164877587D6
S113184086879787C459DF4F0FB6F894DEBF0FBE63
S1131850CDBFDF91CF911F910F91FF90EF90DF905B
S1131860CF90BF90AF909F908F907F906F905F903C
S11318704F90089527ED33EB4DE55FE36091100140
S11318807091110180911201909113010E9416220E
S1131890609364057093650580936605909367056E
S11318A027ED33EB4DE55FE36091680570916905C1
S11318B080916A0590916B050E94162260936005E1
S11318C07093610580936205909363050895CF93A7
S11318D0DF93D62FC42F682F83E896E00E9428292F
S11318E06D2F83E896E00E94DC286C2F83E896E055
S11318F00E94DC2883E896E00E94B229DF91CF9110
S1131900089544E066E280E60E94670C0895CF9350
S1131910DF93C82FD62F682F83E896E00E942829EA
S11319206D2F83E896E00E94DC2883E896E00E940D
S1131930B22941E06C2F83E896E00E94AE2983E847
S113194096E00E948828DF91CF91089540E06BE6ED
S113195088E60E94670C64E670E080E090E00E94F4
S1131960362A41E06BE688E60E94670C68EC70E07A
S113197080E090E00E94362A43E06AE188E60E9413
S1131980670C44E069E188E60E94670C6BE188E635
S11319900E94870C847E4091E505440F440F440F58
S11319A0482B6BE188E60E94670C6CE188E60E9494
S11319B0870C877E4091E405440F440F440F482B65
S11319C06CE188E60E94670C6DE188E60E94870C52
S11319D0807F482F43606DE188E60E94670C42E2F5
S11319E067E388E60E94670C41E068E388E60E94AA
S11319F0670C64E670E080E090E00E94362A089567
S1131A0066E280E60E94870C482F4E7F66E280E6FD
S1131A100E94670C089566E280E60E94870C482FB6
S1131A20416066E280E60E94670C08950E94000D02
S1131A3047E063E180E60E94670C0E940B0D089565
S1131A400E940B0D66E280E60E94870C482F4D7FB2
S1131A5066E280E60E94670C66E280E60E94870CDC
S1131A60482F426066E280E60E94670C0895CF9397
S1131A70DF93D82F0E94000D66E280E60E94870C57
S1131A80C82F482F477C66E280E60E94670CD83056
S1131A9048F44D2F440F440F440F4C2B66E280E66C
S1131AA00E94670C0E940B0DDF91CF91089561E0B5
S1131AB080E60E94870C62E080E60E94870C63E067
S1131AC080E60E94870C64E080E60E94870C65E053
S1131AD080E60E94870C6DE080E60E94870C0E94DD
S1131AE0000D40E869E280E60E94670C40E86AE283
S1131AF080E60E94670C42E268E280E60E94670C7E
S1131B0040E06FE080E60E94670C0E940B0D089590
S1131B100E94000D66E280E60E94870C482F406810
S1131B2066E280E60E94670C0E940B0D08950E94F5
S1131B30000D66E280E60E94870C482F4F7766E22C
S1131B4080E60E94670C0E940B0D0895EF92FF92AD
S1131B500F931F93CF93DF93C82F162FD42F7901A0
S1131B60682F83E896E00E942829612F83E896E095
S1131B700E94DC2883E896E00E94B2294D2F6C2F46
S1131B8083E896E00E94AE29C0E00CC0D1E0DC0FEF
S1131B9087010C0F111D83E896E00E948828F80144
S1131BA08083CD2F83E896E00E948028892B71F7EB
S1131BB0DF91CF911F910F91FF90EF9008950F93B4
S1131BC01F93CF93DF9300D000D000D0CDB7DEB702
S1131BD08C019E012F5F3F4F46E06BE388E60E9435
S1131BE0A60D898190E0982F88272A81822BF801FD
S1131BF0918380832B8130E0322F22278C81282B04
S1131C00338322832D8130E0322F22278E81282BAB
S1131C103583248326960FB6F894DEBF0FBECDBF5E
S1131C20DF91CF911F910F9108950F931F93CF933D
S1131C30DF9300D000D000D0CDB7DEB78C019E0179
S1131C402F5F3F4F46E063E488E60E94A60D89813A
S1131C5090E0982F88272A81822BF8019183808332
S1131C602B8130E0322F22278C81282B338322834F
S1131C702D8130E0322F22278E81282B3583248337
S1131C8026960FB6F894DEBF0FBECDBFDF91CF917D
S1131C901F910F9108950F931F93CF93DF93CDB7A7
S1131CA0DEB727970FB6F894DEBF0FBECDBF8C0109
S1131CB062E08CE00E94870C80FF24C09E012F5FAD
S1131CC03F4F47E063E08CE00E94A60D8F8183FDC7
S1131CD019C08A8190E0982F88272981822BF801E6
S1131CE0918380832C8130E0322F22278B81282B13
S1131CF0338322832E8130E0322F22278D81282BBB
S1131D003583248327960FB6F894DEBF0FBECDBF6C
S1131D10DF91CF911F910F910895CF93DF9300D05E
S1131D20CDB7DEB79E012F5F3F4F42E061E488E606
S1131D300E94A60D898190E0982F88272A81822B02
S1131D400F900F90DF91CF9108950F931F93CF932E
S1131D50DF9300D01F92CDB7DEB78C0140E06AE07C
S1131D608CE00E94670C6AE070E080E090E00E94E2
S1131D70362A4FE06AE08CE00E94670C6AE070E06B
S1131D8080E090E00E94362A9E012F5F3F4F43E09F
S1131D9060E18CE00E94A60D698170E060587109D1
S1131DA0072E000C880B990B0E94032120E030E0E1
S1131DB040E85BE30E94162220E030E040E85FE365
S1131DC00E94911FF80160837183828393836A81E7
S1131DD070E060587109072E000C880B990B0E9463
S1131DE0032120E030E040E85BE30E94162220E07B
S1131DF030E040E85FE30E94911FF801648375833B
S1131E00868397836B8170E060587109072E000CFC
S1131E10880B990B0E94032120E030E040E85BE34B
S1131E200E94162220E030E040E85FE30E94911F08
S1131E30F801608771878287938740E06AE08CE0CD
S1131E400E94670C6AE070E080E090E00E94362A0D
S1131E5080911E01F0E18F9FC001112440911D016A
S1131E60482B6AE08CE00E94670C6AE070E080E036
S1131E7090E00E94362A0F900F900F90DF91CF913F
S1131E801F910F9108952F923F924F925F926F92FC
S1131E907F928F929F92AF92BF92CF92DF92EF92F6
S1131EA0FF920F931F93CF93DF93CDB7DEB7A8971D
S1131EB00FB6F894DEBF0FBECDBF9E8F8D8F78A373
S1131EC06F8F40E86BE688E60E94670C64E670E07A
S1131ED080E090E00E94362A41E06BE688E60E94AA
S1131EE0670C40E06CE688E60E94670C68EC70E0E2
S1131EF080E090E00E94362A40E068E388E60E9491
S1131F00670C40E063E288E60E94670C40E06BE601
S1131F1088E60E94670C40E064E288E60E94670C51
S1131F2040E06AE688E60E94670C4CE06AE688E6D0
S1131F300E94670C6FE070E080E090E00E94362A17
S1131F4041E06AE188E60E94670C40E069E188E6C6
S1131F500E94670C40E06BE188E60E94670C40E059
S1131F606CE188E60E94670C40E46AE688E60E9419
S1131F70670C48E763E288E60E94670C68E270E059
S1131F8080E090E00E94362A40E063E288E60E9406
S1131F90670C9E012F5F3F4F42E062E788E60E9494
S1131FA0A60D298130E0322F22278A81282BABEA23
S1131FB0BAEA0E94072E1C0136942794369427947B
S1131FC0369427942114310409F492C01D861E8688
S1131FD01F86188A198A1A8A1B8A1C8A1D8A1E8AD5
S1131FE01F8A188E412C512C3201812C912C5401C2
S1131FF0C12CD12C760100E010E09E012F5F3F4FF1
S11320004CE064E788E60E94A60D898190E0982F51
S113201088272A81822B092E000CAA0BBB0B480EA1
S1132020591E6A1E7B1E8B8190E0982F88272C8175
S1132030822B092E000CAA0BBB0B880E991EAA1E1C
S1132040BB1E8D8190E0982F88272E81822B092E2C
S1132050000CAA0BBB0BC80ED91EEA1EFB1E8F81F7
S113206090E0982F88272885822B092E000CAA0B34
S1132070BB0B2D853E854F855889280F391F4A1F74
S11320805B1F2D873E874F87588B898590E0982F5B
S113209088272A85822B092E000CAA0BBB0B2989C1
S11320A03A894B895C89280F391F4A1F5B1F298B8A
S11320B03A8B4B8B5C8B8B8590E0982F88272C85F3
S11320C0822B092E000CAA0BBB0B2D893E894F894C
S11320D0588D280F391F4A1F5B1F2D8B3E8B4F8B4A
S11320E0588F0F5F1F4F0215130509F086CF15C0D7
S11320F01D861E861F86188A198A1A8A1B8A1C8ABC
S11321001D8A1E8A1F8A188E412C512C3201812C63
S1132110912C5401C12CD12C7601C101A0E0B0E076
S1132120898F9A8FAB8FBC8FC301B201298D3A8DF1
S11321304B8D5C8D0E94E82D29A33AA34BA35CA38D
S1132140C501B401298D3A8D4B8D5C8D0E94E82D1B
S11321502DA33EA34FA358A7C701B601298D3A8DDD
S11321604B8D5C8D0E94E82D69017A016D857E8519
S11321708F859889298D3A8D4B8D5C8D0E94E82D31
S11321802D873E874F87588B69897A898B899C89EB
S1132190298D3A8D4B8D5C8D0E94E82D49015A01A1
S11321A06D897E898F89988D298D3A8D4B8D5C8DB3
S11321B00E94E82D29013A011C141D041E041F0469
S11321C02CF490E4D91AE108F10804C0A0E4DA0E72
S11321D0E11CF11C8D859E85AF85B889B095A095CD
S11321E0909581959F4FAF4FBF4F1AF40396A11D51
S11321F0B11DB595A79597958795B595A79597958D
S11322008795492F5A2F6B2F772767FD7A95498336
S11322108A8388279927DC0188199909AA09BB09A7
S11322201AF40396A11DB11DB595A79597958795A9
S1132230B595A795979587959B838C838827992730
S1132240DC0184199509A609B7091AF40396A11D9E
S1132250B11DB595A79597958795B595A79597952C
S113226087959D838E8363E188E60E94670C4A818B
S113227064E188E60E94670C4B8165E188E60E9470
S1132280670C4C8166E188E60E94670C4D8167E12A
S113229088E60E94670C4E8168E188E60E94670C1C
S11322A06D857E858F8598890E94032120E030E02A
S11322B043E053E40E948F20ED8DFE8D6083718393
S11322C082839383C501B4010E94032120E030E09E
S11322D043E053E40E948F20AD8DBE8D14966D9320
S11322E07D938D939C931797C301B2010E940321A0
S11322F020E030E043E053E40E948F20ED8DFE8D1A
S113230060877187828793879E012F5F3F4F42E0EA
S113231067E788E60E94A60D9E012F5F3F4F42E0CB
S11323206AE788E60E94A60D9E012F5F3F4F42E0B8
S11323306DE788E60E94A60D69A17AA18BA19CA1F4
S11323400E94032120E030E040E858E30E94162276
S1132350AF8DB8A16D937D938D939C9313976DA1CD
S11323607EA18FA198A50E94032120E030E040E8DF
S113237058E30E941622EF8DF8A164837583868347
S11323809783C701B6010E94032120E030E040E8B2
S113239058E30E941622AF8DB8A118966D937D93D1
S11323A08D939C931B97A8960FB6F894DEBF0FBE2F
S11323B0CDBFDF91CF911F910F91FF90EF90DF90F0
S11323C0CF90BF90AF909F908F907F906F905F90D1
S11323D04F903F902F9008952F923F924F925F928B
S11323E06F927F928F929F92AF92BF92CF92DF9221
S11323F0EF92FF920F931F93CF93DF93CDB7DEB786
S1132400CE54D1090FB6F894DEBF0FBECDBF882ECF
S1132410992EFE01E75BFF4F86E0DF011D928A954E
S1132420E9F78CE03C97DF01982F1D929A95E9F724
S11324303C97DF01982F1D929A95E9F73C97DF01AD
S1132440982F1D929A95E9F73C97DF011D928A9582
S1132450E9F740E069E188E60E94670C42E06AE13E
S113246088E60E94670C40E06BE188E60E94670CF6
S113247042E06DE188E60E94670C40E06CE188E68A
S11324800E94670C08EC10E09E01275B3F4F46E07A
S11324906BE388E60E94A60D2A968FAD2A9790E0FA
S11324A0982F88272B962FAD2B97822B092E000C63
S11324B0AA0BBB0B49A95AA96BA97CA9840F951F28
S11324C0A61FB71F89AB9AABABABBCAB2C968FAD39
S11324D02C9790E0982F88272D962FAD2D97822B3F
S11324E0092E000CAA0BBB0B4DA95EA96FA978ADF0
S11324F0840F951FA61FB71F8DAB9EABAFABB8AFB4
S11325002E968FAD2E9790E0982F88272F962FAD7B
S11325102F97822B092E000CAA0BBB0B49AD5AAD89
S11325206BAD7CAD840F951FA61FB71F89AF9AAF03
S1132530ABAFBCAF9E01275B3F4F46E063E488E648
S11325400E94A60D2A968FAD2A9790E0982F88278F
S11325502B962FAD2B97822B092E000CAA0BBB0BAD
S113256021964CAD5DAD6EAD7FAD2197840F951F67
S1132570A61FB71F21968CAF9DAFAEAFBFAF2197FB
S11325802C968FAD2C9790E0982F88272D962FAD01
S11325902D97822B092E000CAA0BBB0B25964CAD54
S11325A05DAD6EAD7FAD2597840F951FA61FB71F38
S11325B025968CAF9DAFAEAFBFAF25972E968FAD4E
S11325C02E9790E0982F88272F962FAD2F97822B48
S11325D0092E000CAA0BBB0B29964CAD5DAD6EAD5C
S11325E07FAD2997840F951FA61FB71F29968CAF1F
S11325F09DAFAEAFBFAF29970150110909F044CF89
S11326003E01B1E36B0E711C6E01EDE3CE0ED11CE5
S11326105601760183010F2EF8EC2F2E312C412C1C
S1132620512CF02DD8016D917D918D919C91A20139
S113263091010E94E82DF801219331934193519324
S11326408F01D7016D917D918D919C91A201910192
S11326500E94E82DF70121933193419351937F0117
S11326600A151B05F9F640EE6CE188E60E94670C3A
S113267040EE6BE188E60E94670C69E170E080E05F
S113268090E00E94362A08EC10E09E01275B3F4F41
S113269046E06BE388E60E94A60D2A968FAD2A9742
S11326A090E0982F88272B962FAD2B97822B092EFD
S11326B0000CAA0BBB0B4DA15EA16FA178A5840FE2
S11326C0951FA61FB71F8DA39EA3AFA3B8A72C96D3
S11326D08FAD2C9790E0982F88272D962FAD2D97AE
S11326E0822B092E000CAA0BBB0B49A55AA56BA57E
S11326F07CA5840F951FA61FB71F89A79AA7ABA710
S1132700BCA72E968FAD2E9790E0982F88272F96F2
S11327102FAD2F97822B092E000CAA0BBB0B4DA5B6
S11327205EA56FA578A9840F951FA61FB71F8DA757
S11327309EA7AFA7B8AB9E01275B3F4F46E063E47B
S113274088E60E94A60D2A968FAD2A9790E0982FCE
S113275088272B962FAD2B97822B092E000CAA0BC2
S1132760BB0B498D5A8D6B8D7C8D840F951FA61FD5
S1132770B71F898F9A8FAB8FBC8F2C968FAD2C97F8
S113278090E0982F88272D962FAD2D97822B092E18
S1132790000CAA0BBB0B4D8D5E8D6F8D78A1840F41
S11327A0951FA61FB71F8D8F9E8FAF8FB8A32E9630
S11327B08FAD2E9790E0982F88272F962FAD2F97C7
S11327C0822B092E000CAA0BBB0B49A15AA16BA1A9
S11327D07CA1840F951FA61FB71F89A39AA3ABA33F
S11327E0BCA30150110909F050CF5E01F5E2AF0E10
S11327F0B11C1E0189E1280E311C2E0191E3490E02
S1132800511C71018501D8016D917D918D919C912F
S113281028EC30E040E050E00E94E82DF8012193DC
S11328203193419351938F01D7016D917D918D9196
S11328309C9128EC30E040E050E00E94E82DF70144
S113284021933193419351937F0104151505D9F6D2
S113285040E06CE188E60E94670C40E06BE188E6AA
S11328600E94670C69E170E080E090E00E94362AE3
S11328706DE088E60E94870C482E6EE088E60E9490
S1132880870C582E6FE088E60E94870CE82E60E0E3
S113289088E60E94870CF82E61E088E60E94870C87
S11328A0082F62E088E60E94870C182F642D70E0E0
S11328B080E090E00E94012120E030E040E85FE306
S11328C00E94901F9B01AC016EEA77E481E89FE3CC
S11328D00E94832220E030EC43E255E40E94162259
S11328E069837A838B839C83652D70E080E090E01C
S11328F00E94012120E030E040E85FE30E94901F45
S11329009B01AC016EEA77E481E89FE30E94832295
S113291020E030EC43E255E40E9416226D837E836E
S11329208F8398876E2D70E080E090E00E940121F3
S113293020E030E040E85FE30E94901F9B01AC017F
S11329406EEA77E481E89FE30E94832220E030EC82
S113295043E255E40E94162269877A878B879C8715
S11329606F2D70E080E090E00E94012120E030E0D3
S113297040E85FE30E94901F9B01AC016EEA77E49C
S113298081E89FE30E94832220E030EC43E255E497
S11329900E9416226D877E878F87988B602F70E048
S11329A080E090E00E94012120E030E040E85FE315
S11329B00E94901F9B01AC016EEA77E481E89FE3DB
S11329C00E94832220E030EC43E255E40E94162268
S11329D0698B7A8B8B8B9C8B612F70E080E090E00D
S11329E00E94012120E030E040E85FE30E94901F54
S11329F09B01AC016EEA77E481E89FE30E948322A5
S1132A0020E030EC43E255E40E9416226D8B7E8B6D
S1132A108F8B988FCE0101967C01082D192D812C66
S1132A20912CF50181919191A191B1915F01F301F3
S1132A3021913191419151913F01BC01CD01621B22
S1132A40730B840B950B0E94032120E030E048ECCB
S1132A5052E40E941622D7012D913D914D915C9133
S1132A600E948F2020E030E048EC52E40E94901F46
S1132A70F8016083718382839383F1018191919141
S1132A80A191B1911F01F60121913191419151918F
S1132A906F01BC01CD01621B730B840B950B0E946B
S1132AA0032120E030E048EC52E40E941622D701D2
S1132AB01C962D913D914D915C911F970E948F2002
S1132AC020E030E048EC52E40E94901FF801648753
S1132AD0758786879787FFEF8F1A9F0A84E0E80E31
S1132AE0F11C0C5F1F4F93E08916910409F099CFF4
S1132AF0C25BDF4F0FB6F894DEBF0FBECDBFDF91D0
S1132B00CF911F910F91FF90EF90DF90CF90BF90E6
S1132B10AF909F908F907F906F905F904F903F9079
S1132B202F900895CF93DF9383E896E00E941D29A8
S1132B3068EE73E080E090E00E94362A26E040E0F0
S1132B4052EC61E070E086EE95E00E94012560E0C1
S1132B5080911A010E94D62A60E0809118010E9497
S1132B60D62A60E0809116010E94D62AC4E1D1E001
S1132B7061E088810E94D62A61E088810E94122B3C
S1132B806FE171E086EE95E00E94682665E788E6CD
S1132B900E94870CC82F6EE371E086EE95E00E94D8
S1132BA03E2667E471E086EE95E00E943E2640E111
S1132BB050E06C2F86EE95E00E9443276DE471E0AF
S1132BC086EE95E00E943E2640E150E063E770E027
S1132BD086EE95E00E941D27C33709F025C16BE5F9
S1132BE071E086EE95E00E9468268CE695E00E94EE
S1132BF0EC1160E771E086EE95E00E943E26CCE69B
S1132C00D5E0488159816A817B8121E030E086EEFC
S1132C1095E00E946B286EE971E086EE95E00E94D3
S1132C20682661EB71E086EE95E00E943E264C81B9
S1132C305D816E817F8121E030E086EE95E00E9427
S1132C406B286EE971E086EE95E00E9468266FEDD0
S1132C5071E086EE95E00E943E26488559856A8596
S1132C607B8521E030E086EE95E00E946B286EE9DA
S1132C7071E086EE95E00E9468266DE072E086EED3
S1132C8095E00E943E264C855D856E857F8521E01A
S1132C9030E086EE95E00E946B286EE971E086EEE6
S1132CA095E00E94682667E372E086EE95E00E9454
S1132CB03E26488959896A897B8921E030E086EE7D
S1132CC095E00E946B286EE971E086EE95E00E9423
S1132CD0682661E672E086EE95E00E943E264C8905
S1132CE05D896E897F8921E030E086EE95E00E945F
S1132CF06B286EE971E086EE95E00E94682668E82C
S1132D0073E180E090E00E94362A6EE875E08AE97B
S1132D1095E00E94430F0E94A60C6BE872E086EED9
S1132D2095E00E94682660E08CE00E94870CC82F22
S1132D3068EB72E086EE95E00E943E2667E471E05F
S1132D4086EE95E00E943E2640E150E06C2F86EE30
S1132D5095E00E9443276DE471E086EE95E00E94C1
S1132D603E2640E150E068E470E086EE95E00E9483
S1132D701D2782EB95E00E94A50E60EC72E086EEC2
S1132D8095E00E9468266CEE72E086EE95E00E9463
S1132D903E26C2EBD5E0488159816A817B8122E0DD
S1132DA030E086EE95E00E946E2861E173E086EEE5
S1132DB095E00E943E264C815D816E817F8122E0F8
S1132DC030E086EE95E00E946E2866E373E086EEBE
S1132DD095E00E943E26488559856A857B8522E0D8
S1132DE030E086EE95E00E946E286CE080E60E945A
S1132DF0870CC82F6BE573E086EE95E00E943E26B3
S1132E0040E150E06C2F86EE95E00E944B276BE783
S1132E1073E086EE95E00E94682686EE95E00E94B7
S1132E205C26C43CA9F50EC06AE873E086EE95E022
S1132E300E943E2640E150E06C2F86EE95E00E9411
S1132E404B27FFCF0E94810C0E94570D80911C01DB
S1132E500E94370D6BEA73E086EE95E00E943E26F1
S1132E6061E070E000901C0102C0660F771F0A94B5
S1132E70E2F74AE050E086EE95E00E941D270E94AA
S1132E80160D62EC73E086EE95E00E9468260DC094
S1132E9063EE73E086EE95E00E943E2640E150E04A
S1132EA06C2F86EE95E00E944B27DF91CF91089519
S1132EB08F929F92AF92BF92CF92DF92EF92FF9246
S1132EC00F931F93CF93DF9300D000D01F92CDB701
S1132ED0DEB760E080E60E94870C83FFFACF0E9491
S1132EE0200D9E012F5F3F4F45E061E080E60E9488
S1132EF0A60D29816A811B81FC800D8122230CF09F
S1132F0043C0862F90E0A0E0B0E0BA2FA92F982FFD
S1132F108827A22B812BB095A095909581959F4FE2
S1132F20AF4FBF4F692F7A2F8B2F992787FD9A9523
S1132F300E9403214B015C01812F90E095958795B8
S1132F40959587959595879595958795BC01990F46
S1132F50880B990B0E94032120E030E040E85DE3F8
S1132F600E9416229B01AC01C501B4010E94911F6D
S1132F70DC01CB01B0588093D4059093D505A09380
S1132F80D605B093D7052EC070E0722B072E000C27
S1132F90880B990B0E9403214B015C01812F90E067
S1132FA09595879595958795959587959595879505
S1132FB0BC01990F880B990B0E94032120E030E09B
S1132FC040E85DE30E9416229B01AC01C501B401F7
S1132FD00E94911F6093D4057093D5058093D60504
S1132FE09093D705FF20D4F510E0B8017F2971959F
S1132FF061957109CB01770FAA0BBB0B692F7A2F4F
S11330008B2F992787FD9A950E9403216B017C01E0
S11330101595079515950795159507951595079594
S1133020B801110F880B990B0E94032120E030E0B6
S113303040E85DE30E9416229B01AC01C701B60182
S11330400E94911FDC01CB01B058809388059093B6
S11330508905A0938A05B0938B052BC06F2D70E072
S113306080E090E00E9401216B017C0110E0159545
S11330700795159507951595079515950795B80125
S1133080110F880B990B0E94032120E030E040E8E7
S11330905DE30E9416229B01AC01C701B6010E94A8
S11330A0911F609388057093890580938A05909396
S11330B08B050F900F900F900F900F90DF91CF9191
S11330C01F910F91FF90EF90DF90CF90BF90AF9042
S11330D09F908F9008958F929F92AF92BF92EF929C
S11330E0FF920F931F93CF93DF9300D000D01F92D2
S11330F0CDB7DEB760E080E60E94870C83FFFACF8D
S11331000E94200D9E012F5F3F4F45E061E080E665
S11331100E94A60D0B81EC80FD8029816A81862F97
S113312090E0A0E0B0E0BA2FA92F982F8827A22B17
S1133130802B007310E01595079515950795159547
S1133140079515950795BC01CD01689415F89595DB
S11331508795779567951694D1F70E9403214B01C3
S11331605C01B80180E090E00E94012120E030E0A1
S113317040E85EE30E9416229B01AC01C501B40144
S11331800E94911F6093D0057093D1058093D2055E
S11331909093D305EE20F4F58F2D90E0A0E0B0E0FD
S11331A09E29B095A095909581959F4FAF4FBF4FA5
S11331B0692F7A2F8B2F992787FD9A950E940321D7
S11331C04B015C018F2D90E095958795959587959A
S11331D09595879595958795BC01990F880B990BC3
S11331E00E94032120E030E040E85DE30E941622C3
S11331F09B01AC01C501B4010E94911FDC01CB010C
S1133200B0588093880590938905A0938A05B0935C
S11332108B052CC06E2D70E080E090E00E940121AF
S11332204B015C018F2D90E0959587959595879539
S11332309595879595958795BC01990F880B990B62
S11332400E94032120E030E040E85DE30E94162262
S11332509B01AC01C501B4010E94911F60938805D4
S11332607093890580938A0590938B050F900F9036
S11332700F900F900F90DF91CF911F910F91FF90BE
S1133280EF90BF90AF909F908F9008954F925F9270
S11332906F927F928F929F92AF92BF92CF92DF9262
S11332A0EF92FF920F931F93CF93DF93CDB7DEB7C7
S11332B06C970FB6F894DEBF0FBECDBF6AE388E605
S11332C00E94870C80FF65C18AEC95E00E94DF0DA7
S11332D00E946301C090E005D090E105E090E20512
S11332E0F090E3050AEC15E0D8016D917C91072E6E
S11332F0000C880B990B0E940321A70196010E94E0
S113330016220F2EFEE8AF2EF5E0BF2EF02DF501AC
S113331020813181428153810E94901F6093340542
S1133320709335058093360590933705D80112962E
S11333306D917C911397072E000C880B990B0E94BA
S113334003219B01AC01C701B6010E941622F501BD
S113335024813581468157810E94901F60933005F6
S1133360709331058093320590933305D8011496F8
S11333706D917C911597072E000C880B990B0E9478
S113338003219B01AC01C701B6010E941622F5017D
S113339020853185428553850E94901F60932C05BA
S11333A070932D0580932E0590932F0584EC95E062
S11333B00E94150E0E942501C090DC05D090DD0509
S11333C0E090DE05F090DF0504EC15E0D8016D9186
S11333D07C91072E000C880B990B0E940321A701F6
S11333E096010E9416226093280570932905809304
S11333F02A0590932B05F80162817381072E000C36
S1133400880B990B0E9403219B01AC01C701B601F3
S11334100E94162260932405709325058093260547
S113342090932705D80114966D917C911597072EDA
S1133430000C880B990B0E9403219B01AC01C7016E
S1133440B6010E9416226093200570932105809393
S11334502205909323058EEB95E00E944B0E0E946B
S11334600401E6EAF5E080E090E0ACE5B3E48083B3
S11334709183A283B38380E090E0ABE1B4EC8483D6
S11334809583A683B78380E090E0A0E7B3E48087C8
S11334909187A287B387C090D805D090D905E090D2
S11334A0DA05F090DB050EEB15E0F801608171811F
S11334B0072E000C880B990B0E940321A70196018B
S11334C00E9416220F2EF2EBAF2EF5E0BF2EF02D48
S11334D0D5012D913D914D915C910E94162220E0E1
S11334E030E04CE553E40E94901F60931C057093F8
S11334F01D0580931E0590931F05F8016281738159
S1133500072E000C880B990B0E9403219B01AC0130
S1133510C701B6010E941622D50114962D913D9142
S11335204D915C9117970E94162220E030E04BE108
S113353054E40E94911F60931805709319058093B9
S11335401A0590931B05F80164817581072E000C00
S1133550880B990B0E9403219B01AC01C701B601A2
S11335600E941622D50118962D913D914D915C91A2
S11335701B970E94162220E030E040E753E40E94AB
S1133580901F60931405709315058093160590930E
S113359017050E94112A6B017C0160933805709312
S11335A0390580933A0590933B0580913C059091B1
S11335B03D05A0913E05B0913F05A7019601281B4A
S11335C0390B4A0B5B0BCA01B9010E94012120E0AF
S11335D034E244E759E40E948F209B01AC016093DC
S11335E04405709345058093460590934705C09222
S11335F03C05D0923D05E0923E05F0923F05609176
S113360040057091410580914205909143050E94C7
S1133610911F6093400570934105809342059093F8
S113362043058091540590915505A0915605B0919C
S113363057050196A11DB11D80935405909355051E
S1133640A0935605B09357052BED3FE049E450E4B1
S1133650609128057091290580912A0590912B0588
S11336600E94162220E030E044E353E40E948F20BD
S11336705B016C0180912C0590912D05A0912E0584
S1133680B0912F0589839A83AB83BC834090300526
S113369050903105609032057090330520913405C7
S11336A03091350540913605509137052D833E8381
S11336B04F835887809117058F93809116058F93B8
S11336C0809115058F93809114058F9380911F0528
S11336D08F9380911E058F9380911D058F93809108
S11336E01C058F9380911B058F9380911A058F93EE
S11336F0809119058F93809118058F932BED3FE0EE
S113370049E450E4609120057091210580912205DF
S1133710909123050E94162220E030E044E353E414
S11337200E948F209F938F937F936F932BED3FE0A5
S113373049E450E4609124057091250580912605A3
S1133740909127050E94162220E030E044E353E4E0
S11337500E948F209F938F937F936F93E980FA80C9
S11337600B811C81A30192016D817E818F819885DB
S11337700E94A1010E94052AC0905805D0905905C5
S1133780E0905A05F0905B05DC01CB018C199D0992
S1133790AE09BF0980935C0590935D05A0935E0517
S11337A0B0935F050FB6F894DEBF0FBECDBF853F63
S11337B09140A105B10508F49CC30E94880D0E94A4
S11337C058170E94970D0E946B1866E074E086EE0D
S11337D095E00E943E264091D0055091D10560911C
S11337E0D2057091D30522E030E086EE95E00E9488
S11337F06B2863E174E086EE95E00E94682667E139
S113380074E086EE95E00E943E264091D4055091E6
S1133810D5056091D6057091D70522E030E086EE9B
S113382095E00E946B2864E274E086EE95E00E94C5
S11338303E262FEB3EE04CE95EE36091D4057091A7
S1133840D5058091D6059091D7050E948F20AB01B4
S1133850BC0122E030E086EE95E00E946B2869E22C
S113386074E086EE95E00E9468266DE274E086EED0
S113387095E00E943E26409188055091890560910B
S11338808A0570918B0522E030E086EE95E00E9477
S11338906B286DE374E086EE95E00E943E2620E0FE
S11338A030E040E151E46091880570918905809190
S11338B08A0590918B050E94162220E030E040EAB0
S11338C050E40E948F2020E030E040E052E40E9467
S11338D0911FAB01BC0121E030E086EE95E00E942F
S11338E06B2862E474E086EE95E00E94682665E445
S11338F074E086EE95E00E943E2620E030E04AE740
S113390054E46091340570913505809136059091A9
S113391037050E941622AB01BC0122E030E086EE9E
S113392095E00E946B286BE474E086EE95E00E94BB
S11339303E2620E030E04AE754E46091300570917F
S1133940310580913205909133050E941622AB0116
S1133950BC0122E030E086EE95E00E946B2862E52F
S113396074E086EE95E00E943E2620E030E04AE7CF
S113397054E460912C0570912D0580912E05909151
S11339802F050E941622AB01BC0122E030E086EE36
S113399095E00E946B2869E574E086EE95E00E944C
S11339A068266DE574E086EE95E00E943E2640911F
S11339B028055091290560912A0570912B0522E074
S11339C030E086EE95E00E946B2863E674E086EEB4
S11339D095E00E943E264091240550912505609172
S11339E026057091270522E030E086EE95E00E94DE
S11339F06B286AE674E086EE95E00E943E264091CC
S1133A00200550912105609122057091230522E043
S1133A1030E086EE95E00E946B2861E774E086EE64
S1133A2095E00E94682668E774E086EE95E00E94BF
S1133A303E260EEB15E0D8016D917C9140E150E0FB
S1133A4086EE95E00E9415276EE774E086EE95E019
S1133A500E943E26F8016281738140E150E086EEC7
S1133A6095E00E94152765E874E086EE95E00E94D3
S1133A703E26D80114966D917C91159740E150E053
S1133A8086EE95E00E9415276CE874E086EE95E0DA
S1133A900E94682660E974E086EE95E00E943E2666
S1133AA000E011E0F801408151816281738122E0DC
S1133AB030E086EE95E00E946B2866E974E086EEBD
S1133AC095E00E943E26D80114964D915D916D912A
S1133AD07C91179722E030E086EE95E00E946B28F7
S1133AE06DE974E086EE95E00E943E26F80140857B
S1133AF051856285738522E030E086EE95E00E9470
S1133B006B2864EA74E086EE95E00E943E26D801B4
S1133B101C964D915D916D917C911F9722E030E050
S1133B2086EE95E00E946E280E948D0E90938D057E
S1133B3080938C05BC01990F880B990B0E9403217B
S1133B402CE53FEE46EA53E40E948F2020E030E06B
S1133B5048EA51E40E94911F60938405709385059F
S1133B6080938605909387056BEA74E086EE95E072
S1133B700E943E26409184055091850560918605FA
S1133B807091870521E030E086EE95E00E946B2875
S1133B906BEB74E086EE95E00E946826F8014080A5
S1133BA0518062807380A3019201C301B2010E941B
S1133BB016226D837E838F839887D80114962D9166
S1133BC03D914D915C91179729833A834B835C8394
S1133BD0CA01B9010E941622698B7A8B8B8B9C8B4C
S1133BE0F801C084D184E284F384A7019601C7015B
S1133BF0B6010E9416226D8B7E8B8F8B988FD80115
S1133C001C968D909D90AD90BC901F97A50194013A
S1133C10C501B4010E941622698F7A8F8B8F9C8F05
S1133C2029893A894B895C896D817E818F81988548
S1133C300E94911F2D893E894F89588D0E94901FA3
S1133C40298D3A8D4B8D5C8D0E94901F6D877E87E8
S1133C508F87988BA701960169817A818B819C81DA
S1133C600E94162269877A878B879C87A501940115
S1133C70C301B2010E9416229B01AC0169857A85B9
S1133C808B859C850E94911F9B01AC010E94911F12
S1133C902D853E854F8558890E942B206D877E8710
S1133CA08F87988BA501940169817A818B819C818E
S1133CB00E94162269877A878B879C87A7019601C1
S1133CC0C301B2010E9416229B01AC0169857A8569
S1133CD08B859C850E94901F9B01AC010E94911FC3
S1133CE00E94FD1F69877A878B879C8729893A8977
S1133CF04B895C896D817E818F8198850E94901F9C
S1133D002D893E894F89588D0E94901F9B01AC01DB
S1133D10698D7A8D8B8D9C8D0E94911F6D837E831E
S1133D208F83988729813A814B815C81C301B201D9
S1133D300E9416222B013C01A5019401C701B60182
S1133D400E9416229B01AC01C301B2010E94911F83
S1133D509B01AC010E94911F2D813E814F815885AA
S1133D600E942B206B017C0169857A858B859C855B
S1133D70905820EE3EE245E652E40E9416226093FB
S1133D80500570935105809352059093530520EE8E
S1133D903EE245E652E46D857E858F8598890E94D2
S1133DA016222DEC3CEC4CE551E40E94901F6093EC
S1133DB04C0570934D0580934E0590934F0520EE6E
S1133DC03EE245E652E4C701B6010E941622609322
S1133DD048057093490580934A0590934B0566EC1A
S1133DE074E086EE95E00E943E2640914C05509189
S1133DF04D0560914E0570914F0522E030E086EE4E
S1133E0095E00E946B286FE374E086EE95E00E94D3
S1133E103E26409150055091510560915205709194
S1133E20530522E030E086EE95E00E946B286FE3B4
S1133E3074E086EE95E00E943E264091480550913C
S1133E40490560914A0570914B0522E030E086EE09
S1133E5095E00E946E2869ED74E086EE95E00E947C
S1133E603E266091540570915505809156059091B8
S1133E7057050E9401212091400530914105409150
S1133E804205509143050E948F20AB01BC0122E002
S1133E9030E086EE95E00E946B2861EE74E086EED9
S1133EA095E00E946826809114010E94422B61E0F3
S1133EB0892B09F060E0809114010E94122B0E946A
S1133EC0052A609358057093590580935A05909379
S1133ED05B051092540510925505109256051092E8
S1133EE05705109240051092410510924205109218
S1133EF043056C960FB6F894DEBF0FBECDBFDF91BD
S1133F00CF911F910F91FF90EF90DF90CF90BF90D2
S1133F10AF909F908F907F906F905F904F90089597
S1133F205058BB27AA270E94A81F0C94D4210E9492
S1133F30C62138F00E94CD2120F039F49F3F19F4B6
S1133F4026F40C9488210EF4E095E7FB0C9482216E
S1133F50E92F0E94E52158F3BA1762077307840713
S1133F60950720F079F4A6F50C9407220EF4E09559
S1133F700B2EBA2FA02D0B01B90190010C01CA011F
S1133F80A0011124FF27591B99F0593F50F4503ECA
S1133F9068F11A16F040A22F232F342F4427585FBC
S1133FA0F3CF469537952795A795F0405395C9F7D4
S1133FB07EF41F16BA0B620B730B840BBAF091508C
S1133FC0A1F0FF0FBB1F661F771F881FC2F70EC02B
S1133FD0BA0F621F731F841F48F4879577956795FE
S1133FE0B795F7959E3F08F0B0CF9395880F08F0EA
S1133FF09927EE0F9795879508959F939F77EEE302
S113400089379E0728F4E8E6F0E00E94B2210CC04C
S11340100E943E219058A2EA2AED3FE049EC5FE37A
S11340200E94A81F0E94D4210F9007FC9058089565
S11340300E94C62160F080E891E009F49EEF0E949E
S1134040CD2128F040E851E071F45EEF0CC00C94EF
S113405088210C940722E92FE0780E94E52140F39F
S1134060092E052AB1F3261737074807590738F0F0
S11340700E2E07F8E02569F0E025E0640AC0EF633E
S113408007F8009407FADB01B9019D01DC01CA01BC
S1134090AD01EF930E94A6200E94D4210E945B20D0
S11340A05F91552339F02BED3FE049E450FD49EC95
S11340B00C94911F0895DF93DD27B92FBF7740E853
S11340C05FE31616170648075B0718F4D92F0E94FA
S11340D00E229F938F937F936F930E941923ECE793
S11340E0F0E00E948B210E94D4212F913F914F91A7
S11340F05F910E942922DD2351F09058A2EA2AED13
S11341003FE049EC5FE3D0785D270E94A81FDF9170
S11341100C94D4210E945E2108F481E008950E9449
S1134120A3200C94D4210E94CD2158F00E94C621D2
S113413040F029F45F3F29F00C94822151110C9432
S113414008220C9488210E94E52168F39923B1F395
S1134150552391F3951B550BBB27AA2762177307A9
S1134160840738F09F5F5F4F220F331F441FAA1F3D
S1134170A9F335D00E2E3AF0E0E832D091505040F9
S1134180E695001CCAF72BD0FE2F29D0660F771FA7
S1134190881FBB1F261737074807AB07B0E809F08D
S11341A0BB0B802DBF01FF2793585F4F3AF09E3F12
S11341B0510578F00C9482210C9408225F3FE4F3BB
S11341C0983ED4F3869577956795B795F7959F5F55
S11341D0C9F7880F911D9695879597F90895E1E0A1
S11341E0660F771F881FBB1F621773078407BA0700
S11341F020F0621B730B840BBA0BEE1F88F7E0955B
S11342000895E89409C097FB3EF4909580957095C5
S113421061957F4F8F4F9F4F9923A9F0F92F96E90E
S1134220BB279395F695879577956795B795F11183
S1134230F8CFFAF4BB0F11F460FF1BC06F5F7F4F20
S11342408F4F9F4F16C0882311F096E911C0772332
S113425021F09EE8872F762F05C0662371F096E83B
S1134260862F70E060E02AF09A95660F771F881F0A
S1134270DAF7880F9695879597F90895DF93CF938A
S11342801F930F938B01EC01E9EAF0E00E948B216C
S11342900E94D4219801AE018B01EC0160E070E032
S11342A080E89FE30E94901F0E94D9229801AE01EA
S11342B00F911F91CF91DF910C942922990F00083F
S11342C0550FAA0BE0E8FEEF16161706E807F907E4
S11342D0C0F012161306E407F50798F0621B730B7F
S11342E0840B950B39F40A2661F0232B242B252B00
S11342F021F408950A2609F4A140A6958FEF811DA3
S1134300811D089597F99F6780E870E060E0089543
S11343109FEF80EC0895DF93CF931F930F93FF9249
S1134320EF92DF927B018C01689406C0DA2EEF01D4
S11343300E942922FE01E894A59125913591459189
S11343405591A6F3EF010E94A81FFE019701A80151
S1134350DA9469F7DF90EF90FF900F911F91CF915E
S1134360DF9108959F938F937F936F93FF93EF93C0
S11343709B01AC010E941622EF91FF910E948B21B8
S11343802F913F914F915F910C94162200240A942F
S11343901616170618060906089500240A9412161C
S11343A01306140605060895092E0394000C11F44F
S11343B0882352F0BB0F40F4BF2B11F460FF04C0FC
S11343C06F5F7F4F8F4F9F4F089557FD9058440F55
S11343D0551F59F05F3F71F04795880F97FB991F60
S11343E061F09F3F79F0879508951216130614061D
S11343F0551FF2CF4695F1DF08C0161617061806AA
S1134400991FF1CF86957105610508940895E89484
S1134410BB2766277727CB0197F908959B01AC0149
S113442060E070E080E89FE30C948F200E942922D2
S11344300C94D4210E94C62138F00E94CD2120F092
S1134440952311F00C9482210C94882111240C944E
S113445008220E94E52170F3959FC1F3950F50E067
S1134460551F629FF001729FBB27F00DB11D639F22
S1134470AA27F00DB11DAA1F649F6627B00DA11DC8
S1134480661F829F2227B00DA11D621F739FB00D6E
S1134490A11D621F839FA00D611D221F749F3327DE
S11344A0A00D611D231F849F600D211D822F762F77
S11344B06A2F11249F5750409AF0F1F088234AF054
S11344C0EE0FFF1FBB1F661F771F881F91505040C0
S11344D0A9F79E3F510580F00C9482210C94082288
S11344E05F3FE4F3983ED4F3869577956795B79547
S11344F0F795E7959F5FC1F7FE2B880F911D969561
S1134500879597F90895FA01EE0FFF1F309621055C
S11345103105A1F16115710561F48038BFE39B0792
S113452049F168949038810561F08038BFEF9B07AA
S113453041F099234AF5FF3FE1053105210519F1C1
S1134540E8940894E795D901AA2329F4AB2FBE2F48
S1134550F85FD0F310C0FF5F70F4A695E0F7F73969
S113456050F019F0FF3A38F49F779F930DD00F90D5
S113457007FC9058089546F00C94882160E070E0A0
S113458080E89FE308954FE79F775F934F933F93AE
S11345902F930E94AE232F913F914F915F910E94E0
S11345A016220C94252319F416F40C9488210C94E7
S11345B057230E94ED21B8F39923C9F3B6F39F570B
S11345C0550B87FF0E9465230024A0E640EA900172
S11345D080585695979528F4805C660F771F881F3E
S11345E020F026173707480730F4621B730B840B3F
S11345F0202931294A2BA695179407942025312583
S11346004A2758F7660F771F881F20F026173707A9
S1134610480730F4620B730B840B200D311D411DD0
S1134620A09581F7B901842F9158880F96958795A5
S113463008959B01AC010C94162229F416F00C94F5
S113464082210C9407220C9488210E94ED21A8F366
S11346509638A0F707F80F92E8942BE33AEA48EB70
S11346605FE70E942C220F920F920F924DB75EB714
S11346700F920E94F623E1EDF0E00E948B214F910E
S11346805F91EF91FF91E595EE1FFF1F49F0FE57F3
S1134690E0684427EE0F441FFA95E1F74195550B66
S11346A00E9470230F9007FE0C940E2208959F3FE2
S11346B031F0915020F4879577956795B795880FD9
S11346C0911D9695879597F9089591505040660FDE
S11346D0771F881FD2F708950C9482210C945723D6
S11346E00E94ED21D8F39923C9F3940F511DA3F32C
S11346F09150504094F059F0882332F0660F771FA0
S1134700881F91505040C1F79E3F51052CF7880FE8
S1134710911D9695879597F908955F3FACF0983E63
S11347209CF0BB27869577956795B79508F4B1609B
S11347309395C1F7BB0F58F711F460FFE8CF6F5F93
S11347407F4F8F4F9F4FE3CF0C94082216F00C94A9
S113475057230C94882168940C9482210E94ED21A3
S1134760A8F39923C1F3AEF3DF93CF931F930F9371
S1134770FF92C92FDD2788232AF02197660F771F20
S1134780881FDAF720E030E040E85FEB9FE38839E8
S113479020F0803E38F021968F770E94911FE9EF38
S11347A0F0E004C00E94911FE6E2F1E00E948B2138
S11347B08B01BE01EC01FB2E6F5771097595771FB4
S11347C0880B990B0E94032128E132E741E35FE360
S11347D00E942922AF2D9801AE01FF900F911F91E5
S11347E0CF91DF910E94A81F0C94D421FA01DC011F
S11347F0AA0FBB1F9B01AC01BF5728F42227332704
S11348004427507820C0B75190F4AB2F002446952C
S113481037952795011CA395D2F3002071F0220F40
S1134820331F441FB395DAF30ED00C94901F6130FC
S11348307105A0E88A07B94630F49B01AC016627EC
S1134840772788279078309621F02083318342831C
S113485053830895FC01918D228D892F90E0805C13
S11348609F4F821B91098F7399270895FC01918DA5
S1134870828D981731F0828DE80FF11D858D90E0BF
S113488008958FEF9FEF0895FC01918D828D981705
S113489061F0828DDF01A80FB11D5D968C91928D20
S11348A09F5F9F73928F90E008958FEF9FEF08951D
S11348B088EC95E2892B49F080E090E0892B29F07F
S11348C00E94C82581110E9400000895FC01848D76
S11348D0DF01A80FB11DA35ABF4F8C91248D30E086
S11348E02F5F3F4F2F733078332334F42150310935
S11348F0206C3F6F2F5F3F4F248FA689B7898C931D
S1134900A089B1898C9180648C93938D848D981344
S113491006C00288F389E02D80818F7D808308950D
S1134920CF93DF93EC01888D81110FC018C00FB6AF
S113493007FC0DC0908195FF0AC0A889B9898C91A4
S113494085FF05C0CE010E946624EA89FB89908117
S113495095FDEDCFA889B9898C9186FFE8CFDF91C9
S1134960CF9108950F931F93CF93DF93FC0181E0C0
S1134970808F938D848D981322C0A089B1898C91E6
S113498085FD2FC01CC00FB607FC08C0E889F98953
S1134990808185FF03C0CE010E9466249C8D091787
S11349A091F38B8DFE01E80FF11DE35AFF4F108345
S11349B00B8FEA89FB898081806280831BC0238DF1
S11349C030E02F5F3F4F2F733078332334F421507E
S11349D03109206C3F6F2F5F3F4F162FEF01022FDD
S11349E0DDCFA689B7896C930088F189E02D808199
S11349F08064808381E090E0DF91CF911F910F91DB
S1134A000895BF92CF92DF92EF92FF920F931F937C
S1134A10CF93DF93EC016A017B01B22EE889F98917
S1134A2082E080834115514E61057105B1F060E06B
S1134A3079E08DE390E0A70196010E94C62D8901DB
S1134A409A010150110921093109369527951795C5
S1134A500795011580E11807A8F0E889F989108203
S1134A6060E874E88EE190E0A70196010E94C62DEB
S1134A70DA01C9010197A109B109B695A7959795DE
S1134A8087958C01EC85FD851083EE85FF85008379
S1134A90188EEC89FD89B082EA89FB898081806166
S1134AA08083EA89FB89808188608083EA89FB8925
S1134AB0808180688083EA89FB8980818F7D8083FF
S1134AC0DF91CF911F910F91FF90EF90DF90CF90E6
S1134AD0BF9008951F920F920FB60F9211242F9337
S1134AE08F939F93AF93BF93EF93FF93E091F6055A
S1134AF0F091F705808182FD14C0E6EEF5E0A68909
S1134B00B7892C91818D8F5F8F73928D891771F086
S1134B10DF01E18DF0E0EA51FA4F258F59968C932D
S1134B2005C0E091FC05F091FD058081FF91EF91B6
S1134B30BF91AF919F918F912F910F900FBE0F90C6
S1134B401F9018951F920F920FB60F9211242F9356
S1134B503F934F935F936F937F938F939F93AF9301
S1134B60BF93EF93FF9386EE95E00E946624FF9136
S1134B70EF91BF91AF919F918F917F916F915F91D1
S1134B804F913F912F910F900FBE0F901F9018954A
S1134B9086EE95E00E942A2421E0892B09F420E086
S1134BA0822F0895E6EEF5E01382128288EE93E0F8
S1134BB0A0E0B0E084839583A683B78389EE94E074
S1134BC09183808385EC90E09587848784EC90E0E2
S1134BD09787868780EC90E0918B808B81EC90E0C6
S1134BE0938B828B82EC90E0958B848B86EC90E0A7
S1134BF0978B868B118E128E138E148E08950895C2
S1134C000E94722A0E94FF250E949215C8E5D4E2F0
S1134C100E9446192097E1F30E945824F9CFCF92BD
S1134C20DF92EF92FF920F931F93CF93DF9341157F
S1134C305105C1F06A018C01E62EF72EC0E0D0E0E8
S1134C40D7016D917D01D801ED91FC910190F08126
S1134C50E02DC8010995892B39F02196CC16DD0683
S1134C6079F702C0C0E0D0E0CE01DF91CF911F916F
S1134C700F91FF90EF90DF90CF900895611571052B
S1134C8081F0FB0101900020E9F73197AF01461B49
S1134C90570BDC01ED91FC910280F381E02D099525
S1134CA0089580E090E00895DC01ED91FC9101907D
S1134CB0F081E02D09950895DC01ED91FC910280CD
S1134CC0F381E02D42E050E065EF74E0099508952A
S1134CD00F931F93CF93DF93EC010E943E268C0128
S1134CE0CE010E945C26800F911FDF91CF911F910E
S1134CF00F9108958F929F92AF92BF92EF92FF927D
S1134D000F931F93CF93DF93CDB7DEB7A1970FB661
S1134D10F894DEBF0FBECDBF7C01CB01BA0119A24E
S1134D20223008F42AE08E010F5D1F4F822E912C51
S1134D30A12CB12CA50194010E94C62DE62F622F4F
S1134D40732F842F952F01501109EA3010F4E05D80
S1134D5001C0E95CD801EC936115710581059105E9
S1134D6049F70115110591F0F80101900020E9F7C8
S1134D703197AF01401B510BD701ED91FC9102809B
S1134D80F381E02DB801C701099502C080E090E0ED
S1134D90A1960FB6F894DEBF0FBECDBFDF91CF91C1
S1134DA01F910F91FF90EF90BF90AF909F908F90C5
S1134DB00895CF92DF92EF92FF920F931F93CF93B8
S1134DC0DF93EC016A017B012115310541F4E8818F
S1134DD0F9810190F081E02D642F09951DC02A30DE
S1134DE03105C1F4772394F46DE20E9454268C01BA
S1134DF044275527BA014C195D096E097F092AE039
S1134E00CE010E947A26800F911F06C02AE00E94DC
S1134E107A2602C00E947A26DF91CF911F910F91CA
S1134E20FF90EF90DF90CF9008959A01AB01770F38
S1134E30660B770B0E94D92608950F931F93CF9387
S1134E40DF93EC019A01AB01770F660B770B0E949D
S1134E50D9268C01CE010E945C26800F911FDF9120
S1134E60CF911F910F9108952115310549F4DC016B
S1134E70ED91FC910190F081E02D642F0995089546
S1134E800E947A2608959A01462F50E060E070E06F
S1134E900E94342708950F931F93CF93DF93EC015F
S1134EA09A01462F50E060E070E00E9434278C01A4
S1134EB0CE010E945C26800F911FDF91CF911F913C
S1134EC00F9108954F925F927F928F929F92AF922B
S1134ED0BF92CF92DF92EF92FF920F931F93CF93E3
S1134EE0DF9300D000D0CDB7DEB78C014A015B015F
S1134EF0722E9A01AB01C501B4010E94C12D882311
S1134F0031F068EF74E0C8010E943E26D0C07501FC
S1134F106401E894F7F82FEF3FEF4FE75FE7C7012D
S1134F20B6010E94C12D811110C02FEF3FEF4FE752
S1134F305FE7C701B6010E948A20181634F46CEFAB
S1134F4074E0C8010E943E26B2C02FEF3FEF4FE746
S1134F505FE4C501B4010E94BC2D181634F460E06E
S1134F6075E0C8010E943E26A2C02FEF3FEF4FE735
S1134F705FECC501B4010E948A20882334F460E008
S1134F8075E0C8010E943E2692C020E030E0A901ED
S1134F90C501B4010E948A20882354F46DE2C8013B
S1134FA00E9454267C01B7FAB094B7F8B09402C0BA
S1134FB0E12CF12C772009F465C0D12C60E070E07D
S1134FC080E09FE320E030E040E251E40E948F2043
S1134FD0D394D710F7CF2AC020E030E040E251E468
S1134FE0C501B4010E9416224B015C010E948D2D63
S1134FF06B01E12CF12C2AE030E0B701A601C801D5
S11350000E943427480E591EC701B6010E9401218F
S11350109B01AC01C501B4010E94901F4B015C01CE
S11350207A947110D9CF842D952D41C09B01AC0188
S1135030C501B4010E94911F4B015C010E948D2D9A
S113504069837A838B839C830E9401219B01AC0139
S1135050C501B4010E94901F4B015C012AE030E0BD
S113506049815A816B817C81C8010E9434276C017B
S11350706EE2C8010E9454268C0D9D1D2C014E0C1D
S11350805F1CAACF20E030E040E05FE3C501B4013B
S11350900E94911F0E948D2DAB01BC012AE030E0DB
S11350A0C8010E9434272C014E0C5F1CBCCF0F900A
S11350B00F900F900F90DF91CF911F910F91FF9060
S11350C0EF90DF90CF90BF90AF909F908F907F90A4
S11350D05F904F9008950E94622708950F931F9345
S11350E0CF93DF93EC010E9462278C01CE010E94D2
S11350F05C26800F911FDF91CF911F910F9108952E
S11351008091B30690E02091B406821B9109089522
S11351109091B4068091B306981750F4E92FF0E00B
S1135120EB54F94F208130E09F5F9093B40602C0A6
S11351302FEF3FEFC9010895E091B4068091B306C3
S1135140E81730F4F0E0EB54F94F808190E00895D3
S11351508FEF9FEF08950895CF92DF92EF92FF9221
S11351600F931F93CF93DF938C01CB016A0120919E
S11351708F062223A1F041155105A1F0EB017B011B
S1135180E40EF51E6991D801ED91FC910190F08136
S1135190E02DC8010995CE15DF05A1F703C0642FE2
S11351A00E94282CC601DF91CF911F910F91FF908F
S11351B0EF90DF90CF900895CF93DF931F92CDB7F8
S11351C0DEB7FC01698390918F069923D9F0909101
S11351D09006903238F081E090E09383828380E0FF
S11351E090E017C080919106E82FF0E0EE56F94F59
S11351F0998190838F5F809391068093900681E0DC
S113520090E007C061E0CE0101960E94282C81E065
S113521090E00F90DF91CF910895FC0113821282E8
S113522088EE93E0A0E0B0E084839583A683B783FF
S113523088E095E09183808308951092B4061092DB
S1135240B30610929106109290060E946C2B08955A
S113525081E080938F066093B206109291061092BB
S1135260900608950F93062F21E04091900662E97D
S113527076E08091B2060E94D22B10929106109291
S1135280900610928F060F9108954F925F926F923D
S11352907F92AF92BF92CF92EF92FF920F931F93A0
S11352A0CF93DF935C01F62ED42F28013901EE2031
S11352B049F10E9428298E2D843008F083E0CFEF35
S11352C0C80F8823D9F0D501ED91FC918C2F880F5C
S11352D0880F880FA301920104C05695479537950E
S11352E027958A95D2F7CA01B9010190F081E02D82
S11352F0C50109959C2FC1509111E5CF60E0C5010E
S11353000E9432294D2FD13208F040E22C2D65EB5A
S113531076E08F2D0E948A2B1092B4068093B306F8
S1135320DF91CF911F910F91FF90EF90CF90BF909D
S1135330AF907F906F905F904F900895CF92EF92CF
S11353400F931F93C22EE12C00E010E098010E94FD
S113535045291F910F91EF90CF90089521E00E946D
S11353609E29089561E00E943229089583E896E019
S11353700E940D2908951F920F920FB60F921124C7
S11353802F933F938F939F93AF93BF938091D606B0
S11353909091D706A091D806B091D9063091D50640
S11353A023E0230F2D3720F40196A11DB11D05C064
S11353B026E8230F0296A11DB11D2093D5068093E4
S11353C0D6069093D706A093D806B093D9068091B9
S11353D0DA069091DB06A091DC06B091DD06019619
S11353E0A11DB11D8093DA069093DB06A093DC0621
S11353F0B093DD06BF91AF919F918F913F912F9113
S11354000F900FBE0F901F9018952FB7F8946091CE
S1135410D6067091D7068091D8069091D9062FBFF1
S113542008953FB7F8948091DA069091DB06A09135
S1135430DC06B091DD0626B5A89B05C02F3F19F008
S11354400196A11DB11D3FBFBA2FA92F982F882700
S1135450820F911DA11DB11DBC01CD0142E0660F5B
S1135460771F881F991F4A95D1F708958F929F92AD
S1135470AF92BF92CF92DF92EF92FF926B017C01C9
S11354800E94112A4B015C01C114D104E104F1040E
S113549001F10E946B2B0E94112ADC01CB018819B7
S11354A09909AA09BB09883E9340A105B10560F397
S11354B021E0C21AD108E108F10888EE880E83E0E1
S11354C0981EA11CB11CC114D104E104F10419F704
S11354D0DBCFFF90EF90DF90CF90BF90AF909F9085
S11354E08F900895789484B5826084BD84B581607A
S11354F084BD85B5826085BD85B5816085BDEEE6D8
S1135500F0E0808181608083E1E8F0E010828081B6
S113551082608083808181608083E0E8F0E0808124
S113552081608083E1EBF0E0808184608083E0EB44
S1135530F0E0808181608083EAE7F0E0808184602C
S11355408083808182608083808181608083808188
S1135550806880831092C1000895833081F028F41C
S1135560813099F08230A1F008958730A9F0883015
S1135570B9F08430D1F4809180008F7D03C0809194
S113558080008F7780938000089584B58F7702C060
S113559084B58F7D84BD08958091B0008F7703C05A
S11355A08091B0008F7D8093B0000895CF93DF93F6
S11355B090E0FC01E859FE4F2491FC01E458FE4FB1
S11355C08491882361F190E0880F991FFC01EC55C8
S11355D0FE4FC591D491FC01E656FE4FA591B491BE
S11355E0611109C09FB7F89488812095822388832C
S11355F0EC912E230BC0623061F49FB7F89438818C
S1135600822F809583238883EC912E2B2C939FBF2C
S113561006C08FB7F894E8812E2B28838FBFDF91C3
S1135620CF9108951F93CF93DF93282F30E0F90192
S1135630EC5AFE4F8491F901E859FE4FD491F901D7
S1135640E458FE4FC491CC23C9F0162F81110E9457
S1135650AD2AEC2FF0E0EE0FFF1FE656FE4FA591AA
S1135660B4918FB7F894111105C09C91ED2FE0957A
S1135670E92302C0EC91ED2BEC938FBFDF91CF9126
S11356801F910895CF93DF93282F30E0F901EC5A4E
S1135690FE4F8491F901E859FE4FD491F901E45881
S11356A0FE4FC491CC2391F081110E94AD2AEC2FBE
S11356B0F0E0EE0FFF1FE057FE4FA591B491EC917F
S11356C0ED2381E090E021F480E002C080E090E0EE
S11356D0DF91CF910895089510924B0781E0809354
S11356E049071092480761E082E10E94122B61E0B1
S11356F083E10E94122BE9EBF0E080818E7F8083AE
S113570080818D7F808388E48093B80085E48093D2
S1135710BC000895413208F043C090914B079111A9
S1135720FCCF91E090934B07209349072FEF2093F0
S1135730DE0610922307240F2093220790934A0732
S113574090914A07880F892B80934A0780914807D4
S1135750813061F41092480780914A078093BB001E
S11357608091BC0083FDF8CF85EC01C085EE809369
S1135770BC0080914B078130E1F3809123078417AB
S113578010F44091230724E237E0FB01D9018A2F6A
S1135790821B841718F48D918193F9CF842F089577
S11357A080E008950F93413208F04AC090914B076E
S11357B09111FCCF32E030934B07009349073FEF40
S11357C03093DE061092230740932207FB0164E224
S11357D077E0DB013A2F361B341718F431913D93EF
S11357E0F9CF10924A0730914A07880F832B809390
S11357F04A0780914807813061F4109248078091EC
S11358004A078093BB008091BC0083FDF8CF85ECF0
S113581001C085EE8093BC00222321F080914B07C8
S11358208230D1F38091DE068F3F79F08091DE06DD
S1135830803241F08091DE06803331F094E005C07F
S113584091E003C092E001C093E0892F0F91089585
S113585040910007262F30E0240F311D21323105FD
S1135860DCF420914B072430C9F4FC0180E090E083
S1135870861758F4309100072191DC01AE5FB84FD0
S1135880A30FB11D2C930196F3CF80910007680FED
S11358906093000780E0089581E0089582E0089510
S11358A085ED8093BC008091BC0084FDFCCF1092F8
S11358B04B07089585EC8093BC0010924B07089524
S11358C01F920F920FB60F9211242F933F934F9371
S11358D05F936F937F938F939F93AF93BF93EF9354
S11358E0FF938091B900887F803609F49EC078F5D3
S11358F0883209F45DC090F4803109F456C038F45C
S1135900882309F4F5C0883009F44FC0F5C0883104
S113591009F44EC0803209F45FC0EEC0803409F44B
S11359206AC058F4803309F457C0883309F0E4C0DE
S11359308093DE060E945A2CDFC0803509F44FC0E4
S1135940883509F45DC0883409F0D6C0D3C08839DD
S113595009F4C4C0A8F4883709F467C038F4883659
S113596009F463C0803709F460C0C6C0883809F4FC
S1135970B5C0803909F45FC0803809F0BDC05BC090
S1135980803B09F483C038F4803A09F466C0883A4D
S113599009F47CC0B1C0803C09F4A4C0883C09F47B
S11359A0A1C0883B09F487C0A7C080914A0710C0F2
S11359B09091230780912207981770F5E0912307AF
S11359C081E08E0F80932307F0E0EC5DF84F808137
S11359D08093BB0085EC83C08093DE068BC0E0918E
S11359E0230781E08E0F809323078091BB00F0E0B2
S11359F0EC5DF84F808390912307809122076BC060
S1135A00E091230781E08E0F809323078091BB00F0
S1135A10F0E0EC5DF84F80838091490781116AC002
S1135A2081E08093480784EA5EC083E080934B075B
S1135A301092DF06CFCF8091DF06803208F04EC08F
S1135A40E091DF0681E08E0F8093DF068091BB003A
S1135A50F0E0E052F94F8083BDCF0E945A2C809130
S1135A60DF06803230F4E091DF06F0E0E052F94FD7
S1135A7010826091DF0670E0E0914407F0914507E1
S1135A8080EE96E009951092DF0636C084E080939C
S1135A904B071092010710920007E0914607F0911E
S1135AA04707099580910007811105C081E0809323
S1135AB0000710920207E091010781E08E0F8093A6
S1135AC00107F0E0EE5FF84F80818093BB00909176
S1135AD0010780910007981708F47CCF85E880932C
S1135AE0BC000AC085EC8093BC0010924B0704C034
S1135AF01092DE060E94502CFF91EF91BF91AF915E
S1135B009F918F917F916F915F914F913F912F91D1
S1135B100F900FBE0F901F9018950E94ED2188F0F2
S1135B209F5798F0B92F9927B751B0F0E1F0660F5D
S1135B30771F881F991F1AF0BA95C9F714C0B1309E
S1135B4091F00E940722B1E008950C940722672F78
S1135B50782F8827B85F39F0B93FCCF386957795CD
S1135B606795B395D9F73EF49095809570956195B6
S1135B707F4F8F4F9F4F08950E945E2108F48FEF4F
S1135B8008950E945E21880B990B0895A1E21A2EB4
S1135B90AA1BBB1BFD010DC0AA1FBB1FEE1FFF1FCD
S1135BA0A217B307E407F50720F0A21BB30BE40B1D
S1135BB0F50B661F771F881F991F1A9469F7609564
S1135BC07095809590959B01AC01BD01CF0108951E
S1135BD0052E97FB1EF400940E94FF2D57FD07D05D
S1135BE00E94C62D07FC03D04EF40C94FF2D509553
S1135BF04095309521953F4F4F4F5F4F08959095B5
S1135C008095709561957F4F8F4F9F4F0895A29F08
S1135C10B001B39FC001A39F700D811D1124911D7C
S1135C20B29F700D811D1124911D0895EE0FFF1F69
S10F5C300590F491E02D0994F894FFCF46
S1135C3C0000803F00000000000000000000000095
S1135C4CC3B8323F0D00080009000A000506014DD7
S1135C5C505539323530202B204D504C33313135A1
S1135C6C413220646576696365732E2E2E004D5087
S1135C7C553932353020004920414D20002049202F
S1135C8C73686F756C6420626520004D5055393211
S1135C9C3530206973206F6E6C696E652E2E2E0064
S1135CAC782D617869732073656C662074657374E0
S1135CBC3A20616363656C65726174696F6E2074FC
S1135CCC72696D2077697468696E203A200025200A
S1135CDC6F6620666163746F72792076616C75658A
