:100000000C9490000C94B8000C94B8000C949701D8
:100010000C94B8000C942A010C94B8000C94B8000D
:100020000C94B8000C94B8000C94B8000C94B80070
:100030000C94B8000C94B8000C94B8000C94B80060
:100040000C9495160C94B8000C948D120C94BF125D
:100050000C94B8000C94B8000C94B8000C94B80040
:100060000C9456190C94B800036EDB363D9A99999E
:10007000993DABAAAA2A3E000000803F072C7AA532
:10008000BA6CC590DA3B9365FC8BBC53F810FD3C11
:100090005692834DBD879D3AB63DCBC9BF5BBE73BB
:1000A000DA0FC93F05A84CCDB2D44EB93836A902F3
:1000B0000C50B9918688083CA6AAAA2ABE00000066
:1000C000803F000000080002010000030407000058
:1000D000000000000000010204081020408001021E
:1000E000040810200102040810200404040404047D
:1000F00004040202020202020303030303030000DA
:100100000000230026002900000000002500280030
:100110002B0000000000240027002A00EF12911697
:1001200011241FBECFEFD8E0DEBFCDBF12E0A0E0AC
:10013000B1E0E0EDF6E302C005900D92AA3EB107F2
:10014000D9F725E0AAEEB2E001C01D92A139B207AD
:10015000E1F710E0C0E9D0E004C02197FE010E9461
:10016000581BCE38D107C9F70E941D130C94661B8B
:100170000C940000CF93E82FF0E0E050FC4FC789CB
:10018000EC2FE770CC1FCC27CC1FF0E0EE0FFF1F49
:10019000DF01AA52BC4F8D919C91E050FC4F7785B6
:1001A0003685DF0111974C9150E0542F4427119769
:1001B0002C91422B6781268184179507DCF4E32F6D
:1001C000F0E0F72B9F01E817F9070CF49C01DA0126
:1001D000A21BB30B24EF31E00E94321B9A012E1BAD
:1001E0003F0B032E000C440B550B0E94FC1ACC2332
:1001F000E9F021C04817590714F530E0F901F62B52
:10020000DF018E179F070CF4DC01A41BB50B24EF54
:1002100031E00E94321B9F01241B350B032E000C82
:10022000440B550B0E94FC1ACC2329F08CED95E071
:10023000821B930B06C0C90184529A4F02C08CEDF9
:1002400095E0CF910895DC01ED91FC910190F08152
:10025000E02D09941F920F920FB60F9211242F9345
:100260003F934F935F936F937F938F939F93AF933E
:10027000BF93EF93FF930E94DF1660932E0370935A
:100280002F038093300390933103209125044A9BE0
:100290000EC021111BC021E02093250460933A0376
:1002A00070933B0380933C0390933D030FC0213038
:1002B00069F41092250420913A0330913B03AB017D
:1002C000421B530B5093E3034093E2032091240419
:1002D0004B9B0EC021111AC021E02093240460938F
:1002E00036037093370380933803909339030EC01D
:1002F000213061F4109224042091360330913703A9
:10030000621B730B7093E5036093E403FF91EF911D
:10031000BF91AF919F918F917F916F915F914F911D
:100320003F912F910F900FBE0F901F9018951F9225
:100330000F920FB60F9211242F933F934F935F9319
:100340006F937F938F939F93AF93BF93EF93FF939D
:100350000E94DF166093320370933303809334035B
:100360009093350320912A04189B0EC021111BC0C5
:1003700021E020932A0460934E0370934F038093EF
:100380005003909351030FC0213069F410922A0456
:1003900020914E0330914F03AB01421B530B5093FE
:1003A000D9034093D80320912904199B0EC0211131
:1003B0001BC021E02093290460934A0370934B03F0
:1003C00080934C0390934D030FC0213069F4109239
:1003D000290420914A0330914B03AB01421B530B7C
:1003E0005093DB034093DA03209128041A9B0EC03C
:1003F00021111BC021E020932804609346037093D1
:10040000470380934803909349030FC0213069F458
:10041000109228042091460330914703AB01421B00
:10042000530B5093DD034093DC03209127041B9B67
:100430000EC021111BC021E02093270460934203CA
:100440007093430380934403909345030FC021307E
:1004500069F4109227042091420330914303AB01C9
:10046000421B530B5093DF034093DE03209126047D
:100470001C9B0EC021111AC021E02093260460931A
:100480003E0370933F0380934003909341030EC05B
:10049000213061F41092260420913E0330913F03F5
:1004A000621B730B7093E1036093E003FF91EF9184
:1004B000BF91AF919F918F917F916F915F914F917C
:1004C0003F912F910F900FBE0F901F90189561E0F4
:1004D00071E08BE294E00E946C134AE050E060917E
:1004E000FF038BE294E00E94661468E071E08BE207
:1004F00094E00E946C138091FA039091FB03883C76
:1005000095401CF460E171E00CC08091FA03909179
:10051000FB03813F95401CF064E171E002C068E19B
:1005200071E08BE294E00E946C136091FA03709189
:10053000FB034AE050E08BE294E00E9429146CE156
:1005400071E08BE294E00E946C138091F80390912B
:10055000F903883C95401CF465E271E00CC0809181
:10056000F8039091F903813F95401CF069E271E036
:1005700002C068E171E08BE294E00E946C1360912C
:10058000F8037091F9034AE050E08BE294E00E9496
:1005900029146DE271E08BE294E00E946C1380916B
:1005A000F6039091F703883C95401CF469E271E0F2
:1005B0000CC08091F6039091F703813F95401CF0A9
:1005C00065E271E002C068E171E08BE294E00E94B4
:1005D0006C136091F6037091F7034AE050E08BE2F0
:1005E00094E00E94291469E371E08BE294E00E9498
:1005F0006C138091F4039091F503883C95401CF4B2
:1006000060E171E00CC08091F4039091F503813FAB
:1006100095401CF064E171E002C068E171E08BE29A
:1006200094E00E946C136091F4037091F5034AE02A
:1006300050E08BE294E00E94291460E471E08BE2C8
:1006400094E00E946C136091F2037091F3034AE00E
:1006500050E08BE294E00E94291467E471E08BE2A1
:1006600094E00E946C136091F0037091F1034AE0F2
:1006700050E08BE294E00E9429146EE471E08BE27A
:1006800094E00E946C136091EE037091EF034AE0D6
:1006900050E08BE294E00E94291465E571E08BE262
:1006A00094E00E946C1360912C0370912D034AE03A
:1006B00050E08BE294E00C9430140F931F930E944F
:1006C000DF16609352037093530380935403909307
:1006D00055038BB1806F8BB9809152039091530376
:1006E000A0915403B09155034091EC035091ED0358
:1006F000052E000C660B770B480F591F6A1F7B1FD6
:100700004093660350936703609368037093690393
:100710004091EA035091EB03052E000C660B770B1A
:10072000480F591F6A1F7B1F409362035093630356
:1007300060936403709365034091E8035091E9036B
:10074000052E000C660B770B480F591F6A1F7B1F85
:1007500040935E0350935F03609360037093610363
:100760004091E6035091E703052E000C660B770BD2
:10077000840F951FA61FB71F80935A0390935B03A6
:10078000A0935C03B0935D038BB1803108F45CC02F
:100790000E94DF16609356037093570380935803AB
:1007A00090935903009166031091670320916803A9
:1007B00030916903601771078207930708F05C980E
:1007C00040916203509163036091640370916503EB
:1007D0008091560390915703A0915803B09159030B
:1007E00084179507A607B70708F05D9840915E0348
:1007F00050915F0360916003709161038091560393
:1008000090915703A0915803B0915903841795070D
:10081000A607B70708F05E9840915A0350915B0312
:1008200060915C0370915D03809156039091570332
:10083000A0915803B091590384179507A607B707ED
:1008400008F4A2CF5F98A0CF1F910F9108958091D7
:100850001F04813009F094C06091D2037091D303DA
:1008600088EC94E00E9412166BE670E088EC94E04D
:100870000E94230160E070E088EC94E00E94230174
:1008800088EC94E00E948E166091D2037091D3039D
:1008900088EC94E00E9412166BE170E088EC94E022
:1008A0000E94230168E070E088EC94E00E9423013C
:1008B00088EC94E00E948E166091D2037091D3036D
:1008C00088EC94E00E9412166CE170E088EC94E0F1
:1008D0000E94230160E170E088EC94E00E94230113
:1008E00088EC94E00E948E166091D2037091D3033D
:1008F00088EC94E00E9412166BE170E088EC94E0C2
:100900000E94230188EC94E00E948E166091D2032D
:100910007091D30341E050E088EC94E00E948B1684
:1009200088EC94E00E94631518161906CCF788EC41
:1009300094E00E946B15089759F061E08DE00E94E9
:1009400008186AE070E080E090E00E940417F9CF98
:100950006091D2037091D30388EC94E00E94121648
:100960006AE170E088EC94E00E94230163E070E0AB
:1009700088EC94E00E94230188EC94E00C948E169D
:1009800008950F931F93CF9326E040E051EE60E06F
:1009900070E08BE294E00E94281288EC94E00E94C0
:1009A000FE1561E08DE00E94CC178CE08093B800CA
:1009B0008AB1806F8AB9259A2498809168008160F5
:1009C00080936800809168008460809368008091C3
:1009D0006B00816080936B0080916B0082608093DC
:1009E0006B0080916B00846080936B0080916B0042
:1009F000886080936B0080916B00806180936B00B6
:100A000080916D00846080936D0080916D0088609E
:100A100080936D001092FE03C091FE03C43268F40F
:100A20000C2F10E0C8010E945E1BF801E050FC4F43
:100A30008083CF5FC093FE03EFCF8091200490E0CE
:100A40009093D3038093D2030E94270480912104C2
:100A50008A3489F064EF71E080E090E00E9404172E
:100A60008DE00E94381861E0892B09F060E08DE08C
:100A70000E940818EBCF809122048D3459F78091A1
:100A80002304823439F70E94DF1660935203709377
:100A90005303809354039093550380E00E9486177C
:100AA0008F5B9F4FBC01990F880B990B0E946C0FB5
:100AB00028E538EA4DE95FE30E9453100E94340FA5
:100AC00070932D0360932C038BE294E00E946211DB
:100AD000892B39F08BE294E00E947C118093FE0315
:100AE000F3CF1092FE03CF911F910F910895BF9203
:100AF000CF92DF92EF92FF920F931F93CF93DF93EA
:100B000080911F04813009F0A0C06091D2037091E0
:100B1000D30388EC94E00E9412166BE370E088EC3B
:100B200094E00E94230188EC94E00E948E1660916C
:100B3000D2037091D3034EE050E088EC94E00E9421
:100B40008B1688EC94E00E9463150E97D4F388EC22
:100B500094E00E946B15C82F88EC94E00E946B15FE
:100B600020E030E03C2F822B932B9093270380933F
:100B7000260388EC94E00E946B15C82F88EC94E063
:100B80000E946B1520E030E03C2F822B932B90933A
:100B900029038093280388EC94E00E946B15C82FEA
:100BA00088EC94E00E946B1520E030E03C2F822B13
:100BB000932B90932B0380932A0388EC94E00E945C
:100BC0006B15C82F88EC94E00E946B1520E030E094
:100BD0003C2F822B932B9093CF038093CE0388ECF2
:100BE00094E00E946B15C82F88EC94E00E946B156E
:100BF00020E030E03C2F822B932B90931F038093B7
:100C00001E0388EC94E00E946B15C82F88EC94E0DA
:100C10000E946B1520E030E03C2F822B932B9093A9
:100C200021038093200388EC94E00E946B15C82F69
:100C300088EC94E00E946B1520E030E03C2F822B82
:100C4000932B90932303809322038091FA02909137
:100C5000FB02803D974009F04EC060911E037091E9
:100C60001F03072E000C880B990B0E946C0F20911C
:100C7000EE023091EF024091F0025091F1020E9499
:100C80003A0E0E94340F70931F0360931E0360910D
:100C9000200370912103072E000C880B990B0E94F2
:100CA0006C0F2091F2023091F3024091F4025091C6
:100CB000F5020E943A0E0E94340F70932103609354
:100CC00020036091220370912303072E000C880BF0
:100CD000990B0E946C0F2091F6023091F70240911F
:100CE000F8025091F9020E943A0E0E94340F70935C
:100CF000230360932203C0901C040C2D037010E0AA
:100D0000000F111FF801E45EFC4F60817181072E16
:100D1000000C880B990B0E946C0FC7FC09C06093F4
:100D200014037093150380931603909317030BC05D
:100D3000DC01CB01B0588093140390931503A0936A
:100D40001603B0931703B0901D048B2D8370E82E0B
:100D5000F12CEE0CFF1CF701E45EFC4F6081718109
:100D6000072E000C880B990B0E946C0FB7FC09C072
:100D7000609318037093190380931A0390931B03D5
:100D80000BC0DC01CB01B05880931803909319037A
:100D9000A0931A03B0931B03D0901E04CD2DC370F3
:100DA000D0E0CC0FDD1FFE01E45EFC4F608171815D
:100DB000072E000C880B990B0E946C0FD7FC09C002
:100DC00060931003709311038093120390931303A5
:100DD0000BC0DC01CB01B05880931003909311033A
:100DE000A0931203B0931303F701EC5DFC4F8081D5
:100DF0009181092E000CAA0BBB0BB7FE07C0B09562
:100E0000A095909581959F4FAF4FBF4F8093CA0398
:100E10009093CB03A093CC03B093CD03F801EC5D8A
:100E2000FC4F80819181092E000CAA0BBB0BC7FEE1
:100E300007C0B095A095909581959F4FAF4FBF4F3C
:100E40008093C6039093C703A093C803B093C903CC
:100E5000CC5DDC4F88819981092E000CAA0BBB0B5D
:100E6000D7FE07C0B095A095909581959F4FAF4F45
:100E7000BF4F8093C2039093C303A093C403B09366
:100E8000C503DF91CF911F910F91FF90EF90DF90FD
:100E9000CF90BF9008954F925F926F927F928F9202
:100EA0009F92AF92BF92CF92DF92EF92FF920F93F9
:100EB0001F93CF93DF93CDB7DEB72C970FB6F8947F
:100EC000DEBF0FBECDBFC0905203D0905303E09061
:100ED0005403F090550320EAC20E2FE0D21EE11C0D
:100EE000F11C0E94DF166C157D058E059F0558F3D9
:100EF0000E94DF1660935203709353038093540350
:100F00009093550380E00E9486178F5B9F4FBC0132
:100F1000990F880B990B0E946C0F28E538EA4DE970
:100F20005FE30E9453100E94340F70932D0360936F
:100F30002C038BE294E00E946211181619060CF043
:100F400096C08BE294E00E947C118093FE0391E0B6
:100F50009093FD031092D5031092D4031092FB02DC
:100F60001092FA021092FF039093FC03823731F43F
:100F70006CE571E08BE294E00E9479138091FE03AE
:100F8000813631F466E771E08BE294E00E947913D8
:100F90008091FE03813631F463E971E08BE294E0E5
:100FA0000E9479138091FE03813331F465ED71E085
:100FB0008BE294E00E9479138091FE03823331F436
:100FC00065EF71E08BE294E00E9479138091FE035B
:100FD000833331F463E172E08BE294E00E94791391
:100FE0008091FE03843331F461E372E08BE294E09C
:100FF0000E9479138091FE03853331F46FE472E02F
:101000008BE294E00E9479131092D1031092D003E6
:1010100008EE13E08091D0039091D1038137924084
:1010200014F563E070E080E090E00E9404171093F4
:10103000ED030093EC031093EB030093EA0310938A
:10104000E9030093E8031093E7030093E6030E948B
:101050005D038091D0039091D10301969093D103C9
:101060008093D003D7CF1092D1031092D00383E0A6
:101070000E94BA009093F7038093F6038091F603E1
:101080009091F7038130944014F41092FD03809105
:10109000FE0381112DC08091FD03811129C083E0E1
:1010A0000E94BA009093F7038093F6038091F603B1
:1010B0009091F7039093ED038093EC038091F603F6
:1010C0009091F7039093EB038093EA038091F603EA
:1010D0009091F7039093E9038093E8038091F603DE
:1010E0009091F7039093E7038093E6030E945D03DA
:1010F0008091FE03823709F09CC0E090D403F09009
:10110000D5038FEFE81AF80AF092D503E092D403E2
:1011100081E00E94BA009093FB038093FA0382E07F
:101120000E94BA009093F9038093F80383E00E9431
:10113000BA009093F7038093F60384E00E94BA000C
:101140009093F5038093F40388EB9BE02091E003F8
:101150003091E103DC01A21BB30BB093F303A09326
:10116000F2032091E2033091E303FC01E21BF30B55
:10117000F093F103E093F0032091E4033091E50351
:10118000821B930B9093EF038093EE03FDE7EF1622
:10119000F10431F40E9467021092D5031092D40337
:1011A0008091F6039091F7038A31944044F4809142
:1011B000F4039091F5038A3194400CF439C5809181
:1011C000FF03813079F48091F6039091F7038A311F
:1011D000944044F48091F4039091F5038B3A954048
:1011E0000CF02AC58091FF03823079F48091F603D8
:1011F0009091F7038A31944044F48091F4039091E4
:10120000F5038F3997400CF01BC588EE93E090935F
:10121000ED038093EC039093EB038093EA039093A8
:10122000E9038093E8039093E7038093E6030E9429
:101230005D038091FE038153853008F0E7C1809102
:10124000D4039091D50301969093D5038093D40352
:101250002091FD032223B9F08A3F9105A1F468E6AD
:1012600072E08BE294E00E946C136091F60370913F
:10127000F7034AE050E08BE294E00E9430141092B1
:10128000D5031092D4038091FD038111BFC183E087
:101290000E94BA009093F7038093F6038091FE03B7
:1012A000982F9B7F9133A9F42091F6033091F70397
:1012B0003093ED032093EC038233A1F42091F603E5
:1012C0003091F7033093EB032093EA038333C9F49F
:1012D00013C028EE33E03093ED032093EC03823308
:1012E00019F4ECCF853351F328EE33E03093EB0360
:1012F0002093EA03833339F42091F6033091F70306
:1013000004C08533C9F328EE33E03093E90320931A
:10131000E8038453823028F48091F6039091F70318
:1013200002C088EE93E09093E7038093E6030E9467
:101330005D0380911F04813009F068C16091D20380
:101340007091D30388EC94E00E9412166BE370E076
:1013500088EC94E00E94230188EC94E00E948E16B1
:101360006091D2037091D30346E050E088EC94E0A2
:101370000E948B1688EC94E00E9463150697D4F3C4
:1013800088EC94E00E946B15182F88EC94E00E9482
:101390006B1520E030E0312F822B932B092E000CAF
:1013A000AA0BBB0B8093CA039093CB03A093CC03EF
:1013B000B093CD0388EC94E00E946B15182F88EC55
:1013C00094E00E946B1520E030E0312F822B932BAC
:1013D000092E000CAA0BBB0B8093C6039093C70386
:1013E000A093C803B093C90388EC94E00E946B15E6
:1013F000182F88EC94E00E946B15E0E0F0E0F12FEC
:10140000E82BF92BCF010F2E000CAA0BBB0B8093FE
:10141000C2039093C303A093C403B093C503609128
:10142000CA037091CB038091CC039091CD0380903F
:10143000C6039090C703A090C803B090C9039B0156
:10144000AC010E94B61A6B017C01A5019401C50193
:10145000B4010E94B61AC60ED71EE81EF91E9F01DF
:10146000DF010E941B1B6C0D7D1D8E1D9F1D0E94A8
:101470006C0F0E94CE100E94340F60937203709321
:101480007303809374039093750340E1242F30E03D
:10149000F901EE0FFF1FEE0FFF1FE259FC4FC08056
:1014A000D180E280F380220F331F220F331FF90116
:1014B000EE58FC4FC082D182E282F3826C0D7D1D1A
:1014C0008E1D9F1D415011F71092FF0321E130E066
:1014D00040E050E00E94FC1A20936E0330936F03AB
:1014E00040937003509371038091D0039091D10386
:1014F000843191057CF501969093D1038093D003BC
:101500008091720390917303A0917403B09175035D
:10151000821B930BA40BB50BB7FF07C0B095A0952A
:10152000909581959F4FAF4FBF4F40916A03509167
:101530006B0360916C0370916D03840F951FA61F60
:10154000B71F80936A0390936B03A0936C03B093CF
:101550006D030CC01092D1031092D00310926A0355
:1015600010926B0310926C0310926D0366E972E0A7
:101570008BE294E00E946C134091CA035091CB031C
:101580006091CC037091CD032AE030E08BE294E0CF
:101590000E94DF1369E972E08BE294E00E946C1311
:1015A0004091C6035091C7036091C8037091C9036D
:1015B0002AE030E08BE294E00E94DF136DE972E0F4
:1015C0008BE294E00E946C134091C2035091C303DC
:1015D0006091C4037091C5032AE030E08BE294E08F
:1015E0000E94DF1361EA72E08BE294E00E946C13C8
:1015F000409172035091730360917403709175036D
:101600002AE030E08BE294E00E9447148091FE03D0
:10161000813609F018C38091FA029091FB02803D57
:10162000974009F4E9C065EA72E08BE294E00E9419
:101630006C131092FB021092FA020DE710E08091F9
:10164000FA029091FB02803D27E092070CF08BC0DC
:10165000B8010E94C61A892B81F48DE00E943818C7
:1016600061E0892B09F060E08DE00E94081863EDCD
:1016700071E08BE294E00E946C130E947705609108
:101680001E0370911F03072E000C880B990B0E94FC
:101690006C0F9B01AC016091EE027091EF028091A2
:1016A000F0029091F1020E943B0E6093EE02709363
:1016B000EF028093F0029093F10260912003709109
:1016C0002103072E000C880B990B0E946C0F9B01C5
:1016D000AC016091F2027091F3028091F40290915A
:1016E000F5020E943B0E6093F2027093F302809326
:1016F000F4029093F5026091220370912303072E68
:10170000000C880B990B0E946C0F9B01AC0160913F
:10171000F6027091F7028091F8029091F9020E940E
:101720003B0E6093F6027093F7028093F802909359
:10173000F9028BB1806F8BB988EE93E00E9440175D
:101740008BB18F708BB963E070E080E090E00E9415
:1017500004178091FA029091FB0201969093FB028C
:101760008093FA026CCF63ED71E08BE294E00E940B
:10177000791320E030E04AEF54E46091EE0270917A
:10178000EF028091F0029091F1020E94C20E6093EC
:10179000EE027093EF028093F0029093F10220E04A
:1017A00030E04AEF54E46091F2027091F3028091CC
:1017B000F4029091F5020E94C20E6093F2027093BF
:1017C000F3028093F4029093F50220E030E04AEFB8
:1017D00054E46091F6027091F7028091F8029091C2
:1017E000F9020E94C20E6093F6027093F702809392
:1017F000F8029093F90227C28BB1806F8BB988EE03
:1018000093E00E9440178BB18F708BB90E947705CF
:1018100020ED32E240E858E360911803709119031B
:1018200080911A0390911B030E945310209104038E
:101830003091050340910603509107030E943B0E2F
:101840002B013C0120ED32E240E858E360911403A3
:101850007091150380911603909117030E94531005
:101860002091000330910103409102035091030342
:101870000E943B0E6B017C0180901003909011033D
:10188000A0901203B090130320ED32E240E858E339
:10189000C501B4010E9453109B01AC016091FC0290
:1018A0007091FD028091FE029091FF020E943B0E1A
:1018B0006093FC027093FD028093FE029093FF02FE
:1018C0002BE733E14FE855E3C501B4010E94531003
:1018D0000E94C0104B015C019B01AC01C701B60125
:1018E0000E9453109B01AC01C301B2010E943A0E49
:1018F0006D837E838F839887A50194010E94531086
:101900009B01AC01C701B6010E943B0E69877A8733
:101910008B879C874090CA035090CB036090CC0388
:101920007090CD038090C6039090C703A090C80329
:10193000B090C9038091C2039091C303A091C403E6
:10194000B091C50389839A83AB83BC83A3019201C1
:10195000C301B2010E94B61A6B017C01A50194017A
:10196000C501B4010E94B61AC60ED71EE81EF91EA4
:1019700029813A814B815C81CA01B9010E94B61A62
:101980006C0D7D1D8E1D9F1D0E946C0F0E94CE1040
:101990000E94340F609372037093730380937403F7
:1019A000909375030E946C0F6B017C01C501B4011B
:1019B0000E946C0FA70196010E94C20E0E94A70E02
:1019C0004B015C01C301B2010E946C0FA70196019B
:1019D0000E94C20E0E94A70E6B017C012BE13FE228
:1019E00045E652E4C501B4010E94531020E030E006
:1019F00040E050E40E943A0E4B015C016093080302
:101A00007093090380930A0390930B032BE13FE249
:101A100045E652ECC701B6010E94531020E030E0C9
:101A200040EB50E40E943B0E6B017C0160930C0381
:101A300070930D0380930E0390930F038091FC032A
:101A40008823D9F08092040390920503A0920603A4
:101A5000B0920703C0920003D0920103E092020308
:101A6000F09203031092FC021092FD021092FE020B
:101A70001092FF021092FC0344C029EC35EE4FE7B0
:101A80005FE36D817E818F8198850E9453102B01C9
:101A90003C0127E137EB41ED59E3C501B4010E9458
:101AA00053109B01AC01C301B2010E943B0E609335
:101AB000040370930503809306039093070329ECB6
:101AC00035EE4FE75FE369857A858B859C850E94BB
:101AD00053104B015C0127E137EB41ED59E3C7019E
:101AE000B6010E9453109B01AC01C501B4010E94D4
:101AF0003B0E609300037093010380930203909365
:101B000003038091D4039091D503089731F466E9DB
:101B100072E08BE294E00E946C138091D403909168
:101B2000D503099771F44091040350910503609126
:101B300006037091070322E030E08BE294E00E94FC
:101B40004F158091D4039091D5030A9731F469E938
:101B500072E08BE294E00E946C138091D403909128
:101B6000D5030B9771F440910003509101036091EC
:101B700002037091030322E030E08BE294E00E94C4
:101B80004F158091D4039091D5030C9731F46DE9F2
:101B900072E08BE294E00E946C138091D4039091E8
:101BA000D5030D9771F44091FC025091FD026091B4
:101BB000FE027091FF0222E030E08BE294E00E948E
:101BC0004F158091D4039091D5030E9731F461EABB
:101BD00072E08BE294E00E946C138091D4039091A8
:101BE000D5030E97B1F420E030E043E852E4609171
:101BF00010037091110380911203909113030E94BE
:101C0000C20EAB01BC0122E030E08BE294E00E9406
:101C100051158091D4039091D50301968F30910591
:101C200011F488E090E09093D5038093D4030BC027
:101C300081E08093FF03C3CA82E08093FF03D2CA8E
:101C40001092FF03E2CA2C960FB6F894DEBF0FBEC7
:101C5000CDBFDF91CF911F910F91FF90EF90DF905B
:101C6000CF90BF90AF909F908F907F906F905F903C
:101C70004F9008955058BB27AA270E94520E0C94EB
:101C800019100E940B1038F00E94121020F039F445
:101C90009F3F19F426F40C94CD0F0EF4E095E7FB6A
:101CA0000C94C70FE92F0E942A1058F3BA17620745
:101CB00073078407950720F079F4A6F50C944C106F
:101CC0000EF4E0950B2EBA2FA02D0B01B901900157
:101CD0000C01CA01A0011124FF27591B99F0593F9B
:101CE00050F4503E68F11A16F040A22F232F342FE3
:101CF0004427585FF3CF469537952795A795F04031
:101D00005395C9F77EF41F16BA0B620B730B840B45
:101D1000BAF09150A1F0FF0FBB1F661F771F881FFD
:101D2000C2F70EC0BA0F621F731F841F48F4879555
:101D300077956795B795F7959E3F08F0B0CF939547
:101D4000880F08F09927EE0F9795879508959F9330
:101D50009F77EEE389379E0728F4E8E6F0E00E94DB
:101D6000F70F0CC00E94A70F9058A2EA2AED3FE09F
:101D700049EC5FE30E94520E0E9419100F9007FC7D
:101D8000905808950E94D60E0C9419100E941210BB
:101D900058F00E940B1040F029F45F3F29F00C949A
:101DA000C70F51110C944D100C94CD0F0E942A10A6
:101DB00068F39923B1F3552391F3951B550BBB277A
:101DC000AA2762177307840738F09F5F5F4F220FBF
:101DD000331F441FAA1FA9F335D00E2E3AF0E0E8B6
:101DE00032D091505040E695001CCAF72BD0FE2F00
:101DF00029D0660F771F881FBB1F26173707480794
:101E0000AB07B0E809F0BB0B802DBF01FF2793584B
:101E10005F4F3AF09E3F510578F00C94C70F0C9439
:101E20004D105F3FE4F3983ED4F386957795679520
:101E3000B795F7959F5FC9F7880F911D9695879580
:101E400097F90895E1E0660F771F881FBB1F62179F
:101E500073078407BA0720F0621B730B840BBA0B5D
:101E6000EE1F88F7E09508950E943B0F6894B1112A
:101E70000C944D1008950E94321088F09F5798F0EE
:101E8000B92F9927B751B0F0E1F0660F771F881F7F
:101E9000991F1AF0BA95C9F714C0B13091F00E9499
:101EA0004C10B1E008950C944C10672F782F8827C0
:101EB000B85F39F0B93FCCF3869577956795B395C0
:101EC000D9F73EF490958095709561957F4F8F4F2F
:101ED0009F4F0895E89409C097FB3EF49095809534
:101EE000709561957F4F8F4F9F4F9923A9F0F92FE0
:101EF00096E9BB279395F695879577956795B7955E
:101F0000F111F8CFFAF4BB0F11F460FF1BC06F5F43
:101F10007F4F8F4F9F4F16C0882311F096E911C055
:101F2000772321F09EE8872F762F05C0662371F076
:101F300096E8862F70E060E02AF09A95660F771F8A
:101F4000881FDAF7880F9695879597F90895DF939C
:101F5000CF931F930F938B01EC01ECE7F0E00E940D
:101F6000D00F0E9419109801AE018B01EC0160E0C6
:101F700070E080E89FE30E943A0E0E94CE10980124
:101F8000AE010F911F91CF91DF910C94661097F9DC
:101F90009F6780E870E060E008959FEF80EC08950F
:101FA000DF93CF931F930F93FF92EF92DF927B010A
:101FB0008C01689406C0DA2EEF010E946610FE01C3
:101FC000E894A5912591359145915591A6F3EF019E
:101FD0000E94520EFE019701A801DA9469F7DF9082
:101FE000EF90FF900F911F91CF91DF9108959F93F4
:101FF0008F937F936F93FF93EF939B01AC010E94AC
:102000005310EF91FF910E94D00F2F913F914F916C
:102010005F910C94531000240A94161617061806A4
:102020000906089500240A941216130614060506DC
:102030000895092E0394000C11F4882352F0BB0F6D
:1020400040F4BF2B11F460FF04C06F5F7F4F8F4FD0
:102050009F4F089557FD9058440F551F59F05F3F0B
:1020600071F04795880F97FB991F61F09F3F79F0BA
:1020700087950895121613061406551FF2CF46953C
:10208000F1DF08C0161617061806991FF1CF8695BE
:102090007105610508940895E894BB2766277727A2
:1020A000CB0197F908950E9466100C9419100E94B4
:1020B0000B1038F00E94121020F0952311F00C94B0
:1020C000C70F0C94CD0F11240C944D100E942A10B0
:1020D00070F3959FC1F3950F50E0551F629FF0017B
:1020E000729FBB27F00DB11D639FAA27F00DB11D94
:1020F000AA1F649F6627B00DA11D661F829F22271D
:10210000B00DA11D621F739FB00DA11D621F839FA3
:10211000A00D611D221F749F3327A00D611D231F79
:10212000849F600D211D822F762F6A2F11249F57C7
:1021300050409AF0F1F088234AF0EE0FFF1FBB1FCA
:10214000661F771F881F91505040A9F79E3F510589
:1021500080F00C94C70F0C944D105F3FE4F3983E51
:10216000D4F3869577956795B795F795E7959F5F33
:10217000C1F7FE2B880F911D9695879597F90895C5
:102180009F930E9425110F9007FCEE5F0C944E1157
:1021900019F416F40C94CD0F0C940E110E94321009
:1021A000B8F39923C9F3B6F39F57550B87FF0E94E5
:1021B0001C110024A0E640EA90018058569597959E
:1021C00028F4805C660F771F881F20F026173707DA
:1021D000480730F4621B730B840B202931294A2BEA
:1021E000A69517940794202531254A2758F7660F9E
:1021F000771F881F20F026173707480730F4620B37
:10220000730B840B200D311D411DA09581F7B90181
:10221000842F9158880F9695879508959F3F31F0A8
:10222000915020F4879577956795B795880F911D04
:102230009695879597F9089591505040660F771FAE
:10224000881FD2F708950C94CD0F0E943210D8F356
:10225000E894E0E0BB279F57F0F02AED3FE049EC1F
:1022600006C0EE0FBB0F661F771F881F28F0B23A1B
:1022700062077307840728F0B25A620B730B840B52
:10228000E3959A9572F7803830F49A95BB0F661FE4
:10229000771F881FD2F790480C941011EF93E0FF3E
:1022A00007C0A2EA2AED3FE049EC5FEB0E94520E24
:1022B0000E9419100F90039401FC9058E4EAF0E09A
:1022C0000C94F70FFC01918D228D892F90E0805C9A
:1022D0009F4F821B91098F7399270895FC01918D5F
:1022E000828D981731F0828DE80FF11D858D90E079
:1022F00008958FEF9FEF0895FC01918D828D9817BF
:1023000061F0828DDF01A80FB11D5D968C91928DD9
:102310009F5F9F73928F90E008958FEF9FEF0895D6
:1023200085EE92E1892B49F080E090E0892B29F03D
:102330000E94E51281110C9400000895FC01848D27
:10234000DF01A80FB11DA35ABF4F2C91848D90E0DF
:1023500001968F739927848FA689B7892C93A089BA
:10236000B1898C9180648C93938D848D981306C071
:102370000288F389E02D80818F7D80830895CF933B
:10238000DF93EC01888D8823C9F0EA89FB8980817D
:1023900085FD05C0A889B9898C9186FD0FC00FB64F
:1023A00007FCF5CF808185FFF2CFA889B9898C9190
:1023B00085FFEDCFCE010E949E11E7CFDF91CF9137
:1023C0000895EF92FF920F931F93CF93DF93EC0149
:1023D00081E0888F9B8D8C8D981305C0E889F989E1
:1023E000808185FD24C0F62E0B8D10E00F5F1F4FFE
:1023F0000F731127E02E8C8DE8120CC00FB607FC6E
:10240000FACFE889F989808185FFF5CFCE010E9456
:102410009E11F1CF8B8DFE01E80FF11DE35AFF4FA6
:10242000F0820B8FEA89FB898081806207C0EE8988
:10243000FF896083E889F98980818064808381E0F5
:1024400090E0DF91CF911F910F91FF90EF90089551
:10245000CF92DF92EF92FF921F93CF93DF93EC0125
:102460006A017B01122FE889F98982E08083411596
:10247000514E61057105B1F060E079E08DE390E0C7
:10248000A70196010E94DA1ADA01C9010197A10990
:10249000B109B695A79597958795AC01411580E14F
:1024A0005807A8F0E889F989108260E874E88EE19D
:1024B00090E0A70196010E94DA1ABA01A9014150E1
:1024C0005109610971097695679557954795EC858E
:1024D000FD855083EE85FF854083188EEC89FD894C
:1024E0001083EA89FB89808180618083EA89FB8986
:1024F000808188608083EA89FB898081806880830D
:10250000EA89FB8980818F7D8083DF91CF911F9144
:10251000FF90EF90DF90CF9008951F920F920FB62B
:102520000F9211242F938F939F93EF93FF93E0913A
:102530003B04F0913C048081E0914104F09142041D
:1025400082FD12C09081809144048F5F8F7320912F
:102550004504821751F0E0914404F0E0E55DFB4F43
:10256000958F8093440401C08081FF91EF919F91EA
:102570008F912F910F900FBE0F901F9018951F9263
:102580000F920FB60F9211242F933F934F935F93A7
:102590006F937F938F939F93AF93BF93EF93FF932B
:1025A0008BE294E00E949E11FF91EF91BF91AF9159
:1025B0009F918F917F916F915F914F913F912F915B
:1025C0000F900FBE0F901F9018958BE294E00E9421
:1025D000621121E0892B09F420E0822F0895EBE2BB
:1025E000F4E01382128288EE93E0A0E0B0E08483EE
:1025F0009583A683B7838EEB92E09183808385ECED
:1026000090E09587848784EC90E09787868780ECBC
:1026100090E0918B808B81EC90E0938B828B82ECAD
:1026200090E0958B848B86EC90E0978B868B118E57
:10263000128E138E148E089508950E944B170E94D7
:102640001C130E94C104C0E9D1E10E944B072097EE
:10265000E1F30E949011F9CFCF92DF92EF92FF92B7
:102660000F931F93CF93DF936C017A018B01C0E02E
:10267000D0E0CE15DF0589F0D8016D918D01D6012E
:10268000ED91FC910190F081E02DC6010995892B17
:1026900011F47E0102C02196ECCFC701DF91CF91EA
:1026A0001F910F91FF90EF90DF90CF9008956115EB
:1026B000710579F0FB0101900020E9F73197AF0136
:1026C000461B570BDC01ED91FC910280F381E02D5C
:1026D000099480E090E008950C945713DC01ED918B
:1026E000FC910190F081E02D09946AEC72E00C9469
:1026F00057130F931F93CF93DF93EC010E9457134F
:102700008C01CE010E947513800F911FDF91CF9134
:102710001F910F9108958F929F92AF92BF92CF9287
:10272000DF92EF92FF920F931F93CF93DF93CDB77A
:10273000DEB7A1970FB6F894DEBF0FBECDBF7C0108
:10274000D42EC52EDB0119A2223008F42AE08E0116
:102750000F5D1F4F822E912CA12CB12C6D2D7C2D45
:10276000CD01A50194010E94DA1AD22EC32EDA01FE
:10277000015011096A3071058105910510F4605D01
:1027800001C0695CF8016083232B242B252B31F7D2
:10279000B801C7010E945713A1960FB6F894DEBF87
:1027A0000FBECDBFDF91CF911F910F91FF90EF90A2
:1027B000DF90CF90BF90AF909F908F900895CF9271
:1027C000DF92EF92FF920F931F93CF93DF93EC0171
:1027D0006A017B012115310579F4E881F9810190C5
:1027E000F081E02D642FDF91CF911F910F91FF9029
:1027F000EF90DF90CF9009942A303105E9F477FF0C
:102800001AC06DE20E946E138C0144275527BA014D
:102810004C195D096E097F092AE0CE010E948B13D5
:10282000800F911FDF91CF911F910F91FF90EF903B
:10283000DF90CF9008952AE0B701A601CE01DF9185
:10284000CF911F910F91FF90EF90DF90CF900C945C
:102850008B139A01AB01770F660B770B0C94DF1388
:102860000F931F93CF93DF93EC019A01AB01770F86
:10287000660B770B0E94DF138C01CE010E9475134B
:10288000800F911FDF91CF911F910F9108950F93AA
:102890001F93CF93DF93EC010E94DF138C01CE01D5
:1028A0000E947513800F911FDF91CF911F910F919F
:1028B00008952115310541F4DC01ED91FC91019061
:1028C000F081E02D642F09940C948B139A01462F0C
:1028D00050E060E070E00C9459144F925F926F9258
:1028E0007F928F929F92AF92BF92CF92DF92EF92A0
:1028F000FF92CF93DF93EC016A017B01B22E9A0124
:10290000AB01C701B6010E94B11A882319F06DEC22
:1029100072E027C026013701E89477F82FEF3FEFE8
:102920004FE75FE7C301B2010E94B11A81110DC0E8
:102930002FEF3FEF4FE75FE7C301B2010E94831A19
:1029400018161CF461ED72E00CC02FEF3FEF4FE75B
:102950005FE4C701B6010E94AC1A18169CF465ED3D
:1029600072E0CE01DF91CF91FF90EF90DF90CF909A
:10297000BF90AF909F908F907F906F905F904F909F
:102980000C9457132FEF3FEF4FE75FECC701B601F1
:102990000E94831A87FDE3CF20E030E0A901C70140
:1029A000B6010E94831A87FF0AC06DE2CE010E9421
:1029B0006E134C01F7FAF094F7F8F09402C0812CF2
:1029C000912CA12C60E070E080E09FE3AB1441F01B
:1029D00020E030E040E251E40E94C20EA394F6CF22
:1029E0009B01AC01C701B6010E943B0E2B013C01CB
:1029F0000E943B0F6B017C010E946A0F9B01AC019E
:102A0000C301B2010E943A0E2B013C012AE0B7013A
:102A1000A601CE010E948B137C01E80CF91CBB209F
:102A200031F06EE2CE010E946E13E80EF91EDB2C2F
:102A3000DD2029F120E030E040E251E4C301B201A1
:102A40000E9453102B013C010E943B0F4B01A12C13
:102A5000B12C2AE0B501A401CE010E948B13E80E2F
:102A6000F91EC501B4010E946A0F9B01AC01C301AC
:102A7000B2010E943A0E2B013C01DA94D9CFC70172
:102A8000DF91CF91FF90EF90DF90CF90BF90AF900C
:102A90009F908F907F906F905F904F9008950C94CF
:102AA0006D140F931F93CF93DF93EC010E946D146D
:102AB0008C01CE010E947513800F911FDF91CF9181
:102AC0001F910F9108958091F80490E02091F904EE
:102AD000821B910908959091F9048091F804981748
:102AE00050F4E92FF0E0E650FB4F208130E09F5F8B
:102AF0009093F90402C02FEF3FEFC9010895E091D0
:102B0000F9048091F804E81730F4F0E0E650FB4F48
:102B1000808190E008958FEF9FEF08950895CF9200
:102B2000DF92EF92FF920F931F93CF93DF937C017D
:102B3000262F972F8A018091D404882391F0C62FE5
:102B4000D72F6E01C40ED51ECC15DD0571F069912D
:102B5000D701ED91FC910190F081E02DC70109951D
:102B6000F3CF642F822F0E941E19C801DF91CF91ED
:102B70001F910F91FF90EF90DF90CF900895CF932A
:102B8000DF931F92CDB7DEB769832091D40422234F
:102B9000D1F02091D504203240F021E030E0FC015A
:102BA0003383228380E090E015C08091D604E82F23
:102BB000F0E0E952FB4F998190838F5F8093D604B8
:102BC0008093D50405C061E0CE0101960E941E19D4
:102BD00081E090E00F90DF91CF910895FC01138286
:102BE000128288EE93E0A0E0B0E084839583A68310
:102BF000B7838DED92E09183808308951092F9045C
:102C00001092F8041092D6041092D5040C94621815
:102C100081E08093D4046093F7041092D60410925C
:102C2000D50408950C9408160F93062F21E04091C7
:102C3000D50467ED74E08091F7040E94C8181092E3
:102C4000D6041092D5041092D4040F9108954F9297
:102C50005F926F927F92AF92BF92CF92EF92FF926C
:102C60000F931F93CF93DF935C01F62ED42F28018F
:102C70003901EE2021F10E940816CE2DC43008F053
:102C8000C3E0C150C0F0D501ED91FC91B8E0CB9FFD
:102C9000C0011124A301920104C0569547953795B0
:102CA00027958A95D2F7CA01B9010190F081E02DEC
:102CB000C5010995E6CF60E0C5010E9414164D2FAD
:102CC000D13208F040E22C2D6AEF74E08F2D0E9483
:102CD00080181092F9048093F804DF91CF911F912E
:102CE0000F91FF90EF90CF90BF90AF907F906F903B
:102CF0005F904F900895CF92EF920F931F93C22E43
:102D0000E12C00E010E098010E9427161F910F911E
:102D1000EF90CF90089521E00C947B1661E00C9425
:102D2000141688EC94E00C94EE151F920F920FB6D7
:102D30000F9211242F933F938F939F93AF93BF9341
:102D400080911B0590911C05A0911D05B0911E0559
:102D500030911A0523E0230F2D3720F40196A11D91
:102D6000B11D05C026E8230F0296A11DB11D2093B9
:102D70001A0580931B0590931C05A0931D05B09325
:102D80001E0580911F0590912005A0912105B0910D
:102D900022050196A11DB11D80931F05909320056A
:102DA000A0932105B0932205BF91AF919F918F9180
:102DB0003F912F910F900FBE0F901F9018953FB726
:102DC000F89480911F0590912005A0912105B09164
:102DD000220526B5A89B05C02F3F19F00196A11D1D
:102DE000B11D3FBFBA2FA92F982F8827820F911DA1
:102DF000A11DB11DBC01CD0142E0660F771F881FE8
:102E0000991F4A95D1F708958F929F92AF92BF92E2
:102E1000CF92DF92EF92FF926B017C010E94DF164E
:102E20004B015C01C114D104E104F10401F10E94E1
:102E300061180E94DF16DC01CB0188199909AA09E3
:102E4000BB09883E9340A105B10560F321E0C21A99
:102E5000D108E108F10888EE880E83E0981EA11CD5
:102E6000B11CC114D104E104F10419F7DBCFFF90C8
:102E7000EF90DF90CF90BF90AF909F908F9008958C
:102E80008230910538F0880F991F880F991F059798
:102E90000197F1F70895789484B5826084BD84B574
:102EA000816084BD85B5826085BD85B5816085BD45
:102EB000EEE6F0E0808181608083E1E8F0E010825E
:102EC000808182608083808181608083E0E8F0E09F
:102ED000808181608083E1EBF0E080818460808389
:102EE000E0EBF0E0808181608083EAE7F0E08081C0
:102EF0008460808380818260808380818160808320
:102F00008081806880831092C10008958E3008F01F
:102F10008E5087702091000190E4299F9001112428
:102F2000822B80937C0080917A00806480937A0069
:102F300080917A0086FDFCCF809178002091790005
:102F400090E0922B0895833081F028F4813099F03D
:102F50008230A1F008958730A9F08830B9F084302C
:102F6000D1F4809180008F7D03C0809180008F77A5
:102F700080938000089584B58F7702C084B58F7DDB
:102F800084BD08958091B0008F7703C08091B00018
:102F90008F7D8093B0000895CF93DF9390E0FC0184
:102FA000EA52FF4F2491FC01E651FF4F84918823A0
:102FB00061F190E0880F991FFC01EE5EFE4FC59114
:102FC000D491FC01E85FFE4FA591B491611109C055
:102FD0009FB7F8948881209582238883EC912E23D3
:102FE0000BC0623061F49FB7F8943881822F8095CE
:102FF00083238883EC912E2B2C939FBF06C08FB721
:10300000F894E8812E2B28838FBFDF91CF9108950C
:103010001F93CF93DF93282F30E0F901EE53FF4F3A
:103020008491F901EA52FF4FD491F901E651FF4F23
:10303000C491CC23C9F0162F81110E94A317EC2F45
:10304000F0E0EE0FFF1FE85FFE4FA591B4918FB740
:10305000F894111105C09C91ED2FE095E92302C071
:10306000EC91ED2BEC938FBFDF91CF911F910895E1
:10307000CF93DF93282F30E0F901EE53FF4F849177
:10308000F901EA52FF4FD491F901E651FF4FC49183
:10309000CC2391F081110E94A317EC2FF0E0EE0FEA
:1030A000FF1FE250FF4FA591B491EC91ED2381E019
:1030B00090E021F480E002C080E090E0DF91CF91C9
:1030C000089508951092900581E080938E051092E6
:1030D0008D0561E082E10E94081861E083E10E94B1
:1030E0000818E9EBF0E080818E7F808380818D7FFE
:1030F000808388E48093B80085E48093BC000895C1
:10310000413208F043C0909190059111FCCF91E0BD
:103110009093900520938E052FEF20932305109216
:103120006805240F2093670590938F0590918F0574
:10313000880F892B80938F0580918D05813061F4F4
:1031400010928D0580918F058093BB008091BC000B
:1031500083FDF8CF85EC01C085EE8093BC008091A3
:1031600090058130E1F380916805841710F4409157
:10317000680529E635E0FB01D9018A2F821B8417F7
:1031800018F48D918193F9CF842F089580E00895EC
:103190000F93413208F04AC0909190059111FCCFF5
:1031A00032E03093900500938E053FEF3093230576
:1031B0001092680540936705FB0169E675E0DB0145
:1031C0003A2F361B341718F431913D93F9CF1092F2
:1031D0008F0530918F05880F832B80938F05809109
:1031E0008D05813061F410928D0580918F0580935B
:1031F000BB008091BC0083FDF8CF85EC01C085EE5B
:103200008093BC00222321F0809190058230D1F37D
:10321000809123058F3F79F080912305803241F022
:1032200080912305803331F094E005C091E003C024
:1032300092E001C093E0892F0F91089540914505D8
:10324000262F30E0240F311D21323105DCF420918E
:1032500090052430C9F4FC0180E090E0861758F412
:10326000309145052191DC01A95BBA4FA30FB11D37
:103270002C930196F3CF80914505680F6093450527
:1032800080E0089581E0089582E0089585ED8093BF
:10329000BC008091BC0084FDFCCF10929005089585
:1032A00085EC8093BC001092900508951F920F92B8
:1032B0000FB60F9211242F933F934F935F936F9309
:1032C0007F938F939F93AF93BF93EF93FF938091DF
:1032D000B900887F803609F49EC078F5883209F4F9
:1032E0005DC090F4803109F456C038F4882309F4A5
:1032F000F5C0883009F44FC0F5C0883109F44EC0DC
:10330000803209F45FC0EEC0803409F46AC058F41A
:10331000803309F457C0883309F0E4C08093230553
:103320000E945019DFC0803509F44FC0883509F478
:103330005DC0883409F0D6C0D3C0883909F4C4C050
:10334000A8F4883709F467C038F4883609F463C0F4
:10335000803709F460C0C6C0883809F4B5C0803928
:1033600009F45FC0803809F0BDC05BC0803B09F440
:1033700083C038F4803A09F466C0883A09F47CC006
:10338000B1C0803C09F4A4C0883C09F4A1C0883BCA
:1033900009F487C0A7C080918F0510C0909168057F
:1033A00080916705981770F5E091680581E08E0FB0
:1033B00080936805F0E0E759FA4F80818093BB0065
:1033C00085EC83C0809323058BC0E091680581E084
:1033D0008E0F809368058091BB00F0E0E759FA4FAB
:1033E000808390916805809167056BC0E0916805C6
:1033F00081E08E0F809368058091BB00F0E0E75973
:10340000FA4F808380918E0581116AC081E080939C
:103410008D0584EA5EC083E08093900510922405B8
:10342000CFCF80912405803208F04EC0E091240572
:1034300081E08E0F809324058091BB00F0E0EB5D6E
:10344000FA4F8083BDCF0E945019809124058032AD
:1034500030F4E0912405F0E0EB5DFA4F10826091CA
:10346000240570E0E0918905F0918A0585E295E0F8
:1034700009951092240536C084E08093900510923F
:10348000460510924505E0918B05F0918C05099554
:1034900080914505811105C081E08093450510921A
:1034A0004705E091460581E08E0F80934605F0E0E8
:1034B000E95BFA4F80818093BB0090914605809133
:1034C0004505981708F47CCF85E88093BC000AC0B6
:1034D00085EC8093BC001092900504C010922305E7
:1034E0000E944619FF91EF91BF91AF919F918F91EB
:1034F0007F916F915F914F913F912F910F900FBEF0
:103500000F901F9018950E94881A08F481E0089582
:10351000990F0008550FAA0BE0E8FEEF16161706E4
:10352000E807F907C0F012161306E407F50798F04C
:10353000621B730B840B950B39F40A2661F0232B65
:10354000242B252B21F408950A2609F4A140A695E1
:103550008FEF811D811D08950E94881A08F48FEF56
:1035600008950E94881A880B990B0895DB018F93A8
:103570009F930E94391BBF91AF91A29F800D911D17
:10358000A39F900DB29F900D1124089597FB072ED5
:1035900016F4009407D077FD09D00E94441B07FC65
:1035A00005D03EF4909581959F4F08957095619553
:1035B0007F4F0895A1E21A2EAA1BBB1BFD010DC06F
:1035C000AA1FBB1FEE1FFF1FA217B307E407F507D3
:1035D00020F0A21BB30BE40BF50B661F771F881FAF
:1035E000991F1A9469F760957095809590959B0145
:1035F000AC01BD01CF010895052E97FB1EF4009488
:103600000E94131B57FD07D00E94DA1A07FC03D053
:103610004EF40C94131B50954095309521953F4FD7
:103620004F4F5F4F089590958095709561957F4FAE
:103630008F4F9F4F08950E94231B332312F48A1B40
:103640009B0B0C94341BA29FB001B39FC001A39F9E
:10365000700D811D1124911DB29F700D811D1124CB
:10366000911D08950E94231BB7FF0895821B930BA1
:1036700008950E94231BA59F900DB49F900DA49FB9
:10368000800D911D11240895AA1BBB1B51E107C099
:10369000AA1FBB1FA617B70710F0A61BB70B881FE2
:1036A000991F5A95A9F780959095BC01CD01089571
:1036B000EE0FFF1F0590F491E02D0994F999FECFCC
:1036C00092BD81BDF89A992780B50895F894FFCFEF
:1036D0000153746172743A002020526F6C6C3A008E
:1036E0003C3C3C003E3E3E002D2B2D0020205069EE
:1036F0007463683A005E5E5E007676760020205441
:1037000068726F74746C653A0020205961773A00D2
:1037100020204348353A0020204348363A002020F4
:103720004348373A0020566F6C743A005265616422
:10373000696E672072656365697665722073696773
:103740006E616C732E005072696E7420746865200F
:1037500071756164636F7074657220616E676C650A
:10376000732E004779726F2063616C6962726174B5
:10377000696F6E2073746172747320696E203220D9
:103780007365636F6E64732028646F6E2774206D99
:103790006F7665207468652071756164636F7074FD
:1037A0006572292E0054657374206D6F746F7220DA
:1037B00031202872696768742066726F6E742043C6
:1037C00043572E290054657374206D6F746F7220F7
:1037D00032202872696768742072656172204357CD
:1037E0002E290054657374206D6F746F722033201E
:1037F000286C6566742072656172204343572E29D8
:103800000054657374206D6F746F72203420286CBF
:103810006566742066726F6E742043572E290054BB
:1038200065737420616C6C206D6F746F727320749B
:103830006F67657468657200536574207468726F91
:1038400074746C6520746F203130303020286C6FB8
:1038500077292E2049742773206E6F772073657443
:1038600020746F3A2000303A007C313A007C323AC2
:10387000007C333A0043616C6962726174696E67FF
:1038800020746865206779726F0000000000E11104
:103890002C1362117C116E11BF110D0A006E616E46
:1038A00000696E66006F76660000000000BF158F2D
:0A38B0001563156B157F158E1500CA
:04000005008003FF75
:00000001FF
