S01B0000414C2D466C69676874436F6E74726F6C6C65722E73726563CD
S11300000C9490000C94B8000C94B8000C949D01CE
S11300100C94B8000C9430010C94B8000C94B80003
S11300200C94B8000C94B8000C94B8000C94B8006C
S11300300C94B8000C94B8000C94B8000C94B8005C
S11300400C942D160C94B8000C94B8000C94B800C1
S11300500C94B8000C94B8000C94B8000C94B8003C
S11300600C94ED180C94B800036EDB363D9A999904
S1130070993DABAAAA2A3E000000803F072C7AA52E
S1130080BA6CC590DA3B9365FC8BBC53F810FD3C0D
S11300905692834DBD879D3AB63DCBC9BF5BBE73B7
S11300A0DA0FC93F05A84CCDB2D44EB93836A902EF
S11300B00C50B9918688083CA6AAAA2ABE00000062
S11300C0803F000000080002010000030407000054
S11300D0000000000000010204081020408001021A
S11300E00408102001020408102004040404040479
S11300F004040202020202020303030303030000D6
S1130100000023002600290000000000250028002C
S11301102B0000000000240027002A003D052816BB
S113012011241FBECFEFD8E0DEBFCDBF11E0A0E0A9
S1130130B1E0E8E8F5E302C005900D92AA32B107F8
S1130140D9F723E0AAE2B1E001C01D92A733B207B8
S1130150E1F710E0C0E9D0E004C02197FE010E945D
S1130160A51ACE38D107C9F70E94E0140C94C21A1C
S11301700C9400001F93CF93DF93E82FF0E0EF5C23
S1130180FD4F1789E12FE770F0E0EE0FFF1FDF014D
S1130190AF5FBD4F0D90BC91A02DEF5CFD4F378537
S11301A08685AF0141505109EA01488150E0542F3E
S11301B04427BF0162507109EB019881492B978153
S11301C02681A417B507DCF4E82FF0E0F32BAE1773
S11301D0BF070CF4DF01CA018A1B9B0BDC0124EF6F
S11301E031E00E947F1A9A012E1B3F0B032E000C54
S11301F0440B550B0E94601A17FF1CC020C04A17FD
S11302005B070CF530E0F901F92BEA17FB070CF456
S1130210DF01A41BB50B24EF31E00E947F1A9F017C
S1130220241B350B032E000C440B550B0E94601A43
S113023017FF05C08CED95E0821B930B06C0C90126
S113024084529A4F02C08CED95E0DF91CF911F91BB
S11302500895DC01ED91FC910190F081E02D099469
S11302601F920F920FB60F9211242F933F934F9327
S11302705F936F937F938F939F93AF93BF93EF930A
S1130280FF930E94771660939F017093A00180935F
S1130290A1019093A201209156024A9B0EC0211104
S11302A01BC021E0209356026093AB017093AC0114
S11302B08093AD019093AE010FC0213069F4109288
S11302C056022091AB013091AC01AB01421B530BA0
S11302D050930E0240930D02209155024B9B0EC089
S11302E021111AC021E0209355026093A701709355
S11302F0A8018093A9019093AA010EC0213061F452
S1130300109255022091A7013091A801621B730B32
S11303107093100260930F02FF91EF91BF91AF9120
S11303209F918F917F916F915F914F913F912F9109
S11303300F900FBE0F901F9018951F920F920FB63B
S11303400F9211242F933F934F935F936F937F9357
S11303508F939F93AF93BF93EF93FF930E9477166E
S11303606093A3017093A4018093A5019093A601C7
S113037020915B02189B0EC021111BC021E0209329
S11303805B026093BF017093C0018093C10190939D
S1130390C2010FC0213069F410925B022091BF01A9
S11303A03091C001AB01421B530B509304024093A4
S11303B0030220915A02199B0EC021111BC021E097
S11303C020935A026093BB017093BC018093BD01DA
S11303D09093BE010FC0213069F410925A0220910B
S11303E0BB013091BC01AB01421B530B509306027D
S11303F040930502209159021A9B0EC021111BC083
S113040021E0209359026093B7017093B80180935F
S1130410B9019093BA010FC0213069F410925902C6
S11304202091B7013091B801AB01421B530B50939B
S1130430080240930702209158021B9B0EC0211111
S11304401BC021E0209358026093B3017093B40160
S11304508093B5019093B6010FC0213069F41092D6
S113046058022091B3013091B401AB01421B530BEC
S113047050930A0240930902209157021C9B0EC01C
S113048021111AC021E0209357026093AF017093A9
S1130490B0018093B1019093B2010EC0213061F498
S11304A0109257022091AF013091B001621B730B7F
S11304B070930C0260930B02FF91EF91BF91AF9187
S11304C09F918F917F916F915F914F913F912F9168
S11304D00F900FBE0F901F9018954F925F926F92DE
S11304E07F928F929F92AF92BF92CF92DF92EF92C0
S11304F0FF92CF93DF9300D000D000D0CDB7DEB70A
S113050020917301309174014091750150917601ED
S113051060916F01709170018091710190917201ED
S11305200E9489116B017C0120911101309112010B
S113053040911301509114010E94D013209177012E
S1130540309178014091790150917A010E948A1189
S11305502B013C01609377017093780180937901BA
S113056090937A0120910B0130910C013E832D83ED
S1130570B901330F880B990B0E94C0124B015C0127
S11305809B01AC01C301B2010E94CB1318164CF4B9
S11305908092770190927801A0927901B0927A01C9
S11305A023C06D817E81719561957109072E000CC0
S11305B0880B990B0E94C01269837A838B839C8376
S11305C09B01AC01C301B2010E94111287FF0CC050
S11305D089819A81AB81BC81809377019093780162
S11305E0A0937901B0937A012091150130911601FD
S11305F04091170150911801C701B6010E94D01310
S113060020917701309178014091790150917A01DC
S11306100E948A112B013C012091670130916801ED
S11306204091690150916A01C701B6010E94891184
S113063020910D0130910E0140910F015091100154
S11306400E94D0139B01AC01C301B2010E948A1124
S11306502B013C019B01AC01C501B4010E941112A4
S113066087FD1EC06D817E81719561957109072E8C
S1130670000C880B990B0E94C0124B015C019B017A
S1130680AC01C301B2010E94111287FD09C040925E
S11306906B0150926C0160926D0170926E0108C002
S11306A080926B0190926C01A0926D01B0926E01E8
S11306B0C0926701D0926801E0926901F0926A01E8
S11306C020915F013091600140916101509162017C
S11306D060915B0170915C0180915D0190915E017C
S11306E00E9489116B017C0120916602309167029E
S11306F040916802509169020E94D01320916301D5
S11307003091640140916501509166010E948A1103
S11307102B013C0160936301709364018093650134
S113072090936601A0916002B0916102BE83AD8393
S1130730BD01BB0F880B990B0E94C0124B015C01D9
S11307409B01AC01C301B2010E94CB1318164CF4F7
S11307508092630190926401A0926501B092660157
S113076023C06D817E81719561957109072E000CFE
S1130770880B990B0E94C01269837A838B839C83B4
S11307809B01AC01C301B2010E94111287FF0CC08E
S113079089819A81AB81BC818093630190936401C8
S11307A0A0936501B093660120916A0230916B02B7
S11307B040916C0250916D02C701B6010E94D013A2
S11307C0209163013091640140916501509166016B
S11307D00E948A112B013C01209153013091540154
S11307E04091550150915601C701B6010E948911EB
S11307F0209162023091630240916402509165023B
S11308000E94D0139B01AC01C301B2010E948A1162
S11308102B013C019B01AC01C501B4010E941112E2
S113082087FD1EC06D817E81719561957109072ECA
S1130830000C880B990B0E94C0124B015C019B01B8
S1130840AC01C301B2010E94111287FD09C040929C
S11308505701509258016092590170925A0108C090
S11308608092570190925801A0925901B0925A0176
S1130870C0925301D0925401E0925501F092560176
S113088020914B0130914C0140914D0150914E010A
S113089060914701709148018091490190914A010A
S11308A00E9489116B017C0160937B0170937C0130
S11308B080937D0190937E01209103013091040186
S11308C040910501509106010E94D01320914F01DF
S11308D03091500140915101509152010E948A116E
S11308E02B013C0160934F0170935001809351019F
S11308F090935201A0910101B0910201BE83AD8396
S1130900BD01BB0F880B990B0E94C0124B015C0107
S11309109B01AC01C301B2010E94CB1318164CF425
S113092080924F0190925001A0925101B0925201D5
S113093023C06D817E81719561957109072E000C2C
S1130940880B990B0E94C01269837A838B839C83E2
S11309509B01AC01C301B2010E94111287FF0CC0BC
S113096089819A81AB81BC8180934F01909350011E
S1130970A0935101B09352012091070130910801D5
S11309804091090150910A01C701B6010E94D01398
S113099020914F01309150014091510150915201E9
S11309A00E948A112B013C0120913F0130914001AA
S11309B04091410150914201C701B6010E94891141
S11309C020915C0230915D0240915E0250915F0281
S11309D00E94D0139B01AC01C301B2010E948A1191
S11309E02B013C019B01AC01C501B4010E94111211
S11309F087FD1EC06D817E81719561957109072EF9
S1130A00000C880B990B0E94C0124B015C019B01E6
S1130A10AC01C301B2010E94111287FD09C04092CA
S1130A20430150924401609245017092460108C00E
S1130A308092430190924401A0924501B0924601F4
S1130A40C0923F01D0924001E0924101F0924201F4
S1130A5026960FB6F894DEBF0FBECDBFDF91CF91BF
S1130A60FF90EF90DF90CF90BF90AF909F908F90CA
S1130A707F906F905F904F900895809115019091B1
S1130A801601A0911701B091180180936A02909306
S1130A906B02A0936C02B0936D028091110190914E
S1130AA01201A0911301B0911401809366029093F6
S1130AB06702A0936802B093690280910D0190913E
S1130AC00E01A0910F01B0911001809362029093E6
S1130AD06302A0936402B093650280910B0190912C
S1130AE00C0190936102809360020895BF92CF92AB
S1130AF0DF92EF92FF920F931F93CF93DF93809136
S1130B005002813009F0DEC060911102709112022E
S1130B108EE692E00E94A1156BE370E08EE692E00F
S1130B200E9429018EE692E00E942416609111022F
S1130B30709112024EE050E08EE692E00E94201680
S1130B4081E00E94BA009093300280932F0282E0E9
S1130B500E94BA0090932E0280932D0283E00E949B
S1130B60BA0090932C0280932B0284E00E94BA0076
S1130B7090932A028093290288EB9BE020910B0238
S1130B8030910C02AC01421B530B5093280240934A
S1130B90270220910D0230910E02AC01421B530B2F
S1130BA0509326024093250220910F0230911002A7
S1130BB0821B930B90932402809323028EE692E08F
S1130BC00E94EF140E97D4F38EE692E00E94F7147D
S1130BD0C82F8EE692E00E94F71420E030E03C2F0C
S1130BE0822B932B9093FA018093F9018EE692E085
S1130BF00E94F714C82F8EE692E00E94F71420E0BA
S1130C0030E03C2F822B932B9093FC018093FB01CB
S1130C108EE692E00E94F714C82F8EE692E00E94BE
S1130C20F71420E030E03C2F822B932B9093FE01AD
S1130C308093FD018EE692E00E94F714C82F8EE6A1
S1130C4092E00E94F71420E030E03C2F822B932B9B
S1130C50909300028093FF018EE692E00E94F714C5
S1130C60C82F8EE692E00E94F71420E030E03C2F7B
S1130C70822B932B9093F2018093F1018EE692E004
S1130C800E94F714C82F8EE692E00E94F71420E029
S1130C9030E03C2F822B932B9093F4018093F3014B
S1130CA08EE692E00E94F714C82F8EE692E00E942E
S1130CB0F71420E030E03C2F822B932B9093F60125
S1130CC08093F5018091150290911602803D974022
S1130CD009F04EC06091F1017091F201072E000CF1
S1130CE0880B990B0E94C0122091830130918401DA
S1130CF040918501509186010E9489110E948812B9
S1130D007093F2016093F1016091F3017091F40129
S1130D10072E000C880B990B0E94C01220918701AA
S1130D20309188014091890150918A010E94891172
S1130D300E9488127093F4016093F3016091F501AD
S1130D407091F601072E000C880B990B0E94C012BB
S1130D5020918B0130918C0140918D0150918E0135
S1130D600E9489110E9488127093F6016093F50124
S1130D70C0904D020C2D037010E0000F111FF801FC
S1130D80E151FE4F60817181072E000C880B990B95
S1130D900E94C012C7FC09C0609393017093940130
S1130DA080939501909396010BC0DC01CB01B05860
S1130DB08093930190939401A0939501B09396012D
S1130DC0B0904E028B2D8370E82EF12CEE0CFF1C9C
S1130DD0F701E151FE4F60817181072E000C880BF1
S1130DE0990B0E94C012B7FC09C0609397017093DD
S1130DF098018093990190939A010BC0DC01CB0177
S1130E00B0588093970190939801A0939901B0935F
S1130E109A01D0904F02CD2DC370D0E0CC0FDD1FCE
S1130E20FE01E151FE4F60817181072E000C880B99
S1130E30990B0E94C012D7FC09C060938F01709374
S1130E40900180939101909392010BC0DC01CB013E
S1130E50B05880938F0190939001A0939101B09327
S1130E609201F701E950FE4F80819181092E000C17
S1130E70AA0BBB0BB7FE07C0B095A09590958195C2
S1130E809F4FAF4FBF4F8093E3019093E401A09332
S1130E90E501B093E601F801E950FE4F80819181AC
S1130EA0092E000CAA0BBB0BC7FE07C0B095A0957A
S1130EB0909581959F4FAF4FBF4F8093DF019093E3
S1130EC0E001A093E101B093E201C950DE4F8881B3
S1130ED09981092E000CAA0BBB0BD7FE07C0B09555
S1130EE0A095909581959F4FAF4FBF4F8093DB01A5
S1130EF09093DC01A093DD01B093DE01DF91CF91EB
S1130F001F910F91FF90EF90DF90CF90BF900895C5
S1130F104F925F926F927F928F929F92AF92BF9205
S1130F20CF92DF92EF92FF920F931F93CF93DF93B1
S1130F30CDB7DEB72A970FB6F894DEBF0FBECDBF8C
S1130F4080912D01811104C061E08FE00E94A017FF
S1130F508091230290912402843195402CF4809155
S1130F602D01882309F454C620E030E043E852E41C
S1130F7060919301709194018091950190919601F3
S1130F800E9416122AE939E949E95EE30E94D01366
S1130F906B017C0123E333E343E35FE360916F017F
S1130FA07091700180917101909172010E94D0132F
S1130FB09B01AC01C701B6010E948A1160936F01C5
S1130FC07093700180937101909372018091230258
S1130FD090912402853395402CF480912D0188232F
S1130FE009F41BC620E030E043E852E46091970125
S1130FF0709198018091990190919A010E94161222
S11310002AE939E949E95EE30E94D0136B017C01C6
S113101023E333E343E35FE360915B0170915C019D
S113102080915D0190915E010E94D0139B01AC01FF
S1131030C701B6010E948A1160935B0170935C0141
S113104080935D0190935E0120E030E043E852E438
S113105060918F0170919001809191019091920122
S11310600E9416122AE939E949E95EE30E94D01385
S11310706B017C0123E333E343E35FE360914701C6
S1131080709148018091490190914A010E94D013C6
S11310909B01AC01C701B6010E948A11609347010C
S11310A0709348018093490190934A0180912302EF
S11310B090912402883795402CF480912D01882347
S11310C009F4B0C520ED32E240E858E360919301A1
S11310D07091940180919501909196010E94D01392
S11310E020912F0130913001409131015091320112
S11310F00E948A116B017C012BE733E14FE855E331
S113110060918F0170919001809191019091920171
S11311100E94D0130E943D144B015C0120ED32E289
S113112040E858E36091970170919801809199018A
S113113090919A010E94D01320913301309134018F
S113114040913501509136010E948A112B013C01D6
S1131150A5019401C701B6010E94D0139B01AC0103
S1131160C301B2010E9489119B01AC016093330158
S1131170709334018093350190933601C501B40115
S11311800E94D013A70196010E948A1160932F0137
S11311907093300180933101909332018091230246
S11311A090912402893995402CF480912D01882353
S11311B009F43DC5C090E301D090E401E090E5015D
S11311C0F090E6018090DF019090E001A090E101B1
S11311D0B090E2018091DB019091DC01A091DD01EE
S11311E0B091DE0189839A83AB83BC83A701960106
S11311F0C701B6010E941A1A2B013C01A5019401F2
S1131200C501B4010E941A1A460E571E681E791EA3
S113121029813A814B815C81CA01B9010E941A1A61
S1131220640D751D861D971D0E94C0120E944B14EB
S11312300E9488122B013C016093D7017093D8015E
S11312408093D9019093DA01D501C401B7FE07C098
S113125088279927DC0188199909AA09BB098415EB
S11312609505A605B70504F5C501B4010E94C01291
S11312704B015C01C301B2010E94C0129B01AC018D
S1131280C501B4010E9416120E94F6112BE13FE23F
S113129045E652E40E94D0136093370170933801FD
S11312A08093390190933A01D701C601F7FE07C034
S11312B088279927DC018C199D09AE09BF0984157B
S11312C09505A605B70504F5C701B6010E94C0122D
S11312D06B017C01C301B2010E94C0129B01AC01ED
S11312E0C701B6010E9416120E94F6112BE13FE2DB
S11312F045E652EC0E94D01360933B0170933C018D
S113130080933D0190933E0120E030E040E050E4C2
S113131060913701709138018091390190913A01BF
S11313200E9489114B015C0160933701709338016D
S11313308093390190933A0120E030E040EB50E48F
S113134060913B0170913C0180913D0190913E017F
S11313500E948A116B017C0160933B0170933C01F4
S113136080933D0190933E0129EC35EE4FE75FE316
S1131370609133017091340180913501909136016F
S11313800E94D0132B013C0127E137EB41ED59E3D7
S1131390C501B4010E94D0139B01AC01C301B20189
S11313A00E948A114B015C016093330170933401F4
S11313B0809335019093360129EC35EE4FE75FE3D6
S11313C060912F017091300180913101909132012F
S11313D00E94D0132B013C0127E137EB41ED59E387
S11313E0C701B6010E94D0139B01AC01C301B20135
S11313F00E948A116B017C0160932F01709330016C
S1131400809331019093320120E030E040E751E4D1
S1131410C501B4010E94D0136093E7017093E80101
S11314208093E9019093EA0120E030E040E751E441
S1131430C701B6010E94D0136093EB017093EC01D5
S11314408093ED019093EE0180910001811110C011
S11314501092E7011092E8011092E9011092EA015A
S11314601092EB011092EC011092ED011092EE013A
S113147080912302909124028C3D95402CF480911C
S11314802D01882309F4D8C380912B0290912C025A
S11314908A31944044F48091290290912A028A313D
S11314A094400CF4CEC380911302909114020197DE
S11314B079F480912B0290912C028A31944044F467
S11314C08091290290912A028B3A95400CF0C0C376
S11314D08091130290911402029779F480912B0267
S11314E090912C028A31944044F480912902909185
S11314F02A028F3997400CF009C41092730110929C
S11315007401109275011092760180912F029091CE
S11315103002853E95403CF060912F02709130027C
S1131520645E75400DC080912F0290913002843D1D
S11315309540A4F460912F0270913002645D75406F
S1131540072E000C880B990B0E94C0126093730144
S11315507093740180937501909376012091EB014F
S11315603091EC014091ED015091EE0160917301D5
S11315707091740180917501909176010E94891196
S113158020E030E040E450E40E94161260937301BE
S113159070937401809375019093760110925F01AA
S11315A010926001109261011092620180912D02EB
S11315B090912E02853E95403CF060912D027091F1
S11315C02E02645E75400DC080912D0290912E0212
S11315D0843D9540A4F460912D0270912E02645DC7
S11315E07540072E000C880B990B0E94C012609363
S11315F05F01709360018093610190936201209177
S1131600E7013091E8014091E9015091EA016091CC
S11316105F017091600180916101909162010E946B
S1131620891120E030E040E450E40E9416126093F7
S11316305F01709360018093610190936201109245
S11316404B0110924C0110924D0110924E01809169
S11316502B0290912C028B3194407CF180912902D1
S113166090912A02853E95403CF060912902709148
S11316702A02645E75400DC08091290290912A026D
S1131680843D9540D4F46091290270912A02645DEE
S11316907540072E000C880B990B0E94C01220E0A5
S11316A030E040E450E40E94161260934B017093C2
S11316B04C0180934D0190934E010E946D028091E4
S11316C0230290912402843A96402CF480912D01B7
S11316D0882309F424C36091170270911802072E1D
S11316E0000C880B990B0E94C0122FE135E84BE6E1
S11316F05FE30E94D0136B017C0180E00E941E17FF
S11317008F5B9F4FBC01990F880B990B0E94C012ED
S113171029E13AEC49EC5DE30E94D013A70196015C
S11317200E948A110E948812709318026093170213
S1131730695572406F38714020F461E08FE00E9477
S1131740A0178091170290911802885E9340863406
S1131750910550F581E080932D0180912B019091AA
S11317602C0101968A3F910529F090932C018093D6
S11317702B0104C010922C0110922B0180912B019B
S113178090912C01892B21F461E08FE00E94A01735
S113179080912B0190912C018D37910539F460E0F3
S11317A08FE00E94A01702C010922D0180912B029D
S11317B090912C0290931A028093190220911302A3
S11317C0309114022230310509F00FC1893097405D
S11317D034F088E097E090931A0280931902809184
S11317E02A012091190230911A028823C9F08091AC
S11317F0270290912802281739076CF461E08DE0E4
S11318000E94A017809127029091280290931A02B7
S11318108093190210C060E08DE00E94A0170BC0F5
S1131820409127025091280281E0421753070CF09F
S113183080E080932A016091190270911A02072EA8
S1131840000C880B990B0E94C0122B013C01809163
S1131850570190915801A0915901B0915A0189837F
S11318609A83AB83BC839C01AD01C301B2010E9486
S113187089116D837E838F83988780906B0190900C
S11318806C01A0906D01B0906E01C0904301D090A6
S11318904401E0904501F0904601A50194010E94A5
S11318A08A11A70196010E948A110E9488127A87E0
S11318B06987709322026093210229813A814B81C6
S11318C05C81C301B2010E948A112B013C019B017E
S11318D0AC01C501B4010E948A11A70196010E94BE
S11318E089110E9488128B017093200260931F0259
S11318F0A5019401C301B2010E948911A7019601B7
S11319000E948A110E9488123B0170931E02609308
S11319101D02A50194016D817E818F8198850E94AD
S11319208911A70196010E9489110E9488129B01C6
S113193070931C0260931B02A985BA85AC34B44031
S113194034F48CE494E090932202809321020C34CA
S1131950144034F48CE494E09093200280931F02AA
S11319609CE4691694E0790634F48CE494E0909352
S11319701E0280931D022C34344034F48CE494E031
S113198090931C0280931B02809121029091220269
S1131990813D974034F080ED97E09093220280934C
S11319A0210280911F0290912002813D974034F0E2
S11319B080ED97E09093200280931F0280911D0296
S11319C090911E02813D974034F080ED97E0909312
S11319D01E0280931D0280911B0290911C02813D86
S11319E09740ACF080ED97E00EC088EE93E09093C2
S11319F02202809321029093200280931F029093ED
S1131A001E0280931D0290931C0280931B020E946D
S1131A10771600919B0110919C0120919D013091BA
S1131A209E01DC01CB01801B910BA20BB30B833D08
S1131A309F40A105B10520F061E08DE00E94A01750
S1131A400E94771600919B0110919C0120919D01A9
S1131A5030919E01DC01CB01801B910BA20BB30BD7
S1131A60803A9F40A105B10558F30E947716609310
S1131A709B0170939C0180939D0190939E018091A2
S1131A80230290912402883597402CF480912D01F3
S1131A90882309F449C18BB1806F8BB980919B0174
S1131AA090919C01A0919D01B0919E0140912102D1
S1131AB050912202052E000C660B770B480F591F1C
S1131AC06A1F7B1F4093D3015093D4016093D501C7
S1131AD07093D60140911F0250912002052E000CF4
S1131AE0660B770B480F591F6A1F7B1F4093CF016A
S1131AF05093D0016093D1017093D20140911D02A3
S1131B0050911E02052E000C660B770B480F591FCF
S1131B106A1F7B1F4093CB015093CC016093CD018E
S1131B207093CE0140911B0250911C02052E000CB3
S1131B30660B770B840F951FA61FB71F8093C701F1
S1131B409093C801A093C901B093CA010E9476057D
S1131B508BB1803108F4EDC00E9477166093C30105
S1131B607093C4018093C5019093C6010091D30181
S1131B701091D4012091D5013091D60160177107DD
S1131B808207930708F05C984091CF015091D001EF
S1131B906091D1017091D2018091C3019091C401EF
S1131BA0A091C501B091C60184179507A607B70790
S1131BB008F05D984091CB015091CC016091CD012A
S1131BC07091CE018091C3019091C401A091C5018F
S1131BD0B091C60184179507A607B70708F05E9869
S1131BE04091C7015091C8016091C9017091CA0127
S1131BF08091C3019091C401A091C501B091C60127
S1131C0084179507A607B70708F4A2CF5F98A0CF5B
S1131C1060E08FE00E94A017A7C960E08FE00E94F7
S1131C20A017E0C960E08FE00E94A0174BCA60E0F3
S1131C308FE00E94A017BECA60E08FE00E94A01748
S1131C4023CC81E090E090931402809313022BCC78
S1131C5082E090E0909314028093130210922A0180
S1131C608091370190913801A0913901B0913A01E6
S1131C708093330190933401A0933501B0933601DE
S1131C8080913B0190913C01A0913D01B0913E01B6
S1131C9080932F0190933001A0933101B0933201CE
S1131CA081E080932E0110927701109278011092B6
S1131CB0790110927A0110926701109268011092D2
S1131CC0690110926A0110926301109264011092EA
S1131CD06501109266011092530110925401109202
S1131CE055011092560110924F011092500110921A
S1131CF051011092520110923F0110924001109232
S1131D0041011092420110922D01E2CB1092140273
S1131D101092130260E08DE00E94A017EECB60E009
S1131D208FE00E94A017D7CC60E08FE00E94A0173C
S1131D30B2CE2A960FB6F894DEBF0FBECDBFDF91A8
S1131D40CF911F910F91FF90EF90DF90CF90BF90B4
S1131D50AF909F908F907F906F905F904F90089579
S1131D6080915002813009F0ACC0609111027091F1
S1131D7012028EE692E00E94A1156BE670E08EE6F8
S1131D8092E00E94290160E070E08EE692E00E94F9
S1131D9029018EE692E00E9424166091110270914E
S1131DA012028EE692E00E94A1156BE170E08EE6CD
S1131DB092E00E94290168E070E08EE692E00E94C1
S1131DC029018EE692E00E9424166091110270911E
S1131DD012028EE692E00E94A1156CE170E08EE69C
S1131DE092E00E94290160E170E08EE692E00E9498
S1131DF029018EE692E00E942416609111027091EE
S1131E0012028EE692E00E94A1156BE170E08EE66C
S1131E1092E00E9429018EE692E00E9424166091CD
S1131E2011027091120241E050E08EE692E00E94AD
S1131E3020168EE692E00E94EF1418161906CCF7CD
S1131E408EE692E00E94F714089759F061E08DE065
S1131E500E94A0176AE070E080E090E00E949C1667
S1131E60F9CF60911102709112028EE692E00E9405
S1131E70A1156AE170E08EE692E00E94290163E018
S1131E8070E08EE692E00E9429018EE692E00E94C4
S1131E90241660911102709112028EE692E00E9463
S1131EA0A1156DE170E08EE692E00E94290161E0E7
S1131EB070E08EE692E00E9429018EE692E00C9496
S1131EC024160895CF93DF931092140210921302F4
S1131ED0C0911302D0911402C432D1056CF4CE0126
S1131EE00E94BA1AFE01EF5CFD4F80832196D093C5
S1131EF01402C0931302ECCF109214021092130236
S1131F008091510290E090931202809311028EE628
S1131F1092E00E948C158CE08093B8008AB1806FA7
S1131F208AB9259A249861E08FE00E9464178AE0B8
S1131F3090E00E94D81661E08DE00E94A01760E056
S1131F408FE00E94A017809152028A3441F480915C
S1131F5053028D3421F480915402823439F06AE0C2
S1131F6070E080E090E00E949C16EDCF80915002DA
S1131F708250823030F46AE070E080E090E00E94A9
S1131F809C160E94B00E10921602109215028091B7
S1131F90150290911602823E9440C4F48BB1806F76
S1131FA08BB988EE93E00E94D8168BB18F708BB9F1
S1131FB088EB9BE00E94D81680911502909116023E
S1131FC001969093160280931502E1CF10921602A7
S1131FD010921502CFE0D0E0809115029091160284
S1131FE0803D27E092070CF085C0BE010E942A1AAA
S1131FF0892B51F48DE00E94CF1761E0892B09F001
S113200060E08DE00E94A0170E9476056091F101C6
S11320107091F201072E000C880B990B0E94C012DC
S11320209B01AC01609183017091840180918501D1
S1132030909186010E948A116093830170938401B8
S113204080938501909386016091F3017091F4016E
S1132050072E000C880B990B0E94C0129B01AC0147
S113206060918701709188018091890190918A0122
S11320700E948A116093870170938801809389017B
S113208090938A016091F5017091F601072E000C7E
S1132090880B990B0E94C0129B01AC0160918B01CB
S11320A070918C0180918D0190918E010E948A1112
S11320B060938B0170938C0180938D0190938E01BA
S11320C08BB1806F8BB988EE93E00E94D8168BB1E8
S11320D08F708BB963E070E080E090E00E949C1602
S11320E080911502909116020196909316028093A6
S11320F0150272CF60E08FE00E94A01720E030E06C
S11321004AEF54E4609183017091840180918501C8
S1132110909186010E94161260938301709384014A
S1132120809385019093860120E030E04AEF54E4E7
S113213060918701709188018091890190918A0151
S11321400E9416126093870170938801809389011D
S113215090938A0120E030E04AEF54E460918B01CF
S113216070918C0180918D0190918E010E941612C4
S113217060938B0170938C0180938D0190938E01F9
S11321808091680081608093680080916800846019
S11321908093680080916B00816080936B008091D4
S11321A06B00826080936B0080916B0084608093ED
S11321B06B0080916B00886080936B0080916B0052
S11321C0806180936B0080916D00846080936D00CA
S11321D080916D00886080936D0080912B029091B6
S11321E02C028E3D93400CF456C080912B029091AA
S11321F02C028D3F93400CF04EC0809129029091A7
S11322002A02883795400CF446C0109214021092AA
S1132210130280E00E941E178F5B9F4FBC01990F31
S1132220880B990B0E94C01228E538EA4DE95FE358
S11322300E94D0130E9488127093180260931702B0
S11322400E94771660939B0170939C0180939D017B
S113225090939E0160E08DE00E94A01761E08FE002
S11322600E94A01768EE73E080E090E00E949C1644
S113227060E08FE00E94A0170E94771660939B0194
S113228070939C0180939D0190939E0110922D0167
S1132290DF91CF91089583E00E94BA0090932C02BD
S11322A080932B0284E00E94BA0090932A028093C8
S11322B029028091130290911402019690931402C2
S11322C0809313028BB1806F8BB988EE93E00E94E8
S11322D0D8168BB18F708BB963E070E080E090E02A
S11322E00E949C1680911302909114028D379105DF
S11322F009F073CF8DE00E94CF1761E0892B09F0BC
S113230060E08DE00E94A017109214021092130254
S113231064CF5058BB27AA270E94A1110C94911393
S11323200E94831338F00E948A1320F039F49F3FEF
S113233019F426F40C9445130EF4E095E7FB0C9481
S11323403F13E92F0E94A21358F3BA1762077307C9
S11323508407950720F079F4A6F50C94C4130EF4C1
S1132360E0950B2EBA2FA02D0B01B90190010C01A1
S1132370CA01A0011124FF27591B99F0593F50F4B9
S1132380503E68F11A16F040A22F232F342F442711
S1132390585FF3CF469537952795A795F040539509
S11323A0C9F77EF41F16BA0B620B730B840BBAF0D9
S11323B09150A1F0FF0FBB1F661F771F881FC2F744
S11323C00EC0BA0F621F731F841F48F48795779558
S11323D06795B795F7959E3F08F0B0CF9395880F12
S11323E008F09927EE0F9795879508959F939F7707
S11323F0EEE389379E0728F4E8E6F0E00E946F13C5
S11324000CC00E94FB129058A2EA2AED3FE049EC6E
S11324105FE30E94A1110E9491130F9007FC905852
S113242008950E941B1308F481E008950E942A1263
S11324300C9491130E948A1358F00E94831340F065
S113244029F45F3F29F00C943F1351110C94C513E8
S11324500C9445130E94A21368F39923B1F35523F6
S113246091F3951B550BBB27AA27621773078407A3
S113247038F09F5F5F4F220F331F441FAA1FA9F339
S113248035D00E2E3AF0E0E832D091505040E69527
S1132490001CCAF72BD0FE2F29D0660F771F881F88
S11324A0BB1F261737074807AB07B0E809F0BB0B7B
S11324B0802DBF01FF2793585F4F3AF09E3F51058F
S11324C078F00C943F130C94C5135F3FE4F3983EEB
S11324D0D4F3869577956795B795F7959F5FC9F778
S11324E0880F911D9695879597F90895E1E0660FF9
S11324F0771F881FBB1F621773078407BA0720F072
S1132500621B730B840BBA0BEE1F88F7E0950895DA
S11325100E948F126894B1110C94C51308950E94FF
S1132520AA1388F09F5798F0B92F9927B751B0F0A4
S1132530E1F0660F771F881F991F1AF0BA95C9F743
S113254014C0B13091F00E94C413B1E008950C940A
S1132550C413672F782F8827B85F39F0B93FCCF3BD
S1132560869577956795B395D9F73EF490958095C0
S1132570709561957F4F8F4F9F4F0895E89409C0E0
S113258097FB3EF490958095709561957F4F8F4FA2
S11325909F4F9923A9F0F92F96E9BB279395F695B8
S11325A0879577956795B795F111F8CFFAF4BB0F36
S11325B011F460FF1BC06F5F7F4F8F4F9F4F16C09A
S11325C0882311F096E911C0772321F09EE8872F24
S11325D0762F05C0662371F096E8862F70E060E0E0
S11325E02AF09A95660F771F881FDAF7880F969559
S11325F0879597F90895DF93CF931F930F938B01DA
S1132600EC01ECE7F0E00E9448130E94911398015A
S1132610AE018B01EC0160E070E080E89FE30E9472
S113262089110E944B149801AE010F911F91CF9113
S1132630DF910C94E313990F0008550FAA0BE0E8FF
S1132640FEEF16161706E807F907C0F01216130670
S1132650E407F50798F0621B730B840B950B39F4B0
S11326600A2661F0232B242B252B21F408950A2616
S113267009F4A140A6958FEF811D811D089597F956
S11326809F6780E870E060E008959FEF80EC089514
S1132690DF93CF931F930F93FF92EF92DF927B010F
S11326A08C01689406C0DA2EEF010E94E313FE0148
S11326B0E894A5912591359145915591A6F3EF01A3
S11326C00E94A111FE019701A801DA9469F7DF9035
S11326D0EF90FF900F911F91CF91DF9108959F93F9
S11326E08F937F936F93FF93EF939B01AC010E94B1
S11326F0D013EF91FF910E9448132F913F914F9176
S11327005F910C94D01300240A9416161706180629
S11327100906089500240A941216130614060506E1
S11327200895092E0394000C11F4882352F0BB0F72
S113273040F4BF2B11F460FF04C06F5F7F4F8F4FD5
S11327409F4F089557FD9058440F551F59F05F3F10
S113275071F04795880F97FB991F61F09F3F79F0BF
S113276087950895121613061406551FF2CF469541
S1132770F1DF08C0161617061806991FF1CF8695C3
S11327807105610508940895E894BB2766277727A7
S1132790CB0197F908950E941B1308F48FEF089555
S11327A00E94E3130C9491130E94831338F00E9447
S11327B08A1320F0952311F00C943F130C944513C5
S11327C011240C94C5130E94A21370F3959FC1F3B6
S11327D0950F50E0551F629FF001729FBB27F00DCB
S11327E0B11D639FAA27F00DB11DAA1F649F662720
S11327F0B00DA11D661F829F2227B00DA11D621F6F
S1132800739FB00DA11D621F839FA00D611D221F28
S1132810749F3327A00D611D231F849F600D211D0C
S1132820822F762F6A2F11249F5750409AF0F1F08F
S113283088234AF0EE0FFF1FBB1F661F771F881FF8
S113284091505040A9F79E3F510580F00C943F13DE
S11328500C94C5135F3FE4F3983ED4F386957795C3
S11328606795B795F795E7959F5FC1F7FE2B880F9E
S1132870911D9695879597F908959F930E94A214A8
S11328800F9007FCEE5F0C94CB1419F416F40C941F
S113289045130C948B140E94AA13B8F39923C9F31B
S11328A0B6F39F57550B87FF0E9499140024A0E6A6
S11328B040EA900180585695979528F4805C660FFD
S11328C0771F881F20F026173707480730F4621B4C
S11328D0730B840B202931294A2BA695179407944E
S11328E0202531254A2758F7660F771F881F20F0C7
S11328F026173707480730F4620B730B840B200D3F
S1132900311D411DA09581F7B901842F9158880F7D
S11329109695879508959F3F31F0915020F48795BF
S113292077956795B795880F911D9695879597F933
S1132930089591505040660F771F881FD2F708956D
S11329400C9445130E94AA13D8F3E894E0E0BB2743
S11329509F57F0F02AED3FE049EC06C0EE0FBB0FA5
S1132960661F771F881F28F0B23A6207730784072F
S113297028F0B25A620B730B840BE3959A9572F7A5
S1132980803830F49A95BB0F661F771F881FD2F7E3
S113299090480C948D14EF93E0FF07C0A2EA2AED4F
S11329A03FE049EC5FEB0E94A1110E9491130F904C
S11329B0039401FC9058E4EAF0E00C946F1308953A
S11329C00E94E3160E94DF140E94620FC0E0D0E070
S11329D00E9488072097E1F30E940000F9CF8091BC
S11329E09E0290E020919F02821B9109089590918C
S11329F09F0280919E02981750F4E92FF0E0E05670
S1132A00FD4F208130E09F5F90939F0202C02FEF23
S1132A103FEFC9010895E0919F0280919E02E8175B
S1132A2030F4F0E0E056FD4F808190E008958FEFA0
S1132A309FEF08950895CF92DF92EF92FF920F9344
S1132A401F93CF93DF938C01CB016A0120917A020B
S1132A502223A1F041155105A1F0EB017B01E40E05
S1132A60F51E6991D801ED91FC910190F081E02D62
S1132A70C8010995CE15DF05A1F703C0642F0E9494
S1132A80B518C601DF91CF911F910F91FF90EF9080
S1132A90DF90CF900895CF93DF931F92CDB7DEB729
S1132AA0FC01698390917A029923D9F090917B0279
S1132AB0903238F081E090E09383828380E090E06C
S1132AC017C080917C02E82FF0E0E358FD4F998114
S1132AD090838F5F80937C0280937B0281E090E0FF
S1132AE007C061E0CE0101960E94B51881E090E034
S1132AF00F90DF91CF910895FC011382128288EE2A
S1132B0093E0A0E0B0E084839583A683B7838EE14D
S1132B1091E091838083089510929F0210929E0207
S1132B2010927C0210927B020E94F917089581E0B2
S1132B3080937A0260939D0210927C0210927B0231
S1132B4008950E94971508950F93062F21E0409150
S1132B507B026DE772E080919D020E945F181092E3
S1132B607C0210927B0210927A020F9108954F9288
S1132B705F926F927F92AF92BF92CF92EF92FF9249
S1132B800F931F93CF93DF935C01F62ED42F28016C
S1132B903901EE2049F10E9497158E2D843008F0FA
S1132BA083E0CFEFC80F8823D9F08C2F880F880FCC
S1132BB0880FA301920104C0569547953795279530
S1132BC08A95D2F7CA01B901D501ED91FC91019022
S1132BD0F081E02DC50109958C2FC1508111E5CFFD
S1132BE060E0C5010E94A4154D2FD13208F040E2E7
S1132BF02C2D60EA72E08F2D0E94171810929F020C
S1132C0080939E02DF91CF911F910F91FF90EF90DF
S1132C10CF90BF90AF907F906F905F904F9008954A
S1132C20CF92EF920F931F93C22EE12C00E010E09D
S1132C3098010E94B7151F910F91EF90CF900895BE
S1132C4021E00E941016089561E00E94A4150895E1
S1132C508EE692E00E947C1508951F920F920FB6A3
S1132C600F9211242F933F938F939F93AF93BF930E
S1132C708091C1029091C202A091C302B091C4029A
S1132C803091C00223E0230F2D3720F40196A11DBB
S1132C90B11D05C026E8230F0296A11DB11D209386
S1132CA0C0028093C1029093C202A093C302B09366
S1132CB0C4028091C5029091C602A091C702B0914E
S1132CC0C8020196A11DB11D8093C5029093C6024E
S1132CD0A093C702B093C802BF91AF919F918F9107
S1132CE03F912F910F900FBE0F901F9018953FB7F3
S1132CF0F8948091C5029091C602A091C702B09148
S1132D00C80226B5A89B05C02F3F19F00196A11D46
S1132D10B11D3FBFBA2FA92F982F8827820F911D6D
S1132D20A11DB11DBC01CD0142E0660F771F881FB4
S1132D30991F4A95D1F708958F929F92AF92BF92AF
S1132D40CF92DF92EF92FF926B017C010E94771683
S1132D504B015C01C114D104E104F10401F10E94AE
S1132D60F8170E947716DC01CB0188199909AA0982
S1132D70BB09883E9340A105B10560F321E0C21A66
S1132D80D108E108F10888EE880E83E0981EA11CA2
S1132D90B11CC114D104E104F10419F7DBCFFF9095
S1132DA0EF90DF90CF90BF90AF909F908F90089559
S1132DB08230910538F0880F991F880F991F059765
S1132DC00197F1F70895789484B5826084BD84B541
S1132DD0816084BD85B5826085BD85B5816085BD12
S1132DE0EEE6F0E0808181608083E1E8F0E010822B
S1132DF0808182608083808181608083E0E8F0E06C
S1132E00808181608083E1EBF0E080818460808355
S1132E10E0EBF0E0808181608083EAE7F0E080818C
S1132E2084608083808182608083808181608083EC
S1132E308081806880831092C10008958E3008F0EC
S1132E408E502091190190E4299F900111248770DC
S1132E50822B80937C0080917A00806480937A0036
S1132E6080917A0086FDFCCF8091780020917900D2
S1132E7090E0922B0895833081F028F4813099F00A
S1132E808230A1F008958730A9F08830B9F08430F9
S1132E90D1F4809180008F7D03C0809180008F7772
S1132EA080938000089584B58F7702C084B58F7DA8
S1132EB084BD08958091B0008F7703C08091B000E5
S1132EC08F7D8093B0000895CF93DF9390E0FC0151
S1132ED0EA52FF4F2491FC01E651FF4F849188236D
S1132EE061F190E0880F991FFC01EE5EFE4FC591E1
S1132EF0D491FC01E85FFE4FA591B491611109C022
S1132F009FB7F8948881209582238883EC912E239F
S1132F100BC0623061F49FB7F8948881322F3095EA
S1132F2083238883EC912E2B2C939FBF06C08FB7ED
S1132F30F894E8812E2B28838FBFDF91CF910895D9
S1132F401F93CF93DF93282F30E0F901EE53FF4F07
S1132F508491F901EA52FF4FD491F901E651FF4FF0
S1132F60C491CC23C1F0162F81110E943B17EC2F82
S1132F70F0E0EE0FFF1FE85FFE4FA591B4919FB7FD
S1132F80F894111104C08C91D095D82302C0EC910F
S1132F90DE2BDC939FBFDF91CF911F910895CF93D8
S1132FA0DF93282F30E0F901EE53FF4F8491F901AC
S1132FB0EA52FF4FD491F901E651FF4FC491CC235B
S1132FC091F081110E943B17EC2FF0E0EE0FFF1FF0
S1132FD0E250FF4FA591B491EC91ED2381E090E094
S1132FE021F480E002C080E090E0DF91CF91089569
S1132FF008951092360381E08093340310923303D2
S113300061E082E10E94A01761E083E10E94A017C1
S1133010E9EBF0E080818E7F808380818D7F8083E7
S113302088E48093B80085E48093BC00089541321D
S113303008F043C0909136039111FCCF91E0909336
S11330403603209334032FEF2093C90210920E030A
S1133050240F20930D039093350390913503880F2B
S1133060892B8093350380913303813061F410926E
S11330703303809135038093BB008091BC0083FDB2
S1133080F8CF85EC01C085EE8093BC0080913603B7
S11330908130E1F380910E03841710F440910E0304
S11330A0AFE0B3E0962FFB018E2F891B841718F431
S11330B08D918193F9CF842F089580E008950F9323
S11330C0413208F04AC0909136039111FCCF32E0AE
S11330D030933603009334033FEF3093C9021092C8
S11330E00E0340930D03562FAFE0B3E0FB013E2FD8
S11330F0351B341718F431913D93F9CF10923503F1
S113310030913503880F832B8093350380913303EB
S1133110813061F410923303809135038093BB00B6
S11331208091BC0083FDF8CF85EC01C085EE8093CF
S1133130BC00222321F0809136038230D1F38091A8
S1133140C9028F3F79F08091C902803241F08091A9
S1133150C902803331F094E005C091E003C092E0ED
S113316001C093E0892F0F9108954091EB02262F1F
S113317030E0240F311D21323105DCF42091360377
S11331802430C9F4FC0180E090E0861758F43091B3
S1133190EB022191DC01A351BD4FA30FB11D2C9370
S11331A00196F3CF8091EB02680F6093EB0280E00D
S11331B0089581E0089582E0089585ED8093BC0030
S11331C08091BC0084FDFCCF10923603089585ECF9
S11331D08093BC001092360308951F920F920FB68D
S11331E00F9211242F933F934F935F936F937F9389
S11331F08F939F93AF93BF93EF93FF938091B90005
S1133200887F803609F49EC078F5883209F45DC061
S113321090F4803109F456C038F4882309F4F5C0D9
S1133220883009F44FC0F5C0883109F44EC08032AB
S113323009F45FC0EEC0803409F46AC058F48033E6
S113324009F457C0883309F0E4C08093C9020E948E
S1133250E718DFC0803509F44FC0883509F45DC034
S1133260883409F0D6C0D3C0883909F4C4C0A8F49E
S1133270883709F467C038F4883609F463C08037A6
S113328009F460C0C6C0883809F4B5C0803909F4AF
S11332905FC0803809F0BDC05BC0803B09F483C0C7
S11332A038F4803A09F466C0883A09F47CC0B1C0A5
S11332B0803C09F4A4C0883C09F4A1C0883B09F40B
S11332C087C0A7C08091350310C090910E038091F0
S11332D00D03981770F5E0910E0381E08E0F809333
S11332E00E03F0E0E15FFC4F80818093BB0085EC2E
S11332F083C08093C9028BC0E0910E0381E08E0FDE
S113330080930E038091BB00F0E0E15FFC4F80836B
S113331090910E0380910D036BC0E0910E0381E048
S11333208E0F80930E038091BB00F0E0E15FFC4FB1
S113333080838091340381116AC081E080933303D8
S113334084EA5EC083E0809336031092CA02CFCF32
S11333508091CA02803208F04EC0E091CA0281E036
S11333608E0F8093CA028091BB00F0E0E553FD4FBD
S11333708083BDCF0E94E7188091CA02803230F466
S1133380E091CA02F0E0E553FD4F10826091CA0259
S113339070E0E0912F03F09130038BEC92E00995FB
S11333A01092CA0236C084E0809336031092EC0275
S11333B01092EB02E0913103F09132030995809170
S11333C0EB02811105C081E08093EB021092ED02C3
S11333D0E091EC0281E08E0F8093EC02F0E0E35187
S11333E0FD4F80818093BB009091EC028091EB02B1
S11333F0981708F47CCF85E88093BC000AC085EC5C
S11334008093BC001092360304C01092C9020E943B
S1133410DD18FF91EF91BF91AF919F918F917F91B3
S11334206F915F914F913F912F910F900FBE0F902D
S11334301F901895DB018F939F930E94861ABF916A
S1133440AF91A29F800D911DA39F900DB29F900DEF
S11334501124089597FB072E16F4009407D077FDE6
S113346009D00E94911A07FC05D03EF490958195ED
S11334709F4F0895709561957F4F0895A1E21A2E8C
S1133480AA1BBB1BFD010DC0AA1FBB1FEE1FFF1F04
S1133490A217B307E407F50720F0A21BB30BE40B54
S11334A0F50B661F771F881F991F1A9469F760959B
S11334B07095809590959B01AC01BD01CF01089555
S11334C0052E97FB1EF400940E94771A57FD07D02F
S11334D00E943E1A07FC03D04EF40C94771A5095C0
S11334E04095309521953F4F4F4F5F4F08959095EC
S11334F08095709561957F4F8F4F9F4F08950E94DF
S1133500AB1AB7FF0895821B930B08950E94AB1A60
S1133510A59F900DB49F900DA49F800D911D112423
S11335200895AA1BBB1B51E107C0AA1FBB1FA61706
S1133530B70710F0A61BB70B881F991F5A95A9F758
S113354080959095BC01CD010895EE0FFF1F059065
S1133550F491E02D0994A29FB001B39FC001A39FF1
S1133560700D811D1124911DB29F700D811D1124B8
S1133570911D0895F999FECF92BD81BDF89A9927BE
S10B358080B50895F894FFCF13
S11335880190010AD7A33C000080409001000098F4
S1133598410AD7233D6666A63F01000000004B158B
S10D35A81B15EF14F7140B151A1588
S9030213E7
