:100000000C946D000C9495000C9495000C94950044
:100010000C9495000C9495000C9495000C9495000C
:100020000C9495000C9495000C9495000C949500FC
:100030000C9495000C9495000C9495000C949500EC
:100040000C94D4090C9495000C9493060C94CB0654
:100050000C9495000C9495000C9495000C949500CC
:100060000C94BB0B0C94950053656E6420616E7903
:100070002063686172616374657220746F207374A9
:1000800061727420736B657463682E0A000000004F
:100090000800020100000304070000000000000047
:1000A0000001020408102040800102040810200111
:1000B00002040810200404040404040404020202DC
:1000C00002020203030303030300000000250028CB
:1000D000002B0000BC04FB06CF0911241FBECFEF8C
:1000E000D8E0DEBFCDBF13E0A0E0B1E0E8E7F1E289
:1000F00002C005900D92A439B107D9F725E0A4E913
:10010000B3E001C01D92AF32B207E1F710E0CDE6D7
:10011000D0E004C02197FE010E94B410CA36D10776
:10012000C9F70E9429070C94BA100C9400004F9252
:100130005F926F927F928F929F92AF92BF92CF9277
:10014000DF92EF92FF920F931F93CF93DF93CDB780
:10015000DEB764970FB6F894DEBF0FBECDBF8091B7
:100160000401909105018B599F4F181619060CF444
:1001700017C149C10F2EFEEACF2EF3E0DF2EF02D7E
:100180000F2EF0EBEF2EF3E0FF2EF02D02EB13E03D
:1001900024EB33E046EB53E068EB73E08AEB93E04B
:1001A0000E945A0D25E682169104A104B1040CF4B4
:1001B00080C080910401909105018C599F4F092EB8
:1001C000000CAA0BBB0B88159905AA05BB050CF4FE
:1001D00070C08091B8039091B903092E000CAA0B4E
:1001E000BB0B29813A814B815C81280F391F4A1F43
:1001F0005B1F29833A834B835C838091B603909184
:10020000B703092E000CAA0BBB0B2D813E814F8139
:100210005885280F391F4A1F5B1F2D833E834F834C
:1002200058878091B4039091B503092E000CAA0B56
:10023000BB0B29853A854B855C85280F391F4A1FE2
:100240005B1F29873A874B875C878091B203909127
:10025000B303092E000CAA0BBB0B2D853E854F85E1
:100260005889280F391F4A1F5B1F2D873E874F87EC
:10027000588B8091B0039091B103092E000CAA0B0A
:10028000BB0B29893A894B895C89280F391F4A1F82
:100290005B1F298B3A8B4B8B5C8B8091AE039091CB
:1002A000AF03092E000CAA0BBB0B480E591E6A1E89
:1002B0007B1EC0900401D0900501C6018C599F4F50
:1002C000092E000CAA0BBB0B88159905AA05BB05C6
:1002D00009F04AC00D2C000CEE08FF0869817A81F4
:1002E0008B819C81A70196010E9481103093AD0300
:1002F0002093AC036D817E818F819885A701960143
:100300000E9481103093AB032093AA0369857A85FC
:100310008B859C85A70196010E9481103093A903CB
:100320002093A8036D857E858F859889A701960106
:100330000E9481103093A7032093A60369897A89CC
:100340008B899C89A70196010E9481103093A50397
:100350002093A403C301B201A70196010E9481105A
:100360003093A3032093A2033FEF831A930AA30AB7
:10037000B30A62E070E080E090E00E944F0A809152
:100380000401909105018B599F4F092E000CAA0B77
:10039000BB0B88169906AA06BB060CF4EBCE33C03D
:1003A0000F2EFEEACF2EF3E0DF2EF02D0F2EF0EB16
:1003B000EF2EF3E0FF2EF02D02EB13E024EB33E001
:1003C00046EB53E068EB73E08AEB93E00E945A0D32
:1003D000812C912C5401412C512C3201198A1A8AFA
:1003E0001B8A1C8A1D861E861F86188A19861A86F5
:1003F0001B861C861D821E821F82188619821A8205
:100400001B821C8256CF64960FB6F894DEBF0FBED7
:10041000CDBFDF91CF911F910F91FF90EF90DF90B3
:10042000CF90BF90AF909F908F907F906F905F9094
:100430004F900895EF92FF920F931F93CF93DF9306
:100440008091AC039091AD039195819591090AF447
:10045000079695958795959587959595879590930A
:100460009F0380939E038091AA039091AB03919583
:10047000819591090AF407969595879595958795A5
:100480009595879590939D0380939C038091A803F5
:100490009091A90320E030E4281B390BC90199236E
:1004A0000CF40796959587959595879595958795DD
:1004B00090939B0380939A038091A6039091A70346
:1004C0009195819591090AF403969595879595954F
:1004D000879590939903809398038091A4039091BA
:1004E000A5039195819591090AF4039695958795B1
:1004F0009595879590939703809396038091A20397
:100500009091A3039195819591090AF4039695958D
:100510008795959587959093950380939403EE2402
:10052000E394F12C00E010E0C0E0D0E460919E0381
:1005300070919F038AEB93E00E940C0E60919C03E4
:1005400070919D038AEB93E00E94120E60919A03D2
:1005500070919B038AEB93E00E94180E60919803C0
:10056000709199038AEB93E00E941E0E60919603AE
:10057000709197038AEB93E00E94240E609194039C
:10058000709195038AEB93E00E942A0E0E949700D7
:1005900067E271E089EC93E00E94CD078091AC03A3
:1005A0009091AD03E0910201F09103019C01992328
:1005B00024F422273327281B390BE217F30784F48E
:1005C000BF010E944B1080919E0390919F03861B58
:1005D000970B90939F0380939E03202F312F02C08F
:1005E0002E2D3F2D8091AA039091AB03AC0199234E
:1005F00024F444275527481B590BE417F5071CF032
:100600002F5F3F4F0DC0BF010E944B1080919C0394
:1006100090919D03861B970B90939D0380939C0361
:100620004091A8035091A903CE01841B950B181685
:10063000190614F0505401C0AC01E417F5071CF082
:100640002F5F3F4F0DC0BF010E944B1080919A0356
:1006500090919B03680F791F70939B0360939A039B
:100660008091A6039091A703E0910001F091010110
:10067000AC01992324F444275527481B590BE41750
:10068000F5071CF02F5F3F4F0FC0BF016F5F7F4F1B
:100690000E944B108091980390919903861B970BB1
:1006A00090939903809398038091A4039091A5035C
:1006B000AC01992324F444275527481B590BE41710
:1006C000F5071CF02F5F3F4F0FC0BF016F5F7F4FDB
:1006D0000E944B108091960390919703861B970B75
:1006E00090939703809396038091A2039091A30324
:1006F000AC01992324F444275527481B590BE417D0
:10070000F5071CF02F5F3F4F0FC0BF016F5F7F4F9A
:100710000E944B108091940390919503861B970B38
:1007200090939503809394032630310509F0FECE13
:10073000DF91CF911F910F91FF90EF9008958091DD
:10074000A0039091A103892BB9F468E071E089ECD2
:1007500093E00E94CD070E9497008091A0039091A2
:10076000A10301969093A1038093A00368EE73E028
:1007700080E090E00E944F0A8091A0039091A10335
:100780000197B9F46BE271E089EC93E00E94CD0728
:100790000E941A028091A0039091A1030196909368
:1007A000A1038093A00368EE73E080E090E00E94D4
:1007B0004F0A8091A0039091A103029709F0DBC03A
:1007C0000E94970063E471E089EC93E00E94CD07FA
:1007D0006EE471E089EC93E00E9491076091AC03B4
:1007E0007091AD034AE050E089EC93E00E947A08F2
:1007F0006CE671E089EC93E00E9491076091AA0396
:100800007091AB034AE050E089EC93E00E947A08D3
:100810006CE671E089EC93E00E9491076091A80377
:100820007091A9034AE050E089EC93E00E947A08B5
:100830006CE671E089EC93E00E9491076091A60359
:100840007091A7034AE050E089EC93E00E947A0897
:100850006CE671E089EC93E00E9491076091A4033B
:100860007091A5034AE050E089EC93E00E947A0879
:100870006CE671E089EC93E00E9491076091A2031D
:100880007091A3034AE050E089EC93E00E94820853
:100890006EE671E089EC93E00E94910760919E03FF
:1008A00070919F034AE050E089EC93E00E947A083F
:1008B0006CE671E089EC93E00E94910760919C03E3
:1008C00070919D034AE050E089EC93E00E947A0821
:1008D0006CE671E089EC93E00E94910760919A03C5
:1008E00070919B034AE050E089EC93E00E947A0803
:1008F0006CE671E089EC93E00E94910760919803A7
:10090000709199034AE050E089EC93E00E947A08E4
:100910006CE671E089EC93E00E9491076091960388
:10092000709197034AE050E089EC93E00E947A08C6
:100930006CE671E089EC93E00E949107609194036A
:10094000709195034AE050E089EC93E00E948208A0
:100950006DE771E089EC93E00E94CD0766EB71E0F2
:1009600089EC93E00E94CD0763EF71E089EC93E09E
:100970000E94CD07FFCF089568E68AEB93E00E94BE
:10098000410D089586E694E00E94360988E180933F
:10099000B80026E040E052EC61E070E089EC93E0C2
:1009A0000E942A068AEB93E00E94D40D89EC93E022
:1009B0000E945305892B99F089EC93E00E946D0504
:1009C000892BA1F70CC068E670E089EC93E00E94E7
:1009D000BB076CED75E080E090E00E944F0A89EC67
:1009E00093E00E945305892B71F389EC93E00E94F8
:1009F0005305892B31F089EC93E00E946D05892B1A
:100A0000A1F760EC72E089EC93E00E94CD0760ED05
:100A100077E080E090E00E944F0A6CED72E089EC94
:100A200093E00E94CD0768EB7BE080E090E00E94BD
:100A30004F0A8AEB93E00E94040E811103C066EA1C
:100A400072E002C068E872E089EC93E00E94CD0792
:100A500068EE73E080E090E00E944F0A60E070E092
:100A60008AEB93E00E940C0E60E070E08AEB93E06A
:100A70000E94120E60E070E08AEB93E00E94180E74
:100A800060E070E08AEB93E00E941E0E60E070E090
:100A90008AEB93E00E94240E60E070E08AEB93E022
:100AA0000E942A0E0895FC01918D228D892F90E0DD
:100AB000805C9F4F821B91098F7399270895FC01D9
:100AC000918D828D981731F0828DE80FF11D858D03
:100AD00090E008958FEF9FEF0895FC01918D828D36
:100AE000981761F0828DDF01A80FB11D5D968C9182
:100AF000928D9F5F9F73928F90E008958FEF9FEF8D
:100B0000089581EF96E0892B49F080E090E0892BF1
:100B100029F00E94F10681110E9400000895FC0155
:100B2000848DDF01A80FB11DA35ABF4F8C91248D76
:100B300030E02F5F3F4F2F733078332334F4215050
:100B40003109206C3F6F2F5F3F4F248FA689B789F3
:100B50008C93A089B1898C9180648C93938D848DC2
:100B6000981306C00288F389E02D80818F7D8083F1
:100B70000895CF93DF93EC01888D81110FC018C0C9
:100B80000FB607FC0DC0908195FF0AC0A889B989EE
:100B90008C9185FF05C0CE010E948F05EA89FB89F3
:100BA000908195FDEDCFA889B9898C9186FFE8CF1A
:100BB000DF91CF9108950F931F93CF93DF93FC01A3
:100BC00081E0808F938D848D981322C0A089B18994
:100BD0008C9185FD2FC01CC00FB607FC08C0E889AA
:100BE000F989808185FF03C0CE010E948F059C8D0D
:100BF000091791F38B8DFE01E80FF11DE35AFF4FAA
:100C000010830B8FEA89FB898081806280831BC0FF
:100C1000238D30E02F5F3F4F2F733078332334F430
:100C200021503109206C3F6F2F5F3F4F162FEF018E
:100C3000022FDDCFA689B7896C930088F189E02D5A
:100C400080818064808381E090E0DF91CF911F916B
:100C50000F910895BF92CF92DF92EF92FF920F9380
:100C60001F93CF93DF93EC016A017B01B22EE889D9
:100C7000F98982E080834115514E61057105B1F01B
:100C800060E079E08DE390E0A70196010E945F109B
:100C900089019A01015011092109310936952795D9
:100CA00017950795011580E11807A8F0E889F989DB
:100CB000108260E874E88EE190E0A70196010E943E
:100CC0005F10DA01C9010197A109B109B695A7958D
:100CD000979587958C01EC85FD851083EE85FF85C2
:100CE0000083188EEC89FD89B082EA89FB898081B6
:100CF00080618083EA89FB89808188608083EA89BA
:100D0000FB89808180688083EA89FB8980818F7D6F
:100D10008083DF91CF911F910F91FF90EF90DF9033
:100D2000CF90BF9008951F920F920FB60F9211248B
:100D30002F938F939F93AF93BF93EF93FF93E09184
:100D4000D903F091DA03808182FD14C0E9ECF3E06D
:100D5000A689B7892C91818D8F5F8F73928D8917AA
:100D600071F0DF01E18DF0E0E753FC4F258F5996DC
:100D70008C9305C0E091DF03F091E0038081FF9147
:100D8000EF91BF91AF919F918F912F910F900FBED7
:100D90000F901F9018951F920F920FB60F9211246B
:100DA0002F933F934F935F936F937F938F939F9373
:100DB000AF93BF93EF93FF9389EC93E00E948F056D
:100DC000FF91EF91BF91AF919F918F917F916F9123
:100DD0005F914F913F912F910F900FBE0F901F90F9
:100DE000189589EC93E00E94530521E0892B09F4C2
:100DF00020E0822F0895E9ECF3E01382128288EE5E
:100E000093E0A0E0B0E084839583A683B78388E66F
:100E100093E09183808385EC90E09587848784ECD0
:100E200090E09787868780EC90E0918B808B81ECB7
:100E300090E0938B828B82EC90E0958B848B86EC98
:100E400090E0978B868B118E128E138E148E0895E0
:100E500008950E948B0A0E9428070E94C204C1E8DC
:100E6000D5E00E949F032097E1F30E948105F9CF0E
:100E7000CF92DF92EF92FF920F931F93CF93DF9366
:100E800041155105C1F06A018C01E62EF72EC0E034
:100E9000D0E0D7016D917D01D801ED91FC910190D9
:100EA000F081E02DC8010995892B39F02196CC16E7
:100EB000DD0679F702C0C0E0D0E0CE01DF91CF912E
:100EC0001F910F91FF90EF90DF90CF900895EF92D8
:100ED000FF920F931F93CF93DF93FB0164916623DF
:100EE000B1F07F018C01C0E0D0E0D801ED91FC9120
:100EF0000190F081E02DC8010995892B51F02196D0
:100F0000F701EC0FFD1F64916111EFCF02C0C0E04B
:100F1000D0E0CE01DF91CF911F910F91FF90EF9024
:100F200008956115710581F0FB0101900020E9F73A
:100F30003197AF01461B570BDC01ED91FC9102800C
:100F4000F381E02D0995089580E090E00895DC019B
:100F5000ED91FC910190F081E02D09950895DC015F
:100F6000ED91FC910280F381E02D42E050E064E7D6
:100F700073E0099508950F931F93CF93DF93EC01CE
:100F80000E9467078C01CE010E94AF07800F911F5E
:100F9000DF91CF911F910F9108950F931F93CF93DE
:100FA000DF93EC010E9491078C01CE010E94AF07F4
:100FB000800F911FDF91CF911F910F9108958F9214
:100FC0009F92AF92BF92EF92FF920F931F93CF9396
:100FD000DF93CDB7DEB7A1970FB6F894DEBF0FBE93
:100FE000CDBF7C01CB01BA0119A2223008F42AE05E
:100FF0008E010F5D1F4F822E912CA12CB12CA501CB
:1010000094010E945F10E62F622F732F842F952F7B
:1010100001501109EA3010F4E05D01C0E95CD8012B
:10102000EC93611571058105910549F701151105CD
:1010300091F0F80101900020E9F73197AF01401BD2
:10104000510BD701ED91FC910280F381E02DB801A5
:10105000C701099502C080E090E0A1960FB6F89410
:10106000DEBF0FBECDBFDF91CF911F910F91FF90DB
:10107000EF90BF90AF909F908F900895CF92DF92A6
:10108000EF92FF920F931F93CF93DF93EC016A01CE
:101090007B012115310541F4E881F9810190F0814E
:1010A000E02D642F09951DC02A303105C1F4772346
:1010B00094F46DE20E94A7078C0144275527BA01DA
:1010C0004C195D096E097F092AE0CE010E94DF07F5
:1010D000800F911F06C02AE00E94DF0702C00E9415
:1010E000DF07DF91CF911F910F91FF90EF90DF907D
:1010F000CF9008959A01AB01770F660B770B0E9492
:101100003E0808950F931F93CF93DF93EC019A014C
:10111000AB01770F660B770B0E943E088C01CE0166
:101120000E94AF07800F911FDF91CF911F910F9108
:1011300008958091960490E020919704821B910974
:1011400008959091970480919604981750F4E92F90
:10115000F0E0E856FB4F208130E09F5F90939704CA
:1011600002C02FEF3FEFC9010895E09197048091ED
:101170009604E81730F4F0E0E856FB4F808190E0E9
:1011800008958FEF9FEF08950895CF92DF92EF9229
:10119000FF920F931F93CF93DF938C01CB016A01D2
:1011A000209172042223A1F041155105A1F0EB0119
:1011B0007B01E40EF51E6991D801ED91FC9101903F
:1011C000F081E02DC8010995CE15DF05A1F703C018
:1011D000642F0E94830BC601DF91CF911F910F9165
:1011E000FF90EF90DF90CF900895CF93DF931F9201
:1011F000CDB7DEB7FC016983909172049923D9F0D1
:1012000090917304903238F081E090E09383828370
:1012100080E090E017C080917404E82FF0E0EB5874
:10122000FB4F998190838F5F809374048093730444
:1012300081E090E007C061E0CE0101960E94830B3F
:1012400081E090E00F90DF91CF910895FC0113822F
:10125000128288EE93E0A0E0B0E084839583A683B9
:10126000B78387E893E09183808308951092970471
:101270001092960410927404109273040E94C70A8C
:10128000089581E080937204609395041092740431
:101290001092730408950F93062F21E04091730478
:1012A00065E774E0809195040E942D0B1092740400
:1012B00010927304109272040F9108954F925F92EE
:1012C0006F927F92AF92BF92CF92EF92FF920F9365
:1012D0001F93CF93DF935C01F62ED42F28013901A1
:1012E000EE2049F10E9441098E2D843008F083E000
:1012F000CFEFC80F8823D9F0D501ED91FC918C2F49
:10130000880F880F880FA301920104C05695479556
:10131000379527958A95D2F7CA01B9010190F081D6
:10132000E02DC50109959C2FC1509111E5CF60E0DA
:10133000C5010E944B094D2FD13208F040E22C2DFF
:1013400068E974E08F2D0E94E50A1092970480935B
:101350009604DF91CF911F910F91FF90EF90CF9066
:10136000BF90AF907F906F905F904F900895CF9215
:10137000EF920F931F93C22EE12C00E010E0980132
:101380000E945E091F910F91EF90CF90089521E088
:101390000E94B709089561E00E944B09089586E60E
:1013A00094E00E94260908951F920F920FB60F92A3
:1013B00011242F933F938F939F93AF93BF9380916B
:1013C000B9049091BA04A091BB04B091BC043091CF
:1013D000B80423E0230F2D3720F40196A11DB11D81
:1013E00005C026E8230F0296A11DB11D2093B80465
:1013F0008093B9049093BA04A093BB04B093BC0447
:101400008091BD049091BE04A091BF04B091C0042E
:101410000196A11DB11D8093BD049093BE04A093BD
:10142000BF04B093C004BF91AF919F918F913F9142
:101430002F910F900FBE0F901F9018952FB7F89413
:101440006091B9047091BA048091BB049091BC047E
:101450002FBF08953FB7F8948091BD049091BE04CA
:10146000A091BF04B091C00426B5A89B05C02F3F32
:1014700019F00196A11DB11D3FBFBA2FA92F982FBA
:101480008827820F911DA11DB11DBC01CD0142E035
:10149000660F771F881F991F4A95D1F708958F927D
:1014A0009F92AF92BF92CF92DF92EF92FF926B0129
:1014B0007C010E942A0A4B015C01C114D104E104A1
:1014C000F10401F10E94C60A0E942A0ADC01CB0144
:1014D00088199909AA09BB09883E9340A105B1055D
:1014E00060F321E0C21AD108E108F10888EE880E05
:1014F00083E0981EA11CB11CC114D104E104F104C5
:1015000019F7DBCFFF90EF90DF90CF90BF90AF90B7
:101510009F908F900895789484B5826084BD84B53F
:10152000816084BD85B5826085BD85B5816085BDDE
:10153000EEE6F0E0808181608083E1E8F0E01082F7
:10154000808182608083808181608083E0E8F0E038
:10155000808181608083E1EBF0E080818460808322
:10156000E0EBF0E0808181608083EAE7F0E0808159
:1015700084608083808182608083808181608083B9
:101580008081806880831092C10008950895109230
:101590002E0581E080932C0510922B0561E082E1FD
:1015A0000E94110D61E083E10E94110DE9EBF0E072
:1015B00080818E7F808380818D7F808388E480938B
:1015C000B80085E48093BC000895413208F043C020
:1015D00090912E059111FCCF91E090932E052093D0
:1015E0002C052FEF2093C10410920605240F2093A1
:1015F000050590932D0590912D05880F892B8093DB
:101600002D0580912B05813061F410922B0580917E
:101610002D058093BB008091BC0083FDF8CF85EC45
:1016200001C085EE8093BC0080912E058130E1F3EE
:1016300080910605841710F44091060527E035E0F7
:10164000FB01D9018A2F821B841718F48D91819395
:10165000F9CF842F089580E008950F93413208F068
:101660004AC090912E059111FCCF32E030932E05A7
:1016700000932C053FEF3093C10410920605409370
:101680000505FB0167E075E0DB013A2F361B3417D7
:1016900018F431913D93F9CF10922D0530912D051D
:1016A000880F832B80932D0580912B05813061F469
:1016B00010922B0580912D058093BB008091BC007A
:1016C00083FDF8CF85EC01C085EE8093BC0022231A
:1016D00021F080912E058230D1F38091C1048F3F9B
:1016E00079F08091C104803241F08091C10480334F
:1016F00031F094E005C091E003C092E001C093E0B6
:10170000892F0F9108954091E304262F30E0240F94
:10171000311D21323105DCF420912E052430C9F42D
:10172000FC0180E090E0861758F43091E3042191A9
:10173000DC01AB51BB4FA30FB11D2C930196F3CF2E
:101740008091E304680F6093E30480E0089581E0F2
:10175000089582E0089585ED8093BC008091BC00DF
:1017600084FDFCCF10922E05089585EC8093BC007B
:1017700010922E0508951F920F920FB60F9211240A
:101780002F933F934F935F936F937F938F939F9389
:10179000AF93BF93EF93FF938091B900887F80361A
:1017A00009F49EC078F5883209F45DC090F4803168
:1017B00009F456C038F4882309F4F5C0883009F4D8
:1017C0004FC0F5C0883109F44EC0803209F45FC0C3
:1017D000EEC0803409F46AC058F4803309F457C06D
:1017E000883309F0E4C08093C1040E94B50BDFC0C8
:1017F000803509F44FC0883509F45DC0883409F09C
:10180000D6C0D3C0883909F4C4C0A8F4883709F415
:1018100067C038F4883609F463C0803709F460C0C3
:10182000C6C0883809F4B5C0803909F45FC0803873
:1018300009F0BDC05BC0803B09F483C038F4803A36
:1018400009F466C0883A09F47CC0B1C0803C09F450
:10185000A4C0883C09F4A1C0883B09F487C0A7C094
:1018600080912D0510C0909106058091050598176F
:1018700070F5E091060581E08E0F80930605F0E09B
:10188000E95FFA4F80818093BB0085EC83C0809331
:10189000C1048BC0E091060581E08E0F80930605A0
:1018A0008091BB00F0E0E95FFA4F808390910605DC
:1018B000809105056BC0E091060581E08E0F809355
:1018C00006058091BB00F0E0E95FFA4F80838091CC
:1018D0002C0581116AC081E080932B0584EA5EC0EB
:1018E00083E080932E051092C204CFCF8091C20472
:1018F000803208F04EC0E091C20481E08E0F8093E8
:10190000C2048091BB00F0E0ED53FB4F8083BDCF5C
:101910000E94B50B8091C204803230F4E091C20481
:10192000F0E0ED53FB4F10826091C20470E0E09153
:101930002705F091280583EC94E009951092C204E4
:1019400036C084E080932E051092E4041092E304E4
:10195000E0912905F0912A0509958091E304811110
:1019600005C081E08093E3041092E504E091E40473
:1019700081E08E0F8093E404F0E0EB51FB4F808117
:101980008093BB009091E4048091E304981708F4DD
:101990007CCF85E88093BC000AC085EC8093BC00B6
:1019A00010922E0504C01092C1040E94AB0BFF914F
:1019B000EF91BF91AF919F918F917F916F915F91C7
:1019C0004F913F912F910F900FBE0F901F90189540
:1019D000833081F028F4813099F08230A1F00895AD
:1019E0008730A9F08830B9F08430D1F4809180003C
:1019F0008F7D03C0809180008F7780938000089551
:101A000084B58F7702C084B58F7D84BD08958091A1
:101A1000B0008F7703C08091B0008F7D8093B000BD
:101A200008951F93CF93DF93282F30E0F901E357F8
:101A3000FF4F8491F901EF55FF4FD491F901EB5419
:101A4000FF4FC491CC23C9F0162F81110E94E80CDE
:101A5000EC2FF0E0EE0FFF1FE753FF4FA591B4917D
:101A60008FB7F894111105C09C91ED2FE095E923F3
:101A700002C0EC91ED2BEC938FBFDF91CF911F91C2
:101A80000895FC01608308950F93062F22E044E03F
:101A90006BE1FC0180810E9400100F9108950F936B
:101AA000062F22E044E06CE1FC0180810E940010DE
:101AB0000F9108954F925F926F927F928F929F92B3
:101AC000AF92BF92CF92DF92EF92FF920F931F934C
:101AD000CF93DF93EC013B014A01590128010091AA
:101AE0000601109107019C012F5F3F4F4EE06BE311
:101AF00088810E94C70E898190E0982F88272A81CB
:101B0000822BF301918380838B8190E0982F88272B
:101B10002C81822BF401918380838D8190E0982F1A
:101B200088272E81822BF50191838083898590E01F
:101B3000982F88272A85822BF201918380838B85B9
:101B400090E0982F88272C85822BF7019183808342
:101B50008D8590E0982F88272E85822BF601918322
:101B60008083DF91CF911F910F91FF90EF90DF90D5
:101B7000CF90BF90AF909F908F907F906F905F902D
:101B80004F900895262F46E06BE6FC0180810C946F
:101B9000C50F0F93062F23E042E06BE6FC01808126
:101BA0000E9400100F910895CF93DF93EC0161E044
:101BB0000E94C90D60E0CE010E94440D60E0CE019C
:101BC0000E944F0D60E0CE01DF91CF910C94C20DC9
:101BD000EF92FF920F931F93CF93DF93EC01E0906E
:101BE0000601F09007018C010F5F1F4F26E046E0D1
:101BF00065E788810E94860F8981DF91CF911F91CF
:101C00000F91FF90EF9008950E94E80D91E08433CA
:101C100009F090E0892F0895AB0166E0FC01808116
:101C20000C94B50EAB0168E0FC0180810C94B50EFC
:101C3000AB016AE0FC0180810C94B50EAB0163E15D
:101C4000FC0180810C94B50EAB0165E1FC01808143
:101C50000C94B50EAB0167E1FC0180810C94B50ECC
:101C6000EF92FF920F931F93CF93DF93C62F142F02
:101C70007901682F86E694E00E9441096C2F86E680
:101C800094E00E94F508112381F0E7011150012F23
:101C900010E00F5F1F4F0E0D1F1D699186E694E047
:101CA0000E94F508C017D107C1F786E694E00E94AC
:101CB000CB0991E0811190E0892FDF91CF911F91A5
:101CC0000F91FF90EF900895CF93DF931F92CDB7C0
:101CD000DEB749839E012F5F3F4F41E00E94300EE7
:101CE0000F90DF91CF910895CF92DF92EF92FF9204
:101CF0001F93CF93DF93C62FE42E6901682F86E6EA
:101D000094E00E9441096C2F86E694E00E94F50859
:101D1000F12CEE0CFF1C1E141F04BCF410E0C12FAC
:101D2000D0E0CC0FDD1FCC0DDD1D698186E694E08F
:101D30000E94F508688186E694E00E94F5081E5F1F
:101D4000812F90E08E159F0554F386E694E00E9463
:101D5000CB0991E0811190E0892FDF91CF911F9104
:101D6000FF90EF90DF90CF900895CF93DF9300D056
:101D7000CDB7DEB75A8349839E012F5F3F4F41E0C5
:101D80000E94740E0F900F90DF91CF9108952F92C3
:101D90003F924F925F926F927F928F929F92AF92FB
:101DA000BF92CF92DF92EF92FF920F931F93CF9348
:101DB000DF9300D000D000D0CDB7DEB7282E6983E6
:101DC000C42E79010E941E0A4B015C01CC2009F44B
:101DD0005BC0312CD12C8C2D90E09B838A83280111
:101DE000612C712CCC82622D86E694E00E94410920
:101DF000698186E694E00E94F50886E694E00E94F8
:101E0000CB09622D86E694E00E9441094A815B81FC
:101E1000431951094132510514F040E250E0622D5E
:101E200086E694E00E94C7090FC0F701ED0DF11D91
:101E3000D7FCFA95FE83ED8386E694E00E94A10824
:101E4000ED81FE818083D39486E694E00E94990818
:101E5000892B81F00115110541F30E941E0ADC0156
:101E6000CB0188199909AA09BB0984159505A6050E
:101E7000B705D8F28C81F0E2FC1508F480E2380E48
:101E80003C1408F4B0CF01C0D12C01151105D1F0DC
:101E90000E941E0ADC01CB0188199909AA09BB0915
:101EA00020E030E080179107A207B30758F08C2D8F
:101EB00090E02D2D0D2C000C330B2817390714F44E
:101EC000DD24DA948D2D26960FB6F894DEBF0FBE72
:101ED000CDBFDF91CF911F910F91FF90EF90DF90D9
:101EE000CF90BF90AF909F908F907F906F905F90BA
:101EF0004F903F902F9008950F931F9389019A015F
:101F000041E00E94C70E1F910F910895CF92DF927A
:101F1000EF92FF920F931F93CF93DF931F92CDB752
:101F2000DEB7D42EC22E9701AE014F5F5F4F0E94E5
:101F30007C0F882301F14D2D50E04C1951094F5F62
:101F40005F4F61E070E09B0102C0220F331FCA9413
:101F5000E2F721503109042E02C0220F331F0A94E8
:101F6000E2F79981292330E002C0359527954A95FB
:101F7000E2F7F80120830F90DF91CF911F910F912D
:101F8000FF90EF90DF90CF900895EF92FF920F9324
:101F90001F93CF93DF931F92CDB7DEB7182F062F75
:101FA000F42EE22E2091060130910701AE014F5F21
:101FB0005F4F0E947C0FEE2059F021E030E0A90134
:101FC00002C0440F551FFA94E2F78981482B0BC0D9
:101FD00021E030E0A90102C0440F551FFA94E2F756
:101FE0004095998149234983602F812F0E94640E77
:101FF0000F90DF91CF911F910F91FF90EF90089577
:10200000DF92EF92FF920F931F93CF93DF931F9274
:10201000CDB7DEB7182FF62EE42ED22E2091060172
:1020200030910701AE014F5F5F4F0E947C0F882304
:1020300041F1EE2DF0E0ED19F109319641E050E06B
:102040009A0102C0220F331FDA94E2F721503109BE
:102050000E2E02C0220F331F0A94E2F7802F90E069
:1020600002C0880F991FEA95E2F7422F40959981A7
:1020700049232823422B49836F2D812F0E94640E10
:1020800001C080E00F90DF91CF911F910F91FF90E1
:10209000EF90DF90089597FB072E16F4009407D079
:1020A00077FD09D00E94A01007FC05D03EF4909562
:1020B00081959F4F0895709561957F4F0895A1E296
:1020C0001A2EAA1BBB1BFD010DC0AA1FBB1FEE1FB2
:1020D000FF1FA217B307E407F50720F0A21BB30BFD
:1020E000E40BF50B661F771F881F991F1A9469F779
:1020F00060957095809590959B01AC01BD01CF01D5
:102100000895052E97FB1EF400940E94981057FD29
:1021100007D00E945F1007FC03D04EF40C94981077
:1021200050954095309521953F4F4F4F5F4F089503
:1021300090958095709561957F4F8F4F9F4F089533
:10214000AA1BBB1B51E107C0AA1FBB1FA617B707DD
:1021500010F0A61BB70B881F991F5A95A9F78095F9
:102160009095BC01CD010895EE0FFF1F0590F491ED
:08217000E02D0994F894FFCF63
:1021780001000800E803E8030A52656164696E67B4
:102188002073656E736F727320666F722066697252
:1021980073742074696D652E2E2E000A43616C637A
:1021A800756C6174696E67206F6666736574732EEB
:1021B8002E2E000A46494E495348454421000A53E9
:1021C800656E736F722072656164696E67732077DC
:1021D800697468206F6666736574733A0900596F8D
:1021E8007572206F6666736574733A09000A4461F4
:1021F8007461206973207072696E746564206173FC
:102208003A206163656C58206163656C592061638D
:10221800656C5A206769726F58206769726F592018
:102228006769726F5A00436865636B2074686174EC
:1022380020796F75722073656E736F722072656195
:1022480064696E67732061726520636C6F736520C3
:10225800746F20302030203136333834203020302D
:1022680020300049662063616C6962726174696F2D
:102278006E207761732073756363657366756C2070
:10228800777269746520646F776E20796F75722034
:102298006F66667365747320736F20796F7520633A
:1022A800616E20736574207468656D20696E20798D
:1022B8006F75722070726F6A6563747320757369C5
:1022C8006E6720736F6D657468696E672073696DDA
:1022D800696C617220746F206D70752E7365745807
:1022E800416363656C4F666673657428796F7572B0
:1022F8006F666673657429004D5055363035302049
:10230800636F6E6E656374696F6E20737563636562
:10231800737366756C004D50553630353020636FD9
:102328006E6E656374696F6E206661696C656400C2
:102338000A4D5055363035302043616C6962726100
:1023480074696F6E20536B65746368000A596F7502
:1023580072204D5055363035302073686F756C6477
:1023680020626520706C6163656420696E20686F07
:1023780072697A6F6E74616C20706F736974696FBB
:102388006E2C2077697468207061636B61676520C3
:102398006C65747465727320666163696E67207515
:1023A800702E200A446F6E277420746F756368203E
:1023B800697420756E74696C20796F752073656512
:1023C80020612066696E697368206D657373616743
:1023D800652E0A0000000000DB05380753056D056F
:1023E8005F05B9050D0A006E616E00696E66006FC3
:1023F80076660000000000F508C5089908A108B530
:0424080008C40800FC
:00000001FF
