S0130000414C2D4553432D546573742E73726563AF
S11300000C9463000C948B000C948B000C94A10052
S11300100C948B000C9494000C948B000C948B0027
S11300200C948B000C948B000C948B000C948B0020
S11300300C948B000C948B000C948B000C948B0010
S11300400C946C120C948B000C944D0E0C947F0E3B
S11300500C948B000C948B000C948B000C948B00F0
S11300600C9410150C948B00000000080002010091
S1130070000304070000000000000000010204085F
S113008010204080010204081020010204081020FE
S1130090040404040404040402020202020203032A
S11300A003030303000000002300260029000000CE
S11300B00000250028002B00000000002400270079
S11300C02A00AF0E681211241FBECFEFD8E0DEBFA6
S11300D0CDBF12E0A0E0B1E0E4E3FEE202C005908F
S11300E00D92A83DB107D9F725E0A8EDB2E001C013
S11300F01D92A033B207E1F710E0C3E6D0E004C0DC
S11301002197FE010E941217C136D107C9F70E9438
S1130110DD0E0C9418170C940000DC01ED91FC9199
S11301200190F081E02D09941F920F920FB60F9267
S113013011248F9389B18F910F900FBE0F901F9050
S113014018951F920F920FB60F9211242F933F937D
S11301504F935F936F937F938F939F93AF93BF93CB
S1130160EF93FF930E94B6126093100370931103F0
S113017080931203909313032091C903189B0EC01C
S113018021111BC021E02093C903609320037093C5
S1130190210380932203909323030FC0213069F439
S11301A01092C9032091200330912103AB01421B1B
S11301B0530B5093AB034093AA032091C803199B9C
S11301C00EC021111BC021E02093C80360931C03BF
S11301D070931D0380931E0390931F030FC021305F
S11301E069F41092C80320911C0330911D03AB01E4
S11301F0421B530B5093AD034093AC032091C703B0
S11302001A9B0EC021111BC021E02093C7036093E9
S113021018037093190380931A0390931B030FC060
S1130220213069F41092C703209118033091190307
S1130230AB01421B530B5093AF034093AE03209189
S1130240C6031B9B0EC021111AC021E02093C603D4
S1130250609314037093150380931603909317030C
S11302600EC0213061F41092C60320911403309122
S11302701503621B730B7093B1036093B003FF917A
S1130280EF91BF91AF919F918F917F916F915F910A
S11302904F913F912F910F900FBE0F901F90189583
S11302A060E071E08AEC93E00E942C0F4AE050E099
S11302B06091C5038AEC93E00E94261067E071E028
S11302C08AEC93E00E942C0F8091C0039091C103AB
S11302D0883C95401CF46FE071E00CC08091C00331
S11302E09091C103813F95401CF063E171E002C02D
S11302F067E171E08AEC93E00E942C0F6091C003E7
S11303007091C1034AE050E08AEC93E00E94E90F47
S11303106BE171E08AEC93E00E942C0F8091BE03A4
S11303209091BF03883C95401CF464E271E00CC0DA
S11303308091BE039091BF03813F95401CF068E219
S113034071E002C067E171E08AEC93E00E942C0F37
S11303506091BE037091BF034AE050E08AEC93E0E1
S11303600E94E90F6CE271E08AEC93E00E942C0F8A
S11303708091BC039091BD03883C95401CF468E2D5
S113038071E00CC08091BC039091BD03813F954006
S11303901CF064E271E002C067E171E08AEC93E072
S11303A00E942C0F6091BC037091BD034AE050E0A1
S11303B08AEC93E00E94E90F68E371E08AEC93E031
S11303C00E942C0F8091BA039091BB03883C954006
S11303D01CF46FE071E00CC08091BA039091BB03F0
S11303E0813F95401CF063E171E002C067E171E078
S11303F08AEC93E00E942C0F6091BA037091BB03C6
S11304004AE050E08AEC93E00E94E90F6FE371E068
S11304108AEC93E00E942C0F6091B8037091B903A9
S11304204AE050E08AEC93E00E94E90F6FE371E048
S11304308AEC93E00E942C0F6091B6037091B7038D
S11304404AE050E08AEC93E00C94F00F0F931F9372
S11304500E94B612609324037093250380932603AD
S1130460909327038BB1806F8BB980912403909173
S11304702503A0912603B09127034091B80350911E
S1130480B903052E000C660B770B480F591F6A1F22
S11304907B1F409338035093390360933A0370935E
S11304A03B034091B6035091B703052E000C660B35
S11304B0770B480F591F6A1F7B1F409334035093D7
S11304C0350360933603709337034091B40350911E
S11304D0B503052E000C660B770B480F591F6A1FD6
S11304E07B1F409330035093310360933203709326
S11304F033034091B2035091B303052E000C660BF5
S1130500770B840F951FA61FB71F80932C0390931E
S11305102D03A0932E03B0932F038BB1803108F4E5
S11305205CC00E94B61260932803709329038093E1
S11305302A0390932B0300913803109139032091DF
S11305403A0330913B03601771078207930708F061
S11305505C98409134035091350360913603709157
S113056037038091280390912903A0912A03B09125
S11305702B0384179507A607B70708F05D984091E9
S113058030035091310360913203709133038091B1
S1130590280390912903A0912A03B0912B03841777
S11305A09507A607B70708F05E9840912C03509171
S11305B02D0360912E0370912F0380912803909155
S11305C02903A0912A03B0912B0384179507A6074A
S11305D0B70708F4A2CF5F98A0CF1F910F91089599
S11305E0CF936091A4037091A50387E694E00E94E1
S11305F0E9116BE670E087E694E00E948D0060E00C
S113060070E087E694E00E948D0087E694E00E9403
S113061065126091A4037091A50387E694E00E949B
S1130620E9116BE170E087E694E00E948D0068E0D8
S113063070E087E694E00E948D0087E694E00E94D3
S113064065126091A4037091A50387E694E00E946B
S1130650E9116CE170E087E694E00E948D0060E1AE
S113066070E087E694E00E948D0087E694E00E94A3
S113067065126091A4037091A50387E694E00E943B
S1130680E9116BE170E087E694E00E948D0087E653
S113069094E00E9465126091A4037091A50341E067
S11306A050E087E694E00E94621287E694E00E949C
S11306B03A1118161906CCF787E694E00E94421105
S11306C0C82F4AE050E0682F8AEC93E00E942D1076
S11306D0C830A9F061E08DE00E94C21364E670E0C6
S11306E080E090E00E94DB1260E08DE00E94C21383
S11306F068EE73E080E090E00E94DB12EBCF609143
S1130700A4037091A50387E694E00E94E9116AE1CD
S113071070E087E694E00E948D0063E070E087E675
S113072094E00E948D0087E694E0CF910C946512CA
S113073026E040E051EE60E070E08AEC93E00E9435
S1130740E80D87E694E00E94D5118CE08093B80010
S11307508AB1806F8AB961E08DE00E94861380912E
S1130760680085608093680080916B00816080934D
S11307706B0080916B00826080936B0080916B00B2
S1130780846080936B0080916B00886080936B0021
S113079080916D00846080936D0080916D0088600D
S11307A080936D0088E690E09093A5038093A40362
S11307B01092D9021092D8020E94F00260E08DE0FB
S11307C00E94C2130E94B6126093240370932503FF
S11307D080932603909327038AEC93E00E94220DD2
S11307E0892B39F08AEC93E00E943C0D8093C4037A
S11307F0F3CF1092C4030895CF93DF936091A403C1
S11308007091A50387E694E00E94E9116BE370E020
S113081087E694E00E948D0087E694E00E946512CA
S11308206091A4037091A5034EE050E087E694E044
S11308300E94621287E694E00E943A110E97D4F364
S113084087E694E00E944211C82F87E694E00E9454
S1130850421120E030E03C2F822B932B90930B032A
S113086080930A0387E694E00E944211C82F87E62A
S113087094E00E94421120E030E03C2F822B932B25
S113088090930D0380930C0387E694E00E94421139
S1130890C82F87E694E00E94421120E030E03C2F0C
S11308A0822B932B90930F0380930E0387E694E09F
S11308B00E944211C82F87E694E00E94421120E072
S11308C030E03C2F822B932B9093A1038093A003C1
S11308D087E694E00E944211C82F87E694E00E94C4
S11308E0421120E030E03C2F822B932B90930303A2
S11308F08093020387E694E00E944211C82F87E6A2
S113090094E00E94421120E030E03C2F822B932B94
S1130910909305038093040387E694E00E944211B8
S1130920C82F87E694E00E94421160E070E07C2FBB
S1130930EB01C82BD92BD0930703C09306038091F6
S1130940EA029091EB02803D974009F04AC0609121
S1130950020370910303072E000C880B990B0E946D
S1130960CE0B2091DE023091DF024091E0025091E3
S1130970E1020E94B70A0E94960B709303036093EE
S113098002036091040370910503072E000C880B89
S1130990990B0E94CE0B2091E2023091E302409128
S11309A0E4025091E5020E94B70A0E94960B7093EC
S11309B0050360930403BE01DD0F880B990B0E94AD
S11309C0CE0B2091E6023091E7024091E80250916B
S11309D0E9020E94B70A0E94960B70930703609382
S11309E006036091020370910303072E000C880B29
S11309F0990B0E94CE0B6093F8027093F9028093D6
S1130A00FA029093FB026091040370910503072E90
S1130A10000C880B990B0E94CE0B6093FC02709320
S1130A20FD028093FE029093FF0260910603709191
S1130A300703072E000C880B990B0E94CE0B6093C2
S1130A40F4027093F5028093F6029093F70280917A
S1130A500A0390910B03092E000CAA0BBB0B809385
S1130A609C0390939D03A0939E03B0939F03809156
S1130A700C0390910D03092E000CAA0BBB0B809361
S1130A80980390939903A0939A03B0939B03809146
S1130A900E0390910F03092E000CAA0BBB0B80933D
S1130AA0940390939503A0939603B0939703DF91D7
S1130AB0CF9108958F929F92AF92BF92CF92DF927F
S1130AC0EF92FF92CF93DF93C0902403D09025033D
S1130AD0E0902603F090270320EAC20E2FE0D21EF6
S1130AE0E11CF11C0E94B6126C157D058E059F0554
S1130AF058F30E94B61260932403709325038093E5
S1130B002603909327038AEC93E00E94220D181683
S1130B1019060CF096C08AEC93E00E943C0D809379
S1130B20C40391E09093C3031092A7031092A60309
S1130B301092EB021092EA021092C5031092C203C3
S1130B40823731F463E471E08AEC93E00E94390F58
S1130B508091C403813631F46DE571E08AEC93E051
S1130B600E94390F8091C403813631F46AE771E041
S1130B708AEC93E00E94390F8091C403813331F4ED
S1130B806CEB71E08AEC93E00E94390F8091C4030E
S1130B90823331F46CED71E08AEC93E00E94390FFA
S1130BA08091C403833331F46AEF71E08AEC93E0FB
S1130BB00E94390F8091C403843331F468E172E0F8
S1130BC08AEC93E00E94390F8091C403853331F499
S1130BD066E372E08AEC93E00E94390F1092A3035B
S1130BE01092A203C8EED3E08091A2039091A303D4
S1130BF08137924014F563E070E080E090E00E9459
S1130C00DB12D093B903C093B803D093B703C09356
S1130C10B603D093B503C093B403D093B303C09386
S1130C20B2030E9426028091A2039091A30301962D
S1130C309093A3038093A203D7CF1092A30310929F
S1130C40A2038091AE039091AF039093BD03809370
S1130C50BC032091BC033091BD032130344014F413
S1130C601092C3032091C403211182C02091C303B5
S1130C7021117EC02091AA033091AB033093C103AC
S1130C802093C0032091AC033091AD033093BF0394
S1130C902093BE039093BD038093BC038091B00363
S1130CA09091B1039093BB038093BA038091D802CF
S1130CB09091D902892B41F48091C0039091C10392
S1130CC09093D9028093D802E091BC03F091BD03C4
S1130CD02091D8023091D9028091C0039091C10330
S1130CE0A901481B590BCA0166EF7FEF0E948016C9
S1130CF06E0F7F1F7093B9036093B803E091BC0338
S1130D00F091BD038091C0039091C103A901481BD8
S1130D10590BCA016AE070E00E9480166E0F7F1FB3
S1130D207093B7036093B6038091BC039091BD03A5
S1130D309093B5038093B4038091BC039091BD0359
S1130D409093B3038093B2030E9426028091A6037A
S1130D509091A70301969093A7038093A603843FE1
S1130D60914031F40E9450011092A7031092A603FF
S1130D708091C403823709F07BC08091A6039091CF
S1130D80A70301969093A7038093A6032091AA0337
S1130D903091AB033093C1032093C0032091AC0383
S1130DA03091AD033093BF032093BE032091AE0373
S1130DB03091AF033093BD032093BC032091B00363
S1130DC03091B1033093BB032093BA038D3791055F
S1130DD031F40E9450011092A7031092A60380914F
S1130DE0BC039091BD038A31944044F48091BA03CA
S1130DF09091BB038A3194400CF4A3C38091C50342
S1130E00813079F48091BC039091BD038A31944080
S1130E1044F48091BA039091BB038B3A95400CF053
S1130E2094C38091C503823079F48091BC0390917E
S1130E30BD038A31944044F48091BA039091BB037A
S1130E408F3997400CF085C388EE93E09093B903F3
S1130E508093B8039093B7038093B6039093B5033C
S1130E608093B4039093B3038093B2030E94260249
S1130E708091C4038153853008F0A3C18091A603F7
S1130E809091A70301969093A7038093A6032091C2
S1130E90C3032223B9F08A3F9105A1F46FE472E001
S1130EA08AEC93E00E942C0F6091BC037091BD0307
S1130EB04AE050E08AEC93E00E94F00F1092A703FE
S1130EC01092A6038091C30381117BC18091AE036C
S1130ED09091AF039093BD038093BC038091C403AE
S1130EE0982F9B7F9133A9F42091BC033091BD03CB
S1130EF03093B9032093B8038233A1F42091BC0347
S1130F003091BD033093B7032093B6038333C9F400
S1130F1013C028EE33E03093B9032093B80382332F
S1130F2019F4ECCF853351F328EE33E03093B70353
S1130F302093B603833339F42091BC033091BD036D
S1130F4004C08533C9F328EE33E03093B50320930E
S1130F50B4038453823028F48091BC039091BD0380
S1130F6002C088EE93E09093B3038093B2030E948F
S1130F7026026091A4037091A50387E694E00E9481
S1130F80E9116BE370E087E694E00E948D0087E648
S1130F9094E00E9465126091A4037091A50346E059
S1130FA050E087E694E00E94621287E694E00E9493
S1130FB03A110697D4F387E694E00E944211C82FB1
S1130FC087E694E00E94421120E030E03C2F822B1F
S1130FD0932B092E000CAA0BBB0B80939C039093BC
S1130FE09D03A0939E03B0939F0387E694E00E9421
S1130FF04211C82F87E694E00E94421120E030E0BD
S11310003C2F822B932B092E000CAA0BBB0B809335
S1131010980390939903A0939A03B0939B0387E654
S113102094E00E944211C82F87E694E00E94421186
S1131030E0E0F0E0FC2FE82BF92BCF010F2E000CA1
S1131040AA0BBB0B8093940390939503A0939603F0
S1131050B093970360919C0370919D0380919E03CC
S113106090919F038090980390909903A0909A0385
S1131070B0909B039B01AC010E9470166B017C0134
S1131080A5019401C501B4010E947016C60ED71EB5
S1131090E81EF91E9F01DF010E94D5166C0D7D1D0F
S11310A08E1D9F1D0E94CE0B0E94CD0C0E94960B9C
S11310B060934403709345038093460390934703DE
S11310C040E1242F30E0F901EE0FFF1FEE0FFF1F68
S11310D0E05CFC4FC080D180E280F380220F331F9C
S11310E0220F331FF901EC5BFC4FC082D182E282F4
S11310F0F3826C0D7D1D8E1D9F1D415011F71092C2
S1131100C50321E130E040E050E00E94B616209390
S1131110400330934103409342035093430380912F
S1131120A2039091A303C0903C03D0903D03E090B0
S11311303E03F0903F03843191053CF50196909372
S1131140A3038093A2038091440390914503A0914B
S11311504603B0914703821B930BA40BB50BB7FF57
S113116007C0B095A095909581959F4FAF4FBF4F05
S11311708C0D9D1DAE1DBF1D80933C0390933D03BC
S1131180A0933E03B0933F031CC01092A30310929C
S1131190A203C701B60122E330E040E050E00E9420
S11311A0B616BA01A9012AE030E08AEC93E00E9465
S11311B0071010923C0310923D0310923E031092CC
S11311C03F038091C403813609F0C6C18091EA02CD
S11311D09091EB02803D974009F4E9C06DE772E01D
S11311E08AEC93E00E942C0F1092EB021092EA0218
S11311F0CDE7D0E08091EA029091EB02803D47E098
S113120094070CF08BC0BE010E948016892B81F4D8
S11312108DE00E94F21361E0892B09F060E08DE01B
S11312200E94C2136AEB71E08AEC93E00E942C0FD7
S11312300E94FC036091020370910303072E000CCB
S1131240880B990B0E94CE0B9B01AC016091DE02CE
S11312507091DF028091E0029091E1020E94B80A4D
S11312606093DE027093DF028093E0029093E102C8
S11312706091040370910503072E000C880B990BF1
S11312800E94CE0B9B01AC016091E2027091E302DB
S11312908091E4029091E5020E94B80A6093E20210
S11312A07093E3028093E4029093E5026091060355
S11312B070910703072E000C880B990B0E94CE0B2C
S11312C09B01AC016091E6027091E7028091E80213
S11312D09091E9020E94B80A6093E6027093E702D3
S11312E08093E8029093E9028BB1806F8BB988EE0A
S11312F093E00E9417138BB18F708BB963E070E099
S113130080E090E00E94DB128091EA029091EB026F
S113131001969093EB028093EA026CCF6AEB71E042
S11313208AEC93E00E94390F20E030E04AEF54E465
S11313306091DE027091DF028091E0029091E102FF
S11313400E94240B6093DE027093DF028093E0021C
S11313509093E10220E030E04AEF54E46091E2022D
S11313607091E3028091E4029091E5020E94240BC3
S11313706093E2027093E3028093E4029093E502A7
S113138020E030E04AEF54E46091E6027091E70215
S11313908091E8029091E9020E94240B6093E60296
S11313A07093E7028093E8029093E902D5C08BB171
S11313B0806F8BB988EE93E00E9417138BB18F7006
S11313C08BB90E94FC0320ED32E240E858E36091BF
S11313D0FC027091FD028091FE029091FF020E9436
S11313E05A0C9B01AC016091F0027091F102809162
S11313F0F2029091F3020E94B80A6093F002709393
S1131400F1028093F2029093F30220ED32E240E87D
S113141058E36091F8027091F9028091FA02909178
S1131420FB020E945A0C9B01AC016091EC0270918A
S1131430ED028091EE029091EF020E94B80A60934F
S1131440EC027093ED028093EE029093EF02809190
S1131450A6039091A703892B31F462E972E08AEC28
S113146093E00E942C0F8091A6039091A70301970B
S113147071F44091F0025091F1026091F202709186
S1131480F30220E030E08AEC93E00E942611809180
S1131490A6039091A703029731F46AE972E08AECFB
S11314A093E00E942C0F8091A6039091A7030397C9
S11314B071F44091EC025091ED026091EE02709152
S11314C0EF0220E030E08AEC93E00E942611809144
S11314D0A6039091A703049731F462EA72E08AECC0
S11314E093E00E942C0F8091A6039091A703059787
S11314F0B1F420E030E043E852E46091F4027091EA
S1131500F5028091F6029091F7020E94240BAB0140
S1131510BC0120E030E08AEC93E00E942811809125
S1131520A6039091A70301968C33910529F090931B
S1131530A7038093A60310C01092A7031092A603DA
S11315400BC081E08093C50359CC82E08093C5032E
S113155068CC1092C50378CCDF91CF91FF90EF90C7
S1131560DF90CF90BF90AF909F908F900895505888
S1131570BB27AA270E94CF0A0C94200C0E94120CAD
S113158038F00E94190C20F039F49F3F19F426F426
S11315900C940F0C0EF4E095E7FB0C94090CE92F66
S11315A00E94310C58F3BA17620773078407950732
S11315B020F079F4A6F50C94530C0EF4E0950B2E60
S11315C0BA2FA02D0B01B90190010C01CA01A00191
S11315D01124FF27591B99F0593F50F4503E68F1EC
S11315E01A16F040A22F232F342F4427585FF3CF2D
S11315F0469537952795A795F0405395C9F77EF4FE
S11316001F16BA0B620B730B840BBAF09150A1F046
S1131610FF0FBB1F661F771F881FC2F70EC0BA0FCC
S1131620621F731F841F48F4879577956795B79554
S1131630F7959E3F08F0B0CF9395880F08F099274F
S1131640EE0F9795879508950E94380B0C94200C03
S11316500E94190C58F00E94120C40F029F45F3FCC
S113166029F00C94090C51110C94540C0C940F0C8B
S11316700E94310C68F39923B1F3552391F3951B20
S1131680550BBB27AA2762177307840738F09F5F9F
S11316905F4F220F331F441FAA1FA9F335D00E2E0C
S11316A03AF0E0E832D091505040E695001CCAF779
S11316B02BD0FE2F29D0660F771F881FBB1F26173C
S11316C037074807AB07B0E809F0BB0B802DBF0113
S11316D0FF2793585F4F3AF09E3F510578F00C94E2
S11316E0090C0C94540C5F3FE4F3983ED4F38695B4
S11316F077956795B795F7959F5FC9F7880F911D03
S11317009695879597F90895E1E0660F771F881FEE
S1131710BB1F621773078407BA0720F0621B730BA1
S1131720840BBA0BEE1F88F7E09508950E949D0B79
S11317306894B1110C94540C08950E94390C88F0EB
S11317409F5798F0B92F9927B751B0F0E1F0660F81
S1131750771F881F991F1AF0BA95C9F714C0B130C2
S113176091F00E94530CB1E008950C94530C672F30
S1131770782F8827B85F39F0B93FCCF386957795F1
S11317806795B395D9F73EF49095809570956195DA
S11317907F4F8F4F9F4F0895E89409C097FB3EF405
S11317A090958095709561957F4F8F4F9F4F9923AA
S11317B0A9F0F92F96E9BB279395F6958795779528
S11317C06795B795F111F8CFFAF4BB0F11F460FFE8
S11317D01BC06F5F7F4F8F4F9F4F16C0882311F040
S11317E096E911C0772321F09EE8872F762F05C054
S11317F0662371F096E8862F70E060E02AF09A95EF
S1131800660F771F881FDAF7880F9695879597F9E3
S1131810089597F99F6780E870E060E008959FEF6E
S113182080EC089500240A94161617061806090673
S1131830089500240A941216130614060506089542
S1131840092E0394000C11F4882352F0BB0F40F4CA
S1131850BF2B11F460FF04C06F5F7F4F8F4F9F4F0A
S1131860089557FD9058440F551F59F05F3F71F08C
S11318704795880F97FB991F61F09F3F79F08795F3
S11318800895121613061406551FF2CF4695F1DF7C
S113189008C0161617061806991FF1CF869571050C
S11318A0610508940895E894BB2766277727CB0140
S11318B097F908950E946D0C0C94200C0E94120C50
S11318C038F00E94190C20F0952311F00C94090CA7
S11318D00C940F0C11240C94540C0E94310C70F3D2
S11318E0959FC1F3950F50E0551F629FF001729FC1
S11318F0BB27F00DB11D639FAA27F00DB11DAA1FD0
S1131900649F6627B00DA11D661F829F2227B00D1C
S1131910A11D621F739FB00DA11D621F839FA00DA7
S1131920611D221F749F3327A00D611D231F849FF7
S1131930600D211D822F762F6A2F11249F5750404E
S11319409AF0F1F088234AF0EE0FFF1FBB1F661FC9
S1131950771F881F91505040A9F79E3F510580F092
S11319600C94090C0C94540C5F3FE4F3983ED4F3AC
S1131970869577956795B795F795E7959F5FC1F736
S1131980FE2B880F911D9695879597F9089519F464
S113199016F40C940F0C0C940D0D0E94390CB8F332
S11319A09923C9F3B6F39F57550B87FF0E941B0D6C
S11319B00024A0E640EA900180585695979528F4B3
S11319C0805C660F771F881F20F0261737074807AB
S11319D030F4621B730B840B202931294A2BA69502
S11319E017940794202531254A2758F7660F771F47
S11319F0881F20F026173707480730F4620B730B53
S1131A00840B200D311D411DA09581F7B901842F50
S1131A109158880F9695879508959F3F31F091507E
S1131A2020F4879577956795B795880F911D9695BE
S1131A30879597F9089591505040660F771F881F36
S1131A40D2F70895FC01918D228D892F90E0805C5E
S1131A509F4F821B91098F7399270895FC01918DE3
S1131A60828D981731F0828DE80FF11D858D90E0FD
S1131A7008958FEF9FEF0895FC01918D828D981743
S1131A8061F0828DDF01A80FB11D5D968C91928D5E
S1131A909F5F9F73928F90E008958FEF9FEF08955B
S1131AA085EA9EE0892B49F080E090E0892B29F0BB
S1131AB00E94A50E81110C9400000895FC01848DF0
S1131AC0DF01A80FB11DA35ABF4F2C91848D90E064
S1131AD001968F739927848FA689B7892C93A0893F
S1131AE0B1898C9180648C93938D848D981306C0F6
S1131AF00288F389E02D80818F7D80830895CF93C0
S1131B00DF93EC01888D8823C9F0EA89FB89808101
S1131B1085FD05C0A889B9898C9186FD0FC00FB6D3
S1131B2007FCF5CF808185FFF2CFA889B9898C9114
S1131B3085FFEDCFCE010E945E0DE7CFDF91CF91FF
S1131B400895EF92FF920F931F93CF93DF93EC01CD
S1131B5081E0888F9B8D8C8D981305C0E889F98965
S1131B60808185FD24C0F62E0B8D10E00F5F1F4F82
S1131B700F731127E02E8C8DE8120CC00FB607FCF2
S1131B80FACFE889F989808185FFF5CFCE010E94DB
S1131B905E0DF1CF8B8DFE01E80FF11DE35AFF4F6F
S1131BA0F0820B8FEA89FB898081806207C0EE890D
S1131BB0FF896083E889F98980818064808381E07A
S1131BC090E0DF91CF911F910F91FF90EF900895D6
S1131BD0CF92DF92EF92FF921F93CF93DF93EC01AA
S1131BE06A017B01122FE889F98982E0808341151B
S1131BF0514E61057105B1F060E079E08DE390E04C
S1131C00A70196010E949416DA01C9010197A1095E
S1131C10B109B695A79597958795AC01411580E1D3
S1131C205807A8F0E889F989108260E874E88EE121
S1131C3090E0A70196010E949416BA01A9014150AF
S1131C405109610971097695679557954795EC8512
S1131C50FD855083EE85FF854083188EEC89FD89D0
S1131C601083EA89FB89808180618083EA89FB890A
S1131C70808188608083EA89FB8980818068808391
S1131C80EA89FB8980818F7D8083DF91CF911F91C9
S1131C90FF90EF90DF90CF9008951F920F920FB6B0
S1131CA00F9211242F938F939F93EF93FF93E091BF
S1131CB0DA03F091DB038081E091E003F091E1032A
S1131CC082FD12C090818091E3038F5F8F73209116
S1131CD0E403821751F0E091E303F0E0E653FC4F94
S1131CE0958F8093E30301C08081FF91EF919F91D1
S1131CF08F912F910F900FBE0F901F9018951F92E8
S1131D000F920FB60F9211242F933F934F935F932B
S1131D106F937F938F939F93AF93BF93EF93FF93AF
S1131D208AEC93E00E945E0DFF91EF91BF91AF9119
S1131D309F918F917F916F915F914F913F912F91DF
S1131D400F900FBE0F901F9018958AEC93E00E949D
S1131D50220D21E0892B09F420E0822F0895EAEC7A
S1131D60F3E01382128288EE93E0A0E0B0E0848373
S1131D709583A683B7838DEA92E09183808385EC73
S1131D8090E09587848784EC90E09787868780EC41
S1131D9090E0918B808B81EC90E0938B828B82EC32
S1131DA090E0958B848B86EC90E0978B868B118EDC
S1131DB0128E138E148E089508950E9422130E9489
S1131DC0DC0E0E949803C0E5DDE00E945A052097CE
S1131DD0E1F30E94500DF9CFCF92DF92EF92FF9280
S1131DE00F931F93CF93DF936C017A018B01C0E0B3
S1131DF0D0E0CE15DF0589F0D8016D918D01D601B3
S1131E00ED91FC910190F081E02DC6010995892B9B
S1131E1011F47E0102C02196ECCFC701DF91CF916E
S1131E201F910F91FF90EF90DF90CF90089561156F
S1131E30710579F0FB0101900020E9F73197AF01BA
S1131E40461B570BDC01ED91FC910280F381E02DE0
S1131E50099480E090E008950C94170FDC01ED9153
S1131E60FC910190F081E02D099469EB72E00C94EF
S1131E70170F0F931F93CF93DF93EC010E94170F5B
S1131E808C01CE010E94350F800F911FDF91CF91FD
S1131E901F910F9108958F929F92AF92BF92CF920C
S1131EA0DF92EF92FF920F931F93CF93DF93CDB7FF
S1131EB0DEB7A1970FB6F894DEBF0FBECDBF7C018D
S1131EC0D42EC52EDB0119A2223008F42AE08E019B
S1131ED00F5D1F4F822E912CA12CB12C6D2D7C2DCA
S1131EE0CD01A50194010E949416D22EC32EDA01CD
S1131EF0015011096A3071058105910510F4605D86
S1131F0001C0695CF8016083232B242B252B31F756
S1131F10B801C7010E94170FA1960FB6F894DEBF4F
S1131F200FBECDBFDF91CF911F910F91FF90EF9026
S1131F30DF90CF90BF90AF909F908F900895CF92F5
S1131F40DF92EF92FF920F931F93CF93DF93EC01F5
S1131F506A017B012115310579F4E881F981019049
S1131F60F081E02D642FDF91CF911F910F91FF90AD
S1131F70EF90DF90CF9009942A303105E9F477FF90
S1131F801AC06DE20E942E0F8C0144275527BA0116
S1131F904C195D096E097F092AE0CE010E944B0F9E
S1131FA0800F911FDF91CF911F910F91FF90EF90C0
S1131FB0DF90CF9008952AE0B701A601CE01DF910A
S1131FC0CF911F910F91FF90EF90DF90CF900C94E1
S1131FD04B0F9A01AB01770F660B770B0C949F0F95
S1131FE00F931F93CF93DF93EC019A01AB01770F0B
S1131FF0660B770B0E949F0F8C01CE010E94350F58
S1132000800F911FDF91CF911F910F9108950F932E
S11320101F93CF93DF93EC010E949F0F8C01CE019D
S11320200E94350F800F911FDF91CF911F910F9167
S113203008952115310541F4DC01ED91FC910190E5
S1132040F081E02D642F09940C944B0F9A01462FD4
S113205050E060E070E00C9419100F931F93CF933D
S1132060DF93EC019A01462F50E060E070E00E949B
S113207019108C01CE010E94350F800F911FDF9142
S1132080CF911F910F9108954F925F926F927F921B
S11320908F929F92AF92BF92CF92DF92EF92FF9274
S11320A0CF93DF93EC016A017B01B22E9A01AB015D
S11320B0C701B6010E946B16882319F06CEB72E01D
S11320C027C026013701E89477F82FEF3FEF4FE759
S11320D05FE7C301B2010E946B1681110DC02FEF9F
S11320E03FEF4FE75FE7C301B2010E943D161816A8
S11320F01CF460EC72E00CC02FEF3FEF4FE75FE49D
S1132100C701B6010E94661618169CF464EC72E0CE
S1132110CE01DF91CF91FF90EF90DF90CF90BF90F1
S1132120AF909F908F907F906F905F904F900C94A2
S1132130170F2FEF3FEF4FE75FECC701B6010E9487
S11321403D1687FDE3CF20E030E0A901C701B601C9
S11321500E943D1687FF0AC06DE2CE010E942E0F39
S11321604C01F7FAF094F7F8F09402C0812C912C0A
S1132170A12C60E070E080E09FE3AB1441F020E02C
S113218030E040E251E40E94240BA394F6CF9B017B
S1132190AC01C701B6010E94B80A2B013C010E94A0
S11321A09D0B6B017C010E94CC0B9B01AC01C30114
S11321B0B2010E94B70A2B013C012AE0B701A60133
S11321C0CE010E944B0F7C01E80CF91CBB2031F0BE
S11321D06EE2CE010E942E0FE80EF91EDB2CDD20EC
S11321E029F120E030E040E251E4C301B2010E9451
S11321F05A0C2B013C010E949D0B4B01A12CB12CCC
S11322002AE0B501A401CE010E944B0FE80EF91E8D
S1132210C501B4010E94CC0B9B01AC01C301B20106
S11322200E94B70A2B013C01DA94D9CFC701DF9190
S1132230CF91FF90EF90DF90CF90BF90AF909F90A1
S11322408F907F906F905F904F9008950C944410FE
S11322500F931F93CF93DF93EC010E9444108C01E2
S1132260CE010E94350F800F911FDF91CF911F91F6
S11322700F9108958091970490E020919804821B17
S1132280910908959091980480919704981750F4B7
S1132290E92FF0E0E756FB4F208130E09F5F9093F9
S11322A0980402C02FEF3FEFC9010895E09198040C
S11322B080919704E81730F4F0E0E756FB4F8081F3
S11322C090E008958FEF9FEF08950895CF92DF92E5
S11322D0EF92FF920F931F93CF93DF937C01262FEE
S11322E0972F8A0180917304882391F0C62FD72FEA
S11322F06E01C40ED51ECC15DD0571F06991D701B0
S1132300ED91FC910190F081E02DC7010995F3CF87
S1132310642F822F0E94D814C801DF91CF911F919E
S11323200F91FF90EF90DF90CF900895CF93DF93BC
S11323301F92CDB7DEB76983209173042223D1F0B5
S113234020917404203240F021E030E0FC0133831A
S1132350228380E090E015C080917504E82FF0E0BE
S1132360EA58FB4F998190838F5F80937504809323
S1132370740405C061E0CE0101960E94D81481E086
S113238090E00F90DF91CF910895FC0113821282A7
S113239088EE93E0A0E0B0E084839583A683B783BE
S11323A08CEC92E0918380830895109298041092AB
S11323B0970410927504109274040C941C1481E018
S11323C080937304609396041092750410927404BD
S11323D008950C94DF110F93062F21E040917404AB
S11323E066E774E0809196040E948214109275044A
S11323F010927404109273040F9108954F925F9297
S11324006F927F92AF92BF92CF92EF92FF920F930F
S11324101F93CF93DF935C01F62ED42F280139014B
S1132420EE2021F10E94DF11CE2DC43008F0C3E06C
S1132430C150C0F0D501ED91FC91B8E0CB9FC00133
S11324401124A301920104C0569547953795279509
S11324508A95D2F7CA01B9010190F081E02DC50136
S11324600995E6CF60E0C5010E94EB114D2FD132F2
S113247008F040E22C2D69E974E08F2D0E943A1493
S11324801092980480939704DF91CF911F910F913C
S1132490FF90EF90CF90BF90AF907F906F905F9040
S11324A04F900895CF92EF920F931F93C22EE12C79
S11324B000E010E098010E94FE111F910F91EF902F
S11324C0CF90089521E00C94521261E00C94EB112A
S11324D087E694E00C94C5111F920F920FB60F92E9
S11324E011242F933F938F939F93AF93BF93809126
S11324F0BA049091BB04A091BC04B091BD04309186
S1132500B90423E0230F2D3720F40196A11DB11D3A
S113251005C026E8230F0296A11DB11D2093B9041E
S11325208093BA049093BB04A093BC04B093BD04FD
S11325308091BE049091BF04A091C004B091C104E5
S11325400196A11DB11D8093BE049093BF04A09376
S1132550C004B093C104BF91AF919F918F913F91FB
S11325602F910F900FBE0F901F9018953FB7F894BE
S11325708091BE049091BF04A091C004B091C104A5
S113258026B5A89B05C02F3F19F00196A11DB11DCA
S11325903FBFBA2FA92F982F8827820F911DA11D05
S11325A0B11DBC01CD0142E0660F771F881F991F42
S11325B04A95D1F708958F929F92AF92BF92CF928E
S11325C0DF92EF92FF926B017C010E94B6124B01E5
S11325D05C01C114D104E104F10401F10E941B1453
S11325E00E94B612DC01CB0188199909AA09BB091A
S11325F0883E9340A105B10560F321E0C21AD108D9
S1132600E108F10888EE880E83E0981EA11CB11C35
S1132610C114D104E104F10419F7DBCFFF90EF906A
S1132620DF90CF90BF90AF909F908F9008958230AD
S1132630910538F0880F991F880F991F0597019706
S1132640F1F70895789484B5826084BD84B581607F
S113265084BD85B5826085BD85B5816085BDEEE6A6
S1132660F0E0808181608083E1E8F0E01082808185
S113267082608083808181608083E0E8F0E08081F3
S113268081608083E1EBF0E0808184608083E0EB13
S1132690F0E0808181608083EAE7F0E080818460FB
S11326A08083808182608083808181608083808157
S11326B0806880831092C1000895833081F028F4EB
S11326C0813099F08230A1F008958730A9F08830E4
S11326D0B9F08430D1F4809180008F7D03C0809163
S11326E080008F7780938000089584B58F7702C02F
S11326F084B58F7D84BD08958091B0008F7703C029
S11327008091B0008F7D8093B0000895CF93DF93C4
S113271090E0FC01E458FF4F2491FC01E057FF4F87
S11327208491882361F190E0880F991FFC01E8549B
S1132730FF4FC591D491FC01E255FF4FA591B4918F
S1132740611109C09FB7F8948881209582238883FA
S1132750EC912E230BC0623061F49FB7F89438815A
S1132760822F809583238883EC912E2B2C939FBFFB
S113277006C08FB7F894E8812E2B28838FBFDF9192
S1132780CF9108951F93CF93DF93282F30E0F90161
S1132790E859FF4F8491F901E458FF4FD491F901AE
S11327A0E057FF4FC491CC23C9F0162F81110E942A
S11327B05D13EC2FF0E0EE0FFF1FE255FF4FA591E4
S11327C0B4918FB7F894111105C09C91ED2FE09549
S11327D0E92302C0EC91ED2BEC938FBFDF91CF91F5
S11327E01F910895CF93DF93282F30E0F901E85922
S11327F0FF4F8491F901E458FF4FD491F901E05758
S1132800FF4FC491CC2391F081110E945D13EC2FF2
S1132810F0E0EE0FFF1FEC55FF4FA591B491EC9142
S1132820ED2381E090E021F480E002C080E090E0BC
S1132830DF91CF910895089510922F0581E0809340
S11328402D0510922C0561E082E10E94C21361E023
S113285083E10E94C213E9EBF0E080818E7F8083E4
S113286080818D7F808388E48093B80085E48093A1
S1132870BC000895413208F043C090912F05911196
S1132880FCCF91E090932F0520932D052FEF2093FB
S1132890C20410920705240F2093060590932E0579
S11328A090912E05880F892B80932E0580912C05FD
S11328B0813061F410922C0580912E058093BB0029
S11328C08091BC0083FDF8CF85EC01C085EE809338
S11328D0BC0080912F058130E1F3809107058417B6
S11328E010F44091070528E035E0FB01D9018A2F57
S11328F0821B841718F48D918193F9CF842F089546
S113290080E008950F93413208F04AC090912F055A
S11329109111FCCF32E030932F0500932D053FEF4A
S11329203093C2041092070540930605FB0168E04A
S113293075E0DB013A2F361B341718F431913D93BF
S1132940F9CF10922E0530912E05880F832B80939A
S11329502E0580912C05813061F410922C05809114
S11329602E058093BB008091BC0083FDF8CF85ECDD
S113297001C085EE8093BC00222321F080912F05B5
S11329808230D1F38091C2048F3F79F08091C204E8
S1132990803241F08091C204803331F094E005C06C
S11329A091E003C092E001C093E0892F0F91089554
S11329B04091E404262F30E0240F311D21323105EB
S11329C0DCF420912F052430C9F4FC0180E090E070
S11329D0861758F43091E4042191DC01AA51BB4FCD
S11329E0A30FB11D2C930196F3CF8091E404680FDB
S11329F06093E40480E0089581E0089582E00895FE
S1132A0085ED8093BC008091BC0084FDFCCF1092C6
S1132A102F05089585EC8093BC0010922F0508952E
S1132A201F920F920FB60F9211242F933F934F933F
S1132A305F936F937F938F939F93AF93BF93EF9322
S1132A40FF938091B900887F803609F49EC078F5A1
S1132A50883209F45DC090F4803109F456C038F42A
S1132A60882309F4F5C0883009F44FC0F5C08831D3
S1132A7009F44EC0803209F45FC0EEC0803409F41A
S1132A806AC058F4803309F457C0883309F0E4C0AD
S1132A908093C2040E940A15DFC0803509F44FC038
S1132AA0883509F45DC0883409F0D6C0D3C08839AC
S1132AB009F4C4C0A8F4883709F467C038F4883628
S1132AC009F463C0803709F460C0C6C0883809F4CB
S1132AD0B5C0803909F45FC0803809F0BDC05BC05F
S1132AE0803B09F483C038F4803A09F466C0883A1C
S1132AF009F47CC0B1C0803C09F4A4C0883C09F44A
S1132B00A1C0883B09F487C0A7C080912E0510C0DE
S1132B109091070580910605981770F5E0910705D7
S1132B2081E08E0F80930705F0E0E85FFA4F808123
S1132B308093BB0085EC83C08093C2048BC0E0917A
S1132B40070581E08E0F809307058091BB00F0E0BC
S1132B50E85FFA4F808390910705809106056BC06A
S1132B60E091070581E08E0F809307058091BB00FB
S1132B70F0E0E85FFA4F808380912D0581116AC0EF
S1132B8081E080932C0584EA5EC083E080932F0566
S1132B901092C304CFCF8091C304803208F04EC09A
S1132BA0E091C30481E08E0F8093C3048091BB0045
S1132BB0F0E0EC53FB4F8083BDCF0E940A15809157
S1132BC0C304803230F4E091C304F0E0EC53FB4FD3
S1132BD010826091C30470E0E0912805F09129050A
S1132BE084EC94E009951092C30436C084E0809389
S1132BF02F051092E5041092E404E0912A05F09167
S1132C002B0509958091E404811105C081E080932E
S1132C10E4041092E604E091E50481E08E0F8093D1
S1132C20E504F0E0EA51FB4F80818093BB00909172
S1132C30E5048091E404981708F47CCF85E8809338
S1132C40BC000AC085EC8093BC0010922F0504C020
S1132C501092C2040E940015FF91EF91BF91AF91B1
S1132C609F918F917F916F915F914F913F912F91A0
S1132C700F900FBE0F901F9018950E94421608F4F3
S1132C8081E00895990F0008550FAA0BE0E8FEEFC4
S1132C9016161706E807F907C0F012161306E4071C
S1132CA0F50798F0621B730B840B950B39F40A2615
S1132CB061F0232B242B252B21F408950A2609F4F3
S1132CC0A140A6958FEF811D811D08950E94421693
S1132CD008F48FEF08950E944216880B990B08950B
S1132CE0DB018F939F930E94F316BF91AF91A29F34
S1132CF0800D911DA39F900DB29F900D11240895F6
S1132D0097FB072E16F4009407D077FD09D00E9494
S1132D10FE1607FC05D03EF4909581959F4F0895CB
S1132D20709561957F4F0895A1E21A2EAA1BBB1BD3
S1132D30FD010DC0AA1FBB1FEE1FFF1FA217B30783
S1132D40E407F50720F0A21BB30BE40BF50B661F99
S1132D50771F881F991F1A9469F76095709580955D
S1132D6090959B01AC01BD01CF010895052E97FB01
S1132D701EF400940E94CD1657FD07D00E949416AD
S1132D8007FC03D04EF40C94CD1650954095309525
S1132D9021953F4F4F4F5F4F0895909580957095C3
S1132DA061957F4F8F4F9F4F08950E94DD16332307
S1132DB012F48A1B9B0B0C94EE16A29FB001B39FD6
S1132DC0C001A39F700D811D1124911DB29F700D30
S1132DD0811D1124911D08950E94DD16B7FF0895E9
S1132DE0821B930B08950E94DD16A59F900DB49F3E
S1132DF0900DA49F800D911D11240895AA1BBB1B47
S1132E0051E107C0AA1FBB1FA617B70710F0A61BE6
S1132E10B70B881F991F5A95A9F780959095BC0107
S1132E20CD010895EE0FFF1F0590F491E02D099454
S1072E30F894FFCF40
S1132E3453746172743A002020526F6C6C3A003CF3
S1132E443C3C003E3E3E002D2B2D00202050697456
S1132E5463683A005E5E5E007676760020205468ED
S1132E64726F74746C653A0020205961773A0020BB
S1132E7420200052656164696E6720726563656928
S1132E84766572207369676E616C732E0050726983
S1132E946E74207468652071756164636F70746501
S1132EA47220616E676C65732E004779726F2063BC
S1132EB4616C6962726174696F6E20737461727497
S1132EC47320696E2032207365636F6E64732028E7
S1132ED4646F6E2774206D6F766520746865207145
S1132EE4756164636F70746572292E00546573741C
S1132EF4206D6F746F7220312028726967687420A2
S1132F0466726F6E74204343572E2900546573749C
S1132F14206D6F746F722032202872696768742080
S1132F24726561722043572E290054657374206DB1
S1132F346F746F72203320286C6566742072656127
S1132F4472204343572E290054657374206D6F74A3
S1132F546F72203420286C6566742066726F6E74F8
S1132F642043572E29005465737420616C6C206DC2
S1132F746F746F727320746F67657468657200533D
S1132F846574207468726F74746C6520746F203176
S1132F9430303020286C6F77292E20497427732011
S1132FA46E6F772073657420746F3A200043616CEC
S1132FB46962726174696E672074686520677972E6
S1132FC46F0050697463683A200020526F6C6C3A45
S1132FD42000205961773A200000000000A10DEC84
S1132FE40E220D3C0D2E0D7F0D0D0A006E616E0038
S1132FF4696E66006F766600000000009611661123
S10B30043A1142115611651145
S90303C534
