:100000000C948B000C94B3000C94B3000C949201EC
:100010000C94B3000C9425010C94B3000C94B30021
:100020000C94B3000C94B3000C94B3000C94B30084
:100030000C94B3000C94B3000C94B3000C94B30074
:100040000C9494150C94B3000C94B3000C94B3006E
:100050000C94B3000C94B3000C94B3000C94B30054
:100060000C9419180C94B300036EDB363D9A9999E1
:10007000993DABAAAA2A3E000000803F072C7AA532
:10008000BA6CC590DA3B9365FC8BBC53F810FD3C11
:100090005692834DBD879D3AB63DCBC9BF5BBE73BB
:1000A000DA0FC93F05A84CCDB2D44EB93836A902F3
:1000B0000C50B9918688083CA6AAAA2ABE00000066
:1000C000803F000000080002010000030407000058
:1000D000000000000000010204081020408001021E
:1000E000040810200102040810200404040404047D
:1000F00004040202020202020303030303030000DA
:100100000000230026002900000000002500280030
:100110002B002405901511241FBECFEFD8E0DEBFC1
:10012000CDBF11E0A0E0B1E0E0EEF3E302C0059046
:100130000D92AA32B107D9F723E0AAE2B1E001C0DB
:100140001D92A033B207E1F710E0CBE8D0E004C085
:100150002197FE010E94D119C938D107C9F70E9421
:1001600053140C94EE190C940000CF93E82FF0E098
:10017000E65DFD4FC789EC2FE770CC1FCC27CC1F65
:10018000F0E0EE0FFF1FDF01A050BE4F8D919C915C
:10019000E65DFD4F77853685DF0111974C9150E084
:1001A000542F442711972C91422B67812681841765
:1001B0009507DCF4E32FF0E0F72B9F01E817F90730
:1001C0000CF49C01DA01A21BB30B24EF31E00E9476
:1001D000AB199A012E1B3F0B032E000C440B550B41
:1001E0000E948C19CC23E9F021C04817590714F557
:1001F00030E0F901F62BDF018E179F070CF4DC01CC
:10020000A41BB50B24EF31E00E94AB199F01241B06
:10021000350B032E000C440B550B0E948C19CC237C
:1002200029F08CED95E0821B930B06C0C901845226
:100230009A4F02C08CED95E0CF910895DC01ED91CD
:10024000FC910190F081E02D09941F920F920FB65E
:100250000F9211242F933F934F935F936F937F934C
:100260008F939F93AF93BF93EF93FF930E94DE15FD
:1002700060939E0170939F018093A0019093A101D0
:1002800020914F024A9B0EC021111BC021E02093F8
:100290004F026093AA017093AB018093AC019093DD
:1002A000AD010FC0213069F410924F022091AA01D4
:1002B0003091AB01AB01421B530B50930D024093A5
:1002C0000C0220914E024B9B0EC021111AC021E05E
:1002D00020934E026093A6017093A7018093A8011A
:1002E0009093A9010EC0213061F410924E0220912A
:1002F000A6013091A701621B730B70930F026093EC
:100300000E02FF91EF91BF91AF919F918F917F91DD
:100310006F915F914F913F912F910F900FBE0F9072
:100320001F9018951F920F920FB60F9211242F93C2
:100330003F934F935F936F937F938F939F93AF936D
:10034000BF93EF93FF930E94DE156093A201709319
:10035000A3018093A4019093A50120915402189BBE
:100360000EC021111BC021E0209354026093BE01F6
:100370007093BF018093C0019093C1010FC02130E1
:1003800069F4109254022091BE013091BF01AB017B
:10039000421B530B509303024093020220915302DD
:1003A000199B0EC021111BC021E0209353026093C2
:1003B000BA017093BB018093BC019093BD010FC043
:1003C000213069F4109253022091BA013091BB019F
:1003D000AB01421B530B5093050240930402209142
:1003E00052021A9B0EC021111BC021E02093520221
:1003F0006093B6017093B7018093B8019093B901EF
:100400000FC0213069F4109252022091B601309150
:10041000B701AB01421B530B5093070240930602F6
:10042000209151021B9B0EC021111BC021E0209383
:1004300051026093B2017093B3018093B401909321
:10044000B5010FC0213069F4109251022091B20120
:100450003091B301AB01421B530B509309024093FF
:100460000802209150021C9B0EC021111AC021E0ED
:10047000209350026093AE017093AF018093B0015E
:100480009093B1010EC0213061F41092500220917E
:10049000AE013091AF01621B730B70930B0260933E
:1004A0000A02FF91EF91BF91AF919F918F917F9140
:1004B0006F915F914F913F912F910F900FBE0F90D1
:1004C0001F9018954F925F926F927F928F929F929A
:1004D000AF92BF92CF92DF92EF92FF920F931F9352
:1004E000CF93DF9300D000D0CDB7DEB7209172015B
:1004F00030917301409174015091750160916E01CA
:1005000070916F0180917001909171010E94FC10B7
:100510006B017C0120911101309112014091130176
:10052000509114010E94431320917601309177017C
:1005300040917801509179010E94FD102B013C01FE
:10054000609376017093770180937801909379019D
:1005500000910B0110910C01B801012E000C880BC9
:10056000990B0E9433124B015C019B01AC01C3014A
:10057000B2010E943E1318164CF4809276019092BC
:100580007701A0927801B092790122C0662777277F
:10059000601B710B072E000C880B990B0E94331205
:1005A00069837A838B839C839B01AC01C301B20175
:1005B0000E94841187FF0CC089819A81AB81BC8124
:1005C0008093760190937701A0937801B09379019D
:1005D0002091150130911601409117015091180199
:1005E000C701B6010E944313209176013091770133
:1005F00040917801509179010E94FD102B013C013E
:100600002091660130916701409168015091690124
:10061000C701B6010E94FC1020910D0130910E011E
:1006200040910F01509110010E9443139B01AC01B6
:10063000C301B2010E94FD102B013C01A5019401F0
:100640000E943E131816ECF066277727601B710B8B
:10065000072E000C880B990B0E9433124B015C0192
:100660009B01AC01C301B2010E94841187FD09C046
:1006700040926A0150926B0160926C0170926D0120
:1006800008C080926A0190926B01A0926C01B092B6
:100690006D01C0926601D0926701E0926801F0920C
:1006A000690120915E0130915F014091600150919C
:1006B000610160915A0170915B0180915C019091A0
:1006C0005D010E94FC106B017C0120915F02309162
:1006D000600240916102509162020E944313209196
:1006E00062013091630140916401509165010E9463
:1006F000FD102B013C0160936201709363018093B4
:100700006401909365010091590210915A02B80159
:10071000012E000C880B990B0E9433124B015C01D7
:100720009B01AC01C301B2010E943E1318164CF4A8
:100730008092620190926301A0926401B09265017F
:1007400022C066277727601B710B072E000C880BD1
:10075000990B0E94331269837A838B839C839B015C
:10076000AC01C301B2010E94841187FF0CC08981D2
:100770009A81AB81BC818093620190936301A093C5
:100780006401B0936501209163023091640240914D
:10079000650250916602C701B6010E944313209181
:1007A00062013091630140916401509165010E94A2
:1007B000FD102B013C0120915201309153014091D9
:1007C000540150915501C701B6010E94FC102091BF
:1007D0005B0230915C0240915D0250915E020E948A
:1007E00043139B01AC01C301B2010E94FD102B0118
:1007F0003C01A50194010E943E131816ECF06627F7
:100800007727601B710B072E000C880B990B0E9439
:1008100033124B015C019B01AC01C301B2010E9488
:10082000841187FD09C04092560150925701609291
:1008300058017092590108C0809256019092570158
:10084000A0925801B0925901C0925201D092530126
:10085000E0925401F092550120914A0130914B01F0
:1008600040914C0150914D016091460170914701BA
:1008700080914801909149010E94FC106B017C011C
:1008800060937A0170937B0180937C0190937D014A
:10089000209103013091040140910501509106011E
:1008A0000E94431320914E0130914F01409150011D
:1008B000509151010E94FD102B013C0160934E01AB
:1008C00070934F0180935001909351010091010169
:1008D00010910201B801012E000C880B990B0E94A7
:1008E00033124B015C019B01AC01C301B2010E94B8
:1008F0003E1318164CF480924E0190924F01A09234
:100900005001B092510122C066277727601B710BFE
:10091000072E000C880B990B0E94331269837A838F
:100920008B839C839B01AC01C301B2010E948411A3
:1009300087FF0CC089819A81AB81BC8180934E0175
:1009400090934F01A0935001B09351012091070162
:10095000309108014091090150910A01C701B60187
:100960000E94431320914E0130914F01409150015C
:10097000509151010E94FD102B013C0120913E013C
:1009800030913F014091400150914101C701B601B2
:100990000E94FC102091550230915602409157025E
:1009A000509158020E9443139B01AC01C301B20154
:1009B0000E94FD102B013C01A50194010E943E13F1
:1009C0001816ECF066277727601B710B072E000CBA
:1009D000880B990B0E9433124B015C019B01AC0107
:1009E000C301B2010E94841187FD09C040924201F7
:1009F00050924301609244017092450108C0809278
:100A0000420190924301A0924401B0924501C092EC
:100A10003E01D0923F01E0924001F09241010F90DF
:100A20000F900F900F90DF91CF911F910F91FF903A
:100A3000EF90DF90CF90BF90AF909F908F907F907E
:100A40006F905F904F9008958091150190911601DD
:100A5000A0911701B09118018093630290936402F2
:100A6000A0936502B09366028091110190911201EA
:100A7000A0911301B091140180935F0290936002E2
:100A8000A0936102B093620280910D0190910E01DA
:100A9000A0910F01B091100180935B0290935C02D2
:100AA000A0935D02B0935E0280910B0190910C01C6
:100AB00090935A02809359020895BF92CF92DF9289
:100AC000EF92FF920F931F93CF93DF938091490290
:100AD000813009F0C8C0609110027091110287E660
:100AE00092E00E9411156BE370E087E692E00E94AD
:100AF0001E0187E692E00E948D15609110027091B0
:100B000011024EE050E087E692E00E948A1581E0F3
:100B10000E94B500909329028093280282E00E94EF
:100B2000B500909327028093260283E00E94B500CF
:100B3000909325028093240284E00E94B500909354
:100B400023028093220220910A0230910B0288EB4B
:100B50009BE0821B930B909323028093220287E6F3
:100B600092E00E9462140E97D4F387E692E00E940E
:100B70006A14C82F87E692E00E946A1420E030E0F1
:100B80003C2F822B932B9093F9018093F80187E6F9
:100B900092E00E946A14C82F87E692E00E946A14CD
:100BA00020E030E03C2F822B932B9093FB0180932D
:100BB000FA0187E692E00E946A14C82F87E692E065
:100BC0000E946A1420E030E03C2F822B932B9093FC
:100BD000FD018093FC0187E692E00E946A14C82F11
:100BE00087E692E00E946A1420E030E03C2F822BDE
:100BF000932B9093FF018093FE0187E692E00E9481
:100C00006A14C82F87E692E00E946A1420E030E060
:100C10003C2F822B932B9093F1018093F00187E678
:100C200092E00E946A14C82F87E692E00E946A143C
:100C300020E030E03C2F822B932B9093F3018093A4
:100C4000F20187E692E00E946A14C82F87E692E0DC
:100C50000E946A1420E030E03C2F822B932B90936B
:100C6000F5018093F4018091140290911502803D6A
:100C7000974009F04EC06091F0017091F101072E8C
:100C8000000C880B990B0E94331220918201309145
:100C9000830140918401509185010E94FC100E94C3
:100CA000FB117093F1016093F0016091F20170917A
:100CB000F301072E000C880B990B0E943312209130
:100CC00086013091870140918801509189010E94ED
:100CD000FC100E94FB117093F3016093F20160918C
:100CE000F4017091F501072E000C880B990B0E94FE
:100CF000331220918A0130918B0140918C015091E7
:100D00008D010E94FC100E94FB117093F50160930D
:100D1000F401C09046020C2D037010E0000F111F6B
:100D2000F801E251FE4F60817181072E000C880BA3
:100D3000990B0E943312C7FC09C060939201709313
:100D4000930180939401909395010BC0DC01CB013A
:100D5000B0588093920190939301A0939401B09323
:100D60009501B09047028B2D8370E82EF12CEE0C8C
:100D7000FF1CF701E251FE4F60817181072E000CCC
:100D8000880B990B0E943312B7FC09C0609396013F
:100D90007093970180939801909399010BC0DC01A7
:100DA000CB01B0588093960190939701A09398013E
:100DB000B0939901D0904802CD2DC370D0E0CC0FF4
:100DC000DD1FFE01E251FE4F60817181072E000C94
:100DD000880B990B0E943312D7FC09C060938E01D7
:100DE00070938F0180939001909391010BC0DC016F
:100DF000CB01B05880938E0190938F01A093900106
:100E0000B0939101F701EA50FE4F80819181092E44
:100E1000000CAA0BBB0BB7FE07C0B095A095909530
:100E200081959F4FAF4FBF4F8093E2019093E301B5
:100E3000A093E401B093E501F801EA50FE4F8081F0
:100E40009181092E000CAA0BBB0BC7FE07C0B09501
:100E5000A095909581959F4FAF4FBF4F8093DE0136
:100E60009093DF01A093E001B093E101CA50DE4FFF
:100E700088819981092E000CAA0BBB0BD7FE07C0F5
:100E8000B095A095909581959F4FAF4FBF4F8093A0
:100E9000DA019093DB01A093DC01B093DD01DF91D7
:100EA000CF911F910F91FF90EF90DF90CF90BF9067
:100EB00008954F925F926F927F928F929F92AF921E
:100EC000BF92CF92DF92EF92FF92CF93DF93CDB795
:100ED000DEB72C970FB6F894DEBF0FBECDBF809063
:100EE000920190909301A0909401B090950123E31A
:100EF00033E343E35FE360916E0170916F01809192
:100F00007001909171010E9443136B017C0120E0FC
:100F100030E043E852E4C501B4010E9489112AE996
:100F200039E949E95EE30E9443139B01AC01C70123
:100F3000B6010E94FD1060936E0170936F01809363
:100F400070019093710140909601509097016090CC
:100F500098017090990123E333E343E35FE36091E9
:100F60005A0170915B0180915C0190915D010E943A
:100F700043136B017C0120E030E043E852E4C301FD
:100F8000B2010E9489112AE939E949E95EE30E9428
:100F900043139B01AC01C701B6010E94FD10609391
:100FA0005A0170935B0180935C0190935D01C09046
:100FB0008E01D0908F01E0909001F090910123E399
:100FC00033E343E35FE36091460170914701809111
:100FD0004801909149010E94431369837A838B836E
:100FE0009C8320E030E043E852E4C701B6010E9450
:100FF00089112AE939E949E95EE30E9443139B011B
:10100000AC0169817A818B819C810E94FD10609383
:10101000460170934701809348019093490120ED68
:1010200032E240E858E3C501B4010E944313209125
:101030002E0130912F0140913001509131010E94D9
:10104000FD104B015C012BE733E14FE855E3C7018D
:10105000B6010E9443130E94B0136B017C0120ED86
:1010600032E240E858E3C301B2010E9443132091E9
:1010700032013091330140913401509135010E9489
:10108000FD102B013C01A7019601C501B4010E948E
:1010900043139B01AC01C301B2010E94FC106D839C
:1010A0007E838F839887A70196010E9443139B013B
:1010B000AC01C501B4010E94FD1069877A878B8756
:1010C0009C874090E2015090E3016090E4017090B1
:1010D000E501C090DE01D090DF01E090E001F090EA
:1010E000E1018091DA019091DB01A091DC01B091E6
:1010F000DD0189839A83AB83BC83A3019201C30181
:10110000B2010E9446194B015C01A7019601C7017B
:10111000B6010E944619860E971EA81EB91E298187
:101120003A814B815C81CA01B9010E944619680D60
:10113000791D8A1D9B1D0E9433120E94BE130E94BE
:10114000FB114B015C016093D6017093D701809332
:10115000D8019093D901D701C601F7FE07C08827AF
:101160009927DC018C199D09AE09BF0988159905DD
:10117000AA05BB0504F5C701B6010E9433126B0135
:101180007C01C501B4010E9433129B01AC01C7016F
:10119000B6010E9489110E9469112BE13FE245E6E8
:1011A00052E40E9443136093360170933701809399
:1011B000380190933901D301C20177FE07C0882717
:1011C0009927DC0184199509A609B709881599059D
:1011D000AA05BB0504F5C301B2010E9433126B01DD
:1011E0007C01C501B4010E9433129B01AC01C7010F
:1011F000B6010E9489110E9469112BE13FE245E688
:1012000052EC0E94431360933A0170933B01809328
:101210003C0190933D0120E030E040E050E46091DB
:1012200036017091370180913801909139010E9407
:10123000FC106B017C016093360170933701809341
:1012400038019093390120E030E040EB50E46091A8
:101250003A0170913B0180913C0190913D010E94C7
:10126000FD1069837A838B839C8360933A0170932A
:101270003B0180933C0190933D0129EC35EE4FE713
:101280005FE36D817E818F8198850E9443134B01BE
:101290005C0127E137EB41ED59E3C701B6010E943C
:1012A00043139B01AC01C501B4010E94FD102B0149
:1012B0003C01609332017093330180933401909329
:1012C000350129EC35EE4FE75FE369857A858B853B
:1012D0009C850E9443134B015C0127E137EB41EDF4
:1012E00059E369817A818B819C810E9443139B0120
:1012F000AC01C501B4010E94FD104B015C0160937B
:101300002E0170932F01809330019093310120E0E2
:1013100030E040E751E4C301B2010E9443136093FF
:10132000E6017093E7018093E8019093E90120E0E2
:1013300030E040E751E4C501B4010E9443136093DB
:10134000EA017093EB018093EC019093ED018091A1
:101350000001811110C01092E6011092E701109275
:10136000E8011092E9011092EA011092EB0110924B
:10137000EC011092ED0180912402909125028A31B6
:10138000944044F480912202909123028A31944047
:101390000CF42DC48091120290911302019779F4FC
:1013A00080912402909125028A31944044F48091E6
:1013B0002202909123028B3A95400CF01FC4809139
:1013C000120290911302029779F480912402909175
:1013D00025028A31944044F48091220290912302A4
:1013E0008F3997400CF05AC4109272011092730119
:1013F0001092740110927501809128029091290237
:10140000853E95403CF06091280270912902645E0F
:1014100075400DC08091280290912902843D95402D
:10142000A4F46091280270912902645D7540072E32
:10143000000C880B990B0E94331260937201709319
:10144000730180937401909375012091EA013091AA
:10145000EB014091EC015091ED01609172017091AE
:10146000730180917401909175010E94FC1020E03D
:1014700030E040E450E40E9489116093720170935F
:101480007301809374019093750110925E01109224
:101490005F0110926001109261018091260290918B
:1014A0002702853E95403CF060912602709127020C
:1014B000645E75400DC08091260290912702843DA4
:1014C0009540A4F46091260270912702645D7540F6
:1014D000072E000C880B990B0E94331260935E015B
:1014E00070935F0180936001909361012091E60108
:1014F0003091E7014091E8015091E90160915E016E
:1015000070915F0180916001909161010E94FC10D7
:1015100020E030E040E450E40E94891160935E01D5
:1015200070935F01809360019093610110924A0172
:1015300010924B0110924C0110924D0180912402A7
:10154000909125028B3194407CF180912202909100
:101550002302853E95403CF0609122027091230267
:10156000645E75400DC08091220290912302843DFB
:101570009540D4F46091220270912302645D75401D
:10158000072E000C880B990B0E94331220E030E0EC
:1015900040E450E40E94891160934A0170934B012A
:1015A00080934C0190934D010E946202609116025B
:1015B00070911702072E000C880B990B0E943312B2
:1015C0002FE135E84BE65FE30E9443136B017C019A
:1015D00080E00E9485168F5B9F4FBC01990F880B9E
:1015E000990B0E94331229E13AEC49EC5DE30E9429
:1015F00043139B01AC01C701B6010E94FD100E947C
:10160000FB117093170260931602695572406F3890
:10161000714020F461E08DE00E94CB1680911602AB
:1016200090911702885E9340C29730F580912B010C
:1016300090912C0101968A3F910529F090932C01FD
:1016400080932B0104C010922C0110922B018091E9
:101650002B0190912C01892B21F461E08DE00E94F7
:10166000CB1680912B0190912C018D37910521F49F
:1016700060E08DE00E94CB168091240290912502BB
:101680009093190280931802209112023091130254
:101690002230310509F0A4C18930974034F088E048
:1016A00097E0909319028093180280912A0120916B
:1016B000180230911902882381F0809122029091C2
:1016C000230228173907A4F4809122029091230263
:1016D00090931902809318020BC0409122025091FE
:1016E000230281E0421753070CF080E080932A0127
:1016F0006091180270911902072E000C880B990B4B
:101700000E9433122B013C018091560190915701A8
:10171000A0915801B091590189839A83AB83BC830E
:101720009C01AD01C301B2010E94FC106D837E8358
:101730008F83988780906A0190906B01A0906C01D4
:10174000B0906D01C0904201D0904301E0904401FF
:10175000F0904501A50194010E94FD10A70196019A
:101760000E94FD100E94FB1169877A878B879C87F6
:10177000A985BA85B0932102A093200229813A81DC
:101780004B815C81C301B2010E94FD102B013C0121
:10179000A50194010E94FD10A70196010E94FC1072
:1017A0000E94FB1169837A838B839C83E981FA8190
:1017B000F0931F02E0931E02A5019401C301B20140
:1017C0000E94FC10A70196010E94FD100E94FB11CF
:1017D0002B013C0170931D0260931C02A501940132
:1017E0006D817E818F8198850E94FC10A7019601F2
:1017F0000E94FC100E94FB116D837E838F8398876B
:101800002D813E8130931B0220931A02E090160234
:10181000F0901702C70181529340873B914008F036
:101820007AC0A985BA85BD01BB0F880B990B0E94B0
:1018300033124B015C0168ED74E06E197F09072ECD
:10184000000C880B990B0E94331220E030EC4AE523
:1018500055E40E9489116B017C019B01AC01C5011B
:10186000B4010E9443139B01AC01C501B4010E9465
:10187000FD100E94FB117093210260932002E98108
:10188000FA81BF01FF0F880B990B0E9433124B01A5
:101890005C01A70196010E9443139B01AC01C501A5
:1018A000B4010E94FD100E94FB1170931F0260930F
:1018B0001E02B201550C880B990B0E9433124B018A
:1018C0005C01A70196010E9443139B01AC01C50175
:1018D000B4010E94FD100E94FB1170931D026093E1
:1018E0001C022D813E81B901330F880B990B0E9498
:1018F00033124B015C01A70196010E9443139B0127
:10190000AC01C501B4010E94FD100E94FB1170934F
:101910001B0260931A0280912002909121028A3169
:10192000944034F48AE194E0909321028093200261
:1019300080911E0290911F028A31944034F48AE112
:1019400094E090931F0280931E0280911C0290915C
:101950001D028A31944034F48AE194E090931D0290
:1019600080931C0280911A0290911B028A3194404C
:1019700034F48AE194E090931B0280931A028091E0
:10198000200290912102813D974034F080ED97E054
:10199000909321028093200280911E0290911F0259
:1019A000813D974034F080ED97E090931F02809343
:1019B0001E0280911C0290911D02813D974034F0DF
:1019C00080ED97E090931D0280931C0280911A0293
:1019D00090911B02813D9740ACF080ED97E00EC0E6
:1019E00088EE93E0909321028093200290931F024F
:1019F00080931E0290931D0280931C0290931B0201
:101A000080931A020E94DE15C0909A01D0909B012B
:101A1000E0909C01F0909D01DC01CB018C199D09A7
:101A2000AE09BF09833D9F40A105B10520F061E0EB
:101A30008DE00E94CB160E94DE15C0909A01D090D6
:101A40009B01E0909C01F0909D01DC01CB018C1981
:101A50009D09AE09BF09803A9F40A105B10558F321
:101A60000E94DE1560939A0170939B0180939C0104
:101A700090939D018BB1806F8BB980919A01909169
:101A80009B01A0919C01B0919D0140912002509139
:101A90002102052E000C660B770B480F591F6A1F99
:101AA0007B1F4093D2015093D3016093D401709374
:101AB000D50140911E0250911F02052E000C660BAD
:101AC000770B480F591F6A1F7B1F4093CE0150931D
:101AD000CF016093D0017093D10140911C025091CD
:101AE0001D02052E000C660B770B480F591F6A1F4D
:101AF0007B1F4093CA015093CB016093CC0170933C
:101B0000CD0140911A0250911B02052E000C660B6C
:101B1000770B840F951FA61FB71F8093C601909364
:101B2000C701A093C801B093C9010E945D058BB1A4
:101B3000803108F4B8C00E94DE156093C201709332
:101B4000C3018093C4019093C501C090D201D0908D
:101B5000D301E090D401F090D5016C157D058E0580
:101B60009F0508F05C984091CE015091CF016091A3
:101B7000D0017091D1018091C2019091C301A091D7
:101B8000C401B091C50184179507A607B70708F0EF
:101B90005D984091CA015091CB016091CC01709148
:101BA000CD018091C2019091C301A091C401B09177
:101BB000C50184179507A607B70708F05E984091FE
:101BC000C6015091C7016091C8017091C90180910F
:101BD000C2019091C301A091C401B091C5018417C5
:101BE0009507A607B70708F4A2CF5F98A0CF81E0BA
:101BF00090E09093130280931202CCCB82E090E0AD
:101C0000909313028093120210922A01C092320123
:101C1000D0923301E0923401F092350189819A81AA
:101C2000AB81BC8180932E0190932F01A093300152
:101C3000B093310181E080932D01109276011092D2
:101C4000770110927801109279011092660110923A
:101C5000670110926801109269011092620110925E
:101C6000630110926401109265011092520110926A
:101C70005301109254011092550110924E0110928E
:101C80004F01109250011092510110923E0110929A
:101C90003F01109240011092410191CB109213022A
:101CA00010921202A1CB2C960FB6F894DEBF0FBE95
:101CB000CDBFDF91CF91FF90EF90DF90CF90BF909D
:101CC000AF909F908F907F906F905F904F9008950E
:101CD00080914902813009F094C0609110027091A6
:101CE000110287E692E00E9411156BE670E087E62C
:101CF00092E00E941E0160E070E087E692E00E94A0
:101D00001E0187E692E00E948D156091100270918D
:101D1000110287E692E00E9411156BE170E087E600
:101D200092E00E941E0168E070E087E692E00E9467
:101D30001E0187E692E00E948D156091100270915D
:101D4000110287E692E00E9411156CE170E087E6CF
:101D500092E00E941E0160E170E087E692E00E943E
:101D60001E0187E692E00E948D156091100270912D
:101D7000110287E692E00E9411156BE170E087E6A0
:101D800092E00E941E0187E692E00E948D1560910C
:101D900010027091110241E050E087E692E00E944B
:101DA0008A1587E692E00E94621418161906CCF78D
:101DB00087E692E00E946A14089759F061E08DE08E
:101DC0000E94CB166AE070E080E090E00E9403166B
:101DD000F9CF609110027091110287E692E00E94A3
:101DE00011156AE170E087E692E00E941E0163E04F
:101DF00070E087E692E00E941E0187E692E00C9474
:101E00008D150895CF93DF93109213021092120252
:101E1000C0911202D0911302C432D1056CF4CE01EC
:101E20000E94E619FE01E65DFD4F80832196D09366
:101E30001302C0931202ECCF1092130210921202FE
:101E400080914A0290E0909311028093100287E6FD
:101E500092E00E94FD148CE08093B8008AB1806FFC
:101E60008AB9259A249861E08DE00E94CB16809172
:101E70004B028A3439F06AE070E080E090E00E9422
:101E80000316F5CF80914C028D34A9F780914D0255
:101E9000823489F7809149028250823030F46AE0BE
:101EA00070E080E090E00E9403160E94680E10929D
:101EB0001502109214028091140290911502823E34
:101EC0009440C4F48BB1806F8BB988EE93E00E948C
:101ED0003F168BB18F708BB988EB9BE00E943F1649
:101EE00080911402909115020196909315028093AF
:101EF0001402E1CF1092150210921402CFE0D0E04C
:101F00008091140290911502803D27E092070CF019
:101F100085C0BE010E945619892B51F48DE00E94A4
:101F2000FB1661E0892B09F060E08DE00E94CB1682
:101F30000E945D056091F0017091F101072E000C87
:101F4000880B990B0E9433129B01AC0160918201B6
:101F50007091830180918401909185010E94FD1010
:101F60006093820170938301809384019093850133
:101F70006091F2017091F301072E000C880B990B10
:101F80000E9433129B01AC01609186017091870120
:101F900080918801909189010E94FD1060938601D3
:101FA0007093870180938801909389016091F40177
:101FB0007091F501072E000C880B990B0E943312CB
:101FC0009B01AC0160918A0170918B0180918C0121
:101FD00090918D010E94FD1060938A0170938B0196
:101FE00080938C0190938D018BB1806F8BB988EEBB
:101FF00093E00E943F168BB18F708BB963E070E065
:1020000080E090E00E9403168091140290911502E6
:102010000196909315028093140272CF20E030E075
:102020004AEF54E4609182017091830180918401B0
:10203000909185010E9489116093820170938301C0
:10204000809384019093850120E030E04AEF54E4CE
:10205000609186017091870180918801909189013A
:102060000E94891160938601709387018093880193
:102070009093890120E030E04AEF54E460918A01B6
:1020800070918B0180918C0190918D010E9489113A
:1020900060938A0170938B0180938C0190938D01E2
:1020A00080916800816080936800809168008460FE
:1020B0008093680080916B00816080936B008091B9
:1020C0006B00826080936B0080916B0084608093D2
:1020D0006B0080916B00886080936B0080916B0037
:1020E000806180936B0080916D00846080936D00AF
:1020F00080916D00886080936D00809124029091A2
:1021000025028E3D9340ECF583E00E94B50090934C
:1021100025028093240284E00E94B500909323025C
:102120008093220280911202909113020196909363
:102130001302809312028BB1806F8BB988EE93E00B
:102140000E943F168BB18F708BB963E070E080E026
:1021500090E00E94031680911202909113028D3735
:10216000910559F68DE00E94FB1661E0892B09F07C
:1021700060E08DE00E94CB161092130210921202C2
:10218000BCCF80912402909125028D3F93400CF0AA
:10219000BBCF8091220290912302883795400CF4A6
:1021A000B3CF109213021092120280E00E948516A3
:1021B0008F5B9F4FBC01990F880B990B0E943312C4
:1021C00028E538EA4DE95FE30E9443130E94FB11C2
:1021D00070931702609316020E94DE1560939A01B5
:1021E00070939B0180939C0190939D0160E08DE032
:1021F000DF91CF910C94CB165058BB27AA270E9491
:1022000014110C9404130E94F61238F00E94FD126F
:1022100020F039F49F3F19F426F40C94B8120EF410
:10222000E095E7FB0C94B212E92F0E94151358F3C6
:10223000BA17620773078407950720F079F4A6F5AB
:102240000C9437130EF4E0950B2EBA2FA02D0B0132
:10225000B90190010C01CA01A0011124FF27591BEB
:1022600099F0593F50F4503E68F11A16F040A22FF1
:10227000232F342F4427585FF3CF46953795279562
:10228000A795F0405395C9F77EF41F16BA0B620B61
:10229000730B840BBAF09150A1F0FF0FBB1F661FA8
:1022A000771F881FC2F70EC0BA0F621F731F841FEB
:1022B00048F4879577956795B795F7959E3F08F011
:1022C000B0CF9395880F08F09927EE0F97958795D3
:1022D00008959F939F77EEE389379E0728F4E8E6F9
:1022E000F0E00E94E2120CC00E946E129058A2EA26
:1022F0002AED3FE049EC5FE30E9414110E940413B1
:102300000F9007FC905808950E948E1208F481E007
:1023100008950E949D110C9404130E94FD1258F020
:102320000E94F61240F029F45F3F29F00C94B2129B
:1023300051110C9438130C94B8120E94151368F3C1
:102340009923B1F3552391F3951B550BBB27AA276E
:1023500062177307840738F09F5F5F4F220F331FA8
:10236000441FAA1FA9F335D00E2E3AF0E0E832D070
:1023700091505040E695001CCAF72BD0FE2F29D073
:10238000660F771F881FBB1F261737074807AB0745
:10239000B0E809F0BB0B802DBF01FF2793585F4FBA
:1023A0003AF09E3F510578F00C94B2120C94381319
:1023B0005F3FE4F3983ED4F3869577956795B7959C
:1023C000F7959F5FC9F7880F911D9695879597F9A7
:1023D0000895E1E0660F771F881FBB1F6217730720
:1023E0008407BA0720F0621B730B840BBA0BEE1F35
:1023F00088F7E09508950E9402126894B1110C9438
:10240000381308950E941D1388F09F5798F0B92F34
:102410009927B751B0F0E1F0660F771F881F991F19
:102420001AF0BA95C9F714C0B13091F00E94371371
:10243000B1E008950C943713672F782F8827B85F81
:1024400039F0B93FCCF3869577956795B395D9F771
:102450003EF490958095709561957F4F8F4F9F4F7B
:102460000895E89409C097FB3EF490958095709587
:1024700061957F4F8F4F9F4F9923A9F0F92F96E9D0
:10248000BB279395F695879577956795B795F11145
:10249000F8CFFAF4BB0F11F460FF1BC06F5F7F4FE2
:1024A0008F4F9F4F16C0882311F096E911C07723F4
:1024B00021F09EE8872F762F05C0662371F096E8FD
:1024C000862F70E060E02AF09A95660F771F881FCC
:1024D000DAF7880F9695879597F90895DF93CF934C
:1024E0001F930F938B01EC01ECE7F0E00E94BB120D
:1024F0000E9404139801AE018B01EC0160E070E0D2
:1025000080E89FE30E94FC100E94BE139801AE0178
:102510000F911F91CF91DF910C945613990F0008E2
:10252000550FAA0BE0E8FEEF16161706E807F907A5
:10253000C0F012161306E407F50798F0621B730B40
:10254000840B950B39F40A2661F0232B242B252BC1
:1025500021F408950A2609F4A140A6958FEF811D64
:10256000811D089597F99F6780E870E060E0089505
:102570009FEF80EC0895DF93CF931F930F93FF920B
:10258000EF92DF927B018C01689406C0DA2EEF0196
:102590000E945613FE01E894A5912591359145912D
:1025A0005591A6F3EF010E941411FE019701A801B5
:1025B000DA9469F7DF90EF90FF900F911F91CF9120
:1025C000DF9108959F938F937F936F93FF93EF9382
:1025D0009B01AC010E944313EF91FF910E94BB123B
:1025E0002F913F914F915F910C94431300240A94D3
:1025F0001616170618060906089500240A941216DE
:102600001306140605060895092E0394000C11F410
:10261000882352F0BB0F40F4BF2B11F460FF04C0BD
:102620006F5F7F4F8F4F9F4F089557FD9058440F16
:10263000551F59F05F3F71F04795880F97FB991F21
:1026400061F09F3F79F087950895121613061406DE
:10265000551FF2CF4695F1DF08C01616170618066B
:10266000991FF1CF86957105610508940895E89446
:10267000BB2766277727CB0197F908950E948E1212
:1026800008F48FEF08950E9456130C9404130E94CF
:10269000F61238F00E94FD1220F0952311F00C94F0
:1026A000B2120C94B81211240C9438130E94151312
:1026B00070F3959FC1F3950F50E0551F629FF00195
:1026C000729FBB27F00DB11D639FAA27F00DB11DAE
:1026D000AA1F649F6627B00DA11D661F829F222737
:1026E000B00DA11D621F739FB00DA11D621F839FBE
:1026F000A00D611D221F749F3327A00D611D231F94
:10270000849F600D211D822F762F6A2F11249F57E1
:1027100050409AF0F1F088234AF0EE0FFF1FBB1FE4
:10272000661F771F881F91505040A9F79E3F5105A3
:1027300080F00C94B2120C9438135F3FE4F3983E8F
:10274000D4F3869577956795B795F795E7959F5F4D
:10275000C1F7FE2B880F911D9695879597F90895DF
:102760009F930E9415140F9007FCEE5F0C943E148B
:1027700019F416F40C94B8120C94FE130E941D1355
:10278000B8F39923C9F3B6F39F57550B87FF0E94FF
:102790000C140024A0E640EA9001805856959795C5
:1027A00028F4805C660F771F881F20F026173707F4
:1027B000480730F4621B730B840B202931294A2B04
:1027C000A69517940794202531254A2758F7660FB8
:1027D000771F881F20F026173707480730F4620B51
:1027E000730B840B200D311D411DA09581F7B9019C
:1027F000842F9158880F9695879508959F3F31F0C3
:10280000915020F4879577956795B795880F911D1E
:102810009695879597F9089591505040660F771FC8
:10282000881FD2F708950C94B8120E941D13D8F394
:10283000E894E0E0BB279F57F0F02AED3FE049EC39
:1028400006C0EE0FBB0F661F771F881F28F0B23A35
:1028500062077307840728F0B25A620B730B840B6C
:10286000E3959A9572F7803830F49A95BB0F661FFE
:10287000771F881FD2F790480C940014EF93E0FF65
:1028800007C0A2EA2AED3FE049EC5FEB0E94141179
:102890000E9404130F90039401FC9058E4EAF0E0C6
:1028A0000C94E21208950E944A160E9452140E944B
:1028B000020FC0E0D0E00E9459072097E1F30E9488
:1028C0000000F9CF8091970290E020919802821B3E
:1028D000910908959091980280919702981750F469
:1028E000E92FF0E0E756FD4F208130E09F5F9093A5
:1028F000980202C02FEF3FEFC9010895E0919802BE
:1029000080919702E81730F4F0E0E756FD4F8081A0
:1029100090E008958FEF9FEF08950895CF92DF9292
:10292000EF92FF920F931F93CF93DF937C01262F9B
:10293000972F8A0180917302882391F0C62FD72F99
:102940006E01C40ED51ECC15DD0571F06991D7015D
:10295000ED91FC910190F081E02DC7010995F3CF35
:10296000642F822F0E94E117C801DF91CF911F9140
:102970000F91FF90EF90DF90CF900895CF93DF936A
:102980001F92CDB7DEB76983209173022223D1F065
:1029900020917402203240F021E030E0FC013383CA
:1029A000228380E090E015C080917502E82FF0E06E
:1029B000EA58FD4F998190838F5F809375028093D1
:1029C000740205C061E0CE0101960E94E11781E02A
:1029D00090E00F90DF91CF910895FC011382128255
:1029E00088EE93E0A0E0B0E084839583A683B7836C
:1029F0008EE191E091838083089510929802109265
:102A0000970210927502109274020C94251781E0BF
:102A10008093730260939602109275021092740272
:102A200008950C9407150F93062F21E0409174022E
:102A300066E772E0809196020E948B1710927502F1
:102A400010927402109273020F9108954F925F9248
:102A50006F927F92AF92BF92CF92EF92FF920F93BD
:102A60001F93CF93DF935C01F62ED42F28013901F9
:102A7000EE2021F10E940715CE2DC43008F0C3E0EE
:102A8000C150C0F0D501ED91FC91B8E0CB9FC001E1
:102A90001124A301920104C05695479537952795B7
:102AA0008A95D2F7CA01B9010190F081E02DC501E4
:102AB0000995E6CF60E0C5010E9413154D2FD13274
:102AC00008F040E22C2D69E972E08F2D0E94431737
:102AD0001092980280939702DF91CF911F910F91EE
:102AE000FF90EF90CF90BF90AF907F906F905F90EE
:102AF0004F900895CF92EF920F931F93C22EE12C27
:102B000000E010E098010E9426151F910F91EF90B0
:102B1000CF90089521E00C947A1561E00C94131580
:102B200087E692E00C94ED141F920F920FB60F926D
:102B300011242F933F938F939F93AF93BF938091D3
:102B4000BA029091BB02A091BC02B091BD0230913B
:102B5000B90223E0230F2D3720F40196A11DB11DEA
:102B600005C026E8230F0296A11DB11D2093B902CE
:102B70008093BA029093BB02A093BC02B093BD02B3
:102B80008091BE029091BF02A091C002B091C1029B
:102B90000196A11DB11D8093BE029093BF02A09328
:102BA000C002B093C102BF91AF919F918F913F91AD
:102BB0002F910F900FBE0F901F9018953FB7F8946C
:102BC0008091BE029091BF02A091C002B091C1025B
:102BD00026B5A89B05C02F3F19F00196A11DB11D78
:102BE0003FBFBA2FA92F982F8827820F911DA11DB3
:102BF000B11DBC01CD0142E0660F771F881F991FF0
:102C00004A95D1F708958F929F92AF92BF92CF923B
:102C1000DF92EF92FF926B017C010E94DE154B0167
:102C20005C01C114D104E104F10401F10E942417F4
:102C30000E94DE15DC01CB0188199909AA09BB099C
:102C4000883E9340A105B10560F321E0C21AD10886
:102C5000E108F10888EE880E83E0981EA11CB11CE3
:102C6000C114D104E104F10419F7DBCFFF90EF9018
:102C7000DF90CF90BF90AF909F908F90089582305B
:102C8000910538F0880F991F880F991F05970197B4
:102C9000F1F70895789484B5826084BD84B581602D
:102CA00084BD85B5826085BD85B5816085BDEEE654
:102CB000F0E0808181608083E1E8F0E01082808133
:102CC00082608083808181608083E0E8F0E08081A1
:102CD00081608083E1EBF0E0808184608083E0EBC1
:102CE000F0E0808181608083EAE7F0E080818460A9
:102CF0008083808182608083808181608083808105
:102D0000806880831092C10008958E3008F08E5044
:102D100087702091190190E4299F90011124822B42
:102D200080937C0080917A00806480937A00809107
:102D30007A0086FDFCCF809178002091790090E0A8
:102D4000922B0895833081F028F4813099F08230FD
:102D5000A1F008958730A9F08830B9F08430D1F41B
:102D6000809180008F7D03C0809180008F77809359
:102D70008000089584B58F7702C084B58F7D84BDAF
:102D800008958091B0008F7703C08091B0008F7D4F
:102D90008093B00008951F93CF93DF93282F30E0E6
:102DA000F901EE53FF4F8491F901EA52FF4FD4919C
:102DB000F901E651FF4FC491CC23C9F0162F8111C0
:102DC0000E94A216EC2FF0E0EE0FFF1FE85FFE4F0F
:102DD000A591B4918FB7F894111105C09C91ED2F76
:102DE000E095E92302C0EC91ED2BEC938FBFDF91CE
:102DF000CF911F910895CF93DF93282F30E0F901F1
:102E0000EE53FF4F8491F901EA52FF4FD491F9013B
:102E1000E651FF4FC491CC2391F081110E94A2167C
:102E2000EC2FF0E0EE0FFF1FE250FF4FA591B491A1
:102E3000EC91ED2381E090E021F480E002C080E09D
:102E400090E0DF91CF910895089510922F0381E0D3
:102E500080932D0310922C0361E082E10E94CB1637
:102E600061E083E10E94CB16E9EBF0E080818E7F88
:102E7000808380818D7F808388E48093B80085E49F
:102E80008093BC000895413208F043C090912F0315
:102E90009111FCCF91E090932F0320932D032FEFFE
:102EA0002093C20210920703240F209306039093ED
:102EB0002E0390912E03880F892B80932E038091EF
:102EC0002C03813061F410922C0380912E038093A7
:102ED000BB008091BC0083FDF8CF85EC01C085EE7E
:102EE0008093BC0080912F038130E1F38091070330
:102EF000841710F44091070328E033E0FB01D90167
:102F00008A2F821B841718F48D918193F9CF842F17
:102F1000089580E008950F93413208F04AC09091DF
:102F20002F039111FCCF32E030932F0300932D0338
:102F30003FEF3093C2021092070340930603FB0158
:102F400068E073E0DB013A2F361B341718F4319137
:102F50003D93F9CF10922E0330912E03880F832BCF
:102F600080932E0380912C03813061F410922C0306
:102F700080912E038093BB008091BC0083FDF8CF2D
:102F800085EC01C085EE8093BC00222321F0809166
:102F90002F038230D1F38091C2028F3F79F080916C
:102FA000C202803241F08091C202803331F094E05D
:102FB00005C091E003C092E001C093E0892F0F911A
:102FC00008954091E402262F30E0240F311D213274
:102FD0003105DCF420912F032430C9F4FC0180E09A
:102FE00090E0861758F43091E4022191DC01AA5157
:102FF000BD4FA30FB11D2C930196F3CF8091E40236
:10300000680F6093E40280E0089581E0089582E013
:10301000089585ED8093BC008091BC0084FDFCCFB9
:1030200010922F03089585EC8093BC0010922F031B
:1030300008951F920F920FB60F9211242F933F9372
:103040004F935F936F937F938F939F93AF93BF93B0
:10305000EF93FF938091B900887F803609F49EC07A
:1030600078F5883209F45DC090F4803109F456C0D7
:1030700038F4882309F4F5C0883009F44FC0F5C04E
:10308000883109F44EC0803209F45FC0EEC080344C
:1030900009F46AC058F4803309F457C0883309F042
:1030A000E4C08093C2020E941318DFC0803509F487
:1030B0004FC0883509F45DC0883409F0D6C0D3C04C
:1030C000883909F4C4C0A8F4883709F467C038F413
:1030D000883609F463C0803709F460C0C6C08838F8
:1030E00009F4B5C0803909F45FC0803809F0BDC06B
:1030F0005BC0803B09F483C038F4803A09F466C0B1
:10310000883A09F47CC0B1C0803C09F4A4C0883C72
:1031100009F4A1C0883B09F487C0A7C080912E03A1
:1031200010C09091070380910603981770F5E09105
:10313000070381E08E0F80930703F0E0E85FFC4F08
:1031400080818093BB0085EC83C08093C2028BC0DA
:10315000E091070381E08E0F809307038091BB000D
:10316000F0E0E85FFC4F80839091070380910603B5
:103170006BC0E091070381E08E0F8093070380917D
:10318000BB00F0E0E85FFC4F808380912D0381114C
:103190006AC081E080932C0384EA5EC083E0809360
:1031A0002F031092C302CFCF8091C302803208F068
:1031B0004EC0E091C30281E08E0F8093C3028091E4
:1031C000BB00F0E0EC53FD4F8083BDCF0E9413188D
:1031D0008091C302803230F4E091C302F0E0EC53FE
:1031E000FD4F10826091C30270E0E0912803F091DE
:1031F000290384EC92E009951092C30236C084E062
:1032000080932F031092E5021092E402E0912A03CA
:10321000F0912B0309958091E402811105C081E0B2
:103220008093E4021092E602E091E50281E08E0FC5
:103230008093E502F0E0EA51FD4F80818093BB006E
:103240009091E5028091E402981708F47CCF85E81C
:103250008093BC000AC085EC8093BC0010922F03C1
:1032600004C01092C2020E940918FF91EF91BF9111
:10327000AF919F918F917F916F915F914F913F910E
:103280002F910F900FBE0F901F901895DB018F9319
:103290009F930E94B219BF91AF91A29F800D911D83
:1032A000A39F900DB29F900D1124089597FB072EB8
:1032B00016F4009407D077FD09D00E94BD1907FCD1
:1032C00005D03EF4909581959F4F08957095619536
:1032D0007F4F0895A1E21A2EAA1BBB1BFD010DC052
:1032E000AA1FBB1FEE1FFF1FA217B307E407F507B6
:1032F00020F0A21BB30BE40BF50B661F771F881F92
:10330000991F1A9469F760957095809590959B0127
:10331000AC01BD01CF010895052E97FB1EF400946A
:103320000E94A31957FD07D00E946A1907FC03D019
:103330004EF40C94A31950954095309521953F4F2C
:103340004F4F5F4F089590958095709561957F4F91
:103350008F4F9F4F08950E94D719B7FF0895821B82
:10336000930B08950E94D719A59F900DB49F900DBF
:10337000A49F800D911D11240895AA1BBB1B51E130
:1033800007C0AA1FBB1FA617B70710F0A61BB70BD5
:10339000881F991F5A95A9F780959095BC01CD017A
:1033A0000895EE0FFF1F0590F491E02D0994A29F60
:1033B000B001B39FC001A39F700D811D1124911D09
:1033C000B29F700D811D1124911D0895F999FECFB2
:1033D00092BD81BDF89A992780B50895F894FFCFE2
:1033E0000190010AD7A33C000080409001000090AA
:1033F000410AD7233D6666A63F0100000000BE14C7
:0A3400008E1462146A147E148D14F9
:040000050080021263
:00000001FF
