S0170000414C2D3250726F7042616C616E63652E73726563DA
S11300000C9481000C94A9000C94A9000C94110385
S11300100C94A9000C94A4020C94A9000C94A900BB
S11300200C94A9000C94A9000C94A9000C94A900A8
S11300300C94A9000C94A9000C94A9000C94A90098
S11300400C9458160C94A9000C943D120C9475123F
S11300500C94A9000C94A9000C94A9000C94A90078
S11300600C942C190C94A900036EDB363D9A9999D3
S1130070993DABAAAA2A3E000000803F072C7AA52E
S1130080BA6CC590DA3B9365FC8BBC53F810FD3C0D
S11300905692834DBD879D3AB63DCBC9BF5BBE73B7
S11300A0DA0FC93F00000008000201000003040742
S11300B0000000000000000001020408102040803D
S11300C0010204081020010204081020040404049E
S11300D004040404020202020202030303030303EE
S11300E00000000023002600290000000000250075
S11300F028002B0000000000240027002A00A5127D
S1130100531611241FBECFEFD8E0DEBFCDBF11E0E0
S1130110A0E0B1E0E0E1F6E302C005900D92A6375D
S1130120B107D9F723E0A6E7B1E001C01D92A73DCE
S1130130B207E1F710E0C1E8D0E004C02197FE0166
S11301400E94E91ACF37D107C9F70E94D3120C9441
S1130150061B0C9400001F93CF93DF93E82FF0E06D
S1130160EA5BFD4F1789E12FE770F0E0EE0FFF1F08
S1130170DF01A85EBD4F0D90BC91A02DEA5BFD4F41
S113018037858685AF0141505109EA01488150E025
S1130190542F4427BF0162507109EB019881492B08
S11301A097812681A417B507DCF4E82FF0E0F32B40
S11301B0AE17BF070CF4DF01CA018A1B9B0BDC01DD
S11301C024EF31E00E94C31A9A012E1B3F0B032E29
S11301D0000C440B550B0E94A41A17FF1CC020C02E
S11301E04A175B070CF530E0F901F92BEA17FB0716
S11301F00CF4DF01A41BB50B24EF31E00E94C31AF9
S11302009F01241B350B032E000C440B550B0E943D
S1130210A41A17FF05C08CED95E0821B930B06C052
S1130220C90184529A4F02C08CED95E0DF91CF91C1
S11302301F910895DC01ED91FC910190F081E02D76
S113024009948091000190910101892B51F46091EE
S11302502A0270912B024AE050E081E792E00E946A
S1130260E8138091000190910101029731F464E454
S113027071E081E792E00E94111380910001909156
S11302800101049751F460913002709131024AE007
S113029050E081E792E00E94E81380910001909180
S11302A00101069731F462E171E081E792E00E9476
S11302B011138091000190910101089771F440910C
S11302C07A0150917B0160917C0170917D0122E063
S11302D030E081E792E00E94121580910001909134
S11302E001010A9731F468E171E081E792E00E942C
S11302F0111380910001909101010C9771F44091C8
S11303007E0150917F01609180017091810122E012
S113031030E081E792E00E941215809100019091F3
S113032001010E9731F46EE171E081E792E00E94E1
S113033011138091000190910101409771F4409153
S11303408E0150918F01609190017091910122E092
S113035030E081E792E00E941215809100019091B3
S11303600101429731F464E271E081E792E00E9476
S113037011138091000190910101449771F440910F
S11303808A0150918B0160918C0170918D0122E062
S113039030E081E792E00E94121580910001909173
S11303A00101469731F46AE271E081E792E00E942C
S11303B011138091000190910101489781F460919B
S11303C03202709133028091380290913902681B95
S11303D0790B4AE050E081E792E00E94E8138091B3
S11303E00001909101014A9731F461E371E081E7E2
S11303F092E00E94111380910001909101014C97A9
S1130400D1F4209196013091970140919801509137
S1130410990160910D0170910E0180910F019091ED
S113042010010E943810AB01BC0122E030E081E7EA
S113043092E00E94121580910001909101014E9763
S113044031F466E371E081E792E00E941113809138
S1130450000190910101809771F4409192015091B3
S11304609301609194017091950122E030E081E75D
S113047092E00E94121580910001909101018297EF
S113048031F46BE371E081E792E00E9411138091F3
S1130490000190910101849721F52091820130910E
S11304A0830140918401509185016091960170917E
S11304B0970180919801909199010E94F10D2091EA
S11304C005013091060140910701509108010E94F5
S11304D03810AB01BC0122E030E081E792E00E94D9
S11304E012158091000190910101869731F460E426
S11304F071E081E792E00E941113809100019091D4
S11305000101889751F460913A0270913B024AE0EC
S113051050E081E792E00E94E813809100019091FD
S1130520010101968436910529F09093010180938D
S113053000010895109201011092000168E571E034
S113054081E792E00C943B131F920F920FB60F9227
S113055011242F933F934F935F936F937F938F93C4
S11305609F93AF93BF93EF93FF930E94A216609360
S1130570BA017093BB018093BC019093BD0120919B
S11305806B024A9B0EC021111BC021E020936B0219
S11305906093C6017093C7018093C8019093C90109
S11305A00FC0213069F410926B022091C601309182
S11305B0C701AB01421B530B509325024093240205
S11305C020916A024B9B0EC021111AC021E0209396
S11305D06A026093C2017093C3018093C401909333
S11305E0C5010EC0213061F410926A022091C2014B
S11305F03091C301621B730B709327026093260230
S1130600FF91EF91BF91AF919F918F917F916F91E6
S11306105F914F913F912F910F900FBE0F901F90BC
S113062018951F920F920FB60F9211242F933F9398
S11306304F935F936F937F938F939F93AF93BF93E6
S1130640EF93FF930E94A2166093BE017093BF01C3
S11306508093C0019093C10120917002189B0EC039
S113066021111BC021E0209370026093DA01709382
S1130670DB018093DC019093DD010FC0213069F42C
S1130680109270022091DA013091DB01AB01421B20
S1130690530B50931B0240931A0220916F02199B33
S11306A00EC021111BC021E020936F026093D6017C
S11306B07093D7018093D8019093D9010FC0213052
S11306C069F410926F022091D6013091D701AB01E9
S11306D0421B530B50931D0240931C0220916E0247
S11306E01A9B0EC021111BC021E020936E0260935F
S11306F0D2017093D3018093D4019093D5010FC09C
S1130700213069F410926E022091D2013091D3010C
S1130710AB01421B530B50931F0240931E022091C6
S11307206D021B9B0EC021111BC021E020936D02A2
S11307306093CE017093CF018093D0019093D10147
S11307400FC0213069F410926D022091CE013091D6
S1130750CF01AB01421B530B509321024093200263
S113076020916C021C9B0EC021111AC021E0209321
S11307706C026093CA017093CB018093CC01909377
S1130780CD010EC0213061F410926C022091CA0197
S11307903091CB01621B730B70932302609322028E
S11307A0FF91EF91BF91AF919F918F917F916F9145
S11307B05F914F913F912F910F900FBE0F901F901B
S11307C018954F925F926F927F928F929F92AF9201
S11307D0BF92CF92DF92EF92FF92CF93DF9300D03C
S11307E000D000D0CDB7DEB720918E0130918F01BB
S11307F0409190015091910160918A0170918B0117
S113080080918C0190918D010E94F10D6B017C010E
S11308106093960170939701809398019093990146
S11308202091090130910A0140910B0150910C0172
S11308300E943810209192013091930140919401CB
S1130840509195010E94F20D2B013C01609392019D
S113085070939301809394019093950120910301E7
S1130860309104013E832D83B901330F880B990B1A
S11308700E94280F4B015C019B01AC01C301B20132
S11308800E94331018164CF48092920190929301B6
S1130890A0929401B092950123C06D817E817195DF
S11308A061957109072E000C880B990B0E94280F83
S11308B069837A838B839C839B01AC01C301B2015E
S11308C00E94790E87FF0CC089819A81AB81BC811B
S11308D08093920190939301A0939401B093950116
S11308E020910D0130910E0140910F0150911001A2
S11308F0C701B6010E9438102091920130919301F2
S113090040919401509195010E94F20D2B013C01FC
S1130910209182013091830140918401509185019D
S1130920C701B6010E94F10D209105013091060125
S113093040910701509108010E9438109B01AC01BD
S1130940C301B2010E94F20D2B013C019B01AC01D9
S1130950C501B4010E94790E87FD1EC06D817E81A0
S1130960719561957109072E000C880B990B0E94F3
S1130970280F4B015C019B01AC01C301B2010E9431
S1130980790E87FD09C040928601509287016092DA
S113099088017092890108C0809286019092870133
S11309A0A0928801B0928901C0928201D092830101
S11309B0E0928401F092850126960FB6F894DEBF8A
S11309C00FBECDBFDF91CF91FF90EF90DF90CF901E
S11309D0BF90AF909F908F907F906F905F904F905B
S11309E00895BF92CF92DF92EF92FF920F931F93DD
S11309F0CF93DF9380916502813009F0D3C0609179
S1130A002802709129028EE093E00E94CC156BE3DA
S1130A1070E08EE093E00E941A018EE093E00E9461
S1130A204F1660912802709129024EE050E08EE04A
S1130A3093E00E944B1681E00E94AB009093450224
S1130A408093440282E00E94AB009093430280931F
S1130A50420283E00E94AB009093410280934002E3
S1130A6084E00E94AB0090933F0280933E0288EBA7
S1130A709BE02091220230912302AC01421B530BD4
S1130A8050933D0240933C02209124023091250270
S1130A90821B930B90933B0280933A028EE093E087
S1130AA00E9415150E97D4F38EE093E00E941D1555
S1130AB0C82F8EE093E00E941D1520E030E03C2F0B
S1130AC0822B932B90931102809310028EE093E07B
S1130AD00E941D15C82F8EE093E00E941D1520E092
S1130AE030E03C2F822B932B9093130280931202BD
S1130AF08EE093E00E941D15C82F8EE093E00E94C3
S1130B001D1520E030E03C2F822B932B909315028F
S1130B10809314028EE093E00E941D15C82F8EE08E
S1130B2093E00E941D1520E030E03C2F822B932B94
S1130B3090931702809316028EE093E00E941D1595
S1130B40C82F8EE093E00E941D1520E030E03C2F7A
S1130B50822B932B90930902809308028EE093E0FA
S1130B600E941D15C82F8EE093E00E941D1520E001
S1130B7030E03C2F822B932B90930B0280930A023C
S1130B808EE093E00E941D15C82F8EE093E00E9432
S1130B901D1520E030E03C2F822B932B90930D0207
S1130BA080930C0280912C0290912D02803D9740FD
S1130BB009F04EC06091080270910902072E000CE2
S1130BC0880B990B0E94280F20919E0130919F0160
S1130BD04091A0015091A1010E94F10D0E94F00EDC
S1130BE0709309026093080260910A0270910B02EB
S1130BF0072E000C880B990B0E94280F2091A2014C
S1130C003091A3014091A4015091A5010E94F10DDE
S1130C100E94F00E70930B0260930A0260910C0222
S1130C2070910D02072E000C880B990B0E94280F5F
S1130C302091A6013091A7014091A8015091A901EA
S1130C400E94F10D0E94F00E70930D0260930C024D
S1130C50C09062020C2D037010E0000F111FF80108
S1130C60EA5FFD4F60817181072E000C880B990BA0
S1130C700E94280FC7FC09C06093AE017093AF01B6
S1130C808093B0019093B1010BC0DC01CB01B0584B
S1130C908093AE019093AF01A093B001B093B101E2
S1130CA0B09063028B2D8370E82EF12CEE0CFF1CA8
S1130CB0F701EA5FFD4F60817181072E000C880BFC
S1130CC0990B0E94280FB7FC09C06093B20170937E
S1130CD0B3018093B4019093B5010BC0DC01CB0147
S1130CE0B0588093B2019093B301A093B401B09330
S1130CF0B501D0906402CD2DC370D0E0CC0FDD1FC0
S1130D00FE01EA5FFD4F60817181072E000C880BA4
S1130D10990B0E94280FD7FC09C06093AA01709315
S1130D20AB018093AC019093AD010BC0DC01CB010E
S1130D30B0588093AA019093AB01A093AC01B093F7
S1130D40AD01F701E25FFD4F80819181092E000C16
S1130D50AA0BBB0BB7FE07C0B095A09590958195E3
S1130D609F4FAF4FBF4F8093FE019093FF01A0931D
S1130D700002B0930102F801E25FFD4F808191818E
S1130D80092E000CAA0BBB0BC7FE07C0B095A0959B
S1130D90909581959F4FAF4FBF4F8093FA019093E9
S1130DA0FB01A093FC01B093FD01C25FDD4F88817C
S1130DB09981092E000CAA0BBB0BD7FE07C0B09576
S1130DC0A095909581959F4FAF4FBF4F8093F601AB
S1130DD09093F701A093F801B093F901DF91CF91BB
S1130DE01F910F91FF90EF90DF90CF90BF900895E7
S1130DF04F925F926F927F928F929F92AF92BF9227
S1130E00CF92DF92EF92FF92CF93DF93CDB7DEB70D
S1130E1028970FB6F894DEBF0FBECDBF61E08DE01A
S1130E200E94CB1780913A0290913B028E379440F6
S1130E3024F460E08DE00E94CB17C090AE01D09006
S1130E40AF01E090B001F090B10123E333E343E359
S1130E505FE360918A0170918B0180918C01909184
S1130E608D010E9438104B015C0120E030E043E822
S1130E7052E4C701B6010E947E0E2AE939E949E924
S1130E805EE30E9438109B01AC01C501B4010E94CD
S1130E90F20D60938A0170938B0180938C0190937F
S1130EA08D0120ED32E240E858E3C701B6010E940B
S1130EB0381020917A0130917B0140917C0150914E
S1130EC07D010E94F20D6D837E838F839887C0908D
S1130ED0FE01D090FF01E0900002F09001024090EA
S1130EE0FA015090FB016090FC017090FD0180902C
S1130EF0F6019090F701A090F801B090F901A701D4
S1130F009601C701B6010E945E1A69837A838B83B6
S1130F109C83A3019201C301B2010E945E1A29813C
S1130F203A814B815C81260F371F481F591F298343
S1130F303A834B835C83A5019401C501B4010E94EB
S1130F405E1A29813A814B815C81620F731F841F71
S1130F50951F0E94280F0E94AB100E94F00E4B01B7
S1130F605C016093F2017093F3018093F401909318
S1130F70F501D701C601F7FE07C088279927DC01D0
S1130F808C199D09AE09BF0988159905AA05BB05E9
S1130F9004F5C701B6010E94280F6B017C01C5014D
S1130FA0B4010E94280F9B01AC01C701B6010E9445
S1130FB07E0E0E945E0E2BE13FE245E652EC0E945B
S1130FC0381060937E0170937F0180938001909329
S1130FD08101C0907E01D0907F01E0908001F0906B
S1130FE0810129EC35EE4FE75FE36D817E818F81CE
S1130FF098850E9438104B015C0127E137EB41EDE5
S113100059E3C701B6010E9438109B01AC01C50128
S1131010B4010E94F20D60937A0170937B01809376
S11310207C0190937D0120E030E040E751E40E9490
S11310303810609302027093030280930402909329
S1131040050280910201811108C0109202021092DF
S113105003021092040210920502809140029091C2
S113106041028A31944044F480913E0290913F02BF
S11310708A3194400CF496C280912A0290912B02FA
S1131080019779F480914002909141028A31944011
S113109044F480913E0290913F028B3A95400CF0CB
S11310A088C280912A0290912B02029779F4809150
S11310B04002909141028A31944044F480913E026E
S11310C090913F028F3997400CF095C210928E0197
S11310D010928F011092900110929101809144021C
S11310E090914502853E95403CF060914402709198
S11310F04502645E75400DC08091440290914502A2
S1131100843D9540A4F46091440270914502645D6D
S11311107540072E000C880B990B0E94280F6093D2
S11311208E0170938F01809390019093910120918F
S11311300202309103024091040250910502609131
S11311408E0170918F0180919001909191010E9484
S1131150F10D20E030E040E450E40E947E0E609304
S11311608E0170938F0180939001909391010E945E
S1131170E10380913A0290913B028034964024F43A
S113118060E08DE00E94CB1760912E0270912F02D7
S1131190072E000C880B990B0E94280F2FE135E8CD
S11311A04BE65FE30E9438106B017C0180E00E94F3
S11311B049178F5B9F4FBC01990F880B990B0E94B5
S11311C0280F29E13AEC49EC5DE30E943810A701AD
S11311D096010E94F20D0E94F00E70932F0260930C
S11311E02E02695572406F38714020F461E08DE041
S11311F00E94CB178091400290914102909331025A
S11312008093300220912A0230912B022230310542
S113121009F0B4C08930974034F088E097E09093A7
S11312203102809330028091770190917801892B6B
S113123041F4809144029091450290937801809307
S113124077018091440290914502809140029091EF
S1131250410280914002909141028091400290911C
S11312604102809144029091450280914002909104
S113127041026091300270913102072E000C880BFC
S1131280990B0E94280F4B015C01409086015090FD
S113129087016090880170908901A30192010E94E6
S11312A0F10D0E94F00E7B017093390260933802B5
S11312B07093370260933602A3019201C501B40111
S11312C00E94F20D0E94F00E9B0170933502609310
S11312D0340270933302609332028CE4E81684E0A3
S11312E0F806C4F48CE494E09093390280933802B5
S11312F090933702809336022C34344044F58CE4C6
S113130094E0909335028093340290933302809357
S1131310320203C02C34344094F38091380290910B
S11313203902813D974034F080ED97E09093390283
S1131330809338028091360290913702813D974024
S113134034F080ED97E090933702809336028091D9
S1131350340290913502813D974034F080ED97E05E
S1131360909335028093340280913202909133023B
S1131370813D9740ACF080ED97E00EC088EE93E09D
S11313809093390280933802909337028093360207
S11313909093350280933402909333028093320207
S11313A00E94A216C090B601D090B701E090B80197
S11313B0F090B901DC01CB018C199D09AE09BF097C
S11313C0833D9F40A105B10520F061E08DE00E94BE
S11313D0CB170E94A216C090B601D090B701E0903E
S11313E0B801F090B901DC01CB018C199D09AE095B
S11313F0BF09803A9F40A105B10558F30E94A21687
S11314006093B6017093B7018093B8019093B901CA
S113141080913A0290913B028830974024F460E036
S11314208DE00E94CB178BB1806F8BB98091B60190
S11314309091B701A091B801B091B90140913802DF
S113144050913902052E000C660B770B480F591F7B
S11314506A1F7B1F4093EE015093EF016093F001EC
S11314607093F1014091360250913702052E000C21
S1131470660B770B480F591F6A1F7B1F4093EA01C5
S11314805093EB016093EC017093ED0140913402B1
S113149050913502052E000C660B770B480F591F2F
S11314A06A1F7B1F4093E6015093E7016093E801B4
S11314B07093E9014091320250913302052E000CE1
S11314C0660B770B840F951FA61FB71F8093E2014D
S11314D09093E301A093E401B093E5010E94F10429
S11314E00E9421018BB1803108F48AC00E94A216A7
S11314F06093DE017093DF018093E0019093E1013A
S1131500C090EE01D090EF01E090F001F090F10175
S11315106C157D058E059F0508F05C984091EA01E5
S11315205091EB016091EC017091ED018091DE012D
S11315309091DF01A091E001B091E101841795073A
S1131540A607B70708F05D984091E6015091E701BE
S11315506091E8017091E9018091DE019091DF01D1
S1131560A091E001B091E10184179507A607B707A0
S113157008F05E984091E2015091E3016091E4012A
S11315807091E5018091DE019091DF01A091E0016D
S1131590B091E10184179507A607B70708F4A2CF15
S11315A05F98A0CF81E090E090932B0280932A0271
S11315B063CD82E090E090932B0280932A02C09244
S11315C07A01D0927B01E0927C01F0927D0181E06E
S11315D080937901109292011092930110929401D8
S11315E0109295011092820110928301109284014D
S11315F01092850156CD10922B0210922A0266CDCC
S113160028960FB6F894DEBF0FBECDBFDF91CF9101
S1131610FF90EF90DF90CF90BF90AF909F908F900E
S11316207F906F905F904F90089580916502813014
S113163009F0ACC060912802709129028EE093E019
S11316400E94CC156BE670E08EE093E00E941A01D4
S113165060E070E08EE093E00E941A018EE093E077
S11316600E944F1660912802709129028EE093E047
S11316700E94CC156BE170E08EE093E00E941A01A9
S113168068E070E08EE093E00E941A018EE093E03F
S11316900E944F1660912802709129028EE093E017
S11316A00E94CC156CE170E08EE093E00E941A0178
S11316B060E170E08EE093E00E941A018EE093E016
S11316C00E944F1660912802709129028EE093E0E7
S11316D00E94CC156BE170E08EE093E00E941A0149
S11316E08EE093E00E944F166091280270912902C7
S11316F041E050E08EE093E00E944B168EE093E0D0
S11317000E94151518161906CCF78EE093E00E9476
S11317101D15089759F061E08DE00E94CB176AE02F
S113172070E080E090E00E94C716F9CF6091280233
S1131730709129028EE093E00E94CC156AE170E07A
S11317408EE093E00E941A0163E070E08EE093E083
S11317500E941A018EE093E00E944F1660912802C5
S1131760709129028EE093E00E94CC156DE170E047
S11317708EE093E00E941A0161E070E08EE093E055
S11317800E941A018EE093E00C944F160895CF93B3
S1131790DF9326E040E051EE60E070E081E792E004
S11317A00E94D81110922B0210922A02C0912A0290
S11317B0D0912B02C432D1056CF4CE010E94FE1AE2
S11317C0FE01EA5BFD4F80832196D0932B02C093E8
S11317D02A02ECCF10922B0210922A028091660208
S11317E090E090932902809328028EE093E00E9477
S11317F0B21540EA56E861E070E08EE093E00E94A2
S1131800BD1560E082E10E948F1760E083E10E94D1
S11318108F178CE08093B8008AB1806F8AB9259ABB
S1131820249861E08DE00E94CB17809167028A348E
S113183041F4809168028D3421F4809169028234EC
S113184039F06AE070E080E090E00E94C716EDCFC6
S1131850809165028250823030F46AE070E080E06A
S113186090E00E94C7160E94150B10922D02109250
S11318702C02CFE0D0E080912C0290912D02823E88
S113188094405CF58BB1806F8BB988EE93E00E9435
S113189003178BB18F708BB988EB9BE00E94031701
S11318A080912C0290912D02BE010E946E1A892B08
S11318B051F48DE00E94FA1761E0892B09F060E091
S11318C08DE00E94CB1780912C0290912D020196FD
S11318D090932D0280932C02CECF10922D02109261
S11318E02C02CFE0D0E080912C0290912D02803D1B
S11318F027E092070CF085C0BE010E946E1A892B66
S113190051F48DE00E94FA1761E0892B09F060E040
S11319108DE00E94CB170E94F1046091080270913F
S11319200902072E000C880B990B0E94280F9B01BB
S1131930AC0160919E0170919F018091A0019091F2
S1131940A1010E94F20D60939E0170939F01809308
S1131950A0019093A10160910A0270910B02072EDD
S1131960000C880B990B0E94280F9B01AC0160911D
S1131970A2017091A3018091A4019091A5010E94FC
S1131980F20D6093A2017093A3018093A40190933C
S1131990A50160910C0270910D02072E000C880BBA
S11319A0990B0E94280F9B01AC016091A6017091D4
S11319B0A7018091A8019091A9010E94F20D609362
S11319C0A6017093A7018093A8019093A9018BB1FC
S11319D0806F8BB988EE93E00E9403178BB18F70F0
S11319E08BB963E070E080E090E00E94C7168091BC
S11319F02C0290912D02019690932D0280932C023B
S1131A0072CF20E030E04AEF54E460919E0170917F
S1131A109F018091A0019091A1010E947E0E60938C
S1131A209E0170939F018093A0019093A10120E0F7
S1131A3030E04AEF54E46091A2017091A3018091D7
S1131A40A4019091A5010E947E0E6093A20170935F
S1131A50A3018093A4019093A50120E030E04AEF14
S1131A6054E46091A6017091A7018091A80190911E
S1131A70A9010E947E0E6093A6017093A701809332
S1131A80A8019093A9018091680081608093680007
S1131A908091680084608093680080916B0081600D
S1131AA080936B0080916B00826080936B008091C7
S1131AB06B00846080936B0080916B0088608093DE
S1131AC06B0080916B00806180936B0080916D004E
S1131AD0846080936D0080916D00886080936D00B8
S1131AE080914002909141028E3D934074F0809128
S1131AF04002909141028D3F93403CF480913E021C
S1131B0090913F0288379540F4F583E00E94AB0042
S1131B10909341028093400284E00E94AB00909332
S1131B203F0280933E0280912A0290912B020196FB
S1131B3090932B0280932A028BB1806F8BB988EE2D
S1131B4093E00E9403178BB18F708BB963E070E050
S1131B5080E090E00E94C71680912A0290912B02A7
S1131B608D37910509F0BCCF8DE00E94FA1761E032
S1131B70892B09F060E08DE00E94CB1710922B02B4
S1131B8010922A02ADCF10922B0210922A0280E00A
S1131B900E9449178F5B9F4FBC01990F880B990BCB
S1131BA00E94280F28E538EA4DE95FE30E943810C7
S1131BB00E94F00E70932F0260932E020E94A216D0
S1131BC06093B6017093B7018093B8019093B90103
S1131BD060E08DE00E94CB1710927601DF91CF91E7
S1131BE008955058BB27AA270E94090E0C94F90F98
S1131BF00E94EB0F38F00E94F20F20F039F49F3F5F
S1131C0019F426F40C94AD0F0EF4E095E7FB0C9454
S1131C10A70FE92F0E940A1058F3BA176207730737
S1131C208407950720F079F4A6F50C942C100EF493
S1131C30E0950B2EBA2FA02D0B01B90190010C01D8
S1131C40CA01A0011124FF27591B99F0593F50F4F0
S1131C50503E68F11A16F040A22F232F342F442748
S1131C60585FF3CF469537952795A795F040539540
S1131C70C9F77EF41F16BA0B620B730B840BBAF010
S1131C809150A1F0FF0FBB1F661F771F881FC2F77B
S1131C900EC0BA0F621F731F841F48F4879577958F
S1131CA06795B795F7959E3F08F0B0CF9395880F49
S1131CB008F09927EE0F9795879508959F939F773E
S1131CC0EEE389379E0728F4E8E6F0E00E94D70F98
S1131CD00CC00E94630F9058A2EA2AED3FE049EC41
S1131CE05FE30E94090E0E94F90F0F9007FC9058C1
S1131CF008950E94830F08F481E008950E94920ED3
S1131D000C94F90F0E94F20F58F00E94EB0F40F070
S1131D1029F45F3F29F00C94A70F51110C942D1056
S1131D200C94AD0F0E940A1068F39923B1F3552364
S1131D3091F3951B550BBB27AA27621773078407DA
S1131D4038F09F5F5F4F220F331F441FAA1FA9F370
S1131D5035D00E2E3AF0E0E832D091505040E6955E
S1131D60001CCAF72BD0FE2F29D0660F771F881FBF
S1131D70BB1F261737074807AB07B0E809F0BB0BB2
S1131D80802DBF01FF2793585F4F3AF09E3F5105C6
S1131D9078F00C94A70F0C942D105F3FE4F3983E59
S1131DA0D4F3869577956795B795F7959F5FC9F7AF
S1131DB0880F911D9695879597F90895E1E0660F30
S1131DC0771F881FBB1F621773078407BA0720F0A9
S1131DD0621B730B840BBA0BEE1F88F7E095089512
S1131DE00E94F70E6894B1110C942D1008950E946E
S1131DF0121088F09F5798F0B92F9927B751B0F077
S1131E00E1F0660F771F881F991F1AF0BA95C9F77A
S1131E1014C0B13091F00E942C10B1E008950C94DC
S1131E202C10672F782F8827B85F39F0B93FCCF38F
S1131E30869577956795B395D9F73EF490958095F7
S1131E40709561957F4F8F4F9F4F0895E89409C017
S1131E5097FB3EF490958095709561957F4F8F4FD9
S1131E609F4F9923A9F0F92F96E9BB279395F695EF
S1131E70879577956795B795F111F8CFFAF4BB0F6D
S1131E8011F460FF1BC06F5F7F4F8F4F9F4F16C0D1
S1131E90882311F096E911C0772321F09EE8872F5B
S1131EA0762F05C0662371F096E8862F70E060E017
S1131EB02AF09A95660F771F881FDAF7880F969590
S1131EC0879597F90895DF93CF931F930F938B0111
S1131ED0EC01ECE7F0E00E94B00F0E94F90F9801CA
S1131EE0AE018B01EC0160E070E080E89FE30E94AA
S1131EF0F10D0E94AB109801AE010F911F91CF918B
S1131F00DF910C944B10990F0008550FAA0BE0E8D1
S1131F10FEEF16161706E807F907C0F012161306A7
S1131F20E407F50798F0621B730B840B950B39F4E7
S1131F300A2661F0232B242B252B21F408950A264D
S1131F4009F4A140A6958FEF811D811D089597F98D
S1131F509F6780E870E060E008959FEF80EC08954B
S1131F60DF93CF931F930F93FF92EF92DF927B0146
S1131F708C01689406C0DA2EEF010E944B10FE011A
S1131F80E894A5912591359145915591A6F3EF01DA
S1131F900E94090EFE019701A801DA9469F7DF9007
S1131FA0EF90FF900F911F91CF91DF9108959F9330
S1131FB08F937F936F93FF93EF939B01AC010E94E8
S1131FC03810EF91FF910E94B00F2F913F914F91E4
S1131FD05F910C94381000240A94161617061806FC
S1131FE00906089500240A94121613061406050619
S1131FF00895092E0394000C11F4882352F0BB0FAA
S113200040F4BF2B11F460FF04C06F5F7F4F8F4F0C
S11320109F4F089557FD9058440F551F59F05F3F47
S113202071F04795880F97FB991F61F09F3F79F0F6
S113203087950895121613061406551FF2CF469578
S1132040F1DF08C0161617061806991FF1CF8695FA
S11320507105610508940895E894BB2766277727DE
S1132060CB0197F908950E94830F08F48FEF089528
S11320700E944B100C94F90F0E94EB0F38F00E9451
S1132080F20F20F0952311F00C94A70F0C94AD0FD0
S113209011240C942D100E940A1070F3959FC1F323
S11320A0950F50E0551F629FF001729FBB27F00D02
S11320B0B11D639FAA27F00DB11DAA1F649F662757
S11320C0B00DA11D661F829F2227B00DA11D621FA6
S11320D0739FB00DA11D621F839FA00D611D221F60
S11320E0749F3327A00D611D231F849F600D211D44
S11320F0822F762F6A2F11249F5750409AF0F1F0C7
S113210088234AF0EE0FFF1FBB1F661F771F881F2F
S113211091505040A9F79E3F510580F00C94A70FB1
S11321200C942D105F3FE4F3983ED4F38695779595
S11321306795B795F795E7959F5FC1F7FE2B880FD5
S1132140911D9695879597F9089519F416F40C94B2
S1132150AD0F0C94EB100E941210B8F39923C9F33D
S1132160B6F39F57550B87FF0E94F9100024A0E691
S113217040EA900180585695979528F4805C660F44
S1132180771F881F20F026173707480730F4621B93
S1132190730B840B202931294A2BA6951794079495
S11321A0202531254A2758F7660F771F881F20F00E
S11321B026173707480730F4620B730B840B200D86
S11321C0311D411DA09581F7B901842F9158880FC5
S11321D09695879508959F3F31F0915020F4879507
S11321E077956795B795880F911D9695879597F97B
S11321F0089591505040660F771F881FD2F70895B5
S1132200FC01918D228D892F90E0805C9F4F821B71
S113221091098F7399270895FC01918D828D9817E8
S113222031F0828DE80FF11D858D90E008958FEFD8
S11322309FEF0895FC01918D828D981761F0828D36
S1132240DF01A80FB11D5D968C91928D9F5F9F73E6
S1132250928F90E008958FEF9FEF08958BE992E1BC
S1132260892B49F080E090E0892B29F00E949B1291
S113227081110E9400000895FC01848DDF01A80FE4
S1132280B11DA35ABF4F8C91248D30E02F5F3F4F77
S11322902F733078332334F421503109206C3F6F8D
S11322A02F5F3F4F248FA689B7898C93A089B1896A
S11322B08C9180648C93938D848D981306C00288CE
S11322C0F389E02D80818F7D80830895CF93DF9300
S11322D0EC01888D8823D9F0EA89FB89808185FD0A
S11322E005C0A889B9898C9186FD11C00FB607FC79
S11322F0F5CF808185FFF2CF04C0CE010E943C114E
S1132300EBCFA889B9898C9185FFE8CFF6CFDF910F
S1132310CF9108950F931F93CF93DF93EC0181E046
S1132320888F9B8D8C8D981323C0E889F9898081CF
S113233085FD2FC01DC09C8D19130CC00FB607FC62
S1132340FACFE889F989808185FFF5CFCE010E9413
S11323503C11F1CF8B8DFE01E80FF11DE35AFF4FC5
S113236000831B8FEA89FB8980818062808319C086
S11323702B8D30E02F5F3F4F2F733078332334F4AD
S113238021503109206C3F6F2F5F3F4F062F122FD2
S1132390D2CFEE89FF896083E889F98980818064DE
S11323A0808381E090E0DF91CF911F910F91089598
S11323B0CF92DF92EF92FF921F93CF93DF93EC01C2
S11323C06A017B01122FE889F98982E08083411533
S11323D0514E61057105B1F060E079E08DE390E064
S11323E0A70196010E94821ADA01C9010197A10985
S11323F0B109B695A795979587959C01211580E11C
S11324003807A8F0E889F989108260E874E88EE159
S113241090E0A70196010E94821ADA01C90101978E
S1132420A109B109B695A795979587959C01EC8567
S1132430FD853083EE85FF852083188EEC89FD8928
S11324401083EA89FB89808180618083EA89FB8922
S1132450808188608083EA89FB89808180688083A9
S1132460EA89FB8980818F7D8083DF91CF911F91E1
S1132470FF90EF90DF90CF9008951F920F920FB6C8
S11324800F9211242F938F939F93AF93BF93EF9346
S1132490FF93E0918102F0918202808182FD14C059
S11324A0E1E7F2E0A689B7892C91818D8F5F8F7364
S11324B0928D891771F0DF01E18DF0E0EF58FD4F47
S11324C0258F59968C9305C0E0918702F09188027C
S11324D08081FF91EF91BF91AF919F918F912F9147
S11324E00F900FBE0F901F9018951F920F920FB66A
S11324F00F9211242F933F934F935F936F937F9386
S11325008F939F93AF93BF93EF93FF9381E792E0F1
S11325100E943C11FF91EF91BF91AF919F918F91D8
S11325207F916F915F914F913F912F910F900FBECB
S11325300F901F90189581E792E00E94001121E00E
S1132540892B09F420E0822F0895E1E7F2E0138259
S1132550128288EE93E0A0E0B0E084839583A683A2
S1132560B7838AE491E09183808385EC90E095873A
S1132570848784EC90E09787868780EC90E0918B49
S1132580808B81EC90E0938B828B82EC90E0958B36
S1132590848B86EC90E0978B868B118E128E138E33
S11325A0148E089508950E940E170E94D2120E945C
S11325B0C70BCEE2D1E10E94F8062097E1F30E9416
S11325C02E11F9CFCF92DF92EF92FF920F931F93C8
S11325D0CF93DF9341155105C1F06A018C01E62EBA
S11325E0F72EC0E0D0E0D7016D917D01D801ED91C7
S11325F0FC910190F081E02DC8010995892B39F0F7
S11326002196CC16DD0679F702C0C0E0D0E0CE01F9
S1132610DF91CF911F910F91FF90EF90DF90CF90BA
S113262008956115710581F0FB0101900020E9F71F
S11326303197AF01461B570BDC01ED91FC910280F1
S1132640F381E02D0995089580E090E00895DC0180
S1132650ED91FC910190F081E02D09950895DC0144
S1132660ED91FC910280F381E02D42E050E066E5BB
S113267071E0099508950F931F93CF93DF93EC01B5
S11326800E9411138C01CE010E942F13800F911F01
S1132690DF91CF911F910F9108958F929F92AF92E6
S11326A0BF92EF92FF920F931F93CF93DF93CDB717
S11326B0DEB7A1970FB6F894DEBF0FBECDBF7C0185
S11326C0CB01BA0119A2223008F42AE08E010F5D71
S11326D01F4F822E912CA12CB12CA50194010E9494
S11326E0821AE62F622F732F842F952F0150110920
S11326F0EA3010F4E05D01C0E95CD801EC936115A7
S113270071058105910549F70115110591F0F8014D
S113271001900020E9F73197AF01401B510BD7011D
S1132720ED91FC910280F381E02DB801C701099578
S113273002C080E090E0A1960FB6F894DEBF0FBE11
S1132740CDBFDF91CF911F910F91FF90EF90BF907C
S1132750AF909F908F900895CF92DF92EF92FF9267
S11327600F931F93CF93DF93EC016A017B01211533
S1132770310541F4E881F9810190F081E02D642F65
S113278009951DC02A303105C1F4772394F46DE214
S11327900E9427138C0144275527BA014C195D095F
S11327A06E097F092AE0CE010E944D13800F911F0C
S11327B006C02AE00E944D1302C00E944D13DF910F
S11327C0CF911F910F91FF90EF90DF90CF900895DC
S11327D09A01AB01770F660B770B0E94AC13089537
S11327E02115310549F4DC01ED91FC910190F08152
S11327F0E02D642F099508950E944D1308959A01C0
S1132800AB0160E070E00E94F01308957F928F9214
S11328109F92AF92BF92CF92DF92EF92FF920F936B
S11328201F93CF93DF9300D000D0CDB7DEB78C01D8
S11328304A015B01722E9A01AB01C501B4010E94E9
S1132840591A882331F069E571E0C8010E94111317
S1132850D7C075016401E894F7F82FEF3FEF4FE715
S11328605FE7C701B6010E94591A811110C02FEF0A
S11328703FEF4FE75FE7C701B6010E94790E1816D4
S113288034F46DE571E0C8010E941113B9C02FEF53
S11328903FEF4FE75FE4C501B4010E9433101816FF
S11328A034F461E671E0C8010E941113A9C02FEF4E
S11328B03FEF4FE75FECC501B4010E94790E882316
S11328C034F461E671E0C8010E94111399C020E05C
S11328D030E0A901C501B4010E94790E882354F4A3
S11328E06DE2C8010E9427137C01B7FAB094B7F8CF
S11328F0B09402C0E12CF12C772009F46EC0198247
S113290060E070E080E09FE320E030E040E251E4EA
S11329100E947E0E29812F5F29837212F5CF2CC06D
S113292020E030E040E251E4C501B4010E943810D7
S11329304B015C010E94F70E6B017C014AE050E000
S1132940C8010E94FF1329813A81280F391F3A8355
S11329502983B60180E090E00E94260F9B01AC0120
S1132960C501B4010E94F10D4B015C017A94711010
S1132970D7CF89819A8144C09B01AC01C501B401C0
S11329800E94F20D4B015C010E94F70E69837A8369
S11329908B839C830E94260F9B01AC01C501B4016B
S11329A00E94F10D4B015C012AE030E049815A811B
S11329B06B817C81C8010E94F0139A8389836EE243
S11329C0C8010E94271329813A81820F931F9C0119
S11329D02E0D3F1D3A832983A3CF20E030E040E051
S11329E05FE3C501B4010E94F20D0E94F70EAB0132
S11329F0BC012AE030E0C8010E94F0138E0D9F1D37
S1132A000F900F900F900F90DF91CF911F910F9126
S1132A10FF90EF90DF90CF90BF90AF909F908F90FA
S1132A207F9008950E940614089580913E0390E0DB
S1132A3020913F03821B9109089590913F03809157
S1132A403E03981750F4E92FF0E0E05CFC4F20813E
S1132A5030E09F5F90933F0302C02FEF3FEFC90127
S1132A600895E0913F0380913E03E81730F4F0E0CD
S1132A70E05CFC4F808190E008958FEF9FEF089514
S1132A800895CF92DF92EF92FF920F931F93CF930B
S1132A90DF938C01CB016A0120911A032223A1F058
S1132AA041155105A1F0EB017B01E40EF51E69917E
S1132AB0D801ED91FC910190F081E02DC8010995B8
S1132AC0CE15DF05A1F703C0642F0E94F418C601D8
S1132AD0DF91CF911F910F91FF90EF90DF90CF90F6
S1132AE00895CF93DF931F92CDB7DEB7FC016983BE
S1132AF090911A039923D9F090911B03903238F0E6
S1132B0081E090E09383828380E090E017C080911D
S1132B101C03E82FF0E0E35EFC4F998190838F5F04
S1132B2080931C0380931B0381E090E007C061E065
S1132B30CE0101960E94F41881E090E00F90DF919D
S1132B40CF910895FC011382128288EE93E0A0E0F5
S1132B50B0E084839583A683B78389E691E091836B
S1132B608083089510923F0310923E0310921C0339
S1132B7010921B030E9424180895CB01BA010E94ED
S1132B804218089581E080931A0360933D031092E4
S1132B901C0310921B0308950E94C21508950F93FD
S1132BA0062F21E040911B036DE173E080913D030A
S1132BB00E949E1810921C0310921B0310921A0379
S1132BC00F9108954F925F926F927F92AF92BF924E
S1132BD0CF92EF92FF920F931F93CF93DF935C01F9
S1132BE0F62ED42F28013901EE2049F10E94C21596
S1132BF08E2D843008F083E0CFEFC80F8823D9F0FE
S1132C008C2F880F880F880FA301920104C056955A
S1132C104795379527958A95D2F7CA01B901D50109
S1132C20ED91FC910190F081E02DC50109958C2F67
S1132C30C1508111E5CF60E0C5010E94CF154D2F31
S1132C40D13208F040E22C2D60E473E08F2D0E9415
S1132C50561810923F0380933E03DF91CF911F914A
S1132C600F91FF90EF90CF90BF90AF907F906F90B7
S1132C705F904F900895CF92EF920F931F93C22EBF
S1132C80E12C00E010E098010E94E2151F910F91E1
S1132C90EF90CF90089521E00E943B16089561E0E3
S1132CA00E94CF1508958EE093E00E94A215089526
S1132CB01F920F920FB60F9211242F933F938F936D
S1132CC09F93AF93BF938091610390916203A0910E
S1132CD06303B09164033091600323E0230F2D3725
S1132CE020F40196A11DB11D05C026E8230F02960C
S1132CF0A11DB11D2093600380936103909362032F
S1132D00A0936303B0936403809165039091660379
S1132D10A0916703B09168030196A11DB11D809332
S1132D20650390936603A0936703B0936803BF9110
S1132D30AF919F918F913F912F910F900FBE0F9064
S1132D401F9018953FB7F89480916503909166039E
S1132D50A0916703B091680326B5A89B05C02F3FD7
S1132D6019F00196A11DB11D3FBFBA2FA92F982FAD
S1132D708827820F911DA11DB11DBC01CD0142E028
S1132D80660F771F881F991F4A95D1F708958F9270
S1132D909F92AF92BF92CF92DF92EF92FF926B011C
S1132DA07C010E94A2164B015C01C114D104E10410
S1132DB0F10401F10E9423180E94A216DC01CB0148
S1132DC088199909AA09BB09883E9340A105B10550
S1132DD060F321E0C21AD108E108F10888EE880EF8
S1132DE083E0981EA11CB11CC114D104E104F104B8
S1132DF019F7DBCFFF90EF90DF90CF90BF90AF90AB
S1132E009F908F9008958230910538F0880F991F14
S1132E10880F991F05970197F1F70895789484B561
S1132E20826084BD84B5816084BD85B5826085BDC2
S1132E3085B5816085BDEEE6F0E0808181608083A8
S1132E40E1E8F0E01082808182608083808181608B
S1132E508083E0E8F0E0808181608083E1EBF0E052
S1132E60808184608083E0EBF0E0808181608083F6
S1132E70EAE7F0E0808184608083808182608083DF
S1132E808081816080838081806880831092C1000A
S1132E9008958E3008F08E502091110190E4299FFE
S1132EA0900111248770822B80937C0080917A009A
S1132EB0806480937A0080917A0086FDFCCF8091B3
S1132EC078002091790090E0922B0895833081F06E
S1132ED028F4813099F08230A1F008958730A9F068
S1132EE08830B9F08430D1F4809180008F7D03C0A4
S1132EF0809180008F7780938000089584B58F77C8
S1132F0002C084B58F7D84BD08958091B0008F7711
S1132F1003C08091B0008F7D8093B0000895CF935B
S1132F20DF9390E0FC01E854FF4F2491FC01E4534B
S1132F30FF4F8491882361F190E0880F991FFC0171
S1132F40EC50FF4FC591D491FC01E651FF4FA59180
S1132F50B491611109C09FB7F894888120958223A8
S1132F608883EC912E230BC0623061F49FB7F894F0
S1132F708881322F309583238883EC912E2B2C93D8
S1132F809FBF06C08FB7F894E8812E2B28838FBF8C
S1132F90DF91CF9108951F93CF93DF93282F30E0D3
S1132FA0F901EC55FF4F8491F901E854FF4FD49196
S1132FB0F901E453FF4FC491CC23C1F0162F8111C2
S1132FC00E946617EC2FF0E0EE0FFF1FE651FF4F53
S1132FD0A591B4919FB7F894111104C08C91D09528
S1132FE0D82302C0EC91DE2BDC939FBFDF91CF91FD
S1132FF01F910895CF93DF93282F30E0F901EC550A
S1133000FF4F8491F901E854FF4FD491F901E4533F
S1133010FF4FC491CC2391F081110E946617EC2FCD
S1133020F0E0EE0FFF1FE052FF4FA591B491EC9139
S1133030ED2381E090E021F480E002C080E090E0A4
S1133040DF91CF91089508951092D60381E0809383
S1133050D4031092D30361E082E10E94CB1761E0B4
S113306083E10E94CB17E9EBF0E080818E7F8083BF
S113307080818D7F808388E48093B80085E4809389
S1133080BC0008959B01AC0160E074E284EF90E021
S11330900E94821ADA01C9014097A109B109B695C3
S11330A0A795979587958093B8000895413208F0C5
S11330B043C09091D6039111FCCF91E09093D60335
S11330C02093D4032FEF209369031092AE03240FAF
S11330D02093AD039093D5039091D503880F892B4A
S11330E08093D5038091D303813061F41092D3038C
S11330F08091D5038093BB008091BC0083FDF8CF01
S113310085EC01C085EE8093BC008091D6038130AC
S1133110E1F38091AE03841710F44091AE03AFEA5B
S1133120B3E0962FFB018E2F891B841718F48D9121
S11331308193F9CF842F089580E008950F9341324D
S113314008F04AC09091D6039111FCCF32E030933D
S1133150D6030093D4033FEF309369031092AE0378
S11331604093AD03562FAFEAB3E0FB013E2F351B6E
S1133170341718F431913D93F9CF1092D50330915F
S1133180D503880F832B8093D5038091D30381309B
S113319061F41092D3038091D5038093BB00809196
S11331A0BC0083FDF8CF85EC01C085EE8093BC00A4
S11331B0222321F08091D6038230D1F380916903D8
S11331C08F3F79F080916903803241F080916903E7
S11331D0803331F094E005C091E003C092E001C077
S11331E093E0892F0F91089540918B03262F30E0AF
S11331F0240F311D21323105DCF42091D603243013
S1133200C9F4FC0180E090E0861758F430918B03F8
S11332102191DC01A357BC4FA30FB11D2C93019640
S1133220F3CF80918B03680F60938B0380E0089544
S113323081E0089582E0089585ED8093BC0080913B
S1133240BC0084FDFCCF1092D603089585EC8093D6
S1133250BC001092D60308951F920F920FB60F92DE
S113326011242F933F934F935F936F937F938F9387
S11332709F93AF93BF93EF93FF938091B900887F9F
S1133280803609F49EC078F5883209F45DC090F464
S1133290803109F456C038F4882309F4F5C0883025
S11332A009F44FC0F5C0883109F44EC0803209F4E6
S11332B05FC0EEC0803409F46AC058F4803309F466
S11332C057C0883309F0E4C0809369030E9426192B
S11332D0DFC0803509F44FC0883509F45DC08834F7
S11332E009F0D6C0D3C0883909F4C4C0A8F488371B
S11332F009F467C038F4883609F463C0803709F4E8
S113330060C0C6C0883809F4B5C0803909F45FC00C
S1133310803809F0BDC05BC0803B09F483C038F439
S1133320803A09F466C0883A09F47CC0B1C0803C94
S113333009F4A4C0883C09F4A1C0883B09F487C0FF
S1133340A7C08091D50310C09091AE038091AD03C6
S1133350981770F5E091AE0381E08E0F8093AE0371
S1133360F0E0E155FC4F80818093BB0085EC83C085
S1133370809369038BC0E091AE0381E08E0F80934C
S1133380AE038091BB00F0E0E155FC4F8083909147
S1133390AE038091AD036BC0E091AE0381E08E0F6C
S11333A08093AE038091BB00F0E0E155FC4F808335
S11333B08091D40381116AC081E08093D30384EAAD
S11333C05EC083E08093D60310926A03CFCF8091CE
S11333D06A03803208F04EC0E0916A0381E08E0FE8
S11333E080936A038091BB00F0E0E559FC4F808331
S11333F0BDCF0E94261980916A03803230F4E09197
S11334006A03F0E0E559FC4F108260916A0370E0B2
S1133410E091CF03F091D0038BE693E009951092ED
S11334206A0336C084E08093D60310928C03109212
S11334308B03E091D103F091D203099580918B0322
S1133440811105C081E080938B0310928D03E0917C
S11334508C0381E08E0F80938C03F0E0E357FC4FE4
S113346080818093BB0090918C0380918B0398178B
S113347008F47CCF85E88093BC000AC085EC809377
S1133480BC001092D60304C0109269030E941C1958
S1133490FF91EF91BF91AF919F918F917F916F9128
S11334A05F914F913F912F910F900FBE0F901F90FE
S11334B018950E94830F880B990B0895DB018F9355
S11334C09F930E94CA1ABF91AF91A29F800D911D34
S11334D0A39F900DB29F900D1124089597FB072E82
S11334E016F4009407D077FD09D00E94D51A07FC82
S11334F005D03EF4909581959F4F08957095619500
S11335007F4F0895A1E21A2EAA1BBB1BFD010DC01B
S1133510AA1FBB1FEE1FFF1FA217B307E407F5077F
S113352020F0A21BB30BE40BF50B661F771F881F5B
S1133530991F1A9469F760957095809590959B01F1
S1133540AC01BD01CF010895052E97FB1EF4009434
S11335500E94BB1A57FD07D00E94821A07FC03D0B1
S11335604EF40C94BB1A50954095309521953F4FDD
S11335704F4F5F4F089590958095709561957F4F5B
S11335808F4F9F4F08950E94EF1AB7FF0895821B33
S1133590930B08950E94EF1AA59F900DB49F900D70
S11335A0A49F800D911D11240895AA1BBB1B51E1FA
S11335B007C0AA1FBB1FA617B70710F0A61BB70B9F
S11335C0881F991F5A95A9F780959095BC01CD0144
S11335D00895EE0FFF1F0590F491E02D0994A29F2A
S11335E0B001B39FC001A39F700D811D1124911DD3
S11335F0B29F700D811D1124911D0895F999FECF7C
S113360092BD81BDF89A992780B50895F894FFCFAB
S11336100200019001000098410AD7233D6666A686
S11336203F012052473A20002052413A20002053C3
S1133630503A200020494E3A2000204531643A2077
S11336400020503A200020493A200020443A20002B
S1133650206368363A00000000008A11E21200116B
S11336601A110C1166110D0A006E616E00696E6606
S1133670006F766600000000007115411515151DD8
S109368015311540150090
S903022AD0
