S0100000414C2D53657475702E7372656349
S11300000C94F4080C941C090C941C090C94040D15
S11300100C941C090C941C090C941C090C941C09C8
S11300200C941C090C941C090C941C090C941C09B8
S11300300C941C090C941C090C941C090C941C09A8
S11300400C9466240C941C090C94D91F0C94112054
S11300500C941C090C941C090C941C090C941C0988
S11300600C94EC260C941C09486176652066756E28
S1130070210000466F7220737570706F7274206176
S11300806E64207175657374696F6E733A20777747
S1130090772E62726F6B6B696E672E6E6574003DAE
S11300A03D3D3D3D3D3D3D3D3D3D3D3D3D3D3D3D7C
S11300B03D3D3D3D3D3D3D3D3D3D3D3D3D3D3D3D6C
S11300C03D3D3D3D3D3D3D3D3D3D3D3D3D3D3D3D5C
S11300D03D3D0000594D46432D414C2053657475F8
S11300E0702050726F6772616D0000202020202004
S11300F020436F6E74726F6C6C6572002020202038
S1130100466C696768740020204D756C7469636F70
S11301107074657200596F757200003D3D3D3D3D40
S11301203D3D3D3D3D3D3D3D3D3D3D3D3D3D3D3DFB
S11301303D3D3D3D3D3D3D3D3D3D3D3D3D3D3D3DEB
S11301403D3D3D3D3D3D3D3D3D3D3D3D3D3D004E07
S11301506F20616E67756C6172206D6F74696F6E6C
S113016020697320646574656374656420696E2016
S1130170746865206C617374203130207365636F1B
S11301806E647321212120284552524F5220342974
S1130190004D6561737572696E6720656E64706F7A
S11301A0696E74732E2E2E2E00204F4B004E6F203E
S11301B076616C6964207265636569766572207323
S11301C069676E616C7320666F756E6421212120EE
S11301D0284552524F52203129002E002E004E6FD6
S11301E020737469636B206D6F76656D656E742022
S11301F0646574656374656420696E207468652041
S11302006C617374203330207365636F6E64732183
S1130210212120284552524F52203229005265672D
S11302206973746572203078314220697320736574
S11302307420746F3A005265676973746572203074
S11302407836422069732073657420746F3A0052C3
S1130250656769737465722030783233206973205E
S113026073657420746F3A005265676973746572BC
S113027020307832302069732073657420746F3AAB
S1130280007777772E62726F6B6B696E672E6E657F
S11302907420666F72206D6F726520696E666F726E
S11302A06D6174696F6E2061626F75742074686922
S11302B073206572726F722E00436865636B2074DD
S11302C06865205120616E6420412070616765205B
S11302D06F662074686520594D46432D414C20704B
S11302E0726F6A656374206F6E3A00546865207398
S11302F0657475702069732061626F72746564201F
S113030064756520746F20616E206572726F722E41
S113031000596F752063616E206E6F772063616C86
S113032069627261746520746865206573632773FC
S113033020616E642075706C6F6164207468652040
S1130340594D46432D414C20636F64652E0053651F
S11303507475702069732066696E69736865642EAC
S113036000566572696669636174696F6E20646FB3
S11303706E6500454550524F4D2076657269666939
S1130380636174696F6E206661696C656421212103
S113039020284552524F522035290056657269660D
S11303A07920454550524F4D206461746100446F7B
S11303B06E65210057726974696E67204545505215
S11303C04F4D003D3D3D3D3D3D3D3D3D3D3D3D3D74
S11303D03D3D3D3D3D3D3D3D3D3D3D3D3D3D3D3D49
S11303E03D3D3D3D3D3D3D3D3D3D3D3D3D3D3D3D39
S11303F03D3D3D3D3D3D0053746F72696E67204540
S11304004550524F4D20696E666F726D6174696F0D
S11304106E003D3D3D3D3D3D3D3D3D3D3D3D3D3D14
S11304203D3D3D3D3D3D3D3D3D3D3D3D3D3D3D3DF8
S11304303D3D3D3D3D3D3D3D3D3D3D3D3D3D3D3DE8
S11304403D3D3D3D3D00004779726F206578657301
S113045020766572696669636174696F6E2066618E
S1130460696C656421212120284552524F5220375E
S113047029004779726F2061786573206F6B005291
S113048065636569766572206368616E6E656C206C
S1130490766572696669636174696F6E2066616905
S11304A06C656421212120284552524F522036295F
S11304B0005265636569766572206368616E6E6576
S11304C06C73206F6B003D3D3D3D3D3D3D3D3D3DED
S11304D03D3D3D3D3D3D3D3D3D3D3D3D3D3D3D3D48
S11304E03D3D3D3D3D3D3D3D3D3D3D3D3D3D3D3D38
S11304F03D3D3D3D3D3D3D3D3D0046696E616C20C9
S1130500736574757020636865636B003D3D3D3DA4
S11305103D3D3D3D3D3D3D3D3D3D3D3D3D3D3D3D07
S11305203D3D3D3D3D3D3D3D3D3D3D3D3D3D3D3DF7
S11305303D3D3D3D3D3D3D3D3D3D3D3D3D3D3D0024
S1130540004D6F766520737469636B20276E6F733B
S1130550652075702720616E64206261636B20746E
S11305606F2063656E74657220746F20636F6E74A0
S1130570696E756500546865204C45442073686F46
S1130580756C64206E6F77206265206C6974003D21
S11305903D3D3D3D3D3D3D3D3D3D3D3D3D3D3D3D87
S11305A03D3D3D3D3D3D3D3D3D3D3D3D3D3D3D3D77
S11305B03D3D3D3D3D3D3D3D3D3D3D3D3D3D3D3D67
S11305C03D3D004C45442074657374003D3D3D3D04
S11305D03D3D3D3D3D3D3D3D3D3D3D3D3D3D3D3D47
S11305E03D3D3D3D3D3D3D3D3D3D3D3D3D3D3D3D37
S11305F03D3D3D3D3D3D3D3D3D3D3D3D3D3D3D0064
S1130600004D6F766520737469636B20276E6F737A
S1130610652075702720616E64206261636B2074AD
S11306206F2063656E74657220746F20636F6E74DF
S1130630696E756500507574207468652071756104
S113064064636F70746572206261636B20696E20ED
S1130650697473206F726967696E616C20706F735F
S11306606974696F6E004178697320696E7665728A
S1130670746564203D206E6F004178697320696E53
S1130680766572746564203D2079657300416E67F8
S11306906C6520646574656374696F6E203D200029
S11306A04F4B2100526F7461746520746865206E2D
S11306B06F7365206F66207468652071756164636B
S11306C06F707465722034352064656772656520C7
S11306D0746F207468652072696768742077697420
S11306E068696E203130207365636F6E6473000037
S11306F0004D6F766520737469636B20276E6F738A
S1130700652075702720616E64206261636B2074BC
S11307106F2063656E74657220746F20636F6E74EE
S1130720696E756500507574207468652071756113
S113073064636F70746572206261636B20696E20FC
S1130740697473206F726967696E616C20706F736E
S11307506974696F6E004178697320696E76657299
S1130760746564203D206E6F004178697320696E62
S1130770766572746564203D2079657300416E6707
S11307806C6520646574656374696F6E203D200038
S11307904F4B21004C69667420746865206E6F733A
S11307A065206F66207468652071756164636F707D
S11307B074657220746F206120343520646567721B
S11307C0656520616E676C652077697468696E2061
S11307D03130207365636F6E64730000004D6F7673
S11307E06520737469636B20276E6F736520757061
S11307F02720616E64206261636B20746F206365DF
S11308006E74657220746F20636F6E74696E7565A3
S113081000507574207468652071756164636F702D
S1130820746572206261636B20696E206974732041
S11308306F726967696E616C20706F736974696F38
S11308406E004178697320696E7665727465642000
S11308503D206E6F004178697320696E766572740D
S11308606564203D2079657300416E676C65206482
S11308706574656374696F6E203D20004F4B2100E1
S11308804C69667420746865206C656674207369AD
S11308906465206F66207468652071756164636F98
S11308A07074657220746F2061203435206465672C
S11308B072656520616E676C652077697468696E1E
S11308C0203130207365636F6E6473003D3D3D3DA0
S11308D03D3D3D3D3D3D3D3D3D3D3D3D3D3D3D3D44
S11308E03D3D3D3D3D3D3D3D3D3D3D3D3D3D3D3D34
S11308F03D3D3D3D3D3D3D3D3D3D3D3D3D3D3D0061
S11309004779726F206178657320636F6E666967DB
S113091075726174696F6E003D3D3D3D3D3D3D3DE9
S11309203D3D3D3D3D3D3D3D3D3D3D3D3D3D3D3DF3
S11309303D3D3D3D3D3D3D3D3D3D3D3D3D3D3D3DE3
S11309403D3D3D3D3D3D3D3D3D3D3D0000417869E2
S1130950732033206F66667365743D004178697354
S11309602032206F66667365743D00417869732098
S113097031206F66667365743D00002E00506C650F
S113098061736520776169740043616C69627261A7
S113099074696E6720746865206779726F2C20749F
S11309A06869732077696C6C2074616B65202B2FE8
S11309B02D2038207365636F6E647300446F6E2757
S11309C074206D6F76652074686520717561646349
S11309D06F7074657221212043616C696272617465
S11309E0696F6E2073746172747320696E20332092
S11309F07365636F6E6473003D3D3D3D3D3D3D3D1C
S1130A003D3D3D3D3D3D3D3D3D3D3D3D3D3D3D3D12
S1130A103D3D3D3D3D3D3D3D3D3D3D3D3D3D3D3D02
S1130A203D3D3D3D3D3D3D3D3D3D3D004779726F82
S1130A302063616C6962726174696F6E003D3D3D53
S1130A403D3D3D3D3D3D3D3D3D3D3D3D3D3D3D3DD2
S1130A503D3D3D3D3D3D3D3D3D3D3D3D3D3D3D3DC2
S1130A603D3D3D3D3D3D3D3D3D3D3D3D3D3D3D3DB2
S1130A7000003D3D3D3D3D3D3D3D3D3D3D3D3D3D1C
S1130A803D3D3D3D3D3D3D3D3D3D3D3D3D3D3D3D92
S1130A903D3D3D3D3D3D3D3D3D3D3D3D3D3D3D3D82
S1130AA03D3D3D3D3D004779726F20726567697336
S1130AB07465722073657474696E6773003D3D3D9F
S1130AC03D3D3D3D3D3D3D3D3D3D3D3D3D3D3D3D52
S1130AD03D3D3D3D3D3D3D3D3D3D3D3D3D3D3D3D42
S1130AE03D3D3D3D3D3D3D3D3D3D3D3D3D3D3D3D32
S1130AF000004D50552D3932353520666F756E64C2
S1130B00206F6E20616464726573732030783638A8
S1130B1000536561726368696E6720666F72204D69
S1130B2050552D39323535206F6E206164647265FD
S1130B30737320307836382F313034003D3D3D3DDD
S1130B403D3D3D3D3D3D3D3D3D3D3D3D3D3D3D3DD1
S1130B503D3D3D3D3D3D3D3D3D3D3D3D3D3D3D3DC1
S1130B603D3D3D3D3D3D3D3D3D3D3D3D3D3D3D00EE
S1130B704779726F20736561726368003D3D3D3D46
S1130B803D3D3D3D3D3D3D3D3D3D3D3D3D3D3D3D91
S1130B903D3D3D3D3D3D3D3D3D3D3D3D3D3D3D3D81
S1130BA03D3D3D3D3D3D3D3D3D3D3D3D3D3D3D00AE
S1130BB0004D6F766520737469636B20276E6F73C5
S1130BC0652075702720616E64206261636B2074F8
S1130BD06F2063656E74657220746F20636F6E742A
S1130BE0696E756500202D2000202D200044696762
S1130BF06974616C20696E7075742031312076617E
S1130C006C7565733A00202D2000202D2000446966
S1130C10676974616C20696E707574203130207658
S1130C20616C7565733A00202D2000202D2000444E
S1130C3069676974616C20696E707574203039203D
S1130C4076616C7565733A00202D2000202D2000FC
S1130C504469676974616C20696E707574203038FA
S1130C602076616C7565733A00486967682C206C5E
S1130C706F7720616E642063656E7465722076619F
S1130C806C75657320666F756E6420647572696E29
S1130C90672073657475700000005768656E207274
S1130CA06561647920707574207468652073746953
S1130CB0636B73206261636B20696E20746865697D
S1130CC0722063656E74657220706F736974696FE6
S1130CD06E730047656E746C79206D6F7665206164
S1130CE06C6C2074686520737469636B732073691A
S1130CF06D756C74616E656F75736C7920746F209B
S1130D00746865697220657874656E6473000000A8
S1130D104368616E6E656C20696E76657274656495
S1130D20203D206E6F004368616E6E656C20696EB5
S1130D30766572746564203D207965730059617726
S1130D4020697320636F6E6E656374656420746FCD
S1130D50206469676974616C20696E707574200021
S1130D604D6F7665207468652079617720737469A6
S1130D70636B20746F2073696D756C617465206E8C
S1130D806F736520726967687420616E64206261A4
S1130D90636B20746F2063656E746572000000439A
S1130DA068616E6E656C20696E7665727465642028
S1130DB03D206E6F004368616E6E656C20696E76CF
S1130DC06572746564203D207965730050697463AD
S1130DD06820697320636F6E6E6563746564207444
S1130DE06F206469676974616C20696E7075742022
S1130DF0004D6F766520746865207069746368209F
S1130E00737469636B20746F2073696D756C61749E
S1130E1065206E6F736520757020616E6420626159
S1130E20636B20746F2063656E7465720000004309
S1130E3068616E6E656C20696E7665727465642097
S1130E403D206E6F004368616E6E656C20696E763E
S1130E506572746564203D2079657300526F6C6C13
S1130E6020697320636F6E6E656374656420746FAC
S1130E70206469676974616C20696E707574200000
S1130E804D6F76652074686520726F6C6C20737486
S1130E9069636B20746F2073696D756C6174652070
S1130EA06C6566742077696E6720757020616E6466
S1130EB0206261636B20746F2063656E74657200D9
S1130EC000004368616E6E656C20696E76657274AD
S1130ED06564203D206E6F004368616E6E656C2012
S1130EE0696E766572746564203D2079657300547B
S1130EF068726F74746C6520697320636F6E6E65BD
S1130F006374656420746F206469676974616C201C
S1130F10696E70757420004D6F7665207468652065
S1130F207468726F74746C6520737469636B207475
S1130F306F2066756C6C207468726F74746C6520B5
S1130F40616E64206261636B20746F2063656E74EC
S1130F5065720000004469676974616C20696E7091
S1130F607574203131203D20004469676974616CD7
S1130F7020696E707574203130203D20004469670B
S1130F806974616C20696E707574203039203D205D
S1130F90004469676974616C20696E7075742030EF
S1130FA038203D200043656E74657220706F73694C
S1130FB074696F6E732073746F7265642E000050D1
S1130FC06C61636520616C6C20737469636B73205E
S1130FD0616E64207375627472696D7320696E202A
S1130FE07468652063656E74657220706F736974CC
S1130FF0696F6E2077697468696E2031302073657B
S1131000636F6E64732E0000436865636B696E677B
S113101020666F722076616C69642072656365690D
S1131020766572207369676E616C732E003D3D3D79
S11310303D3D3D3D3D3D3D3D3D3D3D3D3D3D3D3DDC
S11310403D3D3D3D3D3D3D3D3D3D3D3D3D3D3D3DCC
S11310503D3D3D3D3D3D3D3D3D3D3D3D3D3D3D3DBC
S1131060005472616E736D69747465722073657473
S11310707570003D3D3D3D3D3D3D3D3D3D3D3D3D6E
S11310803D3D3D3D3D3D3D3D3D3D3D3D3D3D3D3D8C
S11310903D3D3D3D3D3D3D3D3D3D3D3D3D3D3D3D7C
S11310A03D3D3D3D3D3D000049324320636C6F634F
S11310B06B207370656564206973206E6F74207390
S11310C0657420746F203430306B487A2E202845A4
S11310D052524F522038290049324320636C6F63C7
S11310E06B20737065656420697320636F72726529
S11310F063746C792073657420746F203430306BA2
S1131100487A2E00436865636B696E6720493243F1
S113111020636C6F636B2073706565642E003D3DC6
S11311203D3D3D3D3D3D3D3D3D3D3D3D3D3D3D3DEB
S11311303D3D3D3D3D3D3D3D3D3D3D3D3D3D3D3DDB
S11311403D3D3D3D3D3D3D3D3D3D3D3D3D3D3D3DCB
S11311503D0053797374656D20636865636B003D6E
S11311603D3D3D3D3D3D3D3D3D3D3D3D3D3D3D3DAB
S11311703D3D3D3D3D3D3D3D3D3D3D3D3D3D3D3D9B
S11311803D3D3D3D3D3D3D3D3D3D3D3D3D3D3D3D8B
S11311903D3D0000000000080002010000030407B8
S11311A0000000000000000001020408102040803C
S11311B0010204081020010204081020040404049D
S11311C004040404020202020202030303030303ED
S11311D000000000250028002B000000000024006F
S11311E027002A004120612411241FBECFEFD8E03C
S11311F0DEBFCDBF11E0A0E0B1E0EAE6F1E502C058
S113120005900D92A833B107D9F723E0A8E3B1E024
S113121001C01D92A530B207E1F718E0C4EFD8E091
S113122004C02197FE010E949728C23FD107C9F745
S11312300E946F200C94B3280C9400000C949D28F9
S11312400C94A528DC01ED91FC910190F081E02D36
S1131250099461E08DE00E948C25E8E6F0E080814D
S113126081608083EBE6F0E080818160808380810F
S113127082608083808184608083808188608083B1
S11312808CE392E00E94C52326E040E051EE60E04A
S113129070E08FE991E00E94741F6AEF70E080E0D3
S11312A090E00C94E124CF92DF92EF92FF920F939F
S11312B01F93CF93DF93D82F0E94B024DC01CB017E
S11312C0805D9A48AF4FBF4F80936401909365014E
S11312D0A0936601B0936701C0E00E94B024C0905F
S11312E06401D0906501E0906601F09067016C158F
S11312F07D058E059F0508F060C0CC23D1F0D13068
S113130031F4023E14400CF097C0C05895C0D2305E
S113131031F4023E14400CF09BC0C05899C0D33045
S113132009F08DC0023E14400CF4C058C0939301E0
S113133091C06AEF70E080E090E00E94E124809127
S11313408A0190918B01873D96400CF049C08091B1
S11313508A0190918B01823E94400CF441C08091AB
S1131360880190918901873D96400CF044C080919A
S1131370880190918901823E9440ECF1809186012C
S113138090918701873D96400CF040C08091860182
S113139090918701823E9440CCF180918401909198
S11313A08501873D9640ECF58091840190918501FB
S11313B0823E94400CF091CF34C0C111A0CF81E0A3
S11313C0809396016EED71E08FE991E0DF91CF910A
S11313D01F910F91FF90EF90DF90CF900C9401211B
S11313E080918D01816080938D0100918A0110911B
S11313F08B01C1E0B4CF80918D01826080938D0117
S11314000091880110918901C2E0B8CF80918D01CB
S1131410846080938D010091860110918701C3E05F
S1131420BCCF80918D01886080938D0100918401EF
S113143010918501C4E051CFC09392010BC0D43008
S113144049F4023E14400CF4C058C093910102C008
S1131450C0939401DF91CF911F910F91FF90EF9072
S1131460DF90CF900895CF93C0E080918201909156
S1131470830120918A0130918B01AC014D5E5F4F55
S1131480421753074CF020918A0130918B01439706
S1131490281739070CF04DC080918001909181018B
S11314A02091880130918901AC014D5E5F4F421754
S11314B0530744F0209188013091890143972817FC
S11314C03907CCF580917E0190917F0120918601AE
S11314D030918701AC014D5E5F4F4217530744F0D2
S11314E020918601309187014397281739072CF5FD
S11314F080917C0190917D0120918401309185013E
S1131500AC014D5E5F4F4217530744F020918401B4
S1131510309185014397281739078CF464E670E00D
S113152080E090E00E94E124CF3008F49ECFCF9178
S11315300895C160B1CFC260C5CFC460D9CFC860BF
S1131540EDCFCF9380919301813049F420918A01AA
S113155030918B0180918201909183011BC081386D
S113156079F420918A0130918B01809182019091CC
S1131570830186599109281739070CF45AC011C000
S1131580823089F420918801309189018091800111
S1131590909181018A569F4FC1E0821793070CF402
S11315A049C0C0E047C0C0E0823849F420918801B6
S11315B030918901809180019091810135C08330FF
S11315C071F4209186013091870180917E01909180
S11315D07F018A569F4F821793075CF12BC0833893
S11315E049F4209186013091870180917E01909188
S11315F07F011AC0843071F42091840130918501F7
S113160080917C0190917D018A569F4F82179307A8
S1131610ECF010C0843871F420918401309185017C
S113162080917C0190917D01865991092817390791
S11316300CF4C1E064E670E080E090E00E94E124F4
S1131640CC2309F47FCFCF910C94330A64E670E085
S113165080E090E00E94E124F6CF0F931F93CF9394
S11316600E94B024DC01CB01805F984DAF4FBF4F87
S11316708093640190936501A0936601B093670120
S1131680C0E00E94B0240091640110916501209192
S1131690660130916701601771078207930708F0AC
S11316A051C0CF3048F069EA71E08FE991E0CF9101
S11316B01F910F910C94012180918A0190918B01CB
S11316C08433984044F480918A0190918B01853849
S11316D093400CF045C08091880190918901843336
S11316E098403CF480918801909189018538934019
S11316F0CCF58091860190918701843398403CF425
S11317008091860190918701853893406CF5809192
S1131710840190918501843398403CF48091840144
S113172090918501853893400CF564EF71E080E079
S113173090E00E94E1246CED71E08FE991E00E9459
S1131740AD209FCFC111AFCF81E0809396016AEDA8
S113175071E08FE991E00E9401216DEA71E0A5CF6B
S1131760C160B9CFC260C5CFC460D1CFC860DDCF7E
S1131770CF9380918A0190918B0190937301809310
S113178072018091880190918901909371018093F5
S11317907001809186019091870190936F018093ED
S11317A06E01809184019091850190936D018093E5
S11317B06C01809182019091830120918A01309182
S11317C08B01AC014D5E5F4F421753077CF02091B3
S11317D08A0130918B014397281739073CF06AEF4F
S11317E070E080E090E00E94E124E3CF61E971E0E1
S11317F08FE991E00E940121C0E0809182019091E3
S1131800830120918A0130918B01AC014D5E5F4FC1
S1131810421753074CF020918A0130918B01439772
S1131820281739070CF0E8C080918001909181015C
S11318302091880130918901AC014D5E5F4F4217C0
S113184053074CF020918801309189014397281760
S113185039070CF0D3C080917E0190917F012091D3
S1131860860130918701AC014D5E5F4F42175307EB
S11318704CF020918601309187014397281739074E
S11318800CF0BEC080917C0190917D012091840177
S113189030918501AC014D5E5F4F421753074CF008
S11318A020918401309185014397281739070CF062
S11318B0A9C020918A0130918B018091720190918D
S11318C073012817390744F480918A0190918B01A0
S11318D09093730180937201209188013091890162
S11318E080917001909171012817390744F4809117
S11318F088019091890190937101809370012091E6
S113190086013091870180916E0190916F012817B3
S1131910390744F4809186019091870190936F0177
S113192080936E01209184013091850180916C0136
S113193090916D012817390744F4809184019091A6
S1131940850190936D0180936C0120918A013091FF
S11319508B0180917A0190917B018217930744F463
S113196080918A0190918B0190937B0180937A01FD
S113197020918801309189018091780190917901B9
S11319808217930744F48091880190918901909380
S113199079018093780120918601309187018091AB
S11319A07601909177018217930744F48091860120
S11319B0909187019093770180937601209184011F
S11319C0309185018091740190917501821793077C
S11319D044F48091840190918501909375018093E2
S11319E0740164E670E080E090E00E94E124CF306E
S11319F008F403CFCF910895C16016CFC2602BCFF6
S1131A00C46040CFC86055CF1F920F920FB60F929B
S1131A1011242F933F934F935F936F937F938F93EF
S1131A209F93AF93BF93EF93FF930E94BC24609363
S1131A30500170935101809352019093530120916E
S1131A409E01189B0EC021111BC021E020939E0112
S1131A5060936001709361018093620190936301CC
S1131A600FC0213069F410929E01209160013091E1
S1131A706101AB01421B530B50938B0140938A01CC
S1131A8020919D01199B0EC021111BC021E02093C0
S1131A909D0160935C0170935D0180935E0190935E
S1131AA05F010FC0213069F410929D0120915C0107
S1131AB030915D01AB01421B530B5093890140935C
S1131AC0880120919C011A9B0EC021111BC021E0AA
S1131AD020939C01609358017093590180935A019B
S1131AE090935B010FC0213069F410929C01209106
S1131AF0580130915901AB01421B530B509387019C
S1131B004093860120919B011B9B0EC021111AC09A
S1131B1021E020939B0160935401709355018093BD
S1131B205601909357010EC0213061F410929B012D
S1131B302091540130915501621B730B7093850100
S1131B4060938401FF91EF91BF91AF919F918F9129
S1131B507F916F915F914F913F912F910F900FBEA5
S1131B600F901F9018956BE171E08FE991E00E944E
S1131B7001216CED75E080E090E00E94E1246AE1CF
S1131B8071E08FE991E00E94012165E171E08FE944
S1131B9091E00E94012164EF71E080E090E00E94F6
S1131BA0E12467E071E08FE991E00E94012164EF94
S1131BB071E080E090E00E94E1246CEF70E08FE936
S1131BC091E00E94012164EF71E080E090E00E94C6
S1131BD0E1246BEE70E08FE991E00E94012168EE50
S1131BE073E080E090E00E94E1246AEE70E08FE907
S1131BF091E00E94012164ED70E08FE991E00E9480
S1131C00012163ED70E08FE991E00E9401216FE909
S1131C1070E08FE991E00E9401216CED75E080E0B5
S1131C2090E00E94E12463E770E08FE991E00E9474
S1131C30012162E770E08FE991E00E94012168E6EA
S1131C4070E08FE991E00C9401210F931F93CF93DF
S1131C50DF93EC018B01BC018CE392E00E94DA2358
S1131C60B8018CE392E00E9422098CE392E00E9486
S1131C705D2441E050E0BE018CE392E00E945924CF
S1131C800E94B024DC01CB0188519C4FAF4FBF4F61
S1131C908093640190936501A0936601B0936701FA
S1131CA08CE392E00E94282318161906C4F48CE3EE
S1131CB092E00E94302380939A01D0936B01C093E9
S1131CC06A014AE050E0682F8FE991E00E94F12117
S1131CD080919A01DF91CF911F910F9108950E94F5
S1131CE0B024009164011091650120916601309146
S1131CF06701601771078207930790F2D8CF80912C
S1131D0098018250823008F098C060916A01709105
S1131D106B018CE392E00E94DA2360E270E08CE3D2
S1131D2092E00E9422096FE070E08CE392E00E944E
S1131D3022098CE392E00E945D2460916A01709113
S1131D406B018CE392E00E94DA2360E270E08CE3A2
S1131D5092E00E9422098CE392E00E945D2460914B
S1131D606A0170916B0141E050E08CE392E00E94C3
S1131D7059248CE392E00E94282318161906CCF704
S1131D8068E672E08FE991E00E94AD208CE392E076
S1131D900E94302342E050E0BC018FE991E00E94B0
S1131DA0C82160916A0170916B018CE392E00E94FA
S1131DB0DA2363E270E08CE392E00E94220960E996
S1131DC070E08CE392E00E9422098CE392E00E948E
S1131DD05D2460916A0170916B018CE392E00E9432
S1131DE0DA2363E270E08CE392E00E9422098CE340
S1131DF092E00E945D2460916A0170916B0141E060
S1131E0050E08CE392E00E9459248CE392E00E941B
S1131E10282318161906CCF76FE472E08FE991E0D5
S1131E200E94AD208CE392E00E94302342E050E017
S1131E30BC018FE991E00E94C82180919801813012
S1131E4009F098C060916A0170916B018CE392E093
S1131E500E94DA236BE670E08CE392E00E94220990
S1131E6060E070E08CE392E00E9422098CE392E04F
S1131E700E945D2460916A0170916B018CE392E091
S1131E800E94DA236BE670E08CE392E00E94220960
S1131E908CE392E00E945D2460916A0170916B0171
S1131EA041E050E08CE392E00E9459248CE392E0FC
S1131EB00E94282318161906CCF766E372E08FE90E
S1131EC091E00E94AD208CE392E00E94302342E036
S1131ED050E0BC018FE991E00E94C82160916A0141
S1131EE070916B018CE392E00E94DA236BE170E065
S1131EF08CE392E00E94220968E070E08CE392E0B7
S1131F000E9422098CE392E00E945D2460916A01A0
S1131F1070916B018CE392E00E94DA236BE170E034
S1131F208CE392E00E9422098CE392E00E945D24FB
S1131F3060916A0170916B0141E050E08CE392E0A2
S1131F400E9459248CE392E00E9428231816190653
S1131F50CCF76DE172E08FE991E00E94AD208CE353
S1131F6092E00E94302342E050E0BC018FE991E00E
S1131F700C94C8210895EF92FF920F931F93CF936F
S1131F80DF93809198018250823008F0CEC0609136
S1131F906A0170916B018CE392E00E94DA2368EA93
S1131FA070E08CE392E00E9422098CE392E00E94AC
S1131FB05D2460916A0170916B0146E050E08CE30E
S1131FC092E00E9459248CE392E00E942823069711
S1131FD0D4F38CE392E00E94302380939A018CE343
S1131FE092E00E94302380939901F82EE12C809195
S1131FF09A01B701682B072E000C880B990B0E94DD
S11320007A1D609348017093490180934A0190932B
S11320104B012091680130916901203D374091F4D2
S1132020209140013091410140914201509143017E
S11320300E94941C609348017093490180934A0163
S113204090934B018CE392E00E94302380939A0199
S11320508CE392E00E94302380939901182F00E0D2
S113206080919A01B801682B072E000C880B990BFC
S11320700E947A1D60934C0170934D0180934E0130
S113208090934F012091680130916901203D3740C0
S113209091F420913C0130913D0140913E015091D9
S11320A03F010E94941C60934C0170934D018093F6
S11320B04E0190934F018CE392E00E943023809371
S11320C09A018CE392E00E94302380939901D82FE7
S11320D080E0C82F80919A01BE01682B072E000C66
S11320E0880B990B0E947A1D6093440170934501FB
S11320F080934601909347012091680130916901D2
S1132100203D374091F420913801309139014091BC
S11321103A0150913B010E94941C609344017093D6
S11321204501809346019093470180919801813045
S113213009F0C1C060916A0170916B018CE392E077
S11321400E94DA2363E470E08CE392E00E942209A7
S11321508CE392E00E945D2460916A0170916B01AE
S113216046E050E08CE392E00E9459248CE392E034
S11321700E9428230697D4F38CE392E00E94302334
S1132180C82F8CE392E00E94302360E070E07C2F43
S1132190862B972BBC01990F880B990B0E947A1DF3
S11321A0609348017093490180934A0190934B01D5
S11321B02091680130916901203D374091F42091CC
S11321C040013091410140914201509143010E94EC
S11321D0941C609348017093490180934A01909341
S11321E04B018CE392E00E943023C82F8CE392E0F1
S11321F00E94302360E070E07C2F862B972BBC017B
S1132200990F880B990B0E947A1D60934C0170936F
S11322104D0180934E0190934F01209168013091BC
S11322206901203D374091F420913C0130913D01FA
S113223040913E0150913F010E94941C60934C01D7
S113224070934D0180934E0190934F018CE392E083
S11322500E943023C82F8CE392E00E94302360E078
S113226070E07C2F862B972BBC01990F880B990B60
S11322700E947A1D60934401709345018093460146
S1132280909347012091680130916901203D3740C6
S113229091F4209138013091390140913A015091E3
S11322A03B010E94941C6093440170934501809308
S11322B0460190934701DF91CF911F910F91FF90B9
S11322C0EF9008954F925F926F927F928F929F92B8
S11322D0AF92BF92CF92DF92EF92FF920F931F9330
S11322E0CF93DF93D82F0E94BB0F0E94B024DC0150
S11322F0CB01805F984DAF4FBF4F809364019093A3
S11323006501A0936601B0936701812C912C54015F
S113231024013501750164010E94B0240091640117
S11323201091650120916601309167016017710772
S11323308207930708F03EC020E030E040EF51EC04
S1132340C701B6010E942A1E1816A4F520E030E049
S113235040EF51E4C701B6010E94011D87FF2AC066
S113236020E030E040EF51ECC301B2010E942A1E8C
S1132370181604F520E030E040EF51E4C301B20147
S11323800E94011D20E030E040EF51EC87FFAEC118
S1132390C501B4010E942A1E18160CF0AEC120E03B
S11323A030E040EF51E4C501B4010E94011D87FDF6
S11323B007C1AEC120E030E040EF51ECC701B601E7
S11323C00E94011D87FD0BC020E030E040EF51E486
S11323D0C701B6010E942A1E18160CF0AAC120E0FB
S11323E030E040EF51ECC301B2010E942A1E1816DE
S11323F00CF09FC120E030E040EF51E4C301B20192
S11324000E94011D87FF95C120E030E040EF51ECB0
S1132410C501B4010E942A1E18160CF08AC120E0DE
S113242030E040EF51E4C501B4010E94011D87FF73
S113243080C180918C01816080938C0120E030E028
S1132440A901C701B6010E94011D87FD02C0C1E0B8
S113245001C0C1E820E030E040EF51ECC301B2011B
S11324600E94011D87FD0AC020E030E040EF51E4E6
S1132470C301B2010E942A1E1816CCF520E030E0F8
S113248040EF51ECC701B6010E942A1E18167CF5D4
S113249020E030E040EF51E4C701B6010E94011D85
S11324A020E030E040EF51EC87FF0DC1C501B401DD
S11324B00E942A1E18160CF00EC120E030E040EFF6
S11324C051E4C501B4010E94011D87FF04C180913C
S11324D08C01826080938C0120E030E0A901C3016B
S11324E0B2010E94011D87FDF5C0C2E0F4C020E0E6
S11324F030E040EF51ECC501B4010E94011D87FD9D
S11325000AC020E030E040EF51E4C501B4010E946C
S11325102A1E1816C4F520E030E040EF51ECC70144
S1132520B6010E942A1E181674F520E030E040EF30
S113253051E4C701B6010E94011D87FF24C020E0B9
S113254030E040EF51ECC301B2010E942A1E18167C
S1132550D4F420E030E040EF51E4C301B2010E9422
S1132560011D87FF10C080918C01846080938C01D1
S113257020E030E0A901C501B4010E94011D87FDDE
S11325800EC0C3E00DC0C1110BC081E08093960161
S11325906FE471E08FE991E00E94012106C0C3E875
S11325A0D13019F4C0939001CDC0D23019F4C09346
S11325B08F01C8C0D33009F0C5C0C0938E01C2C01A
S11325C00E94BB0F809198019EEF980F923088F57E
S11325D027EF3CEC42E958E36091480170914901CE
S11325E080914A0190914B010E942F1E9B01AC01E6
S11325F0C701B6010E94951C6B017C0127EF3CECDE
S113260042E958E360914C0170914D0180914E0173
S113261090914F010E942F1E9B01AC01C301B20196
S11326200E94951C2B013C0127EF3CEC42E958E346
S113263033C0813009F042C020ED32E240E858E373
S1132640609148017091490180914A0190914B0138
S11326500E942F1E9B01AC01C701B6010E94951C6C
S11326606B017C0120ED32E240E858E360914C01BB
S113267070914D0180914E0190914F010E942F1E47
S11326809B01AC01C301B2010E94951C2B013C01CA
S113269020ED32E240E858E3609144017091450135
S11326A080914601909147010E942F1E9B01AC012D
S11326B0C501B4010E94951C4B015C0184E79EE0B6
S11326C00E941D2529CEC501B4010E94011D87FD6C
S11326D02CCF31C0C2E820E030E040EF51ECC5011E
S11326E0B4010E94011D87FD2ACF25C0C701B60190
S11326F00E94011D87FF16C07DCE20E030E040EF30
S113270051ECC701B6010E94011D87FF0BC07CCEAE
S113271020E030E040EF51ECC701B6010E94011DFA
S113272087FD7DCE20E030E040EF51E4C701B601E3
S11327305CCEC0E08FCE20E030E040EF51E4C50134
S1132740B401EFCEDF91CF911F910F91FF90EF90E5
S1132750DF90CF90BF90AF909F908F907F906F90BD
S11327605F904F9008950E94B30D63E971E18FE982
S113277091E00E9401216FE571E18FE991E00E94EF
S1132780012162E571E18FE991E00E9401216EE18E
S113279071E18FE991E00E94012168EE73E080E02D
S11327A090E00E94E12464E071E18FE991E00E94ED
S11327B0012168EE73E080E090E00E94E1248CE067
S11327C08093B800C1E0C09395018091B8008C302B
S11327D011F00C948A1C68ED70E18FE991E00E947D
S11327E001218091960181112CC067EA70E18FE983
S11327F091E00E94012163E770E18FE991E00E947A
S1132800012161E670E18FE991E00E9401216DE20E
S113281070E18FE991E00E94012168EE73E080E0AD
S113282090E00E94E12468E070E18FE991E00E9469
S1132830AD200E942D0B67E070E18FE991E00E94CA
S11328400121809196018111A1C060ED77E080E0C3
S113285090E00E94E1246FEB7FE08FE991E00E9419
S11328600121C9E0D0E068EE73E080E090E00E94CE
S1132870E1244AE050E0BE018FE991E00E94C021CA
S113288067E071E08FE991E00E94D720219759F722
S113289067E071E08FE991E00E94132180918A0141
S11328A090918B01909383018093820180918801A0
S11328B09091890190938101809380018091860198
S11328C09091870190937F0180937E018091840190
S11328D09091850190937D0180937C016EEB7FE064
S11328E08FE991E00E94012165EA7FE08FE991E0A0
S11328F00E94012161E97FE08FE991E00E94AD200F
S113290060918A0170918B014AE050E08FE991E077
S11329100E94C8216DE77FE08FE991E00E94AD201D
S113292060918801709189014AE050E08FE991E05B
S11329300E94C82169E67FE08FE991E00E94AD2002
S113294060918601709187014AE050E08FE991E03F
S11329500E94C82165E57FE08FE991E00E94AD20E7
S113296060918401709185014AE050E08FE991E023
S11329700E94C82164E57FE08FE991E00E94012173
S113298063E57FE08FE991E00E9401218091960147
S1132990811160C067E17FE08FE991E00E9401212D
S11329A081E00E9453096FEE7EE08FE991E00E947E
S11329B0AD2060919201677070E0695F7F4F4AE0DB
S11329C050E08FE991E00E94C8218091920187FF35
S11329D003C068ED7EE002C062EC7EE08FE991E026
S11329E00E9401210E94330A61EC7EE08FE991E0AC
S11329F00E94012160EC7EE08FE991E00E940121B8
S1132A0060E87EE08FE991E00E94012182E00E946B
S1132A1053096CE57EE08FE991E00E94AD2060915E
S1132A209401677070E0695F7F4F4AE050E08FE97E
S1132A3091E00E94C8218091940187FF03C065E45E
S1132A407EE002C06FE27EE08FE991E00E94012106
S1132A500E94330A80919601811136C06EE27EE0B5
S1132A608FE991E00E9401216DE27EE08FE991E01F
S1132A700E94012161EF7DE08FE991E00E94012134
S1132A8083E00E9453096CEC7DE08FE991E00E94A1
S1132A90AD2060919301677070E0695F7F4F4AE0F9
S1132AA050E08FE991E00E94C8218091930187FF53
S1132AB003C065EB7DE002C06FE97DE08FE991E042
S1132AC00E9401210E94330A80919601811136C02F
S1132AD06EE97DE08FE991E00E9401216DE97DE0DE
S1132AE08FE991E00E94012160E67DE08FE991E0A9
S1132AF00E94012184E00E9453096DE37DE08FE987
S1132B0091E00E94AD2060919101677070E0695F6F
S1132B107F4F4AE050E08FE991E00E94C821809104
S1132B20910187FF03C066E27DE002C060E17DE0C1
S1132B308FE991E00E9401210E94330A809196015D
S1132B408111F4C06FE07DE08FE991E00E940121E2
S1132B506EE07DE08FE991E00E94012163ED7CE06D
S1132B608FE991E00E9401216AE97CE08FE991E01C
S1132B700E9401210E94B80B69E97CE08FE991E091
S1132B800E94012168E97CE08FE991E00E94012123
S1132B9069E67CE08FE991E00E94012160E57CE038
S1132BA08FE991E00E94AD206091720170917301F0
S1132BB04AE050E08FE991E00E94C0216CE47CE09F
S1132BC08FE991E00E94AD206091820170918301B0
S1132BD04AE050E08FE991E00E94C02168E47CE083
S1132BE08FE991E00E94AD2060917A0170917B01A0
S1132BF04AE050E08FE991E00E94C8216FE27CE056
S1132C008FE991E00E94AD20609170017091710193
S1132C104AE050E08FE991E00E94C0216BE27CE041
S1132C208FE991E00E94AD20609180017091810153
S1132C304AE050E08FE991E00E94C02167E27CE025
S1132C408FE991E00E94AD20609178017091790143
S1132C504AE050E08FE991E00E94C8216EE07CE0F8
S1132C608FE991E00E94AD2060916E0170916F0137
S1132C704AE050E08FE991E00E94C0216AE07CE0E4
S1132C808FE991E00E94AD2060917E0170917F01F7
S1132C904AE050E08FE991E00E94C02166E07CE0C8
S1132CA08FE991E00E94AD206091760170917701E7
S1132CB04AE050E08FE991E00E94C8216DEE7BE08C
S1132CC08FE991E00E94AD2060916C0170916D01DB
S1132CD04AE050E08FE991E00E94C02169EE7BE078
S1132CE08FE991E00E94AD2060917C0170917D019B
S1132CF04AE050E08FE991E00E94C02165EE7BE05C
S1132D008FE991E00E94AD2060917401709175018A
S1132D104AE050E08FE991E00E94C82161EB7BE03A
S1132D208FE991E00E9401210E94A10A80919601FD
S1132D30811160C060EB7BE08FE991E00E9401218A
S1132D406CE77BE08FE991E00E94012160E77BE082
S1132D508FE991E00E9401216CE37BE08FE991E02F
S1132D600E94012160ED77E080E090E00E94E12480
S1132D7061E17BE08FE991E00E94012168EE73E05C
S1132D8080E090E00E94E12465E770E088E690E04E
S1132D900E94250E833731F462EF7AE08FE991E0E7
S1132DA00E9401211092960181E08093980188E6A7
S1132DB08093970168EB7BE080E090E00E94E1243F
S1132DC061EF7AE08FE991E00E9401216DEB7AE0F6
S1132DD08FE991E00E94012166EA7AE08FE991E0AF
S1132DE00E94012162E77AE08FE991E00E940121CB
S1132DF00E947F0E80919601811150C268EB7BE0A6
S1132E0080E090E00E94E12461E77AE08FE991E0BC
S1132E100E9401216DE37AE08FE991E00E94012193
S1132E206CE27AE08FE991E00E94012168EF79E099
S1132E308FE991E00E9401216CEB79E08FE991E048
S1132E400E94012168EB7BE080E090E00E94E12495
S1132E5069E879E08FE991E00E9401216DE779E06A
S1132E608FE991E00E94AD201092690110926801EF
S1132E70C4E6D0E08091680190916901803D27E02B
S1132E8092070CF06BC0BE010E944D28892B31F4CF
S1132E906BE779E08FE991E00E94AD200E94BB0FBF
S1132EA0209148013091490140914A0150914B01D0
S1132EB060914001709141018091420190914301E0
S1132EC00E94951C609340017093410180934201DC
S1132ED09093430120914C0130914D0140914E015A
S1132EE050914F0160913C0170913D0180913E01F0
S1132EF090913F010E94951C60933C0170933D01A9
S1132F0080933E0190933F0120914401309145010B
S1132F104091460150914701609138017091390107
S1132F2080913A0190913B010E94951C6093380175
S1132F307093390180933A0190933B0164E070E00F
S1132F4080E090E00E94E124809168019091690101
S1132F50019690936901809368018CCF20E030E062
S1132F604AEF54E460914001709141018091420123
S1132F70909143010E94061D6093400170934101AA
S1132F80809342019093430120E030E04AEF54E4FF
S1132F9060913C0170913D0180913E0190913F010F
S1132FA00E94061D60933C0170933D0180933E0195
S1132FB090933F0120E030E04AEF54E460913801FF
S1132FC07091390180913A0190913B010E94061D54
S1132FD0609338017093390180933A0190933B01D7
S1132FE06AE779E08FE991E00E9401216BE679E0DC
S1132FF08FE991E00E94AD20409140015091410140
S1133000609142017091430122E030E08FE991E048
S11330100E9416236CE579E08FE991E00E94AD20CF
S113302040913C0150913D0160913E0170913F01FE
S113303022E030E08FE991E00E9416236DE479E00C
S11330408FE991E00E94AD204091380150913901FF
S113305060913A0170913B0122E030E08FE991E008
S11330600E9416236CE479E08FE991E00E9401212B
S113307068E179E08FE991E00E94012160E079E064
S11330808FE991E00E9401216CEC78E08FE991E0F6
S11330900E94012160E878E08FE991E00E9401211B
S11330A081E00E94621180919601811146C06CE713
S11330B078E08FE991E00E94012169E678E08FE9E8
S11330C091E00E94AD2060919001637070E04AE04D
S11330D050E08FE991E00E94C8218091900187FF20
S11330E003C065E578E002C062E478E08FE991E02E
S11330F00E94012161E178E08FE991E00E940121C1
S11331006DED77E08FE991E00E9401210E94A10A10
S11331106CED77E08FE991E00E9401216BED77E09F
S11331208FE991E00E94012164E977E08FE991E061
S11331300E94012182E00E94621180919601811116
S113314046C060E977E08FE991E00E9401216DE7D4
S113315077E08FE991E00E94AD2060918F01637068
S113316070E04AE050E08FE991E00E94C82180912C
S11331708F0187FF03C069E677E002C066E577E068
S11331808FE991E00E94012165E277E08FE991E007
S11331900E94012161EF76E08FE991E00E94012114
S11331A00E94A10A60EF76E08FE991E00E9401217C
S11331B06FEE76E08FE991E00E94012164EA76E007
S11331C08FE991E00E94012183E00E9462118091C5
S11331D09601811163C060EA76E08FE991E00E9474
S11331E001216DE876E08FE991E00E94AD206091C5
S11331F08E01637070E04AE050E08FE991E00E9434
S1133200C82180918E0187FF03C069E776E002C080
S113321066E676E08FE991E00E94012165E376E0BD
S11332208FE991E00E94012161E076E08FE991E06D
S11332300E9401210E94A10A8091960181112EC051
S113324060E076E08FE991E00E9401216CEC75E08A
S11332508FE991E00E94012163EC75E08FE991E030
S11332600E9401216FE875E08FE991E00E9401213D
S113327061E08DE00E94C82565E775E08FE991E083
S11332800E94012161E475E08FE991E00E9401212F
S11332900E94A10A60E08DE00E94C82560E475E008
S11332A08FE991E00E94012180919601811154C01F
S11332B06CE075E08FE991E00E9401216AEF74E00F
S11332C08FE991E00E94012166EC74E08FE991E0BE
S11332D00E94012168EE73E080E090E00E94E12406
S11332E080918D018F3039F461EB74E08FE991E0C6
S11332F00E94012117C06FE774E08FE991E00E94FA
S1133300012160E071E08FE991E00E94D7204AE05A
S113331050E060918D018FE991E00E94F12181E0FC
S11333208093960168EE73E080E090E00E94E124CF
S113333080918C01873039F462E774E08FE991E081
S11333400E94012109C067E474E08FE991E00E94C2
S1133350012181E080939601809196018111B6C28A
S113336066E474E08FE991E00E94012162E174E077
S11333708FE991E00E94012167EF73E08FE991E00A
S11333800E94012163EC73E08FE991E00E94012126
S113339064EB73E08FE991E00E94012168EE73E031
S11333A080E090E00E94E1246EEA73E08FE991E00E
S11333B00E9401216091820180E090E00E94200936
S11333C06091830181E090E00E9420096091800176
S11333D082E090E00E9420096091810183E090E006
S11333E00E94200960917E0184E090E00E942009FF
S11333F060917F0185E090E00E94200960917C014A
S113340086E090E00E94200960917D0187E090E0D1
S11334100E94200960917A0188E090E00E942009CE
S113342060917B0189E090E00E942009609178011D
S11334308AE090E00E942009609179018BE090E09D
S11334400E942009609176018CE090E00E9420099E
S1133450609177018DE090E00E94200960917401F1
S11334608EE090E00E942009609175018FE090E069
S11334700E9420096091720180E190E00E9420097D
S11334806091730181E190E00E94200960917001D4
S113349082E190E00E9420096091710183E190E053
S11334A00E94200960916E0184E190E00E9420094D
S11334B060916F0185E190E00E94200960916C01A8
S11334C086E190E00E94200960916D0187E190E01F
S11334D00E9420096091940188E190E00E942009F3
S11334E06091930189E190E00E942009609192012A
S11334F08AE190E00E942009609191018BE190E0C3
S11335000E942009609190018CE190E00E942009C2
S113351060918F018DE190E00E94200960918E01FD
S11335208EE190E00E942009609198018FE190E083
S11335300E9420096091970180E290E00E94200996
S11335406AE481E290E00E9420096DE482E290E066
S11335500E94200962E483E290E00E9420096BE962
S113356073E08FE991E00E94012168EE73E080E04E
S113357090E00E94E12481E090E00E941E09C82F9F
S113358080E090E00E941E092C2F30E0322F222789
S1133590282B80918201909183012817390719F013
S11335A081E08093960183E090E00E941E09C82F79
S11335B082E090E00E941E092C2F30E0322F222757
S11335C0282B80918001909181012817390719F0E7
S11335D081E08093960185E090E00E941E09C82F47
S11335E084E090E00E941E092C2F30E0322F222725
S11335F0282B80917E0190917F012817390719F0BB
S113360081E08093960187E090E00E941E09C82F14
S113361086E090E00E941E092C2F30E0322F2227F2
S1133620282B80917C0190917D012817390719F08E
S113363081E08093960189E090E00E941E09C82FE2
S113364088E090E00E941E092C2F30E0322F2227C0
S1133650282B80917A0190917B012817390719F062
S113366081E0809396018BE090E00E941E09C82FB0
S11336708AE090E00E941E092C2F30E0322F22278E
S1133680282B80917801909179012817390719F036
S113369081E0809396018DE090E00E941E09C82F7E
S11336A08CE090E00E941E092C2F30E0322F22275C
S11336B0282B80917601909177012817390719F00A
S11336C081E0809396018FE090E00E941E09C82F4C
S11336D08EE090E00E941E092C2F30E0322F22272A
S11336E0282B80917401909175012817390719F0DE
S11336F081E08093960181E190E00E941E09C82F29
S113370080E190E00E941E092C2F30E0322F222706
S1133710282B80917201909173012817390719F0B1
S113372081E08093960183E190E00E941E09C82FF6
S113373082E190E00E941E092C2F30E0322F2227D4
S1133740282B80917001909171012817390719F085
S113375081E08093960185E190E00E941E09C82FC4
S113376084E190E00E941E092C2F30E0322F2227A2
S1133770282B80916E0190916F012817390719F059
S113378081E08093960187E190E00E941E09C82F92
S113379086E190E00E941E092C2F30E0322F222770
S11337A0282B80916C0190916D012817390719F02D
S11337B081E08093960188E190E00E941E09909137
S11337C09401891719F081E08093960189E190E0D2
S11337D00E941E0990919301891719F081E080934A
S11337E096018AE190E00E941E0990919201891746
S11337F019F081E0809396018BE190E00E941E090C
S113380090919101891719F081E0809396018CE1E0
S113381090E00E941E0990919001891719F081E0AF
S1133820809396018DE190E00E941E0990918F0192
S1133830891719F081E0809396018EE190E00E944F
S11338401E0990918E01891719F081E080939601E9
S11338508FE190E00E941E0990919801891719F058
S113386081E08093960180E290E00E941E0990918D
S11338709701891719F081E08093960181E290E025
S11338800E941E098A3419F081E08093960182E235
S113389090E00E941E098D3419F081E08093960116
S11338A083E290E00E941E09823419F081E0809343
S11338B0960180919601813019F463E773E002C0A8
S11338C061E673E08FE991E00E9401218091960105
S11338D081110DC06EE473E08FE991E00E94012133
S11338E061E173E08FE991E00E94012112C06BEE67
S11338F072E08FE991E00E94012169EB72E08FE9A7
S113390091E00E94012161E872E08FE991E00E9458
S11339100121FFCF68EA70E18FE991E00E94012163
S1133920C09396010C94F1135058BB27AA270E9408
S1133930AC1C0C94F01D0E94E21D38F00E94E91D9D
S113394020F039F49F3F19F426F40C94DF1D0EF493
S1133950E095E7FB0C94D91DE92F0E94011E58F352
S1133960BA17620773078407950720F079F4A6F560
S11339700C94231E0EF4E0950B2EBA2FA02D0B01F0
S1133980B90190010C01CA01A0011124FF27591BA0
S113399099F0593F50F4503E68F11A16F040A22FA6
S11339A0232F342F4427585FF3CF46953795279517
S11339B0A795F0405395C9F77EF41F16BA0B620B16
S11339C0730B840BBAF09150A1F0FF0FBB1F661F5D
S11339D0771F881FC2F70EC0BA0F621F731F841FA0
S11339E048F4879577956795B795F7959E3F08F0C6
S11339F0B0CF9395880F08F09927EE0F9795879588
S1133A0008950E94B51D08F481E008950E941A1DCE
S1133A100C94F01D0E94E91D58F00E94E21D40F034
S1133A2029F45F3F29F00C94D91D51110C94241EE4
S1133A300C94DF1D0E94011E68F39923B1F35523F2
S1133A4091F3951B550BBB27AA27621773078407AD
S1133A5038F09F5F5F4F220F331F441FAA1FA9F343
S1133A6035D00E2E3AF0E0E832D091505040E69531
S1133A70001CCAF72BD0FE2F29D0660F771F881F92
S1133A80BB1F261737074807AB07B0E809F0BB0B85
S1133A90802DBF01FF2793585F4F3AF09E3F510599
S1133AA078F00C94D91D0C94241E5F3FE4F3983EE7
S1133AB0D4F3869577956795B795F7959F5FC9F782
S1133AC0880F911D9695879597F90895E1E0660F03
S1133AD0771F881FBB1F621773078407BA0720F07C
S1133AE0621B730B840BBA0BEE1F88F7E0950895E5
S1133AF0E89409C097FB3EF4909580957095619584
S1133B007F4F8F4F9F4F9923A9F0F92F96E9BB2739
S1133B109395F695879577956795B795F111F8CFB5
S1133B20FAF4BB0F11F460FF1BC06F5F7F4F8F4F20
S1133B309F4F16C0882311F096E911C0772321F016
S1133B409EE8872F762F05C0662371F096E8862FAE
S1133B5070E060E02AF09A95660F771F881FDAF705
S1133B60880F9695879597F90895990F0008550F32
S1133B70AA0BE0E8FEEF16161706E807F907C0F0EF
S1133B8012161306E407F50798F0621B730B840BF7
S1133B90950B39F40A2661F0232B242B252B21F4D1
S1133BA008950A2609F4A140A6958FEF811D811D71
S1133BB0089597F99F6780E870E060E008959FEFAB
S1133BC080EC089500240A941616170618060906B0
S1133BD0089500240A94121613061406050608957F
S1133BE0092E0394000C11F4882352F0BB0F40F407
S1133BF0BF2B11F460FF04C06F5F7F4F8F4F9F4F47
S1133C00089557FD9058440F551F59F05F3F71F0C8
S1133C104795880F97FB991F61F09F3F79F087952F
S1133C200895121613061406551FF2CF4695F1DFB8
S1133C3008C0161617061806991FF1CF8695710548
S1133C40610508940895E894BB2766277727CB017C
S1133C5097F908950E94B51D08F48FEF08950E9406
S1133C60421E0C94F01D0E94E21D38F00E94E91DD2
S1133C7020F0952311F00C94D91D0C94DF1D112410
S1133C800C94241E0E94011E70F3959FC1F3950F9E
S1133C9050E0551F629FF001729FBB27F00DB11DCC
S1133CA0639FAA27F00DB11DAA1F649F6627B00D5C
S1133CB0A11D661F829F2227B00DA11D621F739F45
S1133CC0B00DA11D621F839FA00D611D221F749F53
S1133CD03327A00D611D231F849F600D211D822F9A
S1133CE0762F6A2F11249F5750409AF0F1F08823C1
S1133CF04AF0EE0FFF1FBB1F661F771F881F9150EE
S1133D005040A9F79E3F510580F00C94D91D0C94A6
S1133D10241E5F3FE4F3983ED4F386957795679528
S1133D20B795F795E7959F5FC1F7FE2B880F911D17
S1133D309695879597F90895FC01918D228D892F89
S1133D4090E0805C9F4F821B91098F73992708959F
S1133D50FC01918D828D981731F0828DE80FF11D51
S1133D60858D90E008958FEF9FEF0895FC01918D6C
S1133D70828D981761F0828DDF01A80FB11D5D96C9
S1133D808C91928D9F5F9F73928F90E008958FEF37
S1133D909FEF089587E390E2892B49F080E090E05B
S1133DA0892B29F00E94372081110E940000089578
S1133DB0FC01848DDF01A80FB11DA35ABF4F8C9164
S1133DC0248D30E02F5F3F4F2F733078332334F44A
S1133DD021503109206C3F6F2F5F3F4F248FA689FC
S1133DE0B7898C93A089B1898C9180648C93938DCD
S1133DF0848D981306C00288F389E02D80818F7D1D
S1133E0080830895CF93DF93EC01888D8823D9F0C4
S1133E10EA89FB89808185FD05C0A889B9898C91CF
S1133E2086FD11C00FB607FCF5CF808185FFF2CF68
S1133E3004C0CE010E94D81EEBCFA889B9898C9109
S1133E4085FFE8CFF6CFDF91CF9108950F931F93AD
S1133E50CF93DF93EC0181E0888F9B8D8C8D981339
S1133E6023C0E889F989808185FD2FC01DC09C8D00
S1133E7019130CC00FB607FCFACFE889F9898081C1
S1133E8085FFF5CFCE010E94D81EF1CF8B8DFE01A8
S1133E90E80FF11DE35AFF4F00831B8FEA89FB896A
S1133EA080818062808319C02B8D30E02F5F3F4F6B
S1133EB02F733078332334F421503109206C3F6F51
S1133EC02F5F3F4F062F122FD2CFEE89FF896083D9
S1133ED0E889F98980818064808381E090E0DF91C2
S1133EE0CF911F910F910895CF92DF92EF92FF929D
S1133EF01F93CF93DF93EC016A017B01122FE889B2
S1133F00F98982E080834115514E61057105B1F054
S1133F1060E079E08DE390E0A70196010E946128BA
S1133F20DA01C9010197A109B109B695A795979539
S1133F3087959C01211580E13807A8F0E889F98963
S1133F40108260E874E88EE190E0A70196010E9477
S1133F506128DA01C9010197A109B109B695A795AC
S1133F60979587959C01EC85FD853083EE85FF85CB
S1133F702083188EEC89FD891083EA89FB8980816E
S1133F8080618083EA89FB89808188608083EA89F3
S1133F90FB89808180688083EA89FB8980818F7DA9
S1133FA08083DF91CF911F91FF90EF90DF90CF90AE
S1133FB008951F920F920FB60F9211242F938F938F
S1133FC09F93AF93BF93EF93FF93E091AF01F09171
S1133FD0B001808182FD14C0EFE9F1E0A689B789C0
S1133FE02C91818D8F5F8F73928D891771F0DF0112
S1133FF0E18DF0E0E156FE4F258F59968C9305C074
S1134000E091B501F091B6018081FF91EF91BF91EC
S1134010AF919F918F912F910F900FBE0F901F9092
S113402018951F920F920FB60F9211242F933F935E
S11340304F935F936F937F938F939F93AF93BF93AC
S1134040EF93FF938FE991E00E94D81EFF91EF91C7
S1134050BF91AF919F918F917F916F915F914F919C
S11340603F912F910F900FBE0F901F9018958FE9DD
S113407091E00E949C1E21E0892B09F420E0822F0C
S11340800895EFE9F1E01382128288EE93E0A0E054
S1134090B0E084839583A683B7838DE091E0918318
S11340A0808385EC90E09587848784EC90E0978703
S11340B0868780EC90E0918B808B81EC90E0938BF1
S11340C0828B82EC90E0958B848B86EC90E0978BCE
S11340D0868B118E128E138E148E089508950E946D
S11340E028250E946E200E942909CAECDEE10E9464
S11340F0B3132097E1F30E94CA1EF9CFCF92DF9247
S1134100EF92FF920F931F93CF93DF9341155105C5
S1134110C1F06A018C01E62EF72EC0E0D0E0D70191
S11341206D917D01D801ED91FC910190F081E02D1C
S1134130C8010995892B39F02196CC16DD0679F74B
S113414002C0C0E0D0E0CE01DF91CF911F910F916A
S1134150FF90EF90DF90CF900895EF92FF920F932E
S11341601F93CF93DF93FB0164916623B1F07F012A
S11341708C01C0E0D0E0D801ED91FC910190F08178
S1134180E02DC8010995892B51F02196F701EC0F18
S1134190FD1F64916111EFCF02C0C0E0D0E0CE01F9
S11341A0DF91CF911F910F91FF90EF9008956115CA
S11341B0710581F0FB0101900020E9F73197AF010F
S11341C0461B570BDC01ED91FC910280F381E02D3D
S11341D00995089580E090E00895DC01ED91FC914B
S11341E00190F081E02D09950895DC01ED91FC9199
S11341F00280F381E02D42E050E069E171E009952D
S113420008950F931F93CF93DF93EC010E94AD2089
S11342108C01CE010E94F520800F911FDF91CF9178
S11342201F910F9108950F931F93CF93DF93EC0188
S11342300E94D7208C01CE010E94F520800F911F8F
S1134240DF91CF911F910F9108958F929F92AF921A
S1134250BF92EF92FF920F931F93CF93DF93CDB74B
S1134260DEB7A1970FB6F894DEBF0FBECDBF7C01B9
S1134270CB01BA0119A2223008F42AE08E010F5DA5
S11342801F4F822E912CA12CB12CA50194010E94C8
S11342906128E62F622F732F842F952F0150110967
S11342A0EA3010F4E05D01C0E95CD801EC936115DB
S11342B071058105910549F70115110591F0F80182
S11342C001900020E9F73197AF01401B510BD70152
S11342D0ED91FC910280F381E02DB801C7010995AD
S11342E002C080E090E0A1960FB6F894DEBF0FBE46
S11342F0CDBFDF91CF911F910F91FF90EF90BF90B1
S1134300AF909F908F900895CF92DF92EF92FF929B
S11343100F931F93CF93DF93EC016A017B01211567
S1134320310541F4E881F9810190F081E02D642F99
S113433009951DC02A303105C1F4772394F46DE248
S11343400E94ED208C0144275527BA014C195D09C0
S11343506E097F092AE0CE010E942521800F911F5A
S113436006C02AE00E94252102C00E942521DF9177
S1134370CF911F910F91FF90EF90DF90CF90089510
S11343809A01AB01770F660B770B0E948421089585
S11343900F931F93CF93DF93EC010E94C0218C01F4
S11343A0CE010E94F520800F911FDF91CF911F91C4
S11343B00F9108952115310549F4DC01ED91FC912B
S11343C00190F081E02D642F099508950E94252124
S11343D008959A01462F50E060E070E00E94DA21CF
S11343E008950F931F93CF93DF93EC010E94E9216B
S11343F08C01CE010E94F520800F911FDF91CF9197
S11344001F910F9108959A01AB0160E070E00E9442
S1134410DA2108957F928F929F92AF92BF92CF92AA
S1134420DF92EF92FF920F931F93CF93DF9300D00D
S113443000D0CDB7DEB78C014A015B01722E9A0120
S1134440AB01C501B4010E944828882331F06CE116
S113445071E0C8010E94D720D7C075016401E894B7
S1134460F7F82FEF3FEF4FE75FE7C701B6010E9470
S11344704828811110C02FEF3FEF4FE75FE7C701D6
S1134480B6010E94011D181634F460E271E0C801FF
S11344900E94D720B9C02FEF3FEF4FE75FE4C5017B
S11344A0B4010E942A1E181634F464E271E0C801B3
S11344B00E94D720A9C02FEF3FEF4FE75FECC50163
S11344C0B4010E94011D882334F464E271E0C80140
S11344D00E94D72099C020E030E0A901C501B401B1
S11344E00E94011D882354F46DE2C8010E94ED204E
S11344F07C01B7FAB094B7F8B09402C0E12CF12C67
S1134500772009F46EC0198260E070E080E09FE3D8
S113451020E030E040E251E40E94061D29812F5F33
S113452029837212F5CF2CC020E030E040E251E440
S1134530C501B4010E942F1E4B015C010E94192881
S11345406B017C014AE050E0C8010E9403222981EA
S11345503A81280F391F3A832983B60180E090E01D
S11345600E94781D9B01AC01C501B4010E94941CFA
S11345704B015C017A947110D7CF89819A8144C030
S11345809B01AC01C501B4010E94951C4B015C0167
S11345900E94192869837A838B839C830E94781DE7
S11345A09B01AC01C501B4010E94941C4B015C0148
S11345B02AE030E049815A816B817C81C8010E94E4
S11345C0DA219A8389836EE2C8010E94ED20298151
S11345D03A81820F931F9C012E0D3F1D3A8329833C
S11345E0A3CF20E030E040E05FE3C501B4010E94C6
S11345F0951C0E941928AB01BC012AE030E0C801D7
S11346000E94DA218E0D9F1D0F900F900F900F9036
S1134610DF91CF911F910F91FF90EF90DF90CF909A
S1134620BF90AF909F908F907F9008950F931F93AA
S1134630CF93DF93EC010E940A228C01CE010E94E9
S1134640F520800F911FDF91CF911F910F91089555
S113465080916C0290E020916D02821B9109089573
S113466090916D0280916C02981750F4E92FF0E05C
S1134670E259FD4F208130E09F5F90936D0202C0AC
S11346802FEF3FEFC9010895E0916D0280916C0214
S1134690E81730F4F0E0E259FD4F808190E008958E
S11346A08FEF9FEF08950895CF92DF92EF92FF92DC
S11346B00F931F93CF93DF938C01CB016A01209159
S11346C048022223A1F041155105A1F0EB017B0121
S11346D0E40EF51E6991D801ED91FC910190F081F1
S11346E0E02DC8010995CE15DF05A1F703C0642F9D
S11346F00E94B426C601DF91CF911F910F91FF90C4
S1134700EF90DF90CF900895CF93DF931F92CDB7B2
S1134710DEB7FC016983909148029923D9F0909106
S11347204902903238F081E090E09383828380E004
S113473090E017C080914A02E82FF0E0E55BFD4F5E
S1134740998190838F5F80934A028093490281E02C
S113475090E007C061E0CE0101960E94B42681E09A
S113476090E00F90DF91CF910895FC0113821282A3
S113477088EE93E0A0E0B0E084839583A683B783BA
S11347808CE291E091838083089510926D021092DF
S11347906C0210924A02109249020E94F825089570
S11347A081E08093480260936B0210924A02109257
S11347B0490208950E94D02308950F93062F21E003
S11347C0409149026BE472E080916B020E945E2684
S11347D010924A0210924902109248020F910895D1
S11347E04F925F926F927F92AF92BF92CF92EF926D
S11347F0FF920F931F93CF93DF935C01F62ED42F78
S113480028013901EE2049F10E94D0238E2D8430F5
S113481008F083E0CFEFC80F8823D9F08C2F880FDE
S1134820880F880FA301920104C0569547953795C8
S113483027958A95D2F7CA01B901D501ED91FC916A
S11348400190F081E02DC50109958C2FC150811193
S1134850E5CF60E0C5010E94DD234D2FD13208F081
S113486040E22C2D6EE672E08F2D0E9416261092E7
S11348706D0280936C02DF91CF911F910F91FF9095
S1134880EF90CF90BF90AF907F906F905F904F90DC
S11348900895CF92EF920F931F93C22EE12C00E064
S11348A010E098010E94F0231F910F91EF90CF9098
S11348B0089521E00E944924089561E00E94DD23C7
S11348C008958CE392E00E94B52308951F920F92FD
S11348D00FB60F9211242F933F938F939F93AF930F
S11348E0BF9380918F0290919002A0919102B09118
S11348F0920230918E0223E0230F2D3720F401968B
S1134900A11DB11D05C026E8230F0296A11DB11DEE
S113491020938E0280938F0290939002A093910231
S1134920B09392028091930290919402A091950287
S1134930B09196020196A11DB11D809393029093AC
S11349409402A0939502B0939602BF91AF919F9168
S11349508F913F912F910F900FBE0F901F9018953C
S11349602FB7F89460918F02709190028091910218
S1134970909192022FBF08953FB7F89480919302CB
S113498090919402A0919502B091960226B5A89BAD
S113499005C02F3F19F00196A11DB11D3FBFBA2FCD
S11349A0A92F982F8827820F911DA11DB11DBC012D
S11349B0CD0142E0660F771F881F991F4A95D1F7F2
S11349C008958F929F92AF92BF92CF92DF92EF920F
S11349D0FF926B017C010E94BC244B015C01C11459
S11349E0D104E104F10401F10E94F7250E94BC24E2
S11349F0DC01CB0188199909AA09BB09883E9340B7
S1134A00A105B10560F321E0C21AD108E108F1085B
S1134A1088EE880E83E0981EA11CB11CC114D10439
S1134A20E104F10419F7DBCFFF90EF90DF90CF9012
S1134A30BF90AF909F908F9008958230910538F089
S1134A40880F991F880F991F05970197F1F708950B
S1134A50789484B5826084BD84B5816084BD85B555
S1134A60826085BD85B5816085BDEEE6F0E080811C
S1134A7081608083E1E8F0E010828081826080833D
S1134A80808181608083E0E8F0E0808181608083C0
S1134A90E1EBF0E0808184608083E0EBF0E08081F2
S1134AA081608083EAE7F0E0808184608083808194
S1134AB0826080838081816080838081806880833C
S1134AC01092C1000895833081F028F4813099F068
S1134AD08230A1F008958730A9F08830B9F084308D
S1134AE0D1F4809180008F7D03C0809180008F7706
S1134AF080938000089584B58F7702C084B58F7D3C
S1134B0084BD08958091B0008F7703C08091B00078
S1134B108F7D8093B0000895CF93DF9390E0FC01E4
S1134B20E855FE4E2491FC01E454FE4E8491882302
S1134B3061F190E0880F991FFC01E652FE4EC59189
S1134B40D491FC01E053FE4EA591B491611109C0CA
S1134B509FB7F8948881209582238883EC912E2333
S1134B600BC0623061F49FB7F8948881322F30957E
S1134B7083238883EC912E2B2C939FBF06C08FB781
S1134B80F894E8812E2B28838FBFDF91CF9108956D
S1134B901F93CF93DF93282F30E0F901EC56FE4E9C
S1134BA08491F901E855FE4ED491F901E454FE4E86
S1134BB0C491CC23C1F0162F81110E946325EC2FE0
S1134BC0F0E0EE0FFF1FE053FE4EA591B4919FB7A6
S1134BD0F894111104C08C91D095D82302C0EC91A3
S1134BE0DE2BDC939FBFDF91CF911F910895089531
S1134BF01092040381E0809302031092010361E0A8
S1134C0082E10E94C82561E083E10E94C825E9EBA6
S1134C10F0E080818E7F808380818D7F808388E433
S1134C208093B80085E48093BC000895413208F075
S1134C3043C0909104039111FCCF91E0909304033D
S1134C40209302032FEF209397021092DC02240F8B
S1134C502093DB029093030390910303880F892B25
S1134C608093030380910103813061F41092010366
S1134C70809103038093BB008091BC0083FDF8CF37
S1134C8085EC01C085EE8093BC00809104038130E3
S1134C90E1F38091DC02841710F44091DC02ADED65
S1134CA0B2E0962FFB018E2F891B841718F48D9187
S1134CB08193F9CF842F089580E008950F934132B2
S1134CC008F04AC0909104039111FCCF32E0309374
S1134CD00403009302033FEF309397021092DC0227
S1134CE04093DB02562FADEDB2E0FB013E2F351BA6
S1134CF0341718F431913D93F9CF10920303309196
S1134D000303880F832B8093030380910103813075
S1134D1061F410920103809103038093BB0080919E
S1134D20BC0083FDF8CF85EC01C085EE8093BC0008
S1134D30222321F0809104038230D1F380919702E1
S1134D408F3F79F080919702803241F080919702F1
S1134D50803331F094E005C091E003C092E001C0DB
S1134D6093E0892F0F9108954091B902262F30E0E6
S1134D70240F311D21323105DCF420910403243049
S1134D80C9F4FC0180E090E0861758F43091B90230
S1134D902191DC01A554BD4FA30FB11D2C930196A5
S1134DA0F3CF8091B902680F6093B90280E008954F
S1134DB081E0089582E0089585ED8093BC008091A0
S1134DC0BC0084FDFCCF10920403089585EC80930D
S1134DD0BC001092040308951F920F920FB60F9215
S1134DE011242F933F934F935F936F937F938F93EC
S1134DF09F93AF93BF93EF93FF938091B900887F04
S1134E00803609F49EC078F5883209F45DC090F4C8
S1134E10803109F456C038F4882309F4F5C0883089
S1134E2009F44FC0F5C0883109F44EC0803209F44A
S1134E305FC0EEC0803409F46AC058F4803309F4CA
S1134E4057C0883309F0E4C0809397020E94E62695
S1134E50DFC0803509F44FC0883509F45DC088345B
S1134E6009F0D6C0D3C0883909F4C4C0A8F488377F
S1134E7009F467C038F4883609F463C0803709F44C
S1134E8060C0C6C0883809F4B5C0803909F45FC071
S1134E90803809F0BDC05BC0803B09F483C038F49E
S1134EA0803A09F466C0883A09F47CC0B1C0803CF9
S1134EB009F4A4C0883C09F4A1C0883B09F487C064
S1134EC0A7C08091030310C09091DC028091DB02A3
S1134ED0981770F5E091DC0281E08E0F8093DC027C
S1134EE0F0E0E352FD4F80818093BB0085EC83C0EA
S1134EF0809397028BC0E091DC0281E08E0F809357
S1134F00DC028091BB00F0E0E352FD4F808390917E
S1134F10DC028091DB026BC0E091DC0281E08E0F49
S1134F208093DC028091BB00F0E0E352FD4F80836C
S1134F308091020381116AC081E08093010384EAB5
S1134F405EC083E08093040310929802CFCF8091D7
S1134F509802803208F04EC0E091980281E08E0FF2
S1134F60809398028091BB00F0E0E756FD4F808368
S1134F70BDCF0E94E62680919802803230F4E09101
S1134F809802F0E0E756FD4F10826091980270E0BD
S1134F90E091FD02F091FE0289E992E009951092F8
S1134FA0980236C084E0809304031092BA021092EF
S1134FB0B902E091FF02F091000309958091B902D2
S1134FC0811105C081E08093B9021092BB02E09187
S1134FD0BA0281E08E0F8093BA02F0E0E554FD4FEF
S1134FE080818093BB009091BA028091B902981796
S1134FF008F47CCF85E88093BC000AC085EC8093DC
S1135000BC001092040304C0109297020E94DC2694
S1135010FF91EF91BF91AF919F918F917F916F918C
S11350205F914F913F912F910F900FBE0F901F9062
S113503018950E94091E88F09F5798F0B92F992758
S1135040B751B0F0E1F0660F771F881F991F1AF06F
S1135050BA95C9F714C0B13091F00E94231EB1E093
S113506008950C94231E672F782F8827B85F39F092
S1135070B93FCCF3869577956795B395D9F73EF408
S113508090958095709561957F4F8F4F9F4F0895B0
S11350900E94B51D880B990B089597FB072E16F4F3
S11350A0009407D077FD09D00E94832807FC05D01F
S11350B03EF4909581959F4F0895709561957F4F2B
S11350C00895A1E21A2EAA1BBB1BFD010DC0AA1F45
S11350D0BB1FEE1FFF1FA217B307E407F50720F05D
S11350E0A21BB30BE40BF50B661F771F881F991FD8
S11350F01A9469F760957095809590959B01AC0121
S1135100BD01CF010895AA1BBB1B51E107C0AA1F13
S1135110BB1FA617B70710F0A61BB70B881F991F54
S11351205A95A9F780959095BC01CD010895EE0F8D
S1135130FF1F0590F491E02D0994F999FECF92BDDB
S113514081BDF89A992780B50895262FF999FECF45
S11351501FBA92BD81BD20BD0FB6F894FA9AF99A90
S10D51600FBE01960895F894FFCFE6
S113516A496E707574733A200000000000261F7E91
S113517A209C1EB61EA81E021F0D0A006E616E0038
S113518A696E66006F76660000000000842354236B
S10B519A28233023442353238E
S9030000FC
